{
  "address": "0x22E9cd80fFbE5d05a093a07C3E7FBc40F83033C0",
  "abi": [
    {
      "inputs": [],
      "name": "DropNotFound",
      "type": "error"
    },
    {
      "inputs": [],
      "name": "EmptyDeposit",
      "type": "error"
    },
    {
      "inputs": [],
      "name": "IncorrectDeposit",
      "type": "error"
    },
    {
      "inputs": [],
      "name": "IncorrectInterface",
      "type": "error"
    },
    {
      "inputs": [],
      "name": "InsufficientMaxAmountPerAddress",
      "type": "error"
    },
    {
      "inputs": [],
      "name": "InsufficientRoyalties",
      "type": "error"
    },
    {
      "inputs": [],
      "name": "InsufficientSupply",
      "type": "error"
    },
    {
      "inputs": [],
      "name": "NothingToClaim",
      "type": "error"
    },
    {
      "inputs": [],
      "name": "UnauthorizedUpdate",
      "type": "error"
    },
    {
      "inputs": [],
      "name": "ZeroAddress",
      "type": "error"
    },
    {
      "anonymous": false,
      "inputs": [
        {
          "indexed": false,
          "internalType": "uint256",
          "name": "dropId",
          "type": "uint256"
        }
      ],
      "name": "DropCreated",
      "type": "event"
    },
    {
      "anonymous": false,
      "inputs": [
        {
          "indexed": false,
          "internalType": "uint256",
          "name": "dropId",
          "type": "uint256"
        }
      ],
      "name": "DropUpdated",
      "type": "event"
    },
    {
      "anonymous": false,
      "inputs": [
        {
          "indexed": false,
          "internalType": "uint8",
          "name": "version",
          "type": "uint8"
        }
      ],
      "name": "Initialized",
      "type": "event"
    },
    {
      "anonymous": false,
      "inputs": [
        {
          "indexed": true,
          "internalType": "address",
          "name": "previousOwner",
          "type": "address"
        },
        {
          "indexed": true,
          "internalType": "address",
          "name": "newOwner",
          "type": "address"
        }
      ],
      "name": "OwnershipTransferred",
      "type": "event"
    },
    {
      "inputs": [
        {
          "internalType": "address",
          "name": "_currencyPayout",
          "type": "address"
        },
        {
          "internalType": "address",
          "name": "_owner",
          "type": "address"
        },
        {
          "internalType": "address",
          "name": "_nft",
          "type": "address"
        },
        {
          "internalType": "uint256",
          "name": "_price",
          "type": "uint256"
        },
        {
          "internalType": "uint256",
          "name": "_supply",
          "type": "uint256"
        },
        {
          "internalType": "uint256",
          "name": "_royaltySharePerToken",
          "type": "uint256"
        },
        {
          "internalType": "uint256",
          "name": "_rightHolderFee",
          "type": "uint256"
        },
        {
          "internalType": "uint256[4]",
          "name": "_salesInfo",
          "type": "uint256[4]"
        },
        {
          "internalType": "bytes32",
          "name": "_merkle",
          "type": "bytes32"
        }
      ],
      "name": "create",
      "outputs": [],
      "stateMutability": "nonpayable",
      "type": "function"
    },
    {
      "inputs": [
        {
          "internalType": "uint256",
          "name": "",
          "type": "uint256"
        }
      ],
      "name": "drops",
      "outputs": [
        {
          "internalType": "uint256",
          "name": "dropId",
          "type": "uint256"
        },
        {
          "internalType": "uint256",
          "name": "sold",
          "type": "uint256"
        },
        {
          "internalType": "uint256",
          "name": "rightHolderFee",
          "type": "uint256"
        },
        {
          "internalType": "uint256",
          "name": "firstTokenIndex",
          "type": "uint256"
        },
        {
          "components": [
            {
              "internalType": "uint256",
              "name": "price",
              "type": "uint256"
            },
            {
              "internalType": "uint256",
              "name": "supply",
              "type": "uint256"
            },
            {
              "internalType": "uint256",
              "name": "royaltySharePerToken",
              "type": "uint256"
            }
          ],
          "internalType": "struct ABDropManager.TokenInfo",
          "name": "tokenInfo",
          "type": "tuple"
        },
        {
          "components": [
            {
              "internalType": "uint256",
              "name": "privateSaleMaxMint",
              "type": "uint256"
            },
            {
              "internalType": "uint256",
              "name": "privateSaleTime",
              "type": "uint256"
            },
            {
              "internalType": "uint256",
              "name": "publicSaleMaxMint",
              "type": "uint256"
            },
            {
              "internalType": "uint256",
              "name": "publicSaleTime",
              "type": "uint256"
            }
          ],
          "internalType": "struct ABDropManager.SaleInfo",
          "name": "salesInfo",
          "type": "tuple"
        },
        {
          "internalType": "address",
          "name": "currencyPayout",
          "type": "address"
        },
        {
          "internalType": "address",
          "name": "owner",
          "type": "address"
        },
        {
          "internalType": "address",
          "name": "nft",
          "type": "address"
        },
        {
          "internalType": "bytes32",
          "name": "merkleRoot",
          "type": "bytes32"
        }
      ],
      "stateMutability": "view",
      "type": "function"
    },
    {
      "inputs": [
        {
          "internalType": "address",
          "name": "_treasury",
          "type": "address"
        }
      ],
      "name": "initialize",
      "outputs": [],
      "stateMutability": "nonpayable",
      "type": "function"
    },
    {
      "inputs": [],
      "name": "owner",
      "outputs": [
        {
          "internalType": "address",
          "name": "",
          "type": "address"
        }
      ],
      "stateMutability": "view",
      "type": "function"
    },
    {
      "inputs": [],
      "name": "renounceOwnership",
      "outputs": [],
      "stateMutability": "nonpayable",
      "type": "function"
    },
    {
      "inputs": [
        {
          "internalType": "uint256",
          "name": "_dropId",
          "type": "uint256"
        },
        {
          "internalType": "bytes32",
          "name": "_merkle",
          "type": "bytes32"
        }
      ],
      "name": "setMerkleRoot",
      "outputs": [],
      "stateMutability": "nonpayable",
      "type": "function"
    },
    {
      "inputs": [
        {
          "internalType": "uint256",
          "name": "_dropId",
          "type": "uint256"
        },
        {
          "internalType": "uint256",
          "name": "_rightHolderFee",
          "type": "uint256"
        },
        {
          "internalType": "address",
          "name": "_owner",
          "type": "address"
        }
      ],
      "name": "setRightHolderInfo",
      "outputs": [],
      "stateMutability": "nonpayable",
      "type": "function"
    },
    {
      "inputs": [
        {
          "internalType": "uint256",
          "name": "_dropId",
          "type": "uint256"
        },
        {
          "internalType": "uint256[4]",
          "name": "_saleInfo",
          "type": "uint256[4]"
        }
      ],
      "name": "setSalesInfo",
      "outputs": [],
      "stateMutability": "nonpayable",
      "type": "function"
    },
    {
      "inputs": [
        {
          "internalType": "uint256",
          "name": "_dropId",
          "type": "uint256"
        },
        {
          "internalType": "uint256[3]",
          "name": "_tokenInfo",
          "type": "uint256[3]"
        }
      ],
      "name": "setTokenInfo",
      "outputs": [],
      "stateMutability": "nonpayable",
      "type": "function"
    },
    {
      "inputs": [
        {
          "internalType": "address",
          "name": "_newTreasury",
          "type": "address"
        }
      ],
      "name": "setTreasury",
      "outputs": [],
      "stateMutability": "nonpayable",
      "type": "function"
    },
    {
      "inputs": [
        {
          "internalType": "bytes4",
          "name": "interfaceId",
          "type": "bytes4"
        }
      ],
      "name": "supportsInterface",
      "outputs": [
        {
          "internalType": "bool",
          "name": "",
          "type": "bool"
        }
      ],
      "stateMutability": "view",
      "type": "function"
    },
    {
      "inputs": [
        {
          "internalType": "address",
          "name": "newOwner",
          "type": "address"
        }
      ],
      "name": "transferOwnership",
      "outputs": [],
      "stateMutability": "nonpayable",
      "type": "function"
    },
    {
      "inputs": [],
      "name": "treasury",
      "outputs": [
        {
          "internalType": "address",
          "name": "",
          "type": "address"
        }
      ],
      "stateMutability": "view",
      "type": "function"
    },
    {
      "inputs": [
        {
          "internalType": "uint256",
          "name": "_dropId",
          "type": "uint256"
        },
        {
          "internalType": "uint256",
          "name": "_quantity",
          "type": "uint256"
        }
      ],
      "name": "updateDropCounter",
      "outputs": [],
      "stateMutability": "nonpayable",
      "type": "function"
    }
  ],
  "transactionHash": "0x28e69ebd54dc80803556ee6f885a97827603865578a84415d29c55d43e28189e",
  "args": [],
  "numDeployments": 1,
  "solcInputHash": "b5c07ad18efac07673a97a644b1f3a70",
  "bytecode": "0x608060405234801561001057600080fd5b50611257806100206000396000f3fe608060405234801561001057600080fd5b50600436106100ba5760003560e01c806301981029146100bf57806301ffc9a7146100d457806305395b6f146100fc57806318712c211461010f578063595777cd146101225780635eb399681461013557806361d027b31461015e578063715018a6146101895780638da5cb5b14610191578063a113438c14610199578063aa40cbd8146101ac578063c4d66de8146101bf578063f0f44260146101d2578063f2fde38b146101e5575b600080fd5b6100d26100cd366004610ee6565b6101f8565b005b6100e76100e2366004610f13565b6102a3565b60405190151581526020015b60405180910390f35b6100d261010a366004610f3d565b6102e3565b6100d261011d366004610f70565b6103de565b6100d2610130366004610fae565b610433565b610148610143366004611034565b6105af565b6040516100f39a9998979695949392919061105a565b606754610171906001600160a01b031681565b6040516001600160a01b0390911681526020016100f3565b6100d261066e565b610171610682565b6100d26101a7366004610f70565b610691565b6100d26101ba3660046110fb565b610704565b6100d26101cd366004611130565b6107a5565b6100d26101e0366004611130565b610913565b6100d26101f3366004611130565b610964565b6102006109dd565b8035158061021057506040810135155b1561022e576040516374235bdf60e11b815260040160405180910390fd5b6000606683815481106102435761024361114b565b600091825260209182902084356007600f939093029091019182015583820135600882015560408085013560098301556060850135600a8301555185815290925060008051602061120283398151915291015b60405180910390a1505050565b60006301ffc9a760e01b6001600160e01b0319831614806102dd57506001600160e01b0319821660009081526065602052604090205460ff165b92915050565b6102eb6109dd565b602081013561030d57604051630cea840760e21b815260040160405180910390fd5b604081013561032f5760405163a844960960e01b815260040160405180910390fd5b6000606683815481106103445761034461114b565b600091825260208220600f9091020191508290602002013560048201558160026020020135600682015560018101541580156103b057506066805461038b90600190611177565b8154811061039b5761039b61114b565b90600052602060002090600f02016000015483145b156103c057602082013560058201555b60405183815260008051602061120283398151915290602001610296565b6103e66109dd565b6000606683815481106103fb576103fb61114b565b90600052602060002090600f020190508181600e01819055506000805160206112028339815191528360405161029691815260200190565b61043b6109dd565b6000841161045c5760405163a844960960e01b815260040160405180910390fd5b8135158061046c57506040820135155b1561048a576040516374235bdf60e11b815260040160405180910390fd5b600085116104ab57604051630cea840760e21b815260040160405180910390fd5b6001600160a01b0388166104d25760405163d92e233d60e01b815260040160405180910390fd5b6104e3876352a88fdd60e01b610a3c565b61050057604051630b7d5ce760e11b815260040160405180910390fd5b6105a48989898660405180606001604052808c81526020018b81526020018a8152506040518060800160405280896000600481106105405761054061114b565b602002013581526020018960016004811061055d5761055d61114b565b602002013581526020018960026004811061057a5761057a61114b565b60200201358152602001896003600481106105975761059761114b565b6020020135905287610a5f565b505050505050505050565b606681815481106105bf57600080fd5b6000918252602091829020600f9091020180546001820154600283015460038401546040805160608082018352600488015482526005880154828a0152600688015482840152825160808101845260078901548152600889015499810199909952600988015492890192909252600a87015491880191909152600b860154600c870154600d880154600e9098015496995094979396929591946001600160a01b0391821693908216929116908a565b6106766109dd565b6106806000610cea565b565b6033546001600160a01b031690565b6000606683815481106106a6576106a661114b565b60009182526020909120600f90910201600d8101549091506001600160a01b031633146106e657604051634f1f214760e01b815260040160405180910390fd5b818160010160008282546106fa919061118a565b9091555050505050565b61070c6109dd565b6001600160a01b0381166107335760405163d92e233d60e01b815260040160405180910390fd5b6000606684815481106107485761074861114b565b6000918252602091829020600f9091020160028101859055600c810180546001600160a01b0319166001600160a01b038616179055604051868152909250600080516020611202833981519152910160405180910390a150505050565b600054610100900460ff16158080156107c55750600054600160ff909116105b806107df5750303b1580156107df575060005460ff166001145b6108475760405162461bcd60e51b815260206004820152602e60248201527f496e697469616c697a61626c653a20636f6e747261637420697320616c72656160448201526d191e481a5b9a5d1a585b1a5e995960921b60648201526084015b60405180910390fd5b6000805460ff19166001179055801561086a576000805461ff0019166101001790555b6001600160a01b0382166108915760405163d92e233d60e01b815260040160405180910390fd5b606780546001600160a01b0319166001600160a01b03841617905560006068556108c163c35b377960e01b610d3c565b6108c9610dba565b801561090f576000805461ff0019169055604051600181527f7f26b83ff96e1f2b6a682f133852f6798a09c465da95921460cefb38474024989060200160405180910390a15b5050565b61091b6109dd565b6001600160a01b0381166109425760405163d92e233d60e01b815260040160405180910390fd5b606780546001600160a01b0319166001600160a01b0392909216919091179055565b61096c6109dd565b6001600160a01b0381166109d15760405162461bcd60e51b815260206004820152602660248201527f4f776e61626c653a206e6577206f776e657220697320746865207a65726f206160448201526564647265737360d01b606482015260840161083e565b6109da81610cea565b50565b336109e6610682565b6001600160a01b0316146106805760405162461bcd60e51b815260206004820181905260248201527f4f776e61626c653a2063616c6c6572206973206e6f7420746865206f776e6572604482015260640161083e565b6000610a4783610de9565b8015610a585750610a588383610e1c565b9392505050565b60685460009015610ae45760666001606854610a7b9190611177565b81548110610a8b57610a8b61114b565b90600052602060002090600f02016004016001015460666001606854610ab19190611177565b81548110610ac157610ac161114b565b90600052602060002090600f020160030154610add919061118a565b9050610ae8565b5060005b60666040518061014001604052806068548152602001600081526020018781526020018381526020018681526020018581526020018a6001600160a01b03168152602001896001600160a01b03168152602001886001600160a01b031681526020018481525090806001815401808255809150506001900390600052602060002090600f020160009091909190915060008201518160000155602082015181600101556040820151816002015560608201518160030155608082015181600401600082015181600001556020820151816001015560408201518160020155505060a08201518160070160008201518160000155602082015181600101556040820151816002015560608201518160030155505060c082015181600b0160006101000a8154816001600160a01b0302191690836001600160a01b0316021790555060e082015181600c0160006101000a8154816001600160a01b0302191690836001600160a01b0316021790555061010082015181600d0160006101000a8154816001600160a01b0302191690836001600160a01b0316021790555061012082015181600e015550507f01a6d33d95d2560a8c53f00317beb1d0364b3ecf2d43f647d2b4671df27f4f45606854604051610cc391815260200190565b60405180910390a160688054906000610cdb8361119d565b91905055505050505050505050565b603380546001600160a01b038381166001600160a01b0319831681179093556040519116919082907f8be0079c531659141344cd1fd0a4f28419497f9722a3daafe3b4186f6b6457e090600090a35050565b6001600160e01b03198082169003610d955760405162461bcd60e51b815260206004820152601c60248201527b115490cc4d8d4e881a5b9d985b1a59081a5b9d195c999858d9481a5960221b604482015260640161083e565b6001600160e01b0319166000908152606560205260409020805460ff19166001179055565b600054610100900460ff16610de15760405162461bcd60e51b815260040161083e906111b6565b610680610ea5565b6000610dfc826301ffc9a760e01b610e1c565b80156102dd5750610e15826001600160e01b0319610e1c565b1592915050565b604080516001600160e01b03198316602480830191909152825180830390910181526044909101909152602080820180516001600160e01b03166301ffc9a760e01b178152825160009392849283928392918391908a617530fa92503d91506000519050828015610e8e575060208210155b8015610e9a5750600081115b979650505050505050565b600054610100900460ff16610ecc5760405162461bcd60e51b815260040161083e906111b6565b61068033610cea565b80608081018310156102dd57600080fd5b60008060a08385031215610ef957600080fd5b82359150610f0a8460208501610ed5565b90509250929050565b600060208284031215610f2557600080fd5b81356001600160e01b031981168114610a5857600080fd5b60008060808385031215610f5057600080fd5b8235915083608084011115610f6457600080fd5b50926020919091019150565b60008060408385031215610f8357600080fd5b50508035926020909101359150565b80356001600160a01b0381168114610fa957600080fd5b919050565b60008060008060008060008060006101808a8c031215610fcd57600080fd5b610fd68a610f92565b9850610fe460208b01610f92565b9750610ff260408b01610f92565b965060608a0135955060808a0135945060a08a0135935060c08a0135925061101d8b60e08c01610ed5565b91506101608a013590509295985092959850929598565b60006020828403121561104657600080fd5b5035919050565b6001600160a01b03169052565b60006101e0820190508b82528a602083015289604083015288606083015287516080830152602088015160a0830152604088015160c0830152865160e08301526020870151610100830152604087015161012083015260608701516101408301526110c961016083018761104d565b6110d761018083018661104d565b6110e56101a083018561104d565b826101c08301529b9a5050505050505050505050565b60008060006060848603121561111057600080fd5b833592506020840135915061112760408501610f92565b90509250925092565b60006020828403121561114257600080fd5b610a5882610f92565b634e487b7160e01b600052603260045260246000fd5b634e487b7160e01b600052601160045260246000fd5b818103818111156102dd576102dd611161565b808201808211156102dd576102dd611161565b6000600182016111af576111af611161565b5060010190565b6020808252602b908201527f496e697469616c697a61626c653a20636f6e7472616374206973206e6f74206960408201526a6e697469616c697a696e6760a81b60608201526080019056fef55002a98d02ddb9603f2cb836d9e9adc8af240206243d88874ae4e7bb2ca02aa264697066735822122008ede14645615592c865e72144c4703e84bc34f43873aef242f418ca8595fc5364736f6c63430008100033",
  "devdoc": {
    "kind": "dev",
    "methods": {
      "create(address,address,address,uint256,uint256,uint256,uint256,uint256[4],bytes32)": {
        "params": {
          "_currencyPayout": ": address of the currency used for the royalty payout (zero-address if ETH)",
          "_merkle": ": merkle tree root used for whitelist",
          "_nft": ": NFT contract address",
          "_owner": ": right holder address",
          "_price": ": initial price in ETH of 1 NFT",
          "_rightHolderFee": ": right Holder fee on each mint (to be divided by 1e6)",
          "_royaltySharePerToken": ": total percentage of royalty evenly distributed among NFT holders (to be divided by 1e6)",
          "_salesInfo": ": Array of Timestamps at which the private and public sales are opened",
          "_supply": ": total number of NFT for this drop"
        }
      },
      "initialize(address)": {
        "params": {
          "_treasury": ": treasury address"
        }
      },
      "owner()": {
        "details": "Returns the address of the current owner."
      },
      "renounceOwnership()": {
        "details": "Leaves the contract without owner. It will not be possible to call `onlyOwner` functions anymore. Can only be called by the current owner. NOTE: Renouncing ownership will leave the contract without an owner, thereby removing any functionality that is only available to the owner."
      },
      "setMerkleRoot(uint256,bytes32)": {
        "params": {
          "_dropId": ":  drop identifier of the drop to be updated",
          "_merkle": ": the new merkle root to be set"
        }
      },
      "setRightHolderInfo(uint256,uint256,address)": {
        "params": {
          "_dropId": ":  drop identifier of the drop to be updated",
          "_owner": ": right holder address",
          "_rightHolderFee": ": fees paid to right holder"
        }
      },
      "setSalesInfo(uint256,uint256[4])": {
        "params": {
          "_dropId": ":  drop identifier of the drop to be updated",
          "_saleInfo": ": array containing the new information to be updated"
        }
      },
      "setTokenInfo(uint256,uint256[3])": {
        "params": {
          "_dropId": ":  drop identifier of the drop to be updated",
          "_tokenInfo": ": array containing the new informations to be updated"
        }
      },
      "setTreasury(address)": {
        "params": {
          "_newTreasury": ": new treasury address"
        }
      },
      "supportsInterface(bytes4)": {
        "details": "See {IERC165-supportsInterface}."
      },
      "transferOwnership(address)": {
        "details": "Transfers ownership of the contract to a new account (`newOwner`). Can only be called by the current owner."
      },
      "updateDropCounter(uint256,uint256)": {
        "params": {
          "_dropId": ": drop identifier",
          "_quantity": ": quantity of NFT sold"
        }
      }
    },
    "version": 1
  },
  "userdoc": {
    "errors": {
      "DropNotFound()": [
        {
          "notice": "Error returned if attempting to deposit reward for an inexistant drop*"
        }
      ],
      "EmptyDeposit()": [
        {
          "notice": "Error returned if the amount deposited is equal to 0*"
        }
      ],
      "IncorrectDeposit()": [
        {
          "notice": "Error returned if the sum of the _amounts in deposit is different than the ETH sent*"
        }
      ],
      "IncorrectInterface()": [
        {
          "notice": "Error returned if the contract passed as parameters does not implement the expected interface*"
        }
      ],
      "InsufficientMaxAmountPerAddress()": [
        {
          "notice": "Error returned if `maxAmountPerAddress` is smaller or equal to 0*"
        }
      ],
      "InsufficientRoyalties()": [
        {
          "notice": "Error returned if `royaltySharePerToken` is smaller or equal to 0*"
        }
      ],
      "InsufficientSupply()": [
        {
          "notice": "Error returned if `supply` is smaller or equal to 0*"
        }
      ],
      "NothingToClaim()": [
        {
          "notice": "Error returned if there is nothing to claim*"
        }
      ],
      "UnauthorizedUpdate()": [
        {
          "notice": "Error returned if an unauthorized address attempt to update the drop details*"
        }
      ],
      "ZeroAddress()": [
        {
          "notice": "Error returned if `owner` address is the zero address*"
        }
      ]
    },
    "kind": "user",
    "methods": {
      "create(address,address,address,uint256,uint256,uint256,uint256,uint256[4],bytes32)": {
        "notice": "Create a Drop  Only the contract owner can perform this operation"
      },
      "initialize(address)": {
        "notice": "Contract Initializer"
      },
      "setMerkleRoot(uint256,bytes32)": {
        "notice": "Update the merkle root (for allowlist) for the Drop `_dropId`  Only the contract owner can perform this operation"
      },
      "setRightHolderInfo(uint256,uint256,address)": {
        "notice": "Update the Drop `_dropId` drop information  Only the contract owner can perform this operation"
      },
      "setSalesInfo(uint256,uint256[4])": {
        "notice": "Update the Drop `_dropId` sale information  Only the contract owner can perform this operation"
      },
      "setTokenInfo(uint256,uint256[3])": {
        "notice": "Update the Drop `_dropId` token information  Only the contract owner can perform this operation  Return true if `tokenCount` and `supply` are updated, false otherwise"
      },
      "setTreasury(address)": {
        "notice": "Update the treasury address  Only the contract owner can perform this operation"
      },
      "updateDropCounter(uint256,uint256)": {
        "notice": "Update the Drop `_dropId` with new `_quantity` recently sold"
      }
    },
    "version": 1
  },
  "storageLayout": {
    "storage": [
      {
        "astId": 3885,
        "contract": "contracts/ABDropManager.sol:ABDropManager",
        "label": "_initialized",
        "offset": 0,
        "slot": "0",
        "type": "t_uint8"
      },
      {
        "astId": 3888,
        "contract": "contracts/ABDropManager.sol:ABDropManager",
        "label": "_initializing",
        "offset": 1,
        "slot": "0",
        "type": "t_bool"
      },
      {
        "astId": 4499,
        "contract": "contracts/ABDropManager.sol:ABDropManager",
        "label": "__gap",
        "offset": 0,
        "slot": "1",
        "type": "t_array(t_uint256)50_storage"
      },
      {
        "astId": 3757,
        "contract": "contracts/ABDropManager.sol:ABDropManager",
        "label": "_owner",
        "offset": 0,
        "slot": "51",
        "type": "t_address"
      },
      {
        "astId": 3877,
        "contract": "contracts/ABDropManager.sol:ABDropManager",
        "label": "__gap",
        "offset": 0,
        "slot": "52",
        "type": "t_array(t_uint256)49_storage"
      },
      {
        "astId": 9827,
        "contract": "contracts/ABDropManager.sol:ABDropManager",
        "label": "_supportedInterfaces",
        "offset": 0,
        "slot": "101",
        "type": "t_mapping(t_bytes4,t_bool)"
      },
      {
        "astId": 16559,
        "contract": "contracts/ABDropManager.sol:ABDropManager",
        "label": "drops",
        "offset": 0,
        "slot": "102",
        "type": "t_array(t_struct(Drop)16594_storage)dyn_storage"
      },
      {
        "astId": 16561,
        "contract": "contracts/ABDropManager.sol:ABDropManager",
        "label": "treasury",
        "offset": 0,
        "slot": "103",
        "type": "t_address"
      },
      {
        "astId": 16563,
        "contract": "contracts/ABDropManager.sol:ABDropManager",
        "label": "totalDrop",
        "offset": 0,
        "slot": "104",
        "type": "t_uint256"
      }
    ],
    "types": {
      "t_address": {
        "encoding": "inplace",
        "label": "address",
        "numberOfBytes": "20"
      },
      "t_array(t_struct(Drop)16594_storage)dyn_storage": {
        "base": "t_struct(Drop)16594_storage",
        "encoding": "dynamic_array",
        "label": "struct ABDropManager.Drop[]",
        "numberOfBytes": "32"
      },
      "t_array(t_uint256)49_storage": {
        "base": "t_uint256",
        "encoding": "inplace",
        "label": "uint256[49]",
        "numberOfBytes": "1568"
      },
      "t_array(t_uint256)50_storage": {
        "base": "t_uint256",
        "encoding": "inplace",
        "label": "uint256[50]",
        "numberOfBytes": "1600"
      },
      "t_bool": {
        "encoding": "inplace",
        "label": "bool",
        "numberOfBytes": "1"
      },
      "t_bytes32": {
        "encoding": "inplace",
        "label": "bytes32",
        "numberOfBytes": "32"
      },
      "t_bytes4": {
        "encoding": "inplace",
        "label": "bytes4",
        "numberOfBytes": "4"
      },
      "t_mapping(t_bytes4,t_bool)": {
        "encoding": "mapping",
        "key": "t_bytes4",
        "label": "mapping(bytes4 => bool)",
        "numberOfBytes": "32",
        "value": "t_bool"
      },
      "t_struct(Drop)16594_storage": {
        "encoding": "inplace",
        "label": "struct ABDropManager.Drop",
        "members": [
          {
            "astId": 16573,
            "contract": "contracts/ABDropManager.sol:ABDropManager",
            "label": "dropId",
            "offset": 0,
            "slot": "0",
            "type": "t_uint256"
          },
          {
            "astId": 16575,
            "contract": "contracts/ABDropManager.sol:ABDropManager",
            "label": "sold",
            "offset": 0,
            "slot": "1",
            "type": "t_uint256"
          },
          {
            "astId": 16577,
            "contract": "contracts/ABDropManager.sol:ABDropManager",
            "label": "rightHolderFee",
            "offset": 0,
            "slot": "2",
            "type": "t_uint256"
          },
          {
            "astId": 16579,
            "contract": "contracts/ABDropManager.sol:ABDropManager",
            "label": "firstTokenIndex",
            "offset": 0,
            "slot": "3",
            "type": "t_uint256"
          },
          {
            "astId": 16582,
            "contract": "contracts/ABDropManager.sol:ABDropManager",
            "label": "tokenInfo",
            "offset": 0,
            "slot": "4",
            "type": "t_struct(TokenInfo)16601_storage"
          },
          {
            "astId": 16585,
            "contract": "contracts/ABDropManager.sol:ABDropManager",
            "label": "salesInfo",
            "offset": 0,
            "slot": "7",
            "type": "t_struct(SaleInfo)16610_storage"
          },
          {
            "astId": 16587,
            "contract": "contracts/ABDropManager.sol:ABDropManager",
            "label": "currencyPayout",
            "offset": 0,
            "slot": "11",
            "type": "t_address"
          },
          {
            "astId": 16589,
            "contract": "contracts/ABDropManager.sol:ABDropManager",
            "label": "owner",
            "offset": 0,
            "slot": "12",
            "type": "t_address"
          },
          {
            "astId": 16591,
            "contract": "contracts/ABDropManager.sol:ABDropManager",
            "label": "nft",
            "offset": 0,
            "slot": "13",
            "type": "t_address"
          },
          {
            "astId": 16593,
            "contract": "contracts/ABDropManager.sol:ABDropManager",
            "label": "merkleRoot",
            "offset": 0,
            "slot": "14",
            "type": "t_bytes32"
          }
        ],
        "numberOfBytes": "480"
      },
      "t_struct(SaleInfo)16610_storage": {
        "encoding": "inplace",
        "label": "struct ABDropManager.SaleInfo",
        "members": [
          {
            "astId": 16603,
            "contract": "contracts/ABDropManager.sol:ABDropManager",
            "label": "privateSaleMaxMint",
            "offset": 0,
            "slot": "0",
            "type": "t_uint256"
          },
          {
            "astId": 16605,
            "contract": "contracts/ABDropManager.sol:ABDropManager",
            "label": "privateSaleTime",
            "offset": 0,
            "slot": "1",
            "type": "t_uint256"
          },
          {
            "astId": 16607,
            "contract": "contracts/ABDropManager.sol:ABDropManager",
            "label": "publicSaleMaxMint",
            "offset": 0,
            "slot": "2",
            "type": "t_uint256"
          },
          {
            "astId": 16609,
            "contract": "contracts/ABDropManager.sol:ABDropManager",
            "label": "publicSaleTime",
            "offset": 0,
            "slot": "3",
            "type": "t_uint256"
          }
        ],
        "numberOfBytes": "128"
      },
      "t_struct(TokenInfo)16601_storage": {
        "encoding": "inplace",
        "label": "struct ABDropManager.TokenInfo",
        "members": [
          {
            "astId": 16596,
            "contract": "contracts/ABDropManager.sol:ABDropManager",
            "label": "price",
            "offset": 0,
            "slot": "0",
            "type": "t_uint256"
          },
          {
            "astId": 16598,
            "contract": "contracts/ABDropManager.sol:ABDropManager",
            "label": "supply",
            "offset": 0,
            "slot": "1",
            "type": "t_uint256"
          },
          {
            "astId": 16600,
            "contract": "contracts/ABDropManager.sol:ABDropManager",
            "label": "royaltySharePerToken",
            "offset": 0,
            "slot": "2",
            "type": "t_uint256"
          }
        ],
        "numberOfBytes": "96"
      },
      "t_uint256": {
        "encoding": "inplace",
        "label": "uint256",
        "numberOfBytes": "32"
      },
      "t_uint8": {
        "encoding": "inplace",
        "label": "uint8",
        "numberOfBytes": "1"
      }
    }
  }
}