{
  "address": "0x7A003DFA1a0175F0b2bd1AA30AC762ceE88884bC",
  "abi": [
    {
      "inputs": [],
      "name": "DropNotFound",
      "type": "error"
    },
    {
      "inputs": [],
      "name": "EmptyDeposit",
      "type": "error"
    },
    {
      "inputs": [],
      "name": "IncorrectDeposit",
      "type": "error"
    },
    {
      "inputs": [],
      "name": "IncorrectInterface",
      "type": "error"
    },
    {
      "inputs": [],
      "name": "InsufficientMaxAmountPerAddress",
      "type": "error"
    },
    {
      "inputs": [],
      "name": "InsufficientRoyalties",
      "type": "error"
    },
    {
      "inputs": [],
      "name": "InsufficientSupply",
      "type": "error"
    },
    {
      "inputs": [],
      "name": "NothingToClaim",
      "type": "error"
    },
    {
      "inputs": [],
      "name": "UnauthorizedUpdate",
      "type": "error"
    },
    {
      "inputs": [],
      "name": "ZeroAddress",
      "type": "error"
    },
    {
      "anonymous": false,
      "inputs": [
        {
          "indexed": false,
          "internalType": "uint256",
          "name": "dropId",
          "type": "uint256"
        }
      ],
      "name": "DropCreated",
      "type": "event"
    },
    {
      "anonymous": false,
      "inputs": [
        {
          "indexed": false,
          "internalType": "uint256",
          "name": "dropId",
          "type": "uint256"
        },
        {
          "indexed": false,
          "internalType": "address",
          "name": "wrapper",
          "type": "address"
        }
      ],
      "name": "DropCreatedFromLiveNFT",
      "type": "event"
    },
    {
      "anonymous": false,
      "inputs": [
        {
          "indexed": false,
          "internalType": "uint256",
          "name": "dropId",
          "type": "uint256"
        }
      ],
      "name": "DropUpdated",
      "type": "event"
    },
    {
      "anonymous": false,
      "inputs": [
        {
          "indexed": false,
          "internalType": "uint8",
          "name": "version",
          "type": "uint8"
        }
      ],
      "name": "Initialized",
      "type": "event"
    },
    {
      "anonymous": false,
      "inputs": [
        {
          "indexed": true,
          "internalType": "address",
          "name": "previousOwner",
          "type": "address"
        },
        {
          "indexed": true,
          "internalType": "address",
          "name": "newOwner",
          "type": "address"
        }
      ],
      "name": "OwnershipTransferred",
      "type": "event"
    },
    {
      "inputs": [
        {
          "internalType": "address",
          "name": "_currencyPayout",
          "type": "address"
        },
        {
          "internalType": "address",
          "name": "_owner",
          "type": "address"
        },
        {
          "internalType": "address",
          "name": "_nft",
          "type": "address"
        },
        {
          "internalType": "uint256",
          "name": "_price",
          "type": "uint256"
        },
        {
          "internalType": "uint256",
          "name": "_supply",
          "type": "uint256"
        },
        {
          "internalType": "uint256",
          "name": "_royaltySharePerToken",
          "type": "uint256"
        },
        {
          "internalType": "uint256",
          "name": "_rightHolderFee",
          "type": "uint256"
        },
        {
          "internalType": "uint256[4]",
          "name": "_salesInfo",
          "type": "uint256[4]"
        },
        {
          "internalType": "bytes32",
          "name": "_merkle",
          "type": "bytes32"
        }
      ],
      "name": "create",
      "outputs": [],
      "stateMutability": "nonpayable",
      "type": "function"
    },
    {
      "inputs": [
        {
          "internalType": "address",
          "name": "_currencyPayout",
          "type": "address"
        },
        {
          "internalType": "address",
          "name": "_owner",
          "type": "address"
        },
        {
          "internalType": "address",
          "name": "_nft",
          "type": "address"
        },
        {
          "internalType": "uint256",
          "name": "_baseFlow",
          "type": "uint256"
        },
        {
          "internalType": "string",
          "name": "_baseUri",
          "type": "string"
        },
        {
          "internalType": "string",
          "name": "_name",
          "type": "string"
        },
        {
          "internalType": "string",
          "name": "_symbol",
          "type": "string"
        }
      ],
      "name": "createFromLive",
      "outputs": [],
      "stateMutability": "nonpayable",
      "type": "function"
    },
    {
      "inputs": [
        {
          "internalType": "uint256",
          "name": "",
          "type": "uint256"
        }
      ],
      "name": "drops",
      "outputs": [
        {
          "internalType": "uint256",
          "name": "dropId",
          "type": "uint256"
        },
        {
          "internalType": "uint256",
          "name": "sold",
          "type": "uint256"
        },
        {
          "internalType": "uint256",
          "name": "rightHolderFee",
          "type": "uint256"
        },
        {
          "internalType": "uint256",
          "name": "firstTokenIndex",
          "type": "uint256"
        },
        {
          "components": [
            {
              "internalType": "uint256",
              "name": "price",
              "type": "uint256"
            },
            {
              "internalType": "uint256",
              "name": "supply",
              "type": "uint256"
            },
            {
              "internalType": "uint256",
              "name": "royaltySharePerToken",
              "type": "uint256"
            }
          ],
          "internalType": "struct ABDropManager.TokenInfo",
          "name": "tokenInfo",
          "type": "tuple"
        },
        {
          "components": [
            {
              "internalType": "uint256",
              "name": "privateSaleMaxMint",
              "type": "uint256"
            },
            {
              "internalType": "uint256",
              "name": "privateSaleTime",
              "type": "uint256"
            },
            {
              "internalType": "uint256",
              "name": "publicSaleMaxMint",
              "type": "uint256"
            },
            {
              "internalType": "uint256",
              "name": "publicSaleTime",
              "type": "uint256"
            }
          ],
          "internalType": "struct ABDropManager.SaleInfo",
          "name": "salesInfo",
          "type": "tuple"
        },
        {
          "internalType": "address",
          "name": "currencyPayout",
          "type": "address"
        },
        {
          "internalType": "address",
          "name": "owner",
          "type": "address"
        },
        {
          "internalType": "address",
          "name": "nft",
          "type": "address"
        },
        {
          "internalType": "bytes32",
          "name": "merkleRoot",
          "type": "bytes32"
        }
      ],
      "stateMutability": "view",
      "type": "function"
    },
    {
      "inputs": [
        {
          "internalType": "address",
          "name": "_treasury",
          "type": "address"
        },
        {
          "internalType": "address",
          "name": "_messenger",
          "type": "address"
        },
        {
          "internalType": "address",
          "name": "_relay",
          "type": "address"
        }
      ],
      "name": "initialize",
      "outputs": [],
      "stateMutability": "nonpayable",
      "type": "function"
    },
    {
      "inputs": [],
      "name": "owner",
      "outputs": [
        {
          "internalType": "address",
          "name": "",
          "type": "address"
        }
      ],
      "stateMutability": "view",
      "type": "function"
    },
    {
      "inputs": [],
      "name": "renounceOwnership",
      "outputs": [],
      "stateMutability": "nonpayable",
      "type": "function"
    },
    {
      "inputs": [
        {
          "internalType": "uint256",
          "name": "_dropId",
          "type": "uint256"
        },
        {
          "internalType": "bytes32",
          "name": "_merkle",
          "type": "bytes32"
        }
      ],
      "name": "setMerkleRoot",
      "outputs": [],
      "stateMutability": "nonpayable",
      "type": "function"
    },
    {
      "inputs": [
        {
          "internalType": "uint256",
          "name": "_dropId",
          "type": "uint256"
        },
        {
          "internalType": "uint256",
          "name": "_rightHolderFee",
          "type": "uint256"
        },
        {
          "internalType": "address",
          "name": "_owner",
          "type": "address"
        }
      ],
      "name": "setRightHolderInfo",
      "outputs": [],
      "stateMutability": "nonpayable",
      "type": "function"
    },
    {
      "inputs": [
        {
          "internalType": "uint256",
          "name": "_dropId",
          "type": "uint256"
        },
        {
          "internalType": "uint256[4]",
          "name": "_saleInfo",
          "type": "uint256[4]"
        }
      ],
      "name": "setSalesInfo",
      "outputs": [],
      "stateMutability": "nonpayable",
      "type": "function"
    },
    {
      "inputs": [
        {
          "internalType": "uint256",
          "name": "_dropId",
          "type": "uint256"
        },
        {
          "internalType": "uint256[3]",
          "name": "_tokenInfo",
          "type": "uint256[3]"
        }
      ],
      "name": "setTokenInfo",
      "outputs": [],
      "stateMutability": "nonpayable",
      "type": "function"
    },
    {
      "inputs": [
        {
          "internalType": "address",
          "name": "_newTreasury",
          "type": "address"
        }
      ],
      "name": "setTreasury",
      "outputs": [],
      "stateMutability": "nonpayable",
      "type": "function"
    },
    {
      "inputs": [
        {
          "internalType": "bytes4",
          "name": "interfaceId",
          "type": "bytes4"
        }
      ],
      "name": "supportsInterface",
      "outputs": [
        {
          "internalType": "bool",
          "name": "",
          "type": "bool"
        }
      ],
      "stateMutability": "view",
      "type": "function"
    },
    {
      "inputs": [
        {
          "internalType": "address",
          "name": "newOwner",
          "type": "address"
        }
      ],
      "name": "transferOwnership",
      "outputs": [],
      "stateMutability": "nonpayable",
      "type": "function"
    },
    {
      "inputs": [],
      "name": "treasury",
      "outputs": [
        {
          "internalType": "address",
          "name": "",
          "type": "address"
        }
      ],
      "stateMutability": "view",
      "type": "function"
    },
    {
      "inputs": [
        {
          "internalType": "uint256",
          "name": "_dropId",
          "type": "uint256"
        },
        {
          "internalType": "uint256",
          "name": "_quantity",
          "type": "uint256"
        }
      ],
      "name": "updateDropCounter",
      "outputs": [],
      "stateMutability": "nonpayable",
      "type": "function"
    }
  ],
  "transactionHash": "0x778cc13d2ed540cd11c9a666aad7cdb0a2f0b87ece4b17fabb15b116354faf2a",
  "args": [],
  "numDeployments": 1,
  "solcInputHash": "2296e4115afe7cec28890c6a52ee23f7",
  "bytecode": "0x608060405234801561001057600080fd5b50613a62806100206000396000f3fe60806040523480156200001157600080fd5b5060043610620000d65760003560e01c80630198102914620000db57806301ffc9a714620000f457806305395b6f146200012057806318712c2114620001375780631ea7f597146200014e578063595777cd14620001655780635eb39968146200017c57806361d027b314620001ab578063715018a614620001ce5780638da5cb5b14620001d8578063a113438c14620001e2578063aa40cbd814620001f9578063c0c53b8b1462000210578063f0f442601462000227578063f2fde38b146200023e575b600080fd5b620000f2620000ec366004620015f7565b62000255565b005b6200010b6200010536600462001627565b62000308565b60405190151581526020015b60405180910390f35b620000f26200013136600462001653565b62000349565b620000f26200014836600462001688565b62000454565b620000f26200015f36600462001772565b620004b0565b620000f26200017636600462001845565b620004fc565b620001936200018d366004620018d4565b62000690565b604051620001179a99989796959493929190620018fb565b606754620001bf906001600160a01b031681565b604051620001179190620019a2565b620000f262000750565b620001bf62000768565b620000f2620001f336600462001688565b62000777565b620000f26200020a366004620019b6565b620007f0565b620000f262000221366004620019ee565b62000899565b620000f26200023836600462001a2f565b62000a83565b620000f26200024f36600462001a2f565b62000ad7565b6200025f62000b56565b803515806200027057506040810135155b156200028f576040516374235bdf60e11b815260040160405180910390fd5b600060668381548110620002a757620002a762001a4d565b600091825260209182902084356007600f939093029091019182015583820135600882015560408085013560098301556060850135600a8301555185815290925060008051602062003a0d83398151915291015b60405180910390a1505050565b60006301ffc9a760e01b6001600160e01b0319831614806200034357506001600160e01b0319821660009081526065602052604090205460ff165b92915050565b6200035362000b56565b60208101356200037657604051630cea840760e21b815260040160405180910390fd5b6040810135620003995760405163a844960960e01b815260040160405180910390fd5b600060668381548110620003b157620003b162001a4d565b600091825260208220600f90910201915082906020020135600482015581600260200201356006820155600181015415801562000423575060668054620003fb9060019062001a79565b815481106200040e576200040e62001a4d565b90600052602060002090600f02016000015483145b156200043457602082013560058201555b60405183815260008051602062003a0d83398151915290602001620002fb565b6200045e62000b56565b60006066838154811062000476576200047662001a4d565b90600052602060002090600f020190508181600e018190555060008051602062003a0d83398151915283604051620002fb91815260200190565b620004ba62000b56565b6001600160a01b038616620004e25760405163d92e233d60e01b815260040160405180910390fd5b620004f38787878787878762000bb9565b50505050505050565b6200050662000b56565b60008411620005285760405163a844960960e01b815260040160405180910390fd5b813515806200053957506040820135155b1562000558576040516374235bdf60e11b815260040160405180910390fd5b600085116200057a57604051630cea840760e21b815260040160405180910390fd5b6001600160a01b038816620005a25760405163d92e233d60e01b815260040160405180910390fd5b620005b5876352a88fdd60e01b6200103c565b620005d357604051630b7d5ce760e11b815260040160405180910390fd5b620006858989898660405180606001604052808c81526020018b81526020018a81525060405180608001604052808960006004811062000617576200061762001a4d565b602002013581526020018960016004811062000637576200063762001a4d565b602002013581526020018960026004811062000657576200065762001a4d565b602002013581526020018960036004811062000677576200067762001a4d565b602002013590528762001064565b505050505050505050565b60668181548110620006a157600080fd5b6000918252602091829020600f9091020180546001820154600283015460038401546040805160608082018352600488015482526005880154828a0152600688015482840152825160808101845260078901548152600889015499810199909952600988015492890192909252600a87015491880191909152600b860154600c870154600d880154600e9098015496995094979396929591946001600160a01b0391821693908216929116908a565b6200075a62000b56565b620007666000620013d9565b565b6033546001600160a01b031690565b6000606683815481106200078f576200078f62001a4d565b60009182526020909120600f90910201600d8101549091506001600160a01b03163314620007d057604051634f1f214760e01b815260040160405180910390fd5b81816001016000828254620007e6919062001a8f565b9091555050505050565b620007fa62000b56565b6001600160a01b038116620008225760405163d92e233d60e01b815260040160405180910390fd5b6000606684815481106200083a576200083a62001a4d565b6000918252602091829020600f9091020160028101859055600c810180546001600160a01b0319166001600160a01b03861617905560405186815290925060008051602062003a0d83398151915291015b60405180910390a150505050565b600054610100900460ff1615808015620008ba5750600054600160ff909116105b80620008d65750303b158015620008d6575060005460ff166001145b6200093f5760405162461bcd60e51b815260206004820152602e60248201527f496e697469616c697a61626c653a20636f6e747261637420697320616c72656160448201526d191e481a5b9a5d1a585b1a5e995960921b60648201526084015b60405180910390fd5b6000805460ff19166001179055801562000963576000805461ff0019166101001790555b6001600160a01b0384166200098b5760405163d92e233d60e01b815260040160405180910390fd5b6001600160a01b038316620009b35760405163d92e233d60e01b815260040160405180910390fd5b6001600160a01b038216620009db5760405163d92e233d60e01b815260040160405180910390fd5b606780546001600160a01b038087166001600160a01b031992831617909255606a80548684169083161790556069805492851692909116919091179055600060685562000a2f63c35b377960e01b6200142b565b62000a39620014ab565b801562000a7d576000805461ff0019169055604051600181527f7f26b83ff96e1f2b6a682f133852f6798a09c465da95921460cefb3847402498906020016200088b565b50505050565b62000a8d62000b56565b6001600160a01b03811662000ab55760405163d92e233d60e01b815260040160405180910390fd5b606780546001600160a01b0319166001600160a01b0392909216919091179055565b62000ae162000b56565b6001600160a01b03811662000b485760405162461bcd60e51b815260206004820152602660248201527f4f776e61626c653a206e6577206f776e657220697320746865207a65726f206160448201526564647265737360d01b606482015260840162000936565b62000b5381620013d9565b50565b3362000b6162000768565b6001600160a01b031614620007665760405162461bcd60e51b815260206004820181905260248201527f4f776e61626c653a2063616c6c6572206973206e6f7420746865206f776e6572604482015260640162000936565b6000806000606854111562000c4f576066600160685462000bdb919062001a79565b8154811062000bee5762000bee62001a4d565b90600052602060002090600f0201600401600101546066600160685462000c16919062001a79565b8154811062000c295762000c2962001a4d565b90600052602060002090600f02016003015462000c47919062001a8f565b905062000c53565b5060005b606854606a54606954604051600093926001600160a01b039081169216908b908a908a908a9062000c8490620015d7565b62000c96979695949392919062001aed565b604051809103906000f08015801562000cb3573d6000803e3d6000fd5b50905060666040518061014001604052806068548152602001600081526020016000815260200184815260200160405180606001604052806000815260200160008152602001600081525081526020016040518060800160405280600081526020016000815260200160008152602001600081525081526020018c6001600160a01b031681526020018b6001600160a01b03168152602001836001600160a01b031681526020018581525090806001815401808255809150506001900390600052602060002090600f020160009091909190915060008201518160000155602082015181600101556040820151816002015560608201518160030155608082015181600401600082015181600001556020820151816001015560408201518160020155505060a08201518160070160008201518160000155602082015181600101556040820151816002015560608201518160030155505060c082015181600b0160006101000a8154816001600160a01b0302191690836001600160a01b0316021790555060e082015181600c0160006101000a8154816001600160a01b0302191690836001600160a01b0316021790555061010082015181600d0160006101000a8154816001600160a01b0302191690836001600160a01b0316021790555061012082015181600e01555050806001600160a01b031663f2fde38b336040518263ffffffff1660e01b815260040162000ece9190620019a2565b600060405180830381600087803b15801562000ee957600080fd5b505af115801562000efe573d6000803e3d6000fd5b505050506000620151808862000f15919062001b61565b606a54606954606854604080516001600160a01b038881166024830152600b87900b604483015260648083019490945282518083039094018452608490910182526020830180516001600160e01b0316636959470d60e01b1790529051633dbb202b60e01b815294955092831693633dbb202b9362000f9f93169190629896809060040162001ba1565b600060405180830381600087803b15801562000fba57600080fd5b505af115801562000fcf573d6000803e3d6000fd5b5050606854604080519182526001600160a01b03861660208301527fe4337585d13e879469a69459905c116bbe495204542fb9d06f95094afc951e50935001905060405180910390a1606880549060006200102a8362001bdd565b91905055505050505050505050505050565b60006200104983620014df565b80156200105d57506200105d838362001517565b9392505050565b60685460009015620010f7576066600160685462001083919062001a79565b8154811062001096576200109662001a4d565b90600052602060002090600f02016004016001015460666001606854620010be919062001a79565b81548110620010d157620010d162001a4d565b90600052602060002090600f020160030154620010ef919062001a8f565b9050620010fb565b5060005b60666040518061014001604052806068548152602001600081526020018781526020018381526020018681526020018581526020018a6001600160a01b03168152602001896001600160a01b03168152602001886001600160a01b031681526020018481525090806001815401808255809150506001900390600052602060002090600f020160009091909190915060008201518160000155602082015181600101556040820151816002015560608201518160030155608082015181600401600082015181600001556020820151816001015560408201518160020155505060a08201518160070160008201518160000155602082015181600101556040820151816002015560608201518160030155505060c082015181600b0160006101000a8154816001600160a01b0302191690836001600160a01b0316021790555060e082015181600c0160006101000a8154816001600160a01b0302191690836001600160a01b0316021790555061010082015181600d0160006101000a8154816001600160a01b0302191690836001600160a01b0316021790555061012082015181600e015550506000620151808560000151600a620012bc919062001bf9565b620012c8919062001b61565b606a5460695460685460408051600b86900b60248201526044808201939093528151808203909301835260640181526020820180516001600160e01b0316631425537560e21b17905251633dbb202b60e01b81529394506001600160a01b0392831693633dbb202b936200134793169190629896809060040162001ba1565b600060405180830381600087803b1580156200136257600080fd5b505af115801562001377573d6000803e3d6000fd5b505050507f01a6d33d95d2560a8c53f00317beb1d0364b3ecf2d43f647d2b4671df27f4f45606854604051620013af91815260200190565b60405180910390a160688054906000620013c98362001bdd565b9190505550505050505050505050565b603380546001600160a01b038381166001600160a01b0319831681179093556040519116919082907f8be0079c531659141344cd1fd0a4f28419497f9722a3daafe3b4186f6b6457e090600090a35050565b6001600160e01b03198082169003620014865760405162461bcd60e51b815260206004820152601c60248201527b115490cc4d8d4e881a5b9d985b1a59081a5b9d195c999858d9481a5960221b604482015260640162000936565b6001600160e01b0319166000908152606560205260409020805460ff19166001179055565b600054610100900460ff16620014d55760405162461bcd60e51b8152600401620009369062001c8a565b62000766620015a2565b6000620014f4826301ffc9a760e01b62001517565b801562000343575062001510826001600160e01b031962001517565b1592915050565b604080516001600160e01b03198316602480830191909152825180830390910181526044909101909152602080820180516001600160e01b03166301ffc9a760e01b178152825160009392849283928392918391908a617530fa92503d915060005190508280156200158a575060208210155b8015620015975750600081115b979650505050505050565b600054610100900460ff16620015cc5760405162461bcd60e51b8152600401620009369062001c8a565b6200076633620013d9565b611d378062001cd683390190565b80608081018310156200034357600080fd5b60008060a083850312156200160b57600080fd5b823591506200161e8460208501620015e5565b90509250929050565b6000602082840312156200163a57600080fd5b81356001600160e01b0319811681146200105d57600080fd5b600080608083850312156200166757600080fd5b82359150836080840111156200167c57600080fd5b50926020919091019150565b600080604083850312156200169c57600080fd5b50508035926020909101359150565b80356001600160a01b0381168114620016c357600080fd5b919050565b634e487b7160e01b600052604160045260246000fd5b600082601f830112620016f057600080fd5b81356001600160401b03808211156200170d576200170d620016c8565b604051601f8301601f19908116603f01168101908282118183101715620017385762001738620016c8565b816040528381528660208588010111156200175257600080fd5b836020870160208301376000602085830101528094505050505092915050565b600080600080600080600060e0888a0312156200178e57600080fd5b6200179988620016ab565b9650620017a960208901620016ab565b9550620017b960408901620016ab565b94506060880135935060808801356001600160401b0380821115620017dd57600080fd5b620017eb8b838c01620016de565b945060a08a01359150808211156200180257600080fd5b620018108b838c01620016de565b935060c08a01359150808211156200182757600080fd5b50620018368a828b01620016de565b91505092959891949750929550565b60008060008060008060008060006101808a8c0312156200186557600080fd5b620018708a620016ab565b98506200188060208b01620016ab565b97506200189060408b01620016ab565b965060608a0135955060808a0135945060a08a0135935060c08a01359250620018bd8b60e08c01620015e5565b91506101608a013590509295985092959850929598565b600060208284031215620018e757600080fd5b5035919050565b6001600160a01b03169052565b60006101e0820190508b82528a602083015289604083015288606083015287516080830152602088015160a0830152604088015160c0830152865160e08301526020870151610100830152604087015161012083015260608701516101408301526200196c610160830187620018ee565b6200197c610180830186620018ee565b6200198c6101a0830185620018ee565b826101c08301529b9a5050505050505050505050565b6001600160a01b0391909116815260200190565b600080600060608486031215620019cc57600080fd5b8335925060208401359150620019e560408501620016ab565b90509250925092565b60008060006060848603121562001a0457600080fd5b62001a0f84620016ab565b925062001a1f60208501620016ab565b9150620019e560408501620016ab565b60006020828403121562001a4257600080fd5b6200105d82620016ab565b634e487b7160e01b600052603260045260246000fd5b634e487b7160e01b600052601160045260246000fd5b8181038181111562000343576200034362001a63565b8082018082111562000343576200034362001a63565b6000815180845260005b8181101562001acd5760208185018101518683018201520162001aaf565b506000602082860101526020601f19601f83011685010191505092915050565b8781526001600160a01b03878116602083015286811660408301528516606082015260e06080820181905260009062001b299083018662001aa5565b82810360a084015262001b3d818662001aa5565b905082810360c084015262001b53818562001aa5565b9a9950505050505050505050565b60008262001b7f57634e487b7160e01b600052601260045260246000fd5b600160ff1b82146000198414161562001b9c5762001b9c62001a63565b500590565b6001600160a01b038416815260606020820181905260009062001bc79083018562001aa5565b905063ffffffff83166040830152949350505050565b60006001820162001bf25762001bf262001a63565b5060010190565b60006001600160ff1b038184138284138082168684048611161562001c225762001c2262001a63565b600160ff1b600087128281168783058912161562001c445762001c4462001a63565b6000871292508782058712848416161562001c635762001c6362001a63565b8785058712818416161562001c7c5762001c7c62001a63565b505050929093029392505050565b6020808252602b908201527f496e697469616c697a61626c653a20636f6e7472616374206973206e6f74206960408201526a6e697469616c697a696e6760a81b60608201526080019056fe60806040523480156200001157600080fd5b5060405162001d3738038062001d37833981016040819052620000349162000206565b8181600062000044838262000369565b50600162000053828262000369565b505050620000706200006a620000ce60201b60201c565b620000d2565b6007879055600a80546001600160a01b038089166001600160a01b031992831617909255600880548884169083161790556009805492871692909116919091179055600b620000c0848262000369565b505050505050505062000435565b3390565b600680546001600160a01b038381166001600160a01b0319831681179093556040519116919082907f8be0079c531659141344cd1fd0a4f28419497f9722a3daafe3b4186f6b6457e090600090a35050565b80516001600160a01b03811681146200013c57600080fd5b919050565b634e487b7160e01b600052604160045260246000fd5b600082601f8301126200016957600080fd5b81516001600160401b038082111562000186576200018662000141565b604051601f8301601f19908116603f01168101908282118183101715620001b157620001b162000141565b81604052838152602092508683858801011115620001ce57600080fd5b600091505b83821015620001f25785820183015181830184015290820190620001d3565b600093810190920192909252949350505050565b600080600080600080600060e0888a0312156200022257600080fd5b87519650620002346020890162000124565b9550620002446040890162000124565b9450620002546060890162000124565b60808901519094506001600160401b03808211156200027257600080fd5b620002808b838c0162000157565b945060a08a01519150808211156200029757600080fd5b620002a58b838c0162000157565b935060c08a0151915080821115620002bc57600080fd5b50620002cb8a828b0162000157565b91505092959891949750929550565b600181811c90821680620002ef57607f821691505b6020821081036200031057634e487b7160e01b600052602260045260246000fd5b50919050565b601f8211156200036457600081815260208120601f850160051c810160208610156200033f5750805b601f850160051c820191505b8181101562000360578281556001016200034b565b5050505b505050565b81516001600160401b0381111562000385576200038562000141565b6200039d81620003968454620002da565b8462000316565b602080601f831160018114620003d55760008415620003bc5750858301515b600019600386901b1c1916600185901b17855562000360565b600085815260208120601f198616915b828110156200040657888601518255948401946001909101908401620003e5565b5085821015620004255787850151600019600388901b60f8161c191681555b5050505050600190811b01905550565b6118f280620004456000396000f3fe608060405234801561001057600080fd5b50600436106101075760003560e01c806301ffc9a71461010c57806306fdde0314610134578063081812fc14610149578063095ea7b31461017457806323b872dd146101895780632a778c9b1461019c57806342842e0e146101b357806355f804b3146101c65780636352211e146101d95780636f307dc3146101ec57806370a08231146101ff578063715018a6146102125780638da5cb5b1461021a57806395d89b4114610222578063a22cb4651461022a578063b88d4fde1461023d578063c87b56dd14610250578063de0e9a3e14610263578063e985e9c514610276578063ea598cb014610289578063f2fde38b1461029c575b600080fd5b61011f61011a3660046111eb565b6102af565b60405190151581526020015b60405180910390f35b61013c610301565b60405161012b9190611258565b61015c61015736600461126b565b610393565b6040516001600160a01b03909116815260200161012b565b6101876101823660046112a0565b6103ba565b005b6101876101973660046112ca565b6104d4565b6101a560075481565b60405190815260200161012b565b6101876101c13660046112ca565b610505565b6101876101d4366004611306565b610520565b61015c6101e736600461126b565b610535565b60095461015c906001600160a01b031681565b6101a561020d366004611377565b61056a565b6101876105f0565b61015c610604565b61013c610613565b610187610238366004611392565b610622565b61018761024b3660046113e4565b610631565b61013c61025e36600461126b565b610669565b61018761027136600461126b565b6106d0565b61011f6102843660046114bf565b61079b565b61018761029736600461126b565b6107c9565b6101876102aa366004611377565b610839565b60006001600160e01b031982166380ac58cd60e01b14806102e057506001600160e01b03198216635b5e139f60e01b145b806102fb57506301ffc9a760e01b6001600160e01b03198316145b92915050565b606060008054610310906114f2565b80601f016020809104026020016040519081016040528092919081815260200182805461033c906114f2565b80156103895780601f1061035e57610100808354040283529160200191610389565b820191906000526020600020905b81548152906001019060200180831161036c57829003601f168201915b5050505050905090565b600061039e826108af565b506000908152600460205260409020546001600160a01b031690565b60006103c582610535565b9050806001600160a01b0316836001600160a01b0316036104375760405162461bcd60e51b815260206004820152602160248201527f4552433732313a20617070726f76616c20746f2063757272656e74206f776e656044820152603960f91b60648201526084015b60405180910390fd5b336001600160a01b03821614806104535750610453813361079b565b6104c55760405162461bcd60e51b815260206004820152603e60248201527f4552433732313a20617070726f76652063616c6c6572206973206e6f7420746f60448201527f6b656e206f776e6572206e6f7220617070726f76656420666f7220616c6c0000606482015260840161042e565b6104cf83836108d4565b505050565b6104de3382610942565b6104fa5760405162461bcd60e51b815260040161042e9061152c565b6104cf8383836109a1565b6104cf83838360405180602001604052806000815250610631565b610528610b36565b600b6104cf8284836115c8565b6000818152600260205260408120546001600160a01b0316806102fb5760405162461bcd60e51b815260040161042e90611688565b60006001600160a01b0382166105d45760405162461bcd60e51b815260206004820152602960248201527f4552433732313a2061646472657373207a65726f206973206e6f7420612076616044820152683634b21037bbb732b960b91b606482015260840161042e565b506001600160a01b031660009081526003602052604090205490565b6105f8610b36565b6106026000610b95565b565b6006546001600160a01b031690565b606060018054610310906114f2565b61062d338383610be7565b5050565b61063b3383610942565b6106575760405162461bcd60e51b815260040161042e9061152c565b61066384848484610cb1565b50505050565b6060610674826108af565b600061067e610ce4565b9050600081511161069e57604051806020016040528060008152506106c9565b806106a884610cf3565b6040516020016106b99291906116ba565b6040516020818303038152906040525b9392505050565b6040516323b872dd60e01b815230906323b872dd906106f7903390849086906004016116e9565b600060405180830381600087803b15801561071157600080fd5b505af1158015610725573d6000803e3d6000fd5b50506009546040516323b872dd60e01b81526001600160a01b0390911692506323b872dd915061075d903090339086906004016116e9565b600060405180830381600087803b15801561077757600080fd5b505af115801561078b573d6000803e3d6000fd5b5050505061079881610df3565b50565b6001600160a01b03918216600090815260056020908152604080832093909416825291909152205460ff1690565b6009546040516323b872dd60e01b81526001600160a01b03909116906323b872dd906107fd903390309086906004016116e9565b600060405180830381600087803b15801561081757600080fd5b505af115801561082b573d6000803e3d6000fd5b505050506107983382610e88565b610841610b36565b6001600160a01b0381166108a65760405162461bcd60e51b815260206004820152602660248201527f4f776e61626c653a206e6577206f776e657220697320746865207a65726f206160448201526564647265737360d01b606482015260840161042e565b61079881610b95565b6108b881610ea2565b6107985760405162461bcd60e51b815260040161042e90611688565b600081815260046020526040902080546001600160a01b0319166001600160a01b038416908117909155819061090982610535565b6001600160a01b03167f8c5be1e5ebec7d5bd14f71427d1e84f3dd0314c0f7b2291e5b200ac8c7c3b92560405160405180910390a45050565b60008061094e83610535565b9050806001600160a01b0316846001600160a01b031614806109755750610975818561079b565b806109995750836001600160a01b031661098e84610393565b6001600160a01b0316145b949350505050565b826001600160a01b03166109b482610535565b6001600160a01b031614610a185760405162461bcd60e51b815260206004820152602560248201527f4552433732313a207472616e736665722066726f6d20696e636f72726563742060448201526437bbb732b960d91b606482015260840161042e565b6001600160a01b038216610a7a5760405162461bcd60e51b8152602060048201526024808201527f4552433732313a207472616e7366657220746f20746865207a65726f206164646044820152637265737360e01b606482015260840161042e565b610a85838383610ebf565b610a906000826108d4565b6001600160a01b0383166000908152600360205260408120805460019290610ab9908490611723565b90915550506001600160a01b0382166000908152600360205260408120805460019290610ae7908490611736565b909155505060008181526002602052604080822080546001600160a01b0319166001600160a01b03868116918217909255915184939187169160008051602061189d83398151915291a4505050565b33610b3f610604565b6001600160a01b0316146106025760405162461bcd60e51b815260206004820181905260248201527f4f776e61626c653a2063616c6c6572206973206e6f7420746865206f776e6572604482015260640161042e565b600680546001600160a01b038381166001600160a01b0319831681179093556040519116919082907f8be0079c531659141344cd1fd0a4f28419497f9722a3daafe3b4186f6b6457e090600090a35050565b816001600160a01b0316836001600160a01b031603610c445760405162461bcd60e51b815260206004820152601960248201527822a9219b99189d1030b8383937bb32903a379031b0b63632b960391b604482015260640161042e565b6001600160a01b03838116600081815260056020908152604080832094871680845294825291829020805460ff191686151590811790915591519182527f17307eab39ab6107e8899845ad3d59bd9653f200f220920489ca2b5937696c31910160405180910390a3505050565b610cbc8484846109a1565b610cc884848484610f75565b6106635760405162461bcd60e51b815260040161042e90611749565b6060600b8054610310906114f2565b606081600003610d1a5750506040805180820190915260018152600360fc1b602082015290565b8160005b8115610d445780610d2e8161179b565b9150610d3d9050600a836117ca565b9150610d1e565b6000816001600160401b03811115610d5e57610d5e6113ce565b6040519080825280601f01601f191660200182016040528015610d88576020820181803683370190505b5090505b841561099957610d9d600183611723565b9150610daa600a866117de565b610db5906030611736565b60f81b818381518110610dca57610dca6117f2565b60200101906001600160f81b031916908160001a905350610dec600a866117ca565b9450610d8c565b6000610dfe82610535565b9050610e0c81600084610ebf565b610e176000836108d4565b6001600160a01b0381166000908152600360205260408120805460019290610e40908490611723565b909155505060008281526002602052604080822080546001600160a01b0319169055518391906001600160a01b0384169060008051602061189d833981519152908390a45050565b61062d828260405180602001604052806000815250611076565b6000908152600260205260409020546001600160a01b0316151590565b600a546008546007546040516001600160a01b0393841693633dbb202b931691610eef91889188916024016116e9565b60408051601f198184030181529181526020820180516001600160e01b0316632a73d54560e21b1790525160e084901b6001600160e01b0319168152610f3e9291906298968090600401611808565b600060405180830381600087803b158015610f5857600080fd5b505af1158015610f6c573d6000803e3d6000fd5b50505050505050565b60006001600160a01b0384163b1561106b57604051630a85bd0160e11b81526001600160a01b0385169063150b7a0290610fb9903390899088908890600401611842565b6020604051808303816000875af1925050508015610ff4575060408051601f3d908101601f19168201909252610ff19181019061187f565b60015b611051573d808015611022576040519150601f19603f3d011682016040523d82523d6000602084013e611027565b606091505b5080516000036110495760405162461bcd60e51b815260040161042e90611749565b805181602001fd5b6001600160e01b031916630a85bd0160e11b149050610999565b506001949350505050565b61108083836110a9565b61108d6000848484610f75565b6104cf5760405162461bcd60e51b815260040161042e90611749565b6001600160a01b0382166110ff5760405162461bcd60e51b815260206004820181905260248201527f4552433732313a206d696e7420746f20746865207a65726f2061646472657373604482015260640161042e565b61110881610ea2565b156111545760405162461bcd60e51b815260206004820152601c60248201527b115490cdcc8c4e881d1bdad95b88185b1c9958591e481b5a5b9d195960221b604482015260640161042e565b61116060008383610ebf565b6001600160a01b0382166000908152600360205260408120805460019290611189908490611736565b909155505060008181526002602052604080822080546001600160a01b0319166001600160a01b038616908117909155905183929060008051602061189d833981519152908290a45050565b6001600160e01b03198116811461079857600080fd5b6000602082840312156111fd57600080fd5b81356106c9816111d5565b60005b8381101561122357818101518382015260200161120b565b50506000910152565b60008151808452611244816020860160208601611208565b601f01601f19169290920160200192915050565b6020815260006106c9602083018461122c565b60006020828403121561127d57600080fd5b5035919050565b80356001600160a01b038116811461129b57600080fd5b919050565b600080604083850312156112b357600080fd5b6112bc83611284565b946020939093013593505050565b6000806000606084860312156112df57600080fd5b6112e884611284565b92506112f660208501611284565b9150604084013590509250925092565b6000806020838503121561131957600080fd5b82356001600160401b038082111561133057600080fd5b818501915085601f83011261134457600080fd5b81358181111561135357600080fd5b86602082850101111561136557600080fd5b60209290920196919550909350505050565b60006020828403121561138957600080fd5b6106c982611284565b600080604083850312156113a557600080fd5b6113ae83611284565b9150602083013580151581146113c357600080fd5b809150509250929050565b634e487b7160e01b600052604160045260246000fd5b600080600080608085870312156113fa57600080fd5b61140385611284565b935061141160208601611284565b92506040850135915060608501356001600160401b038082111561143457600080fd5b818701915087601f83011261144857600080fd5b81358181111561145a5761145a6113ce565b604051601f8201601f19908116603f01168101908382118183101715611482576114826113ce565b816040528281528a602084870101111561149b57600080fd5b82602086016020830137600060208483010152809550505050505092959194509250565b600080604083850312156114d257600080fd5b6114db83611284565b91506114e960208401611284565b90509250929050565b600181811c9082168061150657607f821691505b60208210810361152657634e487b7160e01b600052602260045260246000fd5b50919050565b6020808252602e908201527f4552433732313a2063616c6c6572206973206e6f7420746f6b656e206f776e6560408201526d1c881b9bdc88185c1c1c9bdd995960921b606082015260800190565b601f8211156104cf57600081815260208120601f850160051c810160208610156115a15750805b601f850160051c820191505b818110156115c0578281556001016115ad565b505050505050565b6001600160401b038311156115df576115df6113ce565b6115f3836115ed83546114f2565b8361157a565b6000601f841160018114611627576000851561160f5750838201355b600019600387901b1c1916600186901b178355611681565b600083815260209020601f19861690835b828110156116585786850135825560209485019460019092019101611638565b50868210156116755760001960f88860031b161c19848701351681555b505060018560011b0183555b5050505050565b602080825260189082015277115490cdcc8c4e881a5b9d985b1a59081d1bdad95b88125160421b604082015260600190565b600083516116cc818460208801611208565b8351908301906116e0818360208801611208565b01949350505050565b6001600160a01b039384168152919092166020820152604081019190915260600190565b634e487b7160e01b600052601160045260246000fd5b818103818111156102fb576102fb61170d565b808201808211156102fb576102fb61170d565b60208082526032908201527f4552433732313a207472616e7366657220746f206e6f6e20455243373231526560408201527131b2b4bb32b91034b6b83632b6b2b73a32b960711b606082015260800190565b6000600182016117ad576117ad61170d565b5060010190565b634e487b7160e01b600052601260045260246000fd5b6000826117d9576117d96117b4565b500490565b6000826117ed576117ed6117b4565b500690565b634e487b7160e01b600052603260045260246000fd5b6001600160a01b038416815260606020820181905260009061182c9083018561122c565b905063ffffffff83166040830152949350505050565b6001600160a01b03858116825284166020820152604081018390526080606082018190526000906118759083018461122c565b9695505050505050565b60006020828403121561189157600080fd5b81516106c9816111d556feddf252ad1be2c89b69c2b068fc378daa952ba7f163c4a11628f55a4df523b3efa2646970667358221220a4d13ddefe5af2a152f236e8a558b791b5729848eafe09a5683bc1d3da539d8264736f6c63430008100033f55002a98d02ddb9603f2cb836d9e9adc8af240206243d88874ae4e7bb2ca02aa26469706673582212209dfce89884f21d6f8b4d0a3b22cf14e73bd505e9a744f12dfd5bba03cb9a22ea64736f6c63430008100033",
  "devdoc": {
    "kind": "dev",
    "methods": {
      "create(address,address,address,uint256,uint256,uint256,uint256,uint256[4],bytes32)": {
        "params": {
          "_currencyPayout": ": address of the currency used for the royalty payout (zero-address if ETH)",
          "_merkle": ": merkle tree root used for whitelist",
          "_nft": ": NFT contract address",
          "_owner": ": right holder address",
          "_price": ": initial price in ETH of 1 NFT",
          "_rightHolderFee": ": right Holder fee on each mint (to be divided by 1e6)",
          "_royaltySharePerToken": ": total percentage of royalty evenly distributed among NFT holders (to be divided by 1e6)",
          "_salesInfo": ": Array of Timestamps at which the private and public sales are opened",
          "_supply": ": total number of NFT for this drop"
        }
      },
      "createFromLive(address,address,address,uint256,string,string,string)": {
        "params": {
          "_baseFlow": ": number of AB Token to be streamed per day (in wei)",
          "_baseUri": ": token base URI",
          "_currencyPayout": ": address of the currency used for the royalty payout (zero-address if ETH)",
          "_name": ": name of the new NFT Wrapper contract",
          "_nft": ": NFT contract address",
          "_owner": ": right holder address",
          "_symbol": ": symbol / ticker of the new NFT Wrapper contract"
        }
      },
      "initialize(address,address,address)": {
        "params": {
          "_treasury": ": treasury address"
        }
      },
      "owner()": {
        "details": "Returns the address of the current owner."
      },
      "renounceOwnership()": {
        "details": "Leaves the contract without owner. It will not be possible to call `onlyOwner` functions anymore. Can only be called by the current owner. NOTE: Renouncing ownership will leave the contract without an owner, thereby removing any functionality that is only available to the owner."
      },
      "setMerkleRoot(uint256,bytes32)": {
        "params": {
          "_dropId": ":  drop identifier of the drop to be updated",
          "_merkle": ": the new merkle root to be set"
        }
      },
      "setRightHolderInfo(uint256,uint256,address)": {
        "params": {
          "_dropId": ":  drop identifier of the drop to be updated",
          "_owner": ": right holder address",
          "_rightHolderFee": ": fees paid to right holder"
        }
      },
      "setSalesInfo(uint256,uint256[4])": {
        "params": {
          "_dropId": ":  drop identifier of the drop to be updated",
          "_saleInfo": ": array containing the new information to be updated"
        }
      },
      "setTokenInfo(uint256,uint256[3])": {
        "params": {
          "_dropId": ":  drop identifier of the drop to be updated",
          "_tokenInfo": ": array containing the new informations to be updated"
        }
      },
      "setTreasury(address)": {
        "params": {
          "_newTreasury": ": new treasury address"
        }
      },
      "supportsInterface(bytes4)": {
        "details": "See {IERC165-supportsInterface}."
      },
      "transferOwnership(address)": {
        "details": "Transfers ownership of the contract to a new account (`newOwner`). Can only be called by the current owner."
      },
      "updateDropCounter(uint256,uint256)": {
        "params": {
          "_dropId": ": drop identifier",
          "_quantity": ": quantity of NFT sold"
        }
      }
    },
    "version": 1
  },
  "userdoc": {
    "errors": {
      "DropNotFound()": [
        {
          "notice": "Error returned if attempting to deposit reward for an inexistant drop*"
        }
      ],
      "EmptyDeposit()": [
        {
          "notice": "Error returned if the amount deposited is equal to 0*"
        }
      ],
      "IncorrectDeposit()": [
        {
          "notice": "Error returned if the sum of the _amounts in deposit is different than the ETH sent*"
        }
      ],
      "IncorrectInterface()": [
        {
          "notice": "Error returned if the contract passed as parameters does not implement the expected interface*"
        }
      ],
      "InsufficientMaxAmountPerAddress()": [
        {
          "notice": "Error returned if `maxAmountPerAddress` is smaller or equal to 0*"
        }
      ],
      "InsufficientRoyalties()": [
        {
          "notice": "Error returned if `royaltySharePerToken` is smaller or equal to 0*"
        }
      ],
      "InsufficientSupply()": [
        {
          "notice": "Error returned if `supply` is smaller or equal to 0*"
        }
      ],
      "NothingToClaim()": [
        {
          "notice": "Error returned if there is nothing to claim*"
        }
      ],
      "UnauthorizedUpdate()": [
        {
          "notice": "Error returned if an unauthorized address attempt to update the drop details*"
        }
      ],
      "ZeroAddress()": [
        {
          "notice": "Error returned if `owner` address is the zero address*"
        }
      ]
    },
    "kind": "user",
    "methods": {
      "create(address,address,address,uint256,uint256,uint256,uint256,uint256[4],bytes32)": {
        "notice": "Create a Drop  Only the contract owner can perform this operation"
      },
      "createFromLive(address,address,address,uint256,string,string,string)": {
        "notice": "Create a Drop from an existing NFT contract  Only the contract owner can perform this operation"
      },
      "initialize(address,address,address)": {
        "notice": "Contract Initializer"
      },
      "setMerkleRoot(uint256,bytes32)": {
        "notice": "Update the merkle root (for allowlist) for the Drop `_dropId`  Only the contract owner can perform this operation"
      },
      "setRightHolderInfo(uint256,uint256,address)": {
        "notice": "Update the Drop `_dropId` drop information  Only the contract owner can perform this operation"
      },
      "setSalesInfo(uint256,uint256[4])": {
        "notice": "Update the Drop `_dropId` sale information  Only the contract owner can perform this operation"
      },
      "setTokenInfo(uint256,uint256[3])": {
        "notice": "Update the Drop `_dropId` token information  Only the contract owner can perform this operation  Return true if `tokenCount` and `supply` are updated, false otherwise"
      },
      "setTreasury(address)": {
        "notice": "Update the treasury address  Only the contract owner can perform this operation"
      },
      "updateDropCounter(uint256,uint256)": {
        "notice": "Update the Drop `_dropId` with new `_quantity` recently sold"
      }
    },
    "version": 1
  },
  "storageLayout": {
    "storage": [
      {
        "astId": 3885,
        "contract": "contracts/ABDropManager.sol:ABDropManager",
        "label": "_initialized",
        "offset": 0,
        "slot": "0",
        "type": "t_uint8"
      },
      {
        "astId": 3888,
        "contract": "contracts/ABDropManager.sol:ABDropManager",
        "label": "_initializing",
        "offset": 1,
        "slot": "0",
        "type": "t_bool"
      },
      {
        "astId": 4499,
        "contract": "contracts/ABDropManager.sol:ABDropManager",
        "label": "__gap",
        "offset": 0,
        "slot": "1",
        "type": "t_array(t_uint256)50_storage"
      },
      {
        "astId": 3757,
        "contract": "contracts/ABDropManager.sol:ABDropManager",
        "label": "_owner",
        "offset": 0,
        "slot": "51",
        "type": "t_address"
      },
      {
        "astId": 3877,
        "contract": "contracts/ABDropManager.sol:ABDropManager",
        "label": "__gap",
        "offset": 0,
        "slot": "52",
        "type": "t_array(t_uint256)49_storage"
      },
      {
        "astId": 6413,
        "contract": "contracts/ABDropManager.sol:ABDropManager",
        "label": "_supportedInterfaces",
        "offset": 0,
        "slot": "101",
        "type": "t_mapping(t_bytes4,t_bool)"
      },
      {
        "astId": 6491,
        "contract": "contracts/ABDropManager.sol:ABDropManager",
        "label": "drops",
        "offset": 0,
        "slot": "102",
        "type": "t_array(t_struct(Drop)6537_storage)dyn_storage"
      },
      {
        "astId": 6493,
        "contract": "contracts/ABDropManager.sol:ABDropManager",
        "label": "treasury",
        "offset": 0,
        "slot": "103",
        "type": "t_address"
      },
      {
        "astId": 6495,
        "contract": "contracts/ABDropManager.sol:ABDropManager",
        "label": "totalDrop",
        "offset": 0,
        "slot": "104",
        "type": "t_uint256"
      },
      {
        "astId": 6497,
        "contract": "contracts/ABDropManager.sol:ABDropManager",
        "label": "relay",
        "offset": 0,
        "slot": "105",
        "type": "t_address"
      },
      {
        "astId": 6500,
        "contract": "contracts/ABDropManager.sol:ABDropManager",
        "label": "messenger",
        "offset": 0,
        "slot": "106",
        "type": "t_contract(IL1CrossDomainMessenger)53"
      }
    ],
    "types": {
      "t_address": {
        "encoding": "inplace",
        "label": "address",
        "numberOfBytes": "20"
      },
      "t_array(t_struct(Drop)6537_storage)dyn_storage": {
        "base": "t_struct(Drop)6537_storage",
        "encoding": "dynamic_array",
        "label": "struct ABDropManager.Drop[]",
        "numberOfBytes": "32"
      },
      "t_array(t_uint256)49_storage": {
        "base": "t_uint256",
        "encoding": "inplace",
        "label": "uint256[49]",
        "numberOfBytes": "1568"
      },
      "t_array(t_uint256)50_storage": {
        "base": "t_uint256",
        "encoding": "inplace",
        "label": "uint256[50]",
        "numberOfBytes": "1600"
      },
      "t_bool": {
        "encoding": "inplace",
        "label": "bool",
        "numberOfBytes": "1"
      },
      "t_bytes32": {
        "encoding": "inplace",
        "label": "bytes32",
        "numberOfBytes": "32"
      },
      "t_bytes4": {
        "encoding": "inplace",
        "label": "bytes4",
        "numberOfBytes": "4"
      },
      "t_contract(IL1CrossDomainMessenger)53": {
        "encoding": "inplace",
        "label": "contract IL1CrossDomainMessenger",
        "numberOfBytes": "20"
      },
      "t_mapping(t_bytes4,t_bool)": {
        "encoding": "mapping",
        "key": "t_bytes4",
        "label": "mapping(bytes4 => bool)",
        "numberOfBytes": "32",
        "value": "t_bool"
      },
      "t_struct(Drop)6537_storage": {
        "encoding": "inplace",
        "label": "struct ABDropManager.Drop",
        "members": [
          {
            "astId": 6516,
            "contract": "contracts/ABDropManager.sol:ABDropManager",
            "label": "dropId",
            "offset": 0,
            "slot": "0",
            "type": "t_uint256"
          },
          {
            "astId": 6518,
            "contract": "contracts/ABDropManager.sol:ABDropManager",
            "label": "sold",
            "offset": 0,
            "slot": "1",
            "type": "t_uint256"
          },
          {
            "astId": 6520,
            "contract": "contracts/ABDropManager.sol:ABDropManager",
            "label": "rightHolderFee",
            "offset": 0,
            "slot": "2",
            "type": "t_uint256"
          },
          {
            "astId": 6522,
            "contract": "contracts/ABDropManager.sol:ABDropManager",
            "label": "firstTokenIndex",
            "offset": 0,
            "slot": "3",
            "type": "t_uint256"
          },
          {
            "astId": 6525,
            "contract": "contracts/ABDropManager.sol:ABDropManager",
            "label": "tokenInfo",
            "offset": 0,
            "slot": "4",
            "type": "t_struct(TokenInfo)6544_storage"
          },
          {
            "astId": 6528,
            "contract": "contracts/ABDropManager.sol:ABDropManager",
            "label": "salesInfo",
            "offset": 0,
            "slot": "7",
            "type": "t_struct(SaleInfo)6553_storage"
          },
          {
            "astId": 6530,
            "contract": "contracts/ABDropManager.sol:ABDropManager",
            "label": "currencyPayout",
            "offset": 0,
            "slot": "11",
            "type": "t_address"
          },
          {
            "astId": 6532,
            "contract": "contracts/ABDropManager.sol:ABDropManager",
            "label": "owner",
            "offset": 0,
            "slot": "12",
            "type": "t_address"
          },
          {
            "astId": 6534,
            "contract": "contracts/ABDropManager.sol:ABDropManager",
            "label": "nft",
            "offset": 0,
            "slot": "13",
            "type": "t_address"
          },
          {
            "astId": 6536,
            "contract": "contracts/ABDropManager.sol:ABDropManager",
            "label": "merkleRoot",
            "offset": 0,
            "slot": "14",
            "type": "t_bytes32"
          }
        ],
        "numberOfBytes": "480"
      },
      "t_struct(SaleInfo)6553_storage": {
        "encoding": "inplace",
        "label": "struct ABDropManager.SaleInfo",
        "members": [
          {
            "astId": 6546,
            "contract": "contracts/ABDropManager.sol:ABDropManager",
            "label": "privateSaleMaxMint",
            "offset": 0,
            "slot": "0",
            "type": "t_uint256"
          },
          {
            "astId": 6548,
            "contract": "contracts/ABDropManager.sol:ABDropManager",
            "label": "privateSaleTime",
            "offset": 0,
            "slot": "1",
            "type": "t_uint256"
          },
          {
            "astId": 6550,
            "contract": "contracts/ABDropManager.sol:ABDropManager",
            "label": "publicSaleMaxMint",
            "offset": 0,
            "slot": "2",
            "type": "t_uint256"
          },
          {
            "astId": 6552,
            "contract": "contracts/ABDropManager.sol:ABDropManager",
            "label": "publicSaleTime",
            "offset": 0,
            "slot": "3",
            "type": "t_uint256"
          }
        ],
        "numberOfBytes": "128"
      },
      "t_struct(TokenInfo)6544_storage": {
        "encoding": "inplace",
        "label": "struct ABDropManager.TokenInfo",
        "members": [
          {
            "astId": 6539,
            "contract": "contracts/ABDropManager.sol:ABDropManager",
            "label": "price",
            "offset": 0,
            "slot": "0",
            "type": "t_uint256"
          },
          {
            "astId": 6541,
            "contract": "contracts/ABDropManager.sol:ABDropManager",
            "label": "supply",
            "offset": 0,
            "slot": "1",
            "type": "t_uint256"
          },
          {
            "astId": 6543,
            "contract": "contracts/ABDropManager.sol:ABDropManager",
            "label": "royaltySharePerToken",
            "offset": 0,
            "slot": "2",
            "type": "t_uint256"
          }
        ],
        "numberOfBytes": "96"
      },
      "t_uint256": {
        "encoding": "inplace",
        "label": "uint256",
        "numberOfBytes": "32"
      },
      "t_uint8": {
        "encoding": "inplace",
        "label": "uint8",
        "numberOfBytes": "1"
      }
    }
  }
}