{
  "address": "0x956ee3835AC5c8dC541FE58287Dd64a3f336b238",
  "abi": [
    {
      "inputs": [],
      "name": "DropNotFound",
      "type": "error"
    },
    {
      "inputs": [],
      "name": "EmptyDeposit",
      "type": "error"
    },
    {
      "inputs": [],
      "name": "IncorrectDeposit",
      "type": "error"
    },
    {
      "inputs": [],
      "name": "IncorrectInterface",
      "type": "error"
    },
    {
      "inputs": [],
      "name": "InsufficientMaxAmountPerAddress",
      "type": "error"
    },
    {
      "inputs": [],
      "name": "InsufficientRoyalties",
      "type": "error"
    },
    {
      "inputs": [],
      "name": "InsufficientSupply",
      "type": "error"
    },
    {
      "inputs": [],
      "name": "NothingToClaim",
      "type": "error"
    },
    {
      "inputs": [],
      "name": "UnauthorizedUpdate",
      "type": "error"
    },
    {
      "inputs": [],
      "name": "ZeroAddress",
      "type": "error"
    },
    {
      "anonymous": false,
      "inputs": [
        {
          "indexed": false,
          "internalType": "uint256",
          "name": "dropId",
          "type": "uint256"
        }
      ],
      "name": "DropCreated",
      "type": "event"
    },
    {
      "anonymous": false,
      "inputs": [
        {
          "indexed": false,
          "internalType": "uint256",
          "name": "dropId",
          "type": "uint256"
        }
      ],
      "name": "DropUpdated",
      "type": "event"
    },
    {
      "anonymous": false,
      "inputs": [
        {
          "indexed": false,
          "internalType": "uint8",
          "name": "version",
          "type": "uint8"
        }
      ],
      "name": "Initialized",
      "type": "event"
    },
    {
      "anonymous": false,
      "inputs": [
        {
          "indexed": true,
          "internalType": "address",
          "name": "previousOwner",
          "type": "address"
        },
        {
          "indexed": true,
          "internalType": "address",
          "name": "newOwner",
          "type": "address"
        }
      ],
      "name": "OwnershipTransferred",
      "type": "event"
    },
    {
      "inputs": [
        {
          "internalType": "address",
          "name": "_currencyPayout",
          "type": "address"
        },
        {
          "internalType": "address",
          "name": "_owner",
          "type": "address"
        },
        {
          "internalType": "address",
          "name": "_nft",
          "type": "address"
        },
        {
          "internalType": "uint256",
          "name": "_price",
          "type": "uint256"
        },
        {
          "internalType": "uint256",
          "name": "_supply",
          "type": "uint256"
        },
        {
          "internalType": "uint256",
          "name": "_royaltySharePerToken",
          "type": "uint256"
        },
        {
          "internalType": "uint256",
          "name": "_rightHolderFee",
          "type": "uint256"
        },
        {
          "internalType": "uint256[4]",
          "name": "_salesInfo",
          "type": "uint256[4]"
        },
        {
          "internalType": "bytes32",
          "name": "_merkle",
          "type": "bytes32"
        }
      ],
      "name": "create",
      "outputs": [],
      "stateMutability": "nonpayable",
      "type": "function"
    },
    {
      "inputs": [
        {
          "internalType": "uint256",
          "name": "",
          "type": "uint256"
        }
      ],
      "name": "drops",
      "outputs": [
        {
          "internalType": "uint256",
          "name": "dropId",
          "type": "uint256"
        },
        {
          "internalType": "uint256",
          "name": "sold",
          "type": "uint256"
        },
        {
          "internalType": "uint256",
          "name": "rightHolderFee",
          "type": "uint256"
        },
        {
          "internalType": "uint256",
          "name": "firstTokenIndex",
          "type": "uint256"
        },
        {
          "components": [
            {
              "internalType": "uint256",
              "name": "price",
              "type": "uint256"
            },
            {
              "internalType": "uint256",
              "name": "supply",
              "type": "uint256"
            },
            {
              "internalType": "uint256",
              "name": "royaltySharePerToken",
              "type": "uint256"
            }
          ],
          "internalType": "struct ABDropManager.TokenInfo",
          "name": "tokenInfo",
          "type": "tuple"
        },
        {
          "components": [
            {
              "internalType": "uint256",
              "name": "privateSaleMaxMint",
              "type": "uint256"
            },
            {
              "internalType": "uint256",
              "name": "privateSaleTime",
              "type": "uint256"
            },
            {
              "internalType": "uint256",
              "name": "publicSaleMaxMint",
              "type": "uint256"
            },
            {
              "internalType": "uint256",
              "name": "publicSaleTime",
              "type": "uint256"
            }
          ],
          "internalType": "struct ABDropManager.SaleInfo",
          "name": "salesInfo",
          "type": "tuple"
        },
        {
          "internalType": "address",
          "name": "currencyPayout",
          "type": "address"
        },
        {
          "internalType": "address",
          "name": "owner",
          "type": "address"
        },
        {
          "internalType": "address",
          "name": "nft",
          "type": "address"
        },
        {
          "internalType": "bytes32",
          "name": "merkleRoot",
          "type": "bytes32"
        }
      ],
      "stateMutability": "view",
      "type": "function"
    },
    {
      "inputs": [
        {
          "internalType": "address",
          "name": "_treasury",
          "type": "address"
        },
        {
          "internalType": "address",
          "name": "_messenger",
          "type": "address"
        },
        {
          "internalType": "address",
          "name": "_relay",
          "type": "address"
        }
      ],
      "name": "initialize",
      "outputs": [],
      "stateMutability": "nonpayable",
      "type": "function"
    },
    {
      "inputs": [],
      "name": "owner",
      "outputs": [
        {
          "internalType": "address",
          "name": "",
          "type": "address"
        }
      ],
      "stateMutability": "view",
      "type": "function"
    },
    {
      "inputs": [],
      "name": "renounceOwnership",
      "outputs": [],
      "stateMutability": "nonpayable",
      "type": "function"
    },
    {
      "inputs": [
        {
          "internalType": "uint256",
          "name": "_dropId",
          "type": "uint256"
        },
        {
          "internalType": "bytes32",
          "name": "_merkle",
          "type": "bytes32"
        }
      ],
      "name": "setMerkleRoot",
      "outputs": [],
      "stateMutability": "nonpayable",
      "type": "function"
    },
    {
      "inputs": [
        {
          "internalType": "uint256",
          "name": "_dropId",
          "type": "uint256"
        },
        {
          "internalType": "uint256",
          "name": "_rightHolderFee",
          "type": "uint256"
        },
        {
          "internalType": "address",
          "name": "_owner",
          "type": "address"
        }
      ],
      "name": "setRightHolderInfo",
      "outputs": [],
      "stateMutability": "nonpayable",
      "type": "function"
    },
    {
      "inputs": [
        {
          "internalType": "uint256",
          "name": "_dropId",
          "type": "uint256"
        },
        {
          "internalType": "uint256[4]",
          "name": "_saleInfo",
          "type": "uint256[4]"
        }
      ],
      "name": "setSalesInfo",
      "outputs": [],
      "stateMutability": "nonpayable",
      "type": "function"
    },
    {
      "inputs": [
        {
          "internalType": "uint256",
          "name": "_dropId",
          "type": "uint256"
        },
        {
          "internalType": "uint256[3]",
          "name": "_tokenInfo",
          "type": "uint256[3]"
        }
      ],
      "name": "setTokenInfo",
      "outputs": [],
      "stateMutability": "nonpayable",
      "type": "function"
    },
    {
      "inputs": [
        {
          "internalType": "address",
          "name": "_newTreasury",
          "type": "address"
        }
      ],
      "name": "setTreasury",
      "outputs": [],
      "stateMutability": "nonpayable",
      "type": "function"
    },
    {
      "inputs": [
        {
          "internalType": "bytes4",
          "name": "interfaceId",
          "type": "bytes4"
        }
      ],
      "name": "supportsInterface",
      "outputs": [
        {
          "internalType": "bool",
          "name": "",
          "type": "bool"
        }
      ],
      "stateMutability": "view",
      "type": "function"
    },
    {
      "inputs": [
        {
          "internalType": "address",
          "name": "newOwner",
          "type": "address"
        }
      ],
      "name": "transferOwnership",
      "outputs": [],
      "stateMutability": "nonpayable",
      "type": "function"
    },
    {
      "inputs": [],
      "name": "treasury",
      "outputs": [
        {
          "internalType": "address",
          "name": "",
          "type": "address"
        }
      ],
      "stateMutability": "view",
      "type": "function"
    },
    {
      "inputs": [
        {
          "internalType": "uint256",
          "name": "_dropId",
          "type": "uint256"
        },
        {
          "internalType": "uint256",
          "name": "_quantity",
          "type": "uint256"
        }
      ],
      "name": "updateDropCounter",
      "outputs": [],
      "stateMutability": "nonpayable",
      "type": "function"
    }
  ],
  "transactionHash": "0xbee494ab9a65dcbd586af0b4783d56117c235d580bb96e84419229d91fcecfb7",
  "args": [],
  "numDeployments": 1,
  "solcInputHash": "41b4ead010fa030ae6b6e49390a8d5aa",
  "bytecode": "0x608060405234801561001057600080fd5b506114b3806100206000396000f3fe608060405234801561001057600080fd5b50600436106100ba5760003560e01c806301981029146100bf57806301ffc9a7146100d457806305395b6f146100fc57806318712c211461010f578063595777cd146101225780635eb399681461013557806361d027b31461015e578063715018a6146101895780638da5cb5b14610191578063a113438c14610199578063aa40cbd8146101ac578063c0c53b8b146101bf578063f0f44260146101d2578063f2fde38b146101e5575b600080fd5b6100d26100cd366004611018565b6101f8565b005b6100e76100e2366004611045565b6102a3565b60405190151581526020015b60405180910390f35b6100d261010a36600461106f565b6102e3565b6100d261011d3660046110a2565b6103de565b6100d26101303660046110e0565b610433565b610148610143366004611166565b6105af565b6040516100f39a9998979695949392919061118c565b606754610171906001600160a01b031681565b6040516001600160a01b0390911681526020016100f3565b6100d261066e565b610171610682565b6100d26101a73660046110a2565b610691565b6100d26101ba36600461122d565b610704565b6100d26101cd366004611262565b6107a6565b6100d26101e036600461129c565b610982565b6100d26101f336600461129c565b6109d3565b610200610a4c565b8035158061021057506040810135155b1561022e576040516374235bdf60e11b815260040160405180910390fd5b600060668381548110610243576102436112b7565b600091825260209182902084356007600f939093029091019182015583820135600882015560408085013560098301556060850135600a8301555185815290925060008051602061145e83398151915291015b60405180910390a1505050565b60006301ffc9a760e01b6001600160e01b0319831614806102dd57506001600160e01b0319821660009081526065602052604090205460ff165b92915050565b6102eb610a4c565b602081013561030d57604051630cea840760e21b815260040160405180910390fd5b604081013561032f5760405163a844960960e01b815260040160405180910390fd5b600060668381548110610344576103446112b7565b600091825260208220600f9091020191508290602002013560048201558160026020020135600682015560018101541580156103b057506066805461038b906001906112e3565b8154811061039b5761039b6112b7565b90600052602060002090600f02016000015483145b156103c057602082013560058201555b60405183815260008051602061145e83398151915290602001610296565b6103e6610a4c565b6000606683815481106103fb576103fb6112b7565b90600052602060002090600f020190508181600e018190555060008051602061145e8339815191528360405161029691815260200190565b61043b610a4c565b6000841161045c5760405163a844960960e01b815260040160405180910390fd5b8135158061046c57506040820135155b1561048a576040516374235bdf60e11b815260040160405180910390fd5b600085116104ab57604051630cea840760e21b815260040160405180910390fd5b6001600160a01b0388166104d25760405163d92e233d60e01b815260040160405180910390fd5b6104e3876352a88fdd60e01b610aab565b61050057604051630b7d5ce760e11b815260040160405180910390fd5b6105a48989898660405180606001604052808c81526020018b81526020018a815250604051806080016040528089600060048110610540576105406112b7565b602002013581526020018960016004811061055d5761055d6112b7565b602002013581526020018960026004811061057a5761057a6112b7565b6020020135815260200189600360048110610597576105976112b7565b6020020135905287610ace565b505050505050505050565b606681815481106105bf57600080fd5b6000918252602091829020600f9091020180546001820154600283015460038401546040805160608082018352600488015482526005880154828a0152600688015482840152825160808101845260078901548152600889015499810199909952600988015492890192909252600a87015491880191909152600b860154600c870154600d880154600e9098015496995094979396929591946001600160a01b0391821693908216929116908a565b610676610a4c565b6106806000610e1c565b565b6033546001600160a01b031690565b6000606683815481106106a6576106a66112b7565b60009182526020909120600f90910201600d8101549091506001600160a01b031633146106e657604051634f1f214760e01b815260040160405180910390fd5b818160010160008282546106fa91906112f6565b9091555050505050565b61070c610a4c565b6001600160a01b0381166107335760405163d92e233d60e01b815260040160405180910390fd5b600060668481548110610748576107486112b7565b6000918252602091829020600f9091020160028101859055600c810180546001600160a01b0319166001600160a01b03861617905560405186815290925060008051602061145e83398151915291015b60405180910390a150505050565b600054610100900460ff16158080156107c65750600054600160ff909116105b806107e05750303b1580156107e0575060005460ff166001145b6108485760405162461bcd60e51b815260206004820152602e60248201527f496e697469616c697a61626c653a20636f6e747261637420697320616c72656160448201526d191e481a5b9a5d1a585b1a5e995960921b60648201526084015b60405180910390fd5b6000805460ff19166001179055801561086b576000805461ff0019166101001790555b6001600160a01b0384166108925760405163d92e233d60e01b815260040160405180910390fd5b6001600160a01b0383166108b95760405163d92e233d60e01b815260040160405180910390fd5b6001600160a01b0382166108e05760405163d92e233d60e01b815260040160405180910390fd5b606780546001600160a01b038087166001600160a01b031992831617909255606a80548684169083161790556069805492851692909116919091179055600060685561093263c35b377960e01b610e6e565b61093a610eec565b801561097c576000805461ff0019169055604051600181527f7f26b83ff96e1f2b6a682f133852f6798a09c465da95921460cefb384740249890602001610798565b50505050565b61098a610a4c565b6001600160a01b0381166109b15760405163d92e233d60e01b815260040160405180910390fd5b606780546001600160a01b0319166001600160a01b0392909216919091179055565b6109db610a4c565b6001600160a01b038116610a405760405162461bcd60e51b815260206004820152602660248201527f4f776e61626c653a206e6577206f776e657220697320746865207a65726f206160448201526564647265737360d01b606482015260840161083f565b610a4981610e1c565b50565b33610a55610682565b6001600160a01b0316146106805760405162461bcd60e51b815260206004820181905260248201527f4f776e61626c653a2063616c6c6572206973206e6f7420746865206f776e6572604482015260640161083f565b6000610ab683610f1b565b8015610ac75750610ac78383610f4e565b9392505050565b60685460009015610b535760666001606854610aea91906112e3565b81548110610afa57610afa6112b7565b90600052602060002090600f02016004016001015460666001606854610b2091906112e3565b81548110610b3057610b306112b7565b90600052602060002090600f020160030154610b4c91906112f6565b9050610b57565b5060005b60666040518061014001604052806068548152602001600081526020018781526020018381526020018681526020018581526020018a6001600160a01b03168152602001896001600160a01b03168152602001886001600160a01b031681526020018481525090806001815401808255809150506001900390600052602060002090600f020160009091909190915060008201518160000155602082015181600101556040820151816002015560608201518160030155608082015181600401600082015181600001556020820151816001015560408201518160020155505060a08201518160070160008201518160000155602082015181600101556040820151816002015560608201518160030155505060c082015181600b0160006101000a8154816001600160a01b0302191690836001600160a01b0316021790555060e082015181600c0160006101000a8154816001600160a01b0302191690836001600160a01b0316021790555061010082015181600d0160006101000a8154816001600160a01b0302191690836001600160a01b0316021790555061012082015181600e0155505060008460000151600a610d129190611309565b606a5460695460685460408051600b86900b60248201526044808201939093528151808203909301835260640181526020820180516001600160e01b0316631425537560e21b17905251633dbb202b60e01b81529394506001600160a01b0392831693633dbb202b93610d8f93169190629896819060040161138e565b600060405180830381600087803b158015610da957600080fd5b505af1158015610dbd573d6000803e3d6000fd5b505050507f01a6d33d95d2560a8c53f00317beb1d0364b3ecf2d43f647d2b4671df27f4f45606854604051610df491815260200190565b60405180910390a160688054906000610e0c836113f9565b9190505550505050505050505050565b603380546001600160a01b038381166001600160a01b0319831681179093556040519116919082907f8be0079c531659141344cd1fd0a4f28419497f9722a3daafe3b4186f6b6457e090600090a35050565b6001600160e01b03198082169003610ec75760405162461bcd60e51b815260206004820152601c60248201527b115490cc4d8d4e881a5b9d985b1a59081a5b9d195c999858d9481a5960221b604482015260640161083f565b6001600160e01b0319166000908152606560205260409020805460ff19166001179055565b600054610100900460ff16610f135760405162461bcd60e51b815260040161083f90611412565b610680610fd7565b6000610f2e826301ffc9a760e01b610f4e565b80156102dd5750610f47826001600160e01b0319610f4e565b1592915050565b604080516001600160e01b03198316602480830191909152825180830390910181526044909101909152602080820180516001600160e01b03166301ffc9a760e01b178152825160009392849283928392918391908a617530fa92503d91506000519050828015610fc0575060208210155b8015610fcc5750600081115b979650505050505050565b600054610100900460ff16610ffe5760405162461bcd60e51b815260040161083f90611412565b61068033610e1c565b80608081018310156102dd57600080fd5b60008060a0838503121561102b57600080fd5b8235915061103c8460208501611007565b90509250929050565b60006020828403121561105757600080fd5b81356001600160e01b031981168114610ac757600080fd5b6000806080838503121561108257600080fd5b823591508360808401111561109657600080fd5b50926020919091019150565b600080604083850312156110b557600080fd5b50508035926020909101359150565b80356001600160a01b03811681146110db57600080fd5b919050565b60008060008060008060008060006101808a8c0312156110ff57600080fd5b6111088a6110c4565b985061111660208b016110c4565b975061112460408b016110c4565b965060608a0135955060808a0135945060a08a0135935060c08a0135925061114f8b60e08c01611007565b91506101608a013590509295985092959850929598565b60006020828403121561117857600080fd5b5035919050565b6001600160a01b03169052565b60006101e0820190508b82528a602083015289604083015288606083015287516080830152602088015160a0830152604088015160c0830152865160e08301526020870151610100830152604087015161012083015260608701516101408301526111fb61016083018761117f565b61120961018083018661117f565b6112176101a083018561117f565b826101c08301529b9a5050505050505050505050565b60008060006060848603121561124257600080fd5b8335925060208401359150611259604085016110c4565b90509250925092565b60008060006060848603121561127757600080fd5b611280846110c4565b925061128e602085016110c4565b9150611259604085016110c4565b6000602082840312156112ae57600080fd5b610ac7826110c4565b634e487b7160e01b600052603260045260246000fd5b634e487b7160e01b600052601160045260246000fd5b818103818111156102dd576102dd6112cd565b808201808211156102dd576102dd6112cd565b60006001600160ff1b038184138284138082168684048611161561132f5761132f6112cd565b600160ff1b600087128281168783058912161561134e5761134e6112cd565b6000871292508782058712848416161561136a5761136a6112cd565b87850587128184161615611380576113806112cd565b505050929093029392505050565b60018060a01b038416815260006020606081840152845180606085015260005b818110156113ca578681018301518582016080015282016113ae565b506000608082860101526080601f19601f8301168501019250505063ffffffff83166040830152949350505050565b60006001820161140b5761140b6112cd565b5060010190565b6020808252602b908201527f496e697469616c697a61626c653a20636f6e7472616374206973206e6f74206960408201526a6e697469616c697a696e6760a81b60608201526080019056fef55002a98d02ddb9603f2cb836d9e9adc8af240206243d88874ae4e7bb2ca02aa2646970667358221220c32e04e98641aba79c88eefe086e9bf54fcd920911144b2bc77ed859d233a26164736f6c63430008100033",
  "devdoc": {
    "kind": "dev",
    "methods": {
      "create(address,address,address,uint256,uint256,uint256,uint256,uint256[4],bytes32)": {
        "params": {
          "_currencyPayout": ": address of the currency used for the royalty payout (zero-address if ETH)",
          "_merkle": ": merkle tree root used for whitelist",
          "_nft": ": NFT contract address",
          "_owner": ": right holder address",
          "_price": ": initial price in ETH of 1 NFT",
          "_rightHolderFee": ": right Holder fee on each mint (to be divided by 1e6)",
          "_royaltySharePerToken": ": total percentage of royalty evenly distributed among NFT holders (to be divided by 1e6)",
          "_salesInfo": ": Array of Timestamps at which the private and public sales are opened",
          "_supply": ": total number of NFT for this drop"
        }
      },
      "initialize(address,address,address)": {
        "params": {
          "_treasury": ": treasury address"
        }
      },
      "owner()": {
        "details": "Returns the address of the current owner."
      },
      "renounceOwnership()": {
        "details": "Leaves the contract without owner. It will not be possible to call `onlyOwner` functions anymore. Can only be called by the current owner. NOTE: Renouncing ownership will leave the contract without an owner, thereby removing any functionality that is only available to the owner."
      },
      "setMerkleRoot(uint256,bytes32)": {
        "params": {
          "_dropId": ":  drop identifier of the drop to be updated",
          "_merkle": ": the new merkle root to be set"
        }
      },
      "setRightHolderInfo(uint256,uint256,address)": {
        "params": {
          "_dropId": ":  drop identifier of the drop to be updated",
          "_owner": ": right holder address",
          "_rightHolderFee": ": fees paid to right holder"
        }
      },
      "setSalesInfo(uint256,uint256[4])": {
        "params": {
          "_dropId": ":  drop identifier of the drop to be updated",
          "_saleInfo": ": array containing the new information to be updated"
        }
      },
      "setTokenInfo(uint256,uint256[3])": {
        "params": {
          "_dropId": ":  drop identifier of the drop to be updated",
          "_tokenInfo": ": array containing the new informations to be updated"
        }
      },
      "setTreasury(address)": {
        "params": {
          "_newTreasury": ": new treasury address"
        }
      },
      "supportsInterface(bytes4)": {
        "details": "See {IERC165-supportsInterface}."
      },
      "transferOwnership(address)": {
        "details": "Transfers ownership of the contract to a new account (`newOwner`). Can only be called by the current owner."
      },
      "updateDropCounter(uint256,uint256)": {
        "params": {
          "_dropId": ": drop identifier",
          "_quantity": ": quantity of NFT sold"
        }
      }
    },
    "version": 1
  },
  "userdoc": {
    "errors": {
      "DropNotFound()": [
        {
          "notice": "Error returned if attempting to deposit reward for an inexistant drop*"
        }
      ],
      "EmptyDeposit()": [
        {
          "notice": "Error returned if the amount deposited is equal to 0*"
        }
      ],
      "IncorrectDeposit()": [
        {
          "notice": "Error returned if the sum of the _amounts in deposit is different than the ETH sent*"
        }
      ],
      "IncorrectInterface()": [
        {
          "notice": "Error returned if the contract passed as parameters does not implement the expected interface*"
        }
      ],
      "InsufficientMaxAmountPerAddress()": [
        {
          "notice": "Error returned if `maxAmountPerAddress` is smaller or equal to 0*"
        }
      ],
      "InsufficientRoyalties()": [
        {
          "notice": "Error returned if `royaltySharePerToken` is smaller or equal to 0*"
        }
      ],
      "InsufficientSupply()": [
        {
          "notice": "Error returned if `supply` is smaller or equal to 0*"
        }
      ],
      "NothingToClaim()": [
        {
          "notice": "Error returned if there is nothing to claim*"
        }
      ],
      "UnauthorizedUpdate()": [
        {
          "notice": "Error returned if an unauthorized address attempt to update the drop details*"
        }
      ],
      "ZeroAddress()": [
        {
          "notice": "Error returned if `owner` address is the zero address*"
        }
      ]
    },
    "kind": "user",
    "methods": {
      "create(address,address,address,uint256,uint256,uint256,uint256,uint256[4],bytes32)": {
        "notice": "Create a Drop  Only the contract owner can perform this operation"
      },
      "initialize(address,address,address)": {
        "notice": "Contract Initializer"
      },
      "setMerkleRoot(uint256,bytes32)": {
        "notice": "Update the merkle root (for allowlist) for the Drop `_dropId`  Only the contract owner can perform this operation"
      },
      "setRightHolderInfo(uint256,uint256,address)": {
        "notice": "Update the Drop `_dropId` drop information  Only the contract owner can perform this operation"
      },
      "setSalesInfo(uint256,uint256[4])": {
        "notice": "Update the Drop `_dropId` sale information  Only the contract owner can perform this operation"
      },
      "setTokenInfo(uint256,uint256[3])": {
        "notice": "Update the Drop `_dropId` token information  Only the contract owner can perform this operation  Return true if `tokenCount` and `supply` are updated, false otherwise"
      },
      "setTreasury(address)": {
        "notice": "Update the treasury address  Only the contract owner can perform this operation"
      },
      "updateDropCounter(uint256,uint256)": {
        "notice": "Update the Drop `_dropId` with new `_quantity` recently sold"
      }
    },
    "version": 1
  },
  "storageLayout": {
    "storage": [
      {
        "astId": 3885,
        "contract": "contracts/ABDropManager.sol:ABDropManager",
        "label": "_initialized",
        "offset": 0,
        "slot": "0",
        "type": "t_uint8"
      },
      {
        "astId": 3888,
        "contract": "contracts/ABDropManager.sol:ABDropManager",
        "label": "_initializing",
        "offset": 1,
        "slot": "0",
        "type": "t_bool"
      },
      {
        "astId": 4499,
        "contract": "contracts/ABDropManager.sol:ABDropManager",
        "label": "__gap",
        "offset": 0,
        "slot": "1",
        "type": "t_array(t_uint256)50_storage"
      },
      {
        "astId": 3757,
        "contract": "contracts/ABDropManager.sol:ABDropManager",
        "label": "_owner",
        "offset": 0,
        "slot": "51",
        "type": "t_address"
      },
      {
        "astId": 3877,
        "contract": "contracts/ABDropManager.sol:ABDropManager",
        "label": "__gap",
        "offset": 0,
        "slot": "52",
        "type": "t_array(t_uint256)49_storage"
      },
      {
        "astId": 9827,
        "contract": "contracts/ABDropManager.sol:ABDropManager",
        "label": "_supportedInterfaces",
        "offset": 0,
        "slot": "101",
        "type": "t_mapping(t_bytes4,t_bool)"
      },
      {
        "astId": 16563,
        "contract": "contracts/ABDropManager.sol:ABDropManager",
        "label": "drops",
        "offset": 0,
        "slot": "102",
        "type": "t_array(t_struct(Drop)16603_storage)dyn_storage"
      },
      {
        "astId": 16565,
        "contract": "contracts/ABDropManager.sol:ABDropManager",
        "label": "treasury",
        "offset": 0,
        "slot": "103",
        "type": "t_address"
      },
      {
        "astId": 16567,
        "contract": "contracts/ABDropManager.sol:ABDropManager",
        "label": "totalDrop",
        "offset": 0,
        "slot": "104",
        "type": "t_uint256"
      },
      {
        "astId": 16569,
        "contract": "contracts/ABDropManager.sol:ABDropManager",
        "label": "relay",
        "offset": 0,
        "slot": "105",
        "type": "t_address"
      },
      {
        "astId": 16572,
        "contract": "contracts/ABDropManager.sol:ABDropManager",
        "label": "messenger",
        "offset": 0,
        "slot": "106",
        "type": "t_contract(IL1CrossDomainMessenger)53"
      }
    ],
    "types": {
      "t_address": {
        "encoding": "inplace",
        "label": "address",
        "numberOfBytes": "20"
      },
      "t_array(t_struct(Drop)16603_storage)dyn_storage": {
        "base": "t_struct(Drop)16603_storage",
        "encoding": "dynamic_array",
        "label": "struct ABDropManager.Drop[]",
        "numberOfBytes": "32"
      },
      "t_array(t_uint256)49_storage": {
        "base": "t_uint256",
        "encoding": "inplace",
        "label": "uint256[49]",
        "numberOfBytes": "1568"
      },
      "t_array(t_uint256)50_storage": {
        "base": "t_uint256",
        "encoding": "inplace",
        "label": "uint256[50]",
        "numberOfBytes": "1600"
      },
      "t_bool": {
        "encoding": "inplace",
        "label": "bool",
        "numberOfBytes": "1"
      },
      "t_bytes32": {
        "encoding": "inplace",
        "label": "bytes32",
        "numberOfBytes": "32"
      },
      "t_bytes4": {
        "encoding": "inplace",
        "label": "bytes4",
        "numberOfBytes": "4"
      },
      "t_contract(IL1CrossDomainMessenger)53": {
        "encoding": "inplace",
        "label": "contract IL1CrossDomainMessenger",
        "numberOfBytes": "20"
      },
      "t_mapping(t_bytes4,t_bool)": {
        "encoding": "mapping",
        "key": "t_bytes4",
        "label": "mapping(bytes4 => bool)",
        "numberOfBytes": "32",
        "value": "t_bool"
      },
      "t_struct(Drop)16603_storage": {
        "encoding": "inplace",
        "label": "struct ABDropManager.Drop",
        "members": [
          {
            "astId": 16582,
            "contract": "contracts/ABDropManager.sol:ABDropManager",
            "label": "dropId",
            "offset": 0,
            "slot": "0",
            "type": "t_uint256"
          },
          {
            "astId": 16584,
            "contract": "contracts/ABDropManager.sol:ABDropManager",
            "label": "sold",
            "offset": 0,
            "slot": "1",
            "type": "t_uint256"
          },
          {
            "astId": 16586,
            "contract": "contracts/ABDropManager.sol:ABDropManager",
            "label": "rightHolderFee",
            "offset": 0,
            "slot": "2",
            "type": "t_uint256"
          },
          {
            "astId": 16588,
            "contract": "contracts/ABDropManager.sol:ABDropManager",
            "label": "firstTokenIndex",
            "offset": 0,
            "slot": "3",
            "type": "t_uint256"
          },
          {
            "astId": 16591,
            "contract": "contracts/ABDropManager.sol:ABDropManager",
            "label": "tokenInfo",
            "offset": 0,
            "slot": "4",
            "type": "t_struct(TokenInfo)16610_storage"
          },
          {
            "astId": 16594,
            "contract": "contracts/ABDropManager.sol:ABDropManager",
            "label": "salesInfo",
            "offset": 0,
            "slot": "7",
            "type": "t_struct(SaleInfo)16619_storage"
          },
          {
            "astId": 16596,
            "contract": "contracts/ABDropManager.sol:ABDropManager",
            "label": "currencyPayout",
            "offset": 0,
            "slot": "11",
            "type": "t_address"
          },
          {
            "astId": 16598,
            "contract": "contracts/ABDropManager.sol:ABDropManager",
            "label": "owner",
            "offset": 0,
            "slot": "12",
            "type": "t_address"
          },
          {
            "astId": 16600,
            "contract": "contracts/ABDropManager.sol:ABDropManager",
            "label": "nft",
            "offset": 0,
            "slot": "13",
            "type": "t_address"
          },
          {
            "astId": 16602,
            "contract": "contracts/ABDropManager.sol:ABDropManager",
            "label": "merkleRoot",
            "offset": 0,
            "slot": "14",
            "type": "t_bytes32"
          }
        ],
        "numberOfBytes": "480"
      },
      "t_struct(SaleInfo)16619_storage": {
        "encoding": "inplace",
        "label": "struct ABDropManager.SaleInfo",
        "members": [
          {
            "astId": 16612,
            "contract": "contracts/ABDropManager.sol:ABDropManager",
            "label": "privateSaleMaxMint",
            "offset": 0,
            "slot": "0",
            "type": "t_uint256"
          },
          {
            "astId": 16614,
            "contract": "contracts/ABDropManager.sol:ABDropManager",
            "label": "privateSaleTime",
            "offset": 0,
            "slot": "1",
            "type": "t_uint256"
          },
          {
            "astId": 16616,
            "contract": "contracts/ABDropManager.sol:ABDropManager",
            "label": "publicSaleMaxMint",
            "offset": 0,
            "slot": "2",
            "type": "t_uint256"
          },
          {
            "astId": 16618,
            "contract": "contracts/ABDropManager.sol:ABDropManager",
            "label": "publicSaleTime",
            "offset": 0,
            "slot": "3",
            "type": "t_uint256"
          }
        ],
        "numberOfBytes": "128"
      },
      "t_struct(TokenInfo)16610_storage": {
        "encoding": "inplace",
        "label": "struct ABDropManager.TokenInfo",
        "members": [
          {
            "astId": 16605,
            "contract": "contracts/ABDropManager.sol:ABDropManager",
            "label": "price",
            "offset": 0,
            "slot": "0",
            "type": "t_uint256"
          },
          {
            "astId": 16607,
            "contract": "contracts/ABDropManager.sol:ABDropManager",
            "label": "supply",
            "offset": 0,
            "slot": "1",
            "type": "t_uint256"
          },
          {
            "astId": 16609,
            "contract": "contracts/ABDropManager.sol:ABDropManager",
            "label": "royaltySharePerToken",
            "offset": 0,
            "slot": "2",
            "type": "t_uint256"
          }
        ],
        "numberOfBytes": "96"
      },
      "t_uint256": {
        "encoding": "inplace",
        "label": "uint256",
        "numberOfBytes": "32"
      },
      "t_uint8": {
        "encoding": "inplace",
        "label": "uint8",
        "numberOfBytes": "1"
      }
    }
  }
}