{
  "address": "0x70759504EBcCdbAC928129eE3c07E1551F48B34c",
  "abi": [
    {
      "inputs": [
        {
          "internalType": "address",
          "name": "_dropManager",
          "type": "address"
        },
        {
          "internalType": "address",
          "name": "_messenger",
          "type": "address"
        },
        {
          "internalType": "address",
          "name": "_relay",
          "type": "address"
        },
        {
          "internalType": "string",
          "name": "_baseUri",
          "type": "string"
        },
        {
          "internalType": "string",
          "name": "_name",
          "type": "string"
        },
        {
          "internalType": "string",
          "name": "_symbol",
          "type": "string"
        }
      ],
      "stateMutability": "nonpayable",
      "type": "constructor"
    },
    {
      "inputs": [],
      "name": "DropSoldOut",
      "type": "error"
    },
    {
      "inputs": [],
      "name": "IncorrectETHSent",
      "type": "error"
    },
    {
      "inputs": [],
      "name": "IncorrectInterface",
      "type": "error"
    },
    {
      "inputs": [],
      "name": "MaxMintPerAddress",
      "type": "error"
    },
    {
      "inputs": [],
      "name": "NotEnoughTokensAvailable",
      "type": "error"
    },
    {
      "inputs": [],
      "name": "NotInMerkle",
      "type": "error"
    },
    {
      "inputs": [],
      "name": "NothingToWithdraw",
      "type": "error"
    },
    {
      "inputs": [],
      "name": "SaleNotStarted",
      "type": "error"
    },
    {
      "anonymous": false,
      "inputs": [
        {
          "indexed": true,
          "internalType": "address",
          "name": "owner",
          "type": "address"
        },
        {
          "indexed": true,
          "internalType": "address",
          "name": "approved",
          "type": "address"
        },
        {
          "indexed": true,
          "internalType": "uint256",
          "name": "tokenId",
          "type": "uint256"
        }
      ],
      "name": "Approval",
      "type": "event"
    },
    {
      "anonymous": false,
      "inputs": [
        {
          "indexed": true,
          "internalType": "address",
          "name": "owner",
          "type": "address"
        },
        {
          "indexed": true,
          "internalType": "address",
          "name": "operator",
          "type": "address"
        },
        {
          "indexed": false,
          "internalType": "bool",
          "name": "approved",
          "type": "bool"
        }
      ],
      "name": "ApprovalForAll",
      "type": "event"
    },
    {
      "anonymous": false,
      "inputs": [
        {
          "indexed": true,
          "internalType": "address",
          "name": "previousOwner",
          "type": "address"
        },
        {
          "indexed": true,
          "internalType": "address",
          "name": "newOwner",
          "type": "address"
        }
      ],
      "name": "OwnershipTransferred",
      "type": "event"
    },
    {
      "anonymous": false,
      "inputs": [
        {
          "indexed": true,
          "internalType": "address",
          "name": "from",
          "type": "address"
        },
        {
          "indexed": true,
          "internalType": "address",
          "name": "to",
          "type": "address"
        },
        {
          "indexed": true,
          "internalType": "uint256",
          "name": "tokenId",
          "type": "uint256"
        }
      ],
      "name": "Transfer",
      "type": "event"
    },
    {
      "inputs": [
        {
          "internalType": "address",
          "name": "to",
          "type": "address"
        },
        {
          "internalType": "uint256",
          "name": "tokenId",
          "type": "uint256"
        }
      ],
      "name": "approve",
      "outputs": [],
      "stateMutability": "nonpayable",
      "type": "function"
    },
    {
      "inputs": [
        {
          "internalType": "address",
          "name": "owner",
          "type": "address"
        }
      ],
      "name": "balanceOf",
      "outputs": [
        {
          "internalType": "uint256",
          "name": "",
          "type": "uint256"
        }
      ],
      "stateMutability": "view",
      "type": "function"
    },
    {
      "inputs": [
        {
          "internalType": "address",
          "name": "_userWallet",
          "type": "address"
        },
        {
          "internalType": "uint256",
          "name": "_quantity",
          "type": "uint256"
        },
        {
          "internalType": "uint256",
          "name": "_tokenId",
          "type": "uint256"
        }
      ],
      "name": "claimTo",
      "outputs": [],
      "stateMutability": "payable",
      "type": "function"
    },
    {
      "inputs": [
        {
          "internalType": "uint256",
          "name": "",
          "type": "uint256"
        }
      ],
      "name": "dropIdPerToken",
      "outputs": [
        {
          "internalType": "uint256",
          "name": "",
          "type": "uint256"
        }
      ],
      "stateMutability": "view",
      "type": "function"
    },
    {
      "inputs": [],
      "name": "dropManager",
      "outputs": [
        {
          "internalType": "address",
          "name": "",
          "type": "address"
        }
      ],
      "stateMutability": "view",
      "type": "function"
    },
    {
      "inputs": [
        {
          "internalType": "uint256",
          "name": "tokenId",
          "type": "uint256"
        }
      ],
      "name": "getApproved",
      "outputs": [
        {
          "internalType": "address",
          "name": "",
          "type": "address"
        }
      ],
      "stateMutability": "view",
      "type": "function"
    },
    {
      "inputs": [
        {
          "internalType": "address",
          "name": "_userWallet",
          "type": "address"
        },
        {
          "internalType": "uint256",
          "name": "_quantity",
          "type": "uint256"
        },
        {
          "internalType": "uint256",
          "name": "_tokenId",
          "type": "uint256"
        }
      ],
      "name": "getClaimIneligibilityReason",
      "outputs": [
        {
          "internalType": "string",
          "name": "",
          "type": "string"
        }
      ],
      "stateMutability": "view",
      "type": "function"
    },
    {
      "inputs": [
        {
          "internalType": "address",
          "name": "owner",
          "type": "address"
        },
        {
          "internalType": "address",
          "name": "operator",
          "type": "address"
        }
      ],
      "name": "isApprovedForAll",
      "outputs": [
        {
          "internalType": "bool",
          "name": "",
          "type": "bool"
        }
      ],
      "stateMutability": "view",
      "type": "function"
    },
    {
      "inputs": [
        {
          "internalType": "address",
          "name": "_to",
          "type": "address"
        },
        {
          "internalType": "uint256",
          "name": "_dropId",
          "type": "uint256"
        },
        {
          "internalType": "uint256",
          "name": "_quantity",
          "type": "uint256"
        },
        {
          "internalType": "bytes32[]",
          "name": "_proof",
          "type": "bytes32[]"
        }
      ],
      "name": "mint",
      "outputs": [],
      "stateMutability": "payable",
      "type": "function"
    },
    {
      "inputs": [
        {
          "internalType": "uint256",
          "name": "",
          "type": "uint256"
        },
        {
          "internalType": "address",
          "name": "",
          "type": "address"
        }
      ],
      "name": "mintedPerDropPrivateSale",
      "outputs": [
        {
          "internalType": "uint256",
          "name": "",
          "type": "uint256"
        }
      ],
      "stateMutability": "view",
      "type": "function"
    },
    {
      "inputs": [
        {
          "internalType": "uint256",
          "name": "",
          "type": "uint256"
        },
        {
          "internalType": "address",
          "name": "",
          "type": "address"
        }
      ],
      "name": "mintedPerDropPublicSale",
      "outputs": [
        {
          "internalType": "uint256",
          "name": "",
          "type": "uint256"
        }
      ],
      "stateMutability": "view",
      "type": "function"
    },
    {
      "inputs": [],
      "name": "name",
      "outputs": [
        {
          "internalType": "string",
          "name": "",
          "type": "string"
        }
      ],
      "stateMutability": "view",
      "type": "function"
    },
    {
      "inputs": [],
      "name": "owner",
      "outputs": [
        {
          "internalType": "address",
          "name": "",
          "type": "address"
        }
      ],
      "stateMutability": "view",
      "type": "function"
    },
    {
      "inputs": [
        {
          "internalType": "uint256",
          "name": "tokenId",
          "type": "uint256"
        }
      ],
      "name": "ownerOf",
      "outputs": [
        {
          "internalType": "address",
          "name": "",
          "type": "address"
        }
      ],
      "stateMutability": "view",
      "type": "function"
    },
    {
      "inputs": [
        {
          "internalType": "uint256",
          "name": "_tokenId",
          "type": "uint256"
        }
      ],
      "name": "price",
      "outputs": [
        {
          "internalType": "uint256",
          "name": "",
          "type": "uint256"
        }
      ],
      "stateMutability": "view",
      "type": "function"
    },
    {
      "inputs": [],
      "name": "renounceOwnership",
      "outputs": [],
      "stateMutability": "nonpayable",
      "type": "function"
    },
    {
      "inputs": [
        {
          "internalType": "address",
          "name": "from",
          "type": "address"
        },
        {
          "internalType": "address",
          "name": "to",
          "type": "address"
        },
        {
          "internalType": "uint256",
          "name": "tokenId",
          "type": "uint256"
        }
      ],
      "name": "safeTransferFrom",
      "outputs": [],
      "stateMutability": "nonpayable",
      "type": "function"
    },
    {
      "inputs": [
        {
          "internalType": "address",
          "name": "from",
          "type": "address"
        },
        {
          "internalType": "address",
          "name": "to",
          "type": "address"
        },
        {
          "internalType": "uint256",
          "name": "tokenId",
          "type": "uint256"
        },
        {
          "internalType": "bytes",
          "name": "data",
          "type": "bytes"
        }
      ],
      "name": "safeTransferFrom",
      "outputs": [],
      "stateMutability": "nonpayable",
      "type": "function"
    },
    {
      "inputs": [
        {
          "internalType": "address",
          "name": "operator",
          "type": "address"
        },
        {
          "internalType": "bool",
          "name": "approved",
          "type": "bool"
        }
      ],
      "name": "setApprovalForAll",
      "outputs": [],
      "stateMutability": "nonpayable",
      "type": "function"
    },
    {
      "inputs": [
        {
          "internalType": "string",
          "name": "_newBaseURI",
          "type": "string"
        }
      ],
      "name": "setBaseURI",
      "outputs": [],
      "stateMutability": "nonpayable",
      "type": "function"
    },
    {
      "inputs": [
        {
          "internalType": "address",
          "name": "_dropManager",
          "type": "address"
        }
      ],
      "name": "setDropManager",
      "outputs": [],
      "stateMutability": "nonpayable",
      "type": "function"
    },
    {
      "inputs": [
        {
          "internalType": "bytes4",
          "name": "interfaceId",
          "type": "bytes4"
        }
      ],
      "name": "supportsInterface",
      "outputs": [
        {
          "internalType": "bool",
          "name": "",
          "type": "bool"
        }
      ],
      "stateMutability": "view",
      "type": "function"
    },
    {
      "inputs": [],
      "name": "symbol",
      "outputs": [
        {
          "internalType": "string",
          "name": "",
          "type": "string"
        }
      ],
      "stateMutability": "view",
      "type": "function"
    },
    {
      "inputs": [
        {
          "internalType": "uint256",
          "name": "index",
          "type": "uint256"
        }
      ],
      "name": "tokenByIndex",
      "outputs": [
        {
          "internalType": "uint256",
          "name": "",
          "type": "uint256"
        }
      ],
      "stateMutability": "view",
      "type": "function"
    },
    {
      "inputs": [
        {
          "internalType": "address",
          "name": "owner",
          "type": "address"
        },
        {
          "internalType": "uint256",
          "name": "index",
          "type": "uint256"
        }
      ],
      "name": "tokenOfOwnerByIndex",
      "outputs": [
        {
          "internalType": "uint256",
          "name": "",
          "type": "uint256"
        }
      ],
      "stateMutability": "view",
      "type": "function"
    },
    {
      "inputs": [
        {
          "internalType": "uint256",
          "name": "tokenId",
          "type": "uint256"
        }
      ],
      "name": "tokenURI",
      "outputs": [
        {
          "internalType": "string",
          "name": "",
          "type": "string"
        }
      ],
      "stateMutability": "view",
      "type": "function"
    },
    {
      "inputs": [
        {
          "internalType": "address",
          "name": "_owner",
          "type": "address"
        }
      ],
      "name": "tokensOfOwner",
      "outputs": [
        {
          "internalType": "uint256[]",
          "name": "",
          "type": "uint256[]"
        }
      ],
      "stateMutability": "view",
      "type": "function"
    },
    {
      "inputs": [],
      "name": "totalSupply",
      "outputs": [
        {
          "internalType": "uint256",
          "name": "",
          "type": "uint256"
        }
      ],
      "stateMutability": "view",
      "type": "function"
    },
    {
      "inputs": [
        {
          "internalType": "address",
          "name": "from",
          "type": "address"
        },
        {
          "internalType": "address",
          "name": "to",
          "type": "address"
        },
        {
          "internalType": "uint256",
          "name": "tokenId",
          "type": "uint256"
        }
      ],
      "name": "transferFrom",
      "outputs": [],
      "stateMutability": "nonpayable",
      "type": "function"
    },
    {
      "inputs": [
        {
          "internalType": "address",
          "name": "newOwner",
          "type": "address"
        }
      ],
      "name": "transferOwnership",
      "outputs": [],
      "stateMutability": "nonpayable",
      "type": "function"
    },
    {
      "inputs": [
        {
          "internalType": "uint256",
          "name": "_tokenId",
          "type": "uint256"
        }
      ],
      "name": "unclaimedSupply",
      "outputs": [
        {
          "internalType": "uint256",
          "name": "",
          "type": "uint256"
        }
      ],
      "stateMutability": "view",
      "type": "function"
    },
    {
      "inputs": [],
      "name": "withdrawAll",
      "outputs": [],
      "stateMutability": "nonpayable",
      "type": "function"
    }
  ],
  "transactionHash": "0xd2b0677b2b2df61711c4792d82ea568540de87dc2724076c4e2109b83ed599fc",
  "args": [
    "0x5c8C5Ac4Fa45655cB094b3b1eED4f7A6C67a7f1B",
    "0x5086d1eEF304eb5284A0f6720f79403b4e9bE294",
    "0xBDF166f704C22719557eCBB0A5b11Df203601458",
    "testURI",
    "name",
    "symbol"
  ],
  "numDeployments": 1,
  "solcInputHash": "b5c07ad18efac07673a97a644b1f3a70",
  "bytecode": "0x60806040523480156200001157600080fd5b5060405162003220380380620032208339810160408190526200003491620003cb565b85858584848181600062000049838262000523565b50600162000058828262000523565b505050620000756200006f6200012360201b60201c565b62000127565b620000938563c35b377960e01b6200017960201b620010a81760201c565b620000b157604051630b7d5ce760e11b815260040160405180910390fd5b600c80546001600160a01b038088166001600160a01b031992831617909255600d8054868416908316179055600e805492871692909116919091179055620001006352a88fdd60e01b620001a1565b5050505050826012908162000116919062000523565b50505050505050620005ef565b3390565b600b80546001600160a01b038381166001600160a01b0319831681179093556040519116919082907f8be0079c531659141344cd1fd0a4f28419497f9722a3daafe3b4186f6b6457e090600090a35050565b6000620001868362000225565b80156200019a57506200019a83836200025e565b9392505050565b6001600160e01b03198082169003620002005760405162461bcd60e51b815260206004820152601c60248201527f4552433136353a20696e76616c696420696e7465726661636520696400000000604482015260640160405180910390fd5b6001600160e01b0319166000908152600a60205260409020805460ff19166001179055565b60006200023a826301ffc9a760e01b6200025e565b801562000258575062000256826001600160e01b03196200025e565b155b92915050565b604080516001600160e01b03198316602480830191909152825180830390910181526044909101909152602080820180516001600160e01b03166301ffc9a760e01b178152825160009392849283928392918391908a617530fa92503d91506000519050828015620002d1575060208210155b8015620002de5750600081115b979650505050505050565b80516001600160a01b03811681146200030157600080fd5b919050565b634e487b7160e01b600052604160045260246000fd5b600082601f8301126200032e57600080fd5b81516001600160401b03808211156200034b576200034b62000306565b604051601f8301601f19908116603f0116810190828211818310171562000376576200037662000306565b816040528381526020925086838588010111156200039357600080fd5b600091505b83821015620003b7578582018301518183018401529082019062000398565b600093810190920192909252949350505050565b60008060008060008060c08789031215620003e557600080fd5b620003f087620002e9565b95506200040060208801620002e9565b94506200041060408801620002e9565b60608801519094506001600160401b03808211156200042e57600080fd5b6200043c8a838b016200031c565b945060808901519150808211156200045357600080fd5b620004618a838b016200031c565b935060a08901519150808211156200047857600080fd5b506200048789828a016200031c565b9150509295509295509295565b600181811c90821680620004a957607f821691505b602082108103620004ca57634e487b7160e01b600052602260045260246000fd5b50919050565b601f8211156200051e57600081815260208120601f850160051c81016020861015620004f95750805b601f850160051c820191505b818110156200051a5782815560010162000505565b5050505b505050565b81516001600160401b038111156200053f576200053f62000306565b620005578162000550845462000494565b84620004d0565b602080601f8311600181146200058f5760008415620005765750858301515b600019600386901b1c1916600185901b1785556200051a565b600085815260208120601f198616915b82811015620005c0578886015182559484019460019091019084016200059f565b5085821015620005df5787850151600019600388901b60f8161c191681555b5050505050600190811b01905550565b612c2180620005ff6000396000f3fe6080604052600436106101735760003560e01c806301ffc9a71461017857806306fdde03146101ad578063081812fc146101cf578063095ea7b31461020757806318160ddd1461022957806320a8755a1461024857806323b872dd1461026857806326a49e37146102885780632f745c59146102a8578063419a8d1b146102c857806342842e0e146102e85780634f6ccce714610308578063544270e21461032857806355f804b314610348578063597d78e1146103685780635db248681461037b5780635ef1e8fd146103b35780636096a278146103c65780636352211e146103f357806370a0823114610413578063715018a6146104335780638462151c14610448578063853828b6146104755780638da5cb5b1461048a5780638f53bc9e1461049f57806395d89b41146104bf578063a22cb465146104d4578063a849c36e146104f4578063b88d4fde1461052c578063c87b56dd1461054c578063e985e9c51461056c578063f2fde38b1461058c575b600080fd5b34801561018457600080fd5b506101986101933660046121d5565b6105ac565b60405190151581526020015b60405180910390f35b3480156101b957600080fd5b506101c26105bd565b6040516101a49190612242565b3480156101db57600080fd5b506101ef6101ea366004612255565b61064f565b6040516001600160a01b0390911681526020016101a4565b34801561021357600080fd5b50610227610222366004612283565b610676565b005b34801561023557600080fd5b506008545b6040519081526020016101a4565b34801561025457600080fd5b506102276102633660046122af565b610790565b34801561027457600080fd5b506102276102833660046122cc565b6107e8565b34801561029457600080fd5b5061023a6102a3366004612255565b610819565b3480156102b457600080fd5b5061023a6102c3366004612283565b610898565b3480156102d457600080fd5b5061023a6102e3366004612255565b61092e565b3480156102f457600080fd5b506102276103033660046122cc565b6109c2565b34801561031457600080fd5b5061023a610323366004612255565b6109dd565b34801561033457600080fd5b506101c261034336600461230d565b610a70565b34801561035457600080fd5b50610227610363366004612342565b610cca565b610227610376366004612422565b610cdf565b34801561038757600080fd5b5061023a6103963660046124ed565b601160209081526000928352604080842090915290825290205481565b6102276103c136600461230d565b610cf1565b3480156103d257600080fd5b5061023a6103e1366004612255565b600f6020526000908152604090205481565b3480156103ff57600080fd5b506101ef61040e366004612255565b610cff565b34801561041f57600080fd5b5061023a61042e3660046122af565b610d34565b34801561043f57600080fd5b50610227610dba565b34801561045457600080fd5b506104686104633660046122af565b610dce565b6040516101a4919061251d565b34801561048157600080fd5b50610227610e8d565b34801561049657600080fd5b506101ef610f3f565b3480156104ab57600080fd5b50600c546101ef906001600160a01b031681565b3480156104cb57600080fd5b506101c2610f4e565b3480156104e057600080fd5b506102276104ef366004612561565b610f5d565b34801561050057600080fd5b5061023a61050f3660046124ed565b601060209081526000928352604080842090915290825290205481565b34801561053857600080fd5b50610227610547366004612594565b610f6c565b34801561055857600080fd5b506101c2610567366004612255565b610f9e565b34801561057857600080fd5b50610198610587366004612657565b611004565b34801561059857600080fd5b506102276105a73660046122af565b611032565b60006105b7826110c4565b92915050565b6060600080546105cc90612685565b80601f01602080910402602001604051908101604052809291908181526020018280546105f890612685565b80156106455780601f1061061a57610100808354040283529160200191610645565b820191906000526020600020905b81548152906001019060200180831161062857829003601f168201915b5050505050905090565b600061065a826110f5565b506000908152600460205260409020546001600160a01b031690565b600061068182610cff565b9050806001600160a01b0316836001600160a01b0316036106f35760405162461bcd60e51b815260206004820152602160248201527f4552433732313a20617070726f76616c20746f2063757272656e74206f776e656044820152603960f91b60648201526084015b60405180910390fd5b336001600160a01b038216148061070f575061070f8133611004565b6107815760405162461bcd60e51b815260206004820152603e60248201527f4552433732313a20617070726f76652063616c6c6572206973206e6f7420746f60448201527f6b656e206f776e6572206e6f7220617070726f76656420666f7220616c6c000060648201526084016106ea565b61078b838361111a565b505050565b610798611188565b6107a98163c35b377960e01b6110a8565b6107c657604051630b7d5ce760e11b815260040160405180910390fd5b600c80546001600160a01b0319166001600160a01b0392909216919091179055565b6107f233826111e7565b61080e5760405162461bcd60e51b81526004016106ea906126b9565b61078b838383611246565b600c54604051630bd6732d60e31b81526004810183905260009182916001600160a01b0390911690635eb39968906024016101e060405180830381865afa158015610868573d6000803e3d6000fd5b505050506040513d601f19601f8201168201806040525081019061088c91906127d7565b60800151519392505050565b60006108a383610d34565b82106109055760405162461bcd60e51b815260206004820152602b60248201527f455243373231456e756d657261626c653a206f776e657220696e646578206f7560448201526a74206f6620626f756e647360a81b60648201526084016106ea565b506001600160a01b03919091166000908152600660209081526040808320938352929052205490565b600c54604051630bd6732d60e31b81526004810183905260009182916001600160a01b0390911690635eb39968906024016101e060405180830381865afa15801561097d573d6000803e3d6000fd5b505050506040513d601f19601f820116820180604052508101906109a191906127d7565b905080602001518160800151602001516109bb9190612899565b9392505050565b61078b83838360405180602001604052806000815250610f6c565b60006109e860085490565b8210610a4b5760405162461bcd60e51b815260206004820152602c60248201527f455243373231456e756d657261626c653a20676c6f62616c20696e646578206f60448201526b7574206f6620626f756e647360a01b60648201526084016106ea565b60088281548110610a5e57610a5e6128ac565b90600052602060002001549050919050565b600c54604051630bd6732d60e31b8152600481018390526060916000916001600160a01b0390911690635eb39968906024016101e060405180830381865afa158015610ac0573d6000803e3d6000fd5b505050506040513d601f19601f82011682018060405250810190610ae491906127d7565b9050806080015160200151816020015103610b2257505060408051808201909152600b81526a111c9bdc14dbdb1913dd5d60aa1b60208201526109bb565b8060a0015160200151421015610b5e57505060408051808201909152600e81526d14d85b19539bdd14dd185c9d195960921b60208201526109bb565b806080015160200151848260200151610b7791906128c2565b1115610bb35750506040805180820190915260188152774e6f74456e6f756768546f6b656e73417661696c61626c6560401b60208201526109bb565b61012081015115801590610bce57508060a001516060015142105b15610c435760a081015151815160009081526011602090815260408083206001600160a01b038a168452909152902054610c099086906128c2565b1115610c3e5750506040805180820190915260118152704d61784d696e745065724164647265737360781b60208201526109bb565b610cb2565b60a081015160409081015182516000908152601060209081528382206001600160a01b038a16835290529190912054610c7d9086906128c2565b1115610cb25750506040805180820190915260118152704d61784d696e745065724164647265737360781b60208201526109bb565b50506040805160208101909152600081529392505050565b610cd2611188565b601261078b82848361291b565b610ceb848484846113db565b50505050565b6060610ceb848385846113db565b6000818152600260205260408120546001600160a01b0316806105b75760405162461bcd60e51b81526004016106ea906129db565b60006001600160a01b038216610d9e5760405162461bcd60e51b815260206004820152602960248201527f4552433732313a2061646472657373207a65726f206973206e6f7420612076616044820152683634b21037bbb732b960b91b60648201526084016106ea565b506001600160a01b031660009081526003602052604090205490565b610dc2611188565b610dcc60006117fd565b565b60606000610ddb83610d34565b905080600003610dff5760408051600080825260208201909252905b509392505050565b6000816001600160401b03811115610e1957610e196123b3565b604051908082528060200260200182016040528015610e42578160200160208202803683370190505b50905060005b82811015610df757610e5a8582610898565b828281518110610e6c57610e6c6128ac565b6020908102919091010152610e8081612a0d565b9050610e48565b50919050565b600c60009054906101000a90046001600160a01b03166001600160a01b03166361d027b36040518163ffffffff1660e01b8152600401602060405180830381865afa158015610ee0573d6000803e3d6000fd5b505050506040513d601f19601f82011682018060405250810190610f049190612a26565b6001600160a01b03166108fc479081150290604051600060405180830381858888f19350505050158015610f3c573d6000803e3d6000fd5b50565b600b546001600160a01b031690565b6060600180546105cc90612685565b610f6833838361184f565b5050565b610f7633836111e7565b610f925760405162461bcd60e51b81526004016106ea906126b9565b610ceb84848484611919565b6060610fa9826110f5565b6000610fb361194c565b90506000815111610fd357604051806020016040528060008152506109bb565b80610fdd8461195b565b604051602001610fee929190612a43565b6040516020818303038152906040529392505050565b6001600160a01b03918216600090815260056020908152604080832093909416825291909152205460ff1690565b61103a611188565b6001600160a01b03811661109f5760405162461bcd60e51b815260206004820152602660248201527f4f776e61626c653a206e6577206f776e657220697320746865207a65726f206160448201526564647265737360d01b60648201526084016106ea565b610f3c816117fd565b60006110b383611a5b565b80156109bb57506109bb8383611a8e565b60006110cf82611b17565b806105b75750506001600160e01b0319166000908152600a602052604090205460ff1690565b6110fe81611b3c565b610f3c5760405162461bcd60e51b81526004016106ea906129db565b600081815260046020526040902080546001600160a01b0319166001600160a01b038416908117909155819061114f82610cff565b6001600160a01b03167f8c5be1e5ebec7d5bd14f71427d1e84f3dd0314c0f7b2291e5b200ac8c7c3b92560405160405180910390a45050565b33611191610f3f565b6001600160a01b031614610dcc5760405162461bcd60e51b815260206004820181905260248201527f4f776e61626c653a2063616c6c6572206973206e6f7420746865206f776e657260448201526064016106ea565b6000806111f383610cff565b9050806001600160a01b0316846001600160a01b0316148061121a575061121a8185611004565b8061123e5750836001600160a01b03166112338461064f565b6001600160a01b0316145b949350505050565b826001600160a01b031661125982610cff565b6001600160a01b0316146112bd5760405162461bcd60e51b815260206004820152602560248201527f4552433732313a207472616e736665722066726f6d20696e636f72726563742060448201526437bbb732b960d91b60648201526084016106ea565b6001600160a01b03821661131f5760405162461bcd60e51b8152602060048201526024808201527f4552433732313a207472616e7366657220746f20746865207a65726f206164646044820152637265737360e01b60648201526084016106ea565b61132a838383611b59565b61133560008261111a565b6001600160a01b038316600090815260036020526040812080546001929061135e908490612899565b90915550506001600160a01b038216600090815260036020526040812080546001929061138c9084906128c2565b909155505060008181526002602052604080822080546001600160a01b0319166001600160a01b038681169182179092559151849391871691600080516020612bcc83398151915291a4505050565b600c54604051630bd6732d60e31b8152600481018590526000916001600160a01b031690635eb39968906024016101e060405180830381865afa158015611426573d6000803e3d6000fd5b505050506040513d601f19601f8201168201806040525081019061144a91906127d7565b9050806080015160200151816020015103611478576040516306d6b15160e51b815260040160405180910390fd5b8060a00151602001514210156114a1576040516316851a3760e11b815260040160405180910390fd5b8060800151602001518382602001516114ba91906128c2565b11156114d957604051632d400a1b60e01b815260040160405180910390fd5b6080810151516114ea908490612a72565b3414611509576040516322790dad60e01b815260040160405180910390fd5b6101208101511580159061152457508060a001516060015142105b156116235760a081015151815160009081526011602090815260408083206001600160a01b038a16845290915290205461155f9085906128c2565b111561157e576040516369f0a9d960e11b815260040160405180910390fd5b6101208101516040516001600160601b0319606088901b1660208201526000916115c39185919060340160405160208183030381529060405280519060200120611c23565b9050806115e35760405163452c2df160e11b815260040160405180910390fd5b815160009081526011602090815260408083206001600160a01b038a168452909152812080548692906116179084906128c2565b909155506116b6915050565b60a081015160409081015182516000908152601060209081528382206001600160a01b038a1683529052919091205461165d9085906128c2565b111561167c576040516369f0a9d960e11b815260040160405180910390fd5b805160009081526010602090815260408083206001600160a01b0389168452909152812080548592906116b09084906128c2565b90915550505b6000816020015182606001516116cc91906128c2565b905060005b8481101561171d578251600f60006116e984866128c2565b815260208101919091526040016000205561170d8761170883856128c2565b611c39565b61171681612a0d565b90506116d1565b50600c54604051632844d0e360e21b815260048101879052602481018690526001600160a01b039091169063a113438c90604401600060405180830381600087803b15801561176b57600080fd5b505af115801561177f573d6000803e3d6000fd5b5050505060003411156117f5576000620f42408360400151346117a29190612a72565b6117ac9190612aa7565b905080156117f3578260e001516001600160a01b03166108fc829081150290604051600060405180830381858888f193505050501580156117f1573d6000803e3d6000fd5b505b505b505050505050565b600b80546001600160a01b038381166001600160a01b0319831681179093556040519116919082907f8be0079c531659141344cd1fd0a4f28419497f9722a3daafe3b4186f6b6457e090600090a35050565b816001600160a01b0316836001600160a01b0316036118ac5760405162461bcd60e51b815260206004820152601960248201527822a9219b99189d1030b8383937bb32903a379031b0b63632b960391b60448201526064016106ea565b6001600160a01b03838116600081815260056020908152604080832094871680845294825291829020805460ff191686151590811790915591519182527f17307eab39ab6107e8899845ad3d59bd9653f200f220920489ca2b5937696c31910160405180910390a3505050565b611924848484611246565b61193084848484611c53565b610ceb5760405162461bcd60e51b81526004016106ea90612abb565b6060601280546105cc90612685565b6060816000036119825750506040805180820190915260018152600360fc1b602082015290565b8160005b81156119ac578061199681612a0d565b91506119a59050600a83612aa7565b9150611986565b6000816001600160401b038111156119c6576119c66123b3565b6040519080825280601f01601f1916602001820160405280156119f0576020820181803683370190505b5090505b841561123e57611a05600183612899565b9150611a12600a86612b0d565b611a1d9060306128c2565b60f81b818381518110611a3257611a326128ac565b60200101906001600160f81b031916908160001a905350611a54600a86612aa7565b94506119f4565b6000611a6e826301ffc9a760e01b611a8e565b80156105b75750611a87826001600160e01b0319611a8e565b1592915050565b604080516001600160e01b03198316602480830191909152825180830390910181526044909101909152602080820180516001600160e01b03166301ffc9a760e01b178152825160009392849283928392918391908a617530fa92503d91506000519050828015611b00575060208210155b8015611b0c5750600081115b979650505050505050565b60006001600160e01b0319821663780e9d6360e01b14806105b757506105b782611d54565b6000908152600260205260409020546001600160a01b0316151590565b611b64838383611da4565b600e54600d546000838152600f60209081526040918290205482516001600160a01b0389811660248301528881166044830152606480830193909352845180830390930183526084909101845291810180516001600160e01b0316632a73d54560e21b1790529151633dbb202b60e01b815293811693633dbb202b93611bf593921691906298968190600401612b21565b600060405180830381600087803b158015611c0f57600080fd5b505af11580156117f3573d6000803e3d6000fd5b600082611c308584611e5c565b14949350505050565b610f68828260405180602001604052806000815250611ea1565b60006001600160a01b0384163b15611d4957604051630a85bd0160e11b81526001600160a01b0385169063150b7a0290611c97903390899088908890600401612b5b565b6020604051808303816000875af1925050508015611cd2575060408051601f3d908101601f19168201909252611ccf91810190612b98565b60015b611d2f573d808015611d00576040519150601f19603f3d011682016040523d82523d6000602084013e611d05565b606091505b508051600003611d275760405162461bcd60e51b81526004016106ea90612abb565b805181602001fd5b6001600160e01b031916630a85bd0160e11b14905061123e565b506001949350505050565b60006001600160e01b031982166380ac58cd60e01b1480611d8557506001600160e01b03198216635b5e139f60e01b145b806105b757506301ffc9a760e01b6001600160e01b03198316146105b7565b6001600160a01b038316611dff57611dfa81600880546000838152600960205260408120829055600182018355919091527ff3f7a9fe364faab93b216da50a3214154f22a0a2b415b23a84c8169e8b636ee30155565b611e22565b816001600160a01b0316836001600160a01b031614611e2257611e228382611ed4565b6001600160a01b038216611e395761078b81611f71565b826001600160a01b0316826001600160a01b03161461078b5761078b8282612020565b600081815b8451811015610df757611e8d82868381518110611e8057611e806128ac565b6020026020010151612064565b915080611e9981612a0d565b915050611e61565b611eab8383612093565b611eb86000848484611c53565b61078b5760405162461bcd60e51b81526004016106ea90612abb565b60006001611ee184610d34565b611eeb9190612899565b600083815260076020526040902054909150808214611f3e576001600160a01b03841660009081526006602090815260408083208584528252808320548484528184208190558352600790915290208190555b5060009182526007602090815260408084208490556001600160a01b039094168352600681528383209183525290812055565b600854600090611f8390600190612899565b60008381526009602052604081205460088054939450909284908110611fab57611fab6128ac565b906000526020600020015490508060088381548110611fcc57611fcc6128ac565b600091825260208083209091019290925582815260099091526040808220849055858252812055600880548061200457612004612bb5565b6001900381819060005260206000200160009055905550505050565b600061202b83610d34565b6001600160a01b039093166000908152600660209081526040808320868452825280832085905593825260079052919091209190915550565b60008183106120805760008281526020849052604090206109bb565b60008381526020839052604090206109bb565b6001600160a01b0382166120e95760405162461bcd60e51b815260206004820181905260248201527f4552433732313a206d696e7420746f20746865207a65726f206164647265737360448201526064016106ea565b6120f281611b3c565b1561213e5760405162461bcd60e51b815260206004820152601c60248201527b115490cdcc8c4e881d1bdad95b88185b1c9958591e481b5a5b9d195960221b60448201526064016106ea565b61214a60008383611b59565b6001600160a01b03821660009081526003602052604081208054600192906121739084906128c2565b909155505060008181526002602052604080822080546001600160a01b0319166001600160a01b0386169081179091559051839290600080516020612bcc833981519152908290a45050565b6001600160e01b031981168114610f3c57600080fd5b6000602082840312156121e757600080fd5b81356109bb816121bf565b60005b8381101561220d5781810151838201526020016121f5565b50506000910152565b6000815180845261222e8160208601602086016121f2565b601f01601f19169290920160200192915050565b6020815260006109bb6020830184612216565b60006020828403121561226757600080fd5b5035919050565b6001600160a01b0381168114610f3c57600080fd5b6000806040838503121561229657600080fd5b82356122a18161226e565b946020939093013593505050565b6000602082840312156122c157600080fd5b81356109bb8161226e565b6000806000606084860312156122e157600080fd5b83356122ec8161226e565b925060208401356122fc8161226e565b929592945050506040919091013590565b60008060006060848603121561232257600080fd5b833561232d8161226e565b95602085013595506040909401359392505050565b6000806020838503121561235557600080fd5b82356001600160401b038082111561236c57600080fd5b818501915085601f83011261238057600080fd5b81358181111561238f57600080fd5b8660208285010111156123a157600080fd5b60209290920196919550909350505050565b634e487b7160e01b600052604160045260246000fd5b60405161014081016001600160401b03811182821017156123ec576123ec6123b3565b60405290565b604051601f8201601f191681016001600160401b038111828210171561241a5761241a6123b3565b604052919050565b6000806000806080858703121561243857600080fd5b84356124438161226e565b935060208581013593506040860135925060608601356001600160401b038082111561246e57600080fd5b818801915088601f83011261248257600080fd5b813581811115612494576124946123b3565b8060051b91506124a58483016123f2565b818152918301840191848101908b8411156124bf57600080fd5b938501935b838510156124dd578435825293850193908501906124c4565b989b979a50959850505050505050565b6000806040838503121561250057600080fd5b8235915060208301356125128161226e565b809150509250929050565b6020808252825182820181905260009190848201906040850190845b8181101561255557835183529284019291840191600101612539565b50909695505050505050565b6000806040838503121561257457600080fd5b823561257f8161226e565b91506020830135801515811461251257600080fd5b600080600080608085870312156125aa57600080fd5b84356125b58161226e565b93506020858101356125c68161226e565b93506040860135925060608601356001600160401b03808211156125e957600080fd5b818801915088601f8301126125fd57600080fd5b81358181111561260f5761260f6123b3565b612621601f8201601f191685016123f2565b9150808252898482850101111561263757600080fd5b808484018584013760008482840101525080935050505092959194509250565b6000806040838503121561266a57600080fd5b82356126758161226e565b915060208301356125128161226e565b600181811c9082168061269957607f821691505b602082108103610e8757634e487b7160e01b600052602260045260246000fd5b6020808252602e908201527f4552433732313a2063616c6c6572206973206e6f7420746f6b656e206f776e6560408201526d1c881b9bdc88185c1c1c9bdd995960921b606082015260800190565b60006060828403121561271957600080fd5b604051606081016001600160401b038111828210171561273b5761273b6123b3565b80604052508091508251815260208301516020820152604083015160408201525092915050565b60006080828403121561277457600080fd5b604051608081016001600160401b0381118282101715612796576127966123b3565b8060405250809150825181526020830151602082015260408301516040820152606083015160608201525092915050565b80516127d28161226e565b919050565b60006101e082840312156127ea57600080fd5b6127f26123c9565b825181526020830151602082015260408301516040820152606083015160608201526128218460808501612707565b60808201526128338460e08501612762565b60a082015261284561016084016127c7565b60c082015261285761018084016127c7565b60e08201526128696101a084016127c7565b6101008201526101c0929092015161012083015250919050565b634e487b7160e01b600052601160045260246000fd5b818103818111156105b7576105b7612883565b634e487b7160e01b600052603260045260246000fd5b808201808211156105b7576105b7612883565b601f82111561078b57600081815260208120601f850160051c810160208610156128fc5750805b601f850160051c820191505b818110156117f557828155600101612908565b6001600160401b03831115612932576129326123b3565b612946836129408354612685565b836128d5565b6000601f84116001811461297a57600085156129625750838201355b600019600387901b1c1916600186901b1783556129d4565b600083815260209020601f19861690835b828110156129ab578685013582556020948501946001909201910161298b565b50868210156129c85760001960f88860031b161c19848701351681555b505060018560011b0183555b5050505050565b602080825260189082015277115490cdcc8c4e881a5b9d985b1a59081d1bdad95b88125160421b604082015260600190565b600060018201612a1f57612a1f612883565b5060010190565b600060208284031215612a3857600080fd5b81516109bb8161226e565b60008351612a558184602088016121f2565b835190830190612a698183602088016121f2565b01949350505050565b6000816000190483118215151615612a8c57612a8c612883565b500290565b634e487b7160e01b600052601260045260246000fd5b600082612ab657612ab6612a91565b500490565b60208082526032908201527f4552433732313a207472616e7366657220746f206e6f6e20455243373231526560408201527131b2b4bb32b91034b6b83632b6b2b73a32b960711b606082015260800190565b600082612b1c57612b1c612a91565b500690565b6001600160a01b0384168152606060208201819052600090612b4590830185612216565b905063ffffffff83166040830152949350505050565b6001600160a01b0385811682528416602082015260408101839052608060608201819052600090612b8e90830184612216565b9695505050505050565b600060208284031215612baa57600080fd5b81516109bb816121bf565b634e487b7160e01b600052603160045260246000fdfeddf252ad1be2c89b69c2b068fc378daa952ba7f163c4a11628f55a4df523b3efa2646970667358221220205a902a4fbe2f0bc7891aceb4f9c5a2b38f0b70b72b6360362286d9d497f0c964736f6c63430008100033",
  "devdoc": {
    "kind": "dev",
    "methods": {
      "approve(address,uint256)": {
        "details": "See {IERC721-approve}."
      },
      "balanceOf(address)": {
        "details": "See {IERC721-balanceOf}."
      },
      "claimTo(address,uint256,uint256)": {
        "params": {
          "_quantity": ": amount of tokens to be minted",
          "_tokenId": ": drop identifier",
          "_userWallet": ": address to receive the token"
        }
      },
      "constructor": {
        "params": {
          "_baseUri": ": base token URI",
          "_dropManager": ": Drop Manager contract address",
          "_name": ": name of the NFT contract",
          "_symbol": ": symbol / ticker of the NFT contract*"
        }
      },
      "getApproved(uint256)": {
        "details": "See {IERC721-getApproved}."
      },
      "getClaimIneligibilityReason(address,uint256,uint256)": {
        "params": {
          "_quantity": ": quantity to be minted",
          "_tokenId": ": drop identifier",
          "_userWallet": ": wallet to receive the minted NFT(s)"
        },
        "returns": {
          "_0": "reason : the reason why the user cannot mint"
        }
      },
      "isApprovedForAll(address,address)": {
        "details": "See {IERC721-isApprovedForAll}."
      },
      "mint(address,uint256,uint256,bytes32[])": {
        "params": {
          "_dropId": ": drop identifier",
          "_proof": ": merkle tree proof used to verify whitelisted user",
          "_quantity": ": amount of tokens to be minted",
          "_to": ": address to receive the token"
        }
      },
      "name()": {
        "details": "See {IERC721Metadata-name}."
      },
      "owner()": {
        "details": "Returns the address of the current owner."
      },
      "ownerOf(uint256)": {
        "details": "See {IERC721-ownerOf}."
      },
      "price(uint256)": {
        "params": {
          "_tokenId": ": drop identifier"
        },
        "returns": {
          "_0": "price : the mint price for `_dropId`"
        }
      },
      "renounceOwnership()": {
        "details": "Leaves the contract without owner. It will not be possible to call `onlyOwner` functions anymore. Can only be called by the current owner. NOTE: Renouncing ownership will leave the contract without an owner, thereby removing any functionality that is only available to the owner."
      },
      "safeTransferFrom(address,address,uint256)": {
        "details": "See {IERC721-safeTransferFrom}."
      },
      "safeTransferFrom(address,address,uint256,bytes)": {
        "details": "See {IERC721-safeTransferFrom}."
      },
      "setApprovalForAll(address,bool)": {
        "details": "See {IERC721-setApprovalForAll}."
      },
      "setBaseURI(string)": {
        "params": {
          "_newBaseURI": ": new base URI"
        }
      },
      "setDropManager(address)": {
        "params": {
          "_dropManager": ": new dropManager address"
        }
      },
      "supportsInterface(bytes4)": {
        "details": "See {ERC721-supportsInterface}."
      },
      "symbol()": {
        "details": "See {IERC721Metadata-symbol}."
      },
      "tokenByIndex(uint256)": {
        "details": "See {IERC721Enumerable-tokenByIndex}."
      },
      "tokenOfOwnerByIndex(address,uint256)": {
        "details": "See {IERC721Enumerable-tokenOfOwnerByIndex}."
      },
      "tokenURI(uint256)": {
        "details": "See {IERC721Metadata-tokenURI}."
      },
      "tokensOfOwner(address)": {
        "params": {
          "_owner": ": owner address"
        },
        "returns": {
          "_0": "result : array containing all the token IDs owned by `_owner`"
        }
      },
      "totalSupply()": {
        "details": "See {IERC721Enumerable-totalSupply}."
      },
      "transferFrom(address,address,uint256)": {
        "details": "See {IERC721-transferFrom}."
      },
      "transferOwnership(address)": {
        "details": "Transfers ownership of the contract to a new account (`newOwner`). Can only be called by the current owner."
      },
      "unclaimedSupply(uint256)": {
        "params": {
          "_tokenId": ": drop identifier"
        },
        "returns": {
          "_0": "unclaimedSupply : the remaining supply to be minted for `_dropId`"
        }
      }
    },
    "version": 1
  },
  "userdoc": {
    "errors": {
      "DropSoldOut()": [
        {
          "notice": "Error returned if the drop is sold-out*"
        }
      ],
      "IncorrectETHSent()": [
        {
          "notice": "Error returned if user did not send the correct amount of ETH*"
        }
      ],
      "IncorrectInterface()": [
        {
          "notice": "Error returned if the contract passed as parameters does not implement the expected interface  *"
        }
      ],
      "MaxMintPerAddress()": [
        {
          "notice": "Error returned if user attempt to mint more than allowed by the drop*"
        }
      ],
      "NotEnoughTokensAvailable()": [
        {
          "notice": "Error returned if the supply is sold out*"
        }
      ],
      "NotInMerkle()": [
        {
          "notice": "Error returned if non-whitelisted user attempts to mint prior to public sale  *"
        }
      ],
      "NothingToWithdraw()": [
        {
          "notice": "Error returned if there are no ETH to withdraw from the contract*"
        }
      ],
      "SaleNotStarted()": [
        {
          "notice": "Error returned if the whitelist sale has not started yet*"
        }
      ]
    },
    "kind": "user",
    "methods": {
      "claimTo(address,uint256,uint256)": {
        "notice": "Let a user mint `_quantity` token(s) of the given `_dropId`"
      },
      "constructor": {
        "notice": "Another721 contract constructor"
      },
      "getClaimIneligibilityReason(address,uint256,uint256)": {
        "notice": "Returns the reason why `_to` cannot mint `_quantity` token from `_dropId`"
      },
      "mint(address,uint256,uint256,bytes32[])": {
        "notice": "Let a whitelisted user mint `_quantity` token(s) of the given `_dropId`"
      },
      "price(uint256)": {
        "notice": "Returns the mint price for a given `_dropId`"
      },
      "setBaseURI(string)": {
        "notice": "Update the Base URI  Only the contract owner can perform this operation"
      },
      "setDropManager(address)": {
        "notice": "Update dropManager address  Only the contract owner can perform this operation"
      },
      "tokensOfOwner(address)": {
        "notice": "Return an array containing the token IDs owned by the given address"
      },
      "unclaimedSupply(uint256)": {
        "notice": "Returns the remaining supply for a given `_dropId`"
      },
      "withdrawAll()": {
        "notice": "Withdraw mint proceeds to Anotherblock Treasury address"
      }
    },
    "version": 1
  },
  "storageLayout": {
    "storage": [
      {
        "astId": 6979,
        "contract": "contracts/ABNFT.sol:ABNFT",
        "label": "_name",
        "offset": 0,
        "slot": "0",
        "type": "t_string_storage"
      },
      {
        "astId": 6981,
        "contract": "contracts/ABNFT.sol:ABNFT",
        "label": "_symbol",
        "offset": 0,
        "slot": "1",
        "type": "t_string_storage"
      },
      {
        "astId": 6985,
        "contract": "contracts/ABNFT.sol:ABNFT",
        "label": "_owners",
        "offset": 0,
        "slot": "2",
        "type": "t_mapping(t_uint256,t_address)"
      },
      {
        "astId": 6989,
        "contract": "contracts/ABNFT.sol:ABNFT",
        "label": "_balances",
        "offset": 0,
        "slot": "3",
        "type": "t_mapping(t_address,t_uint256)"
      },
      {
        "astId": 6993,
        "contract": "contracts/ABNFT.sol:ABNFT",
        "label": "_tokenApprovals",
        "offset": 0,
        "slot": "4",
        "type": "t_mapping(t_uint256,t_address)"
      },
      {
        "astId": 6999,
        "contract": "contracts/ABNFT.sol:ABNFT",
        "label": "_operatorApprovals",
        "offset": 0,
        "slot": "5",
        "type": "t_mapping(t_address,t_mapping(t_address,t_bool))"
      },
      {
        "astId": 7969,
        "contract": "contracts/ABNFT.sol:ABNFT",
        "label": "_ownedTokens",
        "offset": 0,
        "slot": "6",
        "type": "t_mapping(t_address,t_mapping(t_uint256,t_uint256))"
      },
      {
        "astId": 7973,
        "contract": "contracts/ABNFT.sol:ABNFT",
        "label": "_ownedTokensIndex",
        "offset": 0,
        "slot": "7",
        "type": "t_mapping(t_uint256,t_uint256)"
      },
      {
        "astId": 7976,
        "contract": "contracts/ABNFT.sol:ABNFT",
        "label": "_allTokens",
        "offset": 0,
        "slot": "8",
        "type": "t_array(t_uint256)dyn_storage"
      },
      {
        "astId": 7980,
        "contract": "contracts/ABNFT.sol:ABNFT",
        "label": "_allTokensIndex",
        "offset": 0,
        "slot": "9",
        "type": "t_mapping(t_uint256,t_uint256)"
      },
      {
        "astId": 9827,
        "contract": "contracts/ABNFT.sol:ABNFT",
        "label": "_supportedInterfaces",
        "offset": 0,
        "slot": "10",
        "type": "t_mapping(t_bytes4,t_bool)"
      },
      {
        "astId": 4901,
        "contract": "contracts/ABNFT.sol:ABNFT",
        "label": "_owner",
        "offset": 0,
        "slot": "11",
        "type": "t_address"
      },
      {
        "astId": 19798,
        "contract": "contracts/ABNFT.sol:ABNFT",
        "label": "dropManager",
        "offset": 0,
        "slot": "12",
        "type": "t_address"
      },
      {
        "astId": 19800,
        "contract": "contracts/ABNFT.sol:ABNFT",
        "label": "relay",
        "offset": 0,
        "slot": "13",
        "type": "t_address"
      },
      {
        "astId": 19803,
        "contract": "contracts/ABNFT.sol:ABNFT",
        "label": "messenger",
        "offset": 0,
        "slot": "14",
        "type": "t_contract(IL1CrossDomainMessenger)53"
      },
      {
        "astId": 19810,
        "contract": "contracts/ABNFT.sol:ABNFT",
        "label": "dropIdPerToken",
        "offset": 0,
        "slot": "15",
        "type": "t_mapping(t_uint256,t_uint256)"
      },
      {
        "astId": 19816,
        "contract": "contracts/ABNFT.sol:ABNFT",
        "label": "mintedPerDropPublicSale",
        "offset": 0,
        "slot": "16",
        "type": "t_mapping(t_uint256,t_mapping(t_address,t_uint256))"
      },
      {
        "astId": 19822,
        "contract": "contracts/ABNFT.sol:ABNFT",
        "label": "mintedPerDropPrivateSale",
        "offset": 0,
        "slot": "17",
        "type": "t_mapping(t_uint256,t_mapping(t_address,t_uint256))"
      },
      {
        "astId": 17830,
        "contract": "contracts/ABNFT.sol:ABNFT",
        "label": "baseTokenURI",
        "offset": 0,
        "slot": "18",
        "type": "t_string_storage"
      }
    ],
    "types": {
      "t_address": {
        "encoding": "inplace",
        "label": "address",
        "numberOfBytes": "20"
      },
      "t_array(t_uint256)dyn_storage": {
        "base": "t_uint256",
        "encoding": "dynamic_array",
        "label": "uint256[]",
        "numberOfBytes": "32"
      },
      "t_bool": {
        "encoding": "inplace",
        "label": "bool",
        "numberOfBytes": "1"
      },
      "t_bytes4": {
        "encoding": "inplace",
        "label": "bytes4",
        "numberOfBytes": "4"
      },
      "t_contract(IL1CrossDomainMessenger)53": {
        "encoding": "inplace",
        "label": "contract IL1CrossDomainMessenger",
        "numberOfBytes": "20"
      },
      "t_mapping(t_address,t_bool)": {
        "encoding": "mapping",
        "key": "t_address",
        "label": "mapping(address => bool)",
        "numberOfBytes": "32",
        "value": "t_bool"
      },
      "t_mapping(t_address,t_mapping(t_address,t_bool))": {
        "encoding": "mapping",
        "key": "t_address",
        "label": "mapping(address => mapping(address => bool))",
        "numberOfBytes": "32",
        "value": "t_mapping(t_address,t_bool)"
      },
      "t_mapping(t_address,t_mapping(t_uint256,t_uint256))": {
        "encoding": "mapping",
        "key": "t_address",
        "label": "mapping(address => mapping(uint256 => uint256))",
        "numberOfBytes": "32",
        "value": "t_mapping(t_uint256,t_uint256)"
      },
      "t_mapping(t_address,t_uint256)": {
        "encoding": "mapping",
        "key": "t_address",
        "label": "mapping(address => uint256)",
        "numberOfBytes": "32",
        "value": "t_uint256"
      },
      "t_mapping(t_bytes4,t_bool)": {
        "encoding": "mapping",
        "key": "t_bytes4",
        "label": "mapping(bytes4 => bool)",
        "numberOfBytes": "32",
        "value": "t_bool"
      },
      "t_mapping(t_uint256,t_address)": {
        "encoding": "mapping",
        "key": "t_uint256",
        "label": "mapping(uint256 => address)",
        "numberOfBytes": "32",
        "value": "t_address"
      },
      "t_mapping(t_uint256,t_mapping(t_address,t_uint256))": {
        "encoding": "mapping",
        "key": "t_uint256",
        "label": "mapping(uint256 => mapping(address => uint256))",
        "numberOfBytes": "32",
        "value": "t_mapping(t_address,t_uint256)"
      },
      "t_mapping(t_uint256,t_uint256)": {
        "encoding": "mapping",
        "key": "t_uint256",
        "label": "mapping(uint256 => uint256)",
        "numberOfBytes": "32",
        "value": "t_uint256"
      },
      "t_string_storage": {
        "encoding": "bytes",
        "label": "string",
        "numberOfBytes": "32"
      },
      "t_uint256": {
        "encoding": "inplace",
        "label": "uint256",
        "numberOfBytes": "32"
      }
    }
  }
}