{
  "address": "0xD8F1c55315C85e68C87a87182B40B74132828Da5",
  "abi": [
    {
      "inputs": [
        {
          "internalType": "string",
          "name": "_name",
          "type": "string"
        },
        {
          "internalType": "string",
          "name": "_symbol",
          "type": "string"
        },
        {
          "internalType": "address",
          "name": "_optimisticContractAddress",
          "type": "address"
        },
        {
          "internalType": "address",
          "name": "_cashflowContract",
          "type": "address"
        },
        {
          "internalType": "int96",
          "name": "_rate",
          "type": "int96"
        }
      ],
      "stateMutability": "nonpayable",
      "type": "constructor"
    },
    {
      "anonymous": false,
      "inputs": [
        {
          "indexed": true,
          "internalType": "address",
          "name": "owner",
          "type": "address"
        },
        {
          "indexed": true,
          "internalType": "address",
          "name": "approved",
          "type": "address"
        },
        {
          "indexed": true,
          "internalType": "uint256",
          "name": "tokenId",
          "type": "uint256"
        }
      ],
      "name": "Approval",
      "type": "event"
    },
    {
      "anonymous": false,
      "inputs": [
        {
          "indexed": true,
          "internalType": "address",
          "name": "owner",
          "type": "address"
        },
        {
          "indexed": true,
          "internalType": "address",
          "name": "operator",
          "type": "address"
        },
        {
          "indexed": false,
          "internalType": "bool",
          "name": "approved",
          "type": "bool"
        }
      ],
      "name": "ApprovalForAll",
      "type": "event"
    },
    {
      "anonymous": false,
      "inputs": [
        {
          "indexed": true,
          "internalType": "address",
          "name": "from",
          "type": "address"
        },
        {
          "indexed": true,
          "internalType": "address",
          "name": "to",
          "type": "address"
        },
        {
          "indexed": true,
          "internalType": "uint256",
          "name": "tokenId",
          "type": "uint256"
        }
      ],
      "name": "Transfer",
      "type": "event"
    },
    {
      "inputs": [],
      "name": "MAX_MINT",
      "outputs": [
        {
          "internalType": "uint256",
          "name": "",
          "type": "uint256"
        }
      ],
      "stateMutability": "view",
      "type": "function"
    },
    {
      "inputs": [
        {
          "internalType": "address",
          "name": "to",
          "type": "address"
        },
        {
          "internalType": "uint256",
          "name": "tokenId",
          "type": "uint256"
        }
      ],
      "name": "approve",
      "outputs": [],
      "stateMutability": "nonpayable",
      "type": "function"
    },
    {
      "inputs": [
        {
          "internalType": "address",
          "name": "owner",
          "type": "address"
        }
      ],
      "name": "balanceOf",
      "outputs": [
        {
          "internalType": "uint256",
          "name": "",
          "type": "uint256"
        }
      ],
      "stateMutability": "view",
      "type": "function"
    },
    {
      "inputs": [],
      "name": "cashflowContract",
      "outputs": [
        {
          "internalType": "address",
          "name": "",
          "type": "address"
        }
      ],
      "stateMutability": "view",
      "type": "function"
    },
    {
      "inputs": [
        {
          "internalType": "uint256",
          "name": "tokenId",
          "type": "uint256"
        }
      ],
      "name": "getApproved",
      "outputs": [
        {
          "internalType": "address",
          "name": "",
          "type": "address"
        }
      ],
      "stateMutability": "view",
      "type": "function"
    },
    {
      "inputs": [
        {
          "internalType": "address",
          "name": "owner",
          "type": "address"
        },
        {
          "internalType": "address",
          "name": "operator",
          "type": "address"
        }
      ],
      "name": "isApprovedForAll",
      "outputs": [
        {
          "internalType": "bool",
          "name": "",
          "type": "bool"
        }
      ],
      "stateMutability": "view",
      "type": "function"
    },
    {
      "inputs": [],
      "name": "mintCount",
      "outputs": [
        {
          "internalType": "uint256",
          "name": "",
          "type": "uint256"
        }
      ],
      "stateMutability": "view",
      "type": "function"
    },
    {
      "inputs": [
        {
          "internalType": "address",
          "name": "subscriber",
          "type": "address"
        },
        {
          "internalType": "uint256",
          "name": "quantity",
          "type": "uint256"
        }
      ],
      "name": "mintNft",
      "outputs": [],
      "stateMutability": "nonpayable",
      "type": "function"
    },
    {
      "inputs": [],
      "name": "name",
      "outputs": [
        {
          "internalType": "string",
          "name": "",
          "type": "string"
        }
      ],
      "stateMutability": "view",
      "type": "function"
    },
    {
      "inputs": [
        {
          "internalType": "uint256",
          "name": "tokenId",
          "type": "uint256"
        }
      ],
      "name": "ownerOf",
      "outputs": [
        {
          "internalType": "address",
          "name": "",
          "type": "address"
        }
      ],
      "stateMutability": "view",
      "type": "function"
    },
    {
      "inputs": [],
      "name": "rate",
      "outputs": [
        {
          "internalType": "int96",
          "name": "",
          "type": "int96"
        }
      ],
      "stateMutability": "view",
      "type": "function"
    },
    {
      "inputs": [
        {
          "internalType": "address",
          "name": "from",
          "type": "address"
        },
        {
          "internalType": "address",
          "name": "to",
          "type": "address"
        },
        {
          "internalType": "uint256",
          "name": "tokenId",
          "type": "uint256"
        }
      ],
      "name": "safeTransferFrom",
      "outputs": [],
      "stateMutability": "nonpayable",
      "type": "function"
    },
    {
      "inputs": [
        {
          "internalType": "address",
          "name": "from",
          "type": "address"
        },
        {
          "internalType": "address",
          "name": "to",
          "type": "address"
        },
        {
          "internalType": "uint256",
          "name": "tokenId",
          "type": "uint256"
        },
        {
          "internalType": "bytes",
          "name": "data",
          "type": "bytes"
        }
      ],
      "name": "safeTransferFrom",
      "outputs": [],
      "stateMutability": "nonpayable",
      "type": "function"
    },
    {
      "inputs": [
        {
          "internalType": "address",
          "name": "operator",
          "type": "address"
        },
        {
          "internalType": "bool",
          "name": "approved",
          "type": "bool"
        }
      ],
      "name": "setApprovalForAll",
      "outputs": [],
      "stateMutability": "nonpayable",
      "type": "function"
    },
    {
      "inputs": [
        {
          "internalType": "bytes4",
          "name": "interfaceId",
          "type": "bytes4"
        }
      ],
      "name": "supportsInterface",
      "outputs": [
        {
          "internalType": "bool",
          "name": "",
          "type": "bool"
        }
      ],
      "stateMutability": "view",
      "type": "function"
    },
    {
      "inputs": [],
      "name": "symbol",
      "outputs": [
        {
          "internalType": "string",
          "name": "",
          "type": "string"
        }
      ],
      "stateMutability": "view",
      "type": "function"
    },
    {
      "inputs": [
        {
          "internalType": "uint256",
          "name": "tokenId",
          "type": "uint256"
        }
      ],
      "name": "tokenURI",
      "outputs": [
        {
          "internalType": "string",
          "name": "",
          "type": "string"
        }
      ],
      "stateMutability": "view",
      "type": "function"
    },
    {
      "inputs": [
        {
          "internalType": "address",
          "name": "from",
          "type": "address"
        },
        {
          "internalType": "address",
          "name": "to",
          "type": "address"
        },
        {
          "internalType": "uint256",
          "name": "tokenId",
          "type": "uint256"
        }
      ],
      "name": "transferFrom",
      "outputs": [],
      "stateMutability": "nonpayable",
      "type": "function"
    }
  ],
  "transactionHash": "0xfcc48f83fc3376549759b13e8e097937eedec7de11001cfb32a62d4e5d48b76d",
  "args": [
    "NFT",
    "NFT",
    "0x5086d1eEF304eb5284A0f6720f79403b4e9bE294",
    "0x659A19f8b075B89aCD7ceC656197FfBfb77bb644",
    "100000000000000000000"
  ],
  "numDeployments": 10,
  "solcInputHash": "3169cc957f916ec948ab4facdb103b0e",
  "bytecode": "0x6080604052600060075560646008553480156200001b57600080fd5b5060405162001a2838038062001a288339810160408190526200003e916200019b565b848460006200004e8382620002d5565b5060016200005d8282620002d5565b5050600a80546001600160a01b03199081166001600160a01b039687161790915560098054909116939094169290921790925550600680546001600160601b0319166001600160601b0390921691909117905550620003a19050565b634e487b7160e01b600052604160045260246000fd5b600082601f830112620000e157600080fd5b81516001600160401b0380821115620000fe57620000fe620000b9565b604051601f8301601f19908116603f01168101908282118183101715620001295762000129620000b9565b816040528381526020925086838588010111156200014657600080fd5b600091505b838210156200016a57858201830151818301840152908201906200014b565b600093810190920192909252949350505050565b80516001600160a01b03811681146200019657600080fd5b919050565b600080600080600060a08688031215620001b457600080fd5b85516001600160401b0380821115620001cc57600080fd5b620001da89838a01620000cf565b96506020880151915080821115620001f157600080fd5b506200020088828901620000cf565b94505062000211604087016200017e565b925062000221606087016200017e565b9150608086015180600b0b81146200023857600080fd5b809150509295509295909350565b600181811c908216806200025b57607f821691505b6020821081036200027c57634e487b7160e01b600052602260045260246000fd5b50919050565b601f821115620002d057600081815260208120601f850160051c81016020861015620002ab5750805b601f850160051c820191505b81811015620002cc57828155600101620002b7565b5050505b505050565b81516001600160401b03811115620002f157620002f1620000b9565b620003098162000302845462000246565b8462000282565b602080601f831160018114620003415760008415620003285750858301515b600019600386901b1c1916600185901b178555620002cc565b600085815260208120601f198616915b82811015620003725788860151825594840194600190910190840162000351565b5085821015620003915787850151600019600388901b60f8161c191681555b5050505050600190811b01905550565b61167780620003b16000396000f3fe608060405234801561001057600080fd5b50600436106100e65760003560e01c806301ffc9a7146100eb57806306fdde0314610113578063081812fc14610128578063095ea7b31461015357806323b872dd146101685780632c4e722e1461017b57806342842e0e1461019b5780636352211e146101ae57806370a08231146101c15780638d32238f146101e257806395d89b41146101f55780639659867e146101fd578063a22cb46514610206578063b88d4fde14610219578063c87b56dd1461022c578063d1194e2b1461023f578063e985e9c514610252578063f0292a0314610265575b600080fd5b6100fe6100f9366004611041565b61026e565b60405190151581526020015b60405180910390f35b61011b6102c0565b60405161010a91906110ae565b61013b6101363660046110c1565b610352565b6040516001600160a01b03909116815260200161010a565b6101666101613660046110f6565b610379565b005b610166610176366004611120565b610493565b60065461018890600b0b81565b604051600b9190910b815260200161010a565b6101666101a9366004611120565b6104c4565b61013b6101bc3660046110c1565b6104df565b6101d46101cf36600461115c565b610514565b60405190815260200161010a565b60095461013b906001600160a01b031681565b61011b61059a565b6101d460075481565b610166610214366004611177565b6105a9565b6101666102273660046111c9565b6105b8565b61011b61023a3660046110c1565b6105f0565b61016661024d3660046110f6565b610664565b6100fe6102603660046112a4565b610822565b6101d460085481565b60006001600160e01b031982166380ac58cd60e01b148061029f57506001600160e01b03198216635b5e139f60e01b145b806102ba57506301ffc9a760e01b6001600160e01b03198316145b92915050565b6060600080546102cf906112d7565b80601f01602080910402602001604051908101604052809291908181526020018280546102fb906112d7565b80156103485780601f1061031d57610100808354040283529160200191610348565b820191906000526020600020905b81548152906001019060200180831161032b57829003601f168201915b5050505050905090565b600061035d82610850565b506000908152600460205260409020546001600160a01b031690565b6000610384826104df565b9050806001600160a01b0316836001600160a01b0316036103f65760405162461bcd60e51b815260206004820152602160248201527f4552433732313a20617070726f76616c20746f2063757272656e74206f776e656044820152603960f91b60648201526084015b60405180910390fd5b336001600160a01b038216148061041257506104128133610822565b6104845760405162461bcd60e51b815260206004820152603e60248201527f4552433732313a20617070726f76652063616c6c6572206973206e6f7420746f60448201527f6b656e206f776e6572206e6f7220617070726f76656420666f7220616c6c000060648201526084016103ed565b61048e8383610878565b505050565b61049d33826108e6565b6104b95760405162461bcd60e51b81526004016103ed90611311565b61048e838383610945565b61048e838383604051806020016040528060008152506105b8565b6000818152600260205260408120546001600160a01b0316806102ba5760405162461bcd60e51b81526004016103ed9061135f565b60006001600160a01b03821661057e5760405162461bcd60e51b815260206004820152602960248201527f4552433732313a2061646472657373207a65726f206973206e6f7420612076616044820152683634b21037bbb732b960b91b60648201526084016103ed565b506001600160a01b031660009081526003602052604090205490565b6060600180546102cf906112d7565b6105b4338383610ada565b5050565b6105c233836108e6565b6105de5760405162461bcd60e51b81526004016103ed90611311565b6105ea84848484610ba4565b50505050565b60606105fb82610850565b600061061260408051602081019091526000815290565b90506000815111610632576040518060200160405280600081525061065d565b8061063c84610bd7565b60405160200161064d929190611391565b6040516020818303038152906040525b9392505050565b6008548160075461067591906113d6565b11156106b95760405162461bcd60e51b81526020600482015260136024820152721b9bdd08195b9bdd59da1d081d1bc81b5a5b9d606a1b60448201526064016103ed565b6008546000906106cc620f4240846113e9565b6106d6919061141e565b600654909150600090620f4240906106f2908490600b0b611432565b6106fc91906114b7565b905060005b8381101561080457600a546009546007546001600160a01b0392831692633dbb202b921690889086906107359087906113d6565b6040516001600160a01b039093166024840152600b9190910b6044830152606482015260840160408051601f198184030181529181526020820180516001600160e01b03166237d01160e51b1790525160e084901b6001600160e01b03191681526107a992919062989680906004016114e5565b600060405180830381600087803b1580156107c357600080fd5b505af11580156107d7573d6000803e3d6000fd5b505050506107f285826007546107ed91906113d6565b610cd7565b806107fc8161151f565b915050610701565b50826007600082825461081791906113d6565b909155505050505050565b6001600160a01b03918216600090815260056020908152604080832093909416825291909152205460ff1690565b61085981610cf1565b6108755760405162461bcd60e51b81526004016103ed9061135f565b50565b600081815260046020526040902080546001600160a01b0319166001600160a01b03841690811790915581906108ad826104df565b6001600160a01b03167f8c5be1e5ebec7d5bd14f71427d1e84f3dd0314c0f7b2291e5b200ac8c7c3b92560405160405180910390a45050565b6000806108f2836104df565b9050806001600160a01b0316846001600160a01b0316148061091957506109198185610822565b8061093d5750836001600160a01b031661093284610352565b6001600160a01b0316145b949350505050565b826001600160a01b0316610958826104df565b6001600160a01b0316146109bc5760405162461bcd60e51b815260206004820152602560248201527f4552433732313a207472616e736665722066726f6d20696e636f72726563742060448201526437bbb732b960d91b60648201526084016103ed565b6001600160a01b038216610a1e5760405162461bcd60e51b8152602060048201526024808201527f4552433732313a207472616e7366657220746f20746865207a65726f206164646044820152637265737360e01b60648201526084016103ed565b610a29838383610d0e565b610a34600082610878565b6001600160a01b0383166000908152600360205260408120805460019290610a5d908490611538565b90915550506001600160a01b0382166000908152600360205260408120805460019290610a8b9084906113d6565b909155505060008181526002602052604080822080546001600160a01b0319166001600160a01b03868116918217909255915184939187169160008051602061162283398151915291a4505050565b816001600160a01b0316836001600160a01b031603610b375760405162461bcd60e51b815260206004820152601960248201527822a9219b99189d1030b8383937bb32903a379031b0b63632b960391b60448201526064016103ed565b6001600160a01b03838116600081815260056020908152604080832094871680845294825291829020805460ff191686151590811790915591519182527f17307eab39ab6107e8899845ad3d59bd9653f200f220920489ca2b5937696c31910160405180910390a3505050565b610baf848484610945565b610bbb84848484610dcb565b6105ea5760405162461bcd60e51b81526004016103ed9061154b565b606081600003610bfe5750506040805180820190915260018152600360fc1b602082015290565b8160005b8115610c285780610c128161151f565b9150610c219050600a8361141e565b9150610c02565b6000816001600160401b03811115610c4257610c426111b3565b6040519080825280601f01601f191660200182016040528015610c6c576020820181803683370190505b5090505b841561093d57610c81600183611538565b9150610c8e600a8661159d565b610c999060306113d6565b60f81b818381518110610cae57610cae6115b1565b60200101906001600160f81b031916908160001a905350610cd0600a8661141e565b9450610c70565b6105b4828260405180602001604052806000815250610ecc565b6000908152600260205260409020546001600160a01b0316151590565b600a546009546040516001600160a01b03868116602483015285811660448301526064820185905292831692633dbb202b92169060840160408051601f198184030181529181526020820180516001600160e01b0316634ab8477160e01b1790525160e084901b6001600160e01b0319168152610d9492919062989681906004016114e5565b600060405180830381600087803b158015610dae57600080fd5b505af1158015610dc2573d6000803e3d6000fd5b50505050505050565b60006001600160a01b0384163b15610ec157604051630a85bd0160e11b81526001600160a01b0385169063150b7a0290610e0f9033908990889088906004016115c7565b6020604051808303816000875af1925050508015610e4a575060408051601f3d908101601f19168201909252610e4791810190611604565b60015b610ea7573d808015610e78576040519150601f19603f3d011682016040523d82523d6000602084013e610e7d565b606091505b508051600003610e9f5760405162461bcd60e51b81526004016103ed9061154b565b805181602001fd5b6001600160e01b031916630a85bd0160e11b14905061093d565b506001949350505050565b610ed68383610eff565b610ee36000848484610dcb565b61048e5760405162461bcd60e51b81526004016103ed9061154b565b6001600160a01b038216610f555760405162461bcd60e51b815260206004820181905260248201527f4552433732313a206d696e7420746f20746865207a65726f206164647265737360448201526064016103ed565b610f5e81610cf1565b15610faa5760405162461bcd60e51b815260206004820152601c60248201527b115490cdcc8c4e881d1bdad95b88185b1c9958591e481b5a5b9d195960221b60448201526064016103ed565b610fb660008383610d0e565b6001600160a01b0382166000908152600360205260408120805460019290610fdf9084906113d6565b909155505060008181526002602052604080822080546001600160a01b0319166001600160a01b0386169081179091559051839290600080516020611622833981519152908290a45050565b6001600160e01b03198116811461087557600080fd5b60006020828403121561105357600080fd5b813561065d8161102b565b60005b83811015611079578181015183820152602001611061565b50506000910152565b6000815180845261109a81602086016020860161105e565b601f01601f19169290920160200192915050565b60208152600061065d6020830184611082565b6000602082840312156110d357600080fd5b5035919050565b80356001600160a01b03811681146110f157600080fd5b919050565b6000806040838503121561110957600080fd5b611112836110da565b946020939093013593505050565b60008060006060848603121561113557600080fd5b61113e846110da565b925061114c602085016110da565b9150604084013590509250925092565b60006020828403121561116e57600080fd5b61065d826110da565b6000806040838503121561118a57600080fd5b611193836110da565b9150602083013580151581146111a857600080fd5b809150509250929050565b634e487b7160e01b600052604160045260246000fd5b600080600080608085870312156111df57600080fd5b6111e8856110da565b93506111f6602086016110da565b92506040850135915060608501356001600160401b038082111561121957600080fd5b818701915087601f83011261122d57600080fd5b81358181111561123f5761123f6111b3565b604051601f8201601f19908116603f01168101908382118183101715611267576112676111b3565b816040528281528a602084870101111561128057600080fd5b82602086016020830137600060208483010152809550505050505092959194509250565b600080604083850312156112b757600080fd5b6112c0836110da565b91506112ce602084016110da565b90509250929050565b600181811c908216806112eb57607f821691505b60208210810361130b57634e487b7160e01b600052602260045260246000fd5b50919050565b6020808252602e908201527f4552433732313a2063616c6c6572206973206e6f7420746f6b656e206f776e6560408201526d1c881b9bdc88185c1c1c9bdd995960921b606082015260800190565b602080825260189082015277115490cdcc8c4e881a5b9d985b1a59081d1bdad95b88125160421b604082015260600190565b600083516113a381846020880161105e565b8351908301906113b781836020880161105e565b01949350505050565b634e487b7160e01b600052601160045260246000fd5b808201808211156102ba576102ba6113c0565b6000816000190483118215151615611403576114036113c0565b500290565b634e487b7160e01b600052601260045260246000fd5b60008261142d5761142d611408565b500490565b60006001600160ff1b0381841382841380821686840486111615611458576114586113c0565b600160ff1b6000871282811687830589121615611477576114776113c0565b60008712925087820587128484161615611493576114936113c0565b878505871281841616156114a9576114a96113c0565b505050929093029392505050565b6000826114c6576114c6611408565b600160ff1b8214600019841416156114e0576114e06113c0565b500590565b6001600160a01b038416815260606020820181905260009061150990830185611082565b905063ffffffff83166040830152949350505050565b600060018201611531576115316113c0565b5060010190565b818103818111156102ba576102ba6113c0565b60208082526032908201527f4552433732313a207472616e7366657220746f206e6f6e20455243373231526560408201527131b2b4bb32b91034b6b83632b6b2b73a32b960711b606082015260800190565b6000826115ac576115ac611408565b500690565b634e487b7160e01b600052603260045260246000fd5b6001600160a01b03858116825284166020820152604081018390526080606082018190526000906115fa90830184611082565b9695505050505050565b60006020828403121561161657600080fd5b815161065d8161102b56feddf252ad1be2c89b69c2b068fc378daa952ba7f163c4a11628f55a4df523b3efa2646970667358221220cb205cbd252e450af721d4c56727e10b93fa638088e76064cc15ca240d4d79ee64736f6c63430008100033",
  "devdoc": {
    "kind": "dev",
    "methods": {
      "approve(address,uint256)": {
        "details": "See {IERC721-approve}."
      },
      "balanceOf(address)": {
        "details": "See {IERC721-balanceOf}."
      },
      "getApproved(uint256)": {
        "details": "See {IERC721-getApproved}."
      },
      "isApprovedForAll(address,address)": {
        "details": "See {IERC721-isApprovedForAll}."
      },
      "name()": {
        "details": "See {IERC721Metadata-name}."
      },
      "ownerOf(uint256)": {
        "details": "See {IERC721-ownerOf}."
      },
      "safeTransferFrom(address,address,uint256)": {
        "details": "See {IERC721-safeTransferFrom}."
      },
      "safeTransferFrom(address,address,uint256,bytes)": {
        "details": "See {IERC721-safeTransferFrom}."
      },
      "setApprovalForAll(address,bool)": {
        "details": "See {IERC721-setApprovalForAll}."
      },
      "supportsInterface(bytes4)": {
        "details": "See {IERC165-supportsInterface}."
      },
      "symbol()": {
        "details": "See {IERC721Metadata-symbol}."
      },
      "tokenURI(uint256)": {
        "details": "See {IERC721Metadata-tokenURI}."
      },
      "transferFrom(address,address,uint256)": {
        "details": "See {IERC721-transferFrom}."
      }
    },
    "version": 1
  },
  "userdoc": {
    "kind": "user",
    "methods": {},
    "version": 1
  },
  "storageLayout": {
    "storage": [
      {
        "astId": 5185,
        "contract": "contracts/MyNFT.sol:MyNFT",
        "label": "_name",
        "offset": 0,
        "slot": "0",
        "type": "t_string_storage"
      },
      {
        "astId": 5187,
        "contract": "contracts/MyNFT.sol:MyNFT",
        "label": "_symbol",
        "offset": 0,
        "slot": "1",
        "type": "t_string_storage"
      },
      {
        "astId": 5191,
        "contract": "contracts/MyNFT.sol:MyNFT",
        "label": "_owners",
        "offset": 0,
        "slot": "2",
        "type": "t_mapping(t_uint256,t_address)"
      },
      {
        "astId": 5195,
        "contract": "contracts/MyNFT.sol:MyNFT",
        "label": "_balances",
        "offset": 0,
        "slot": "3",
        "type": "t_mapping(t_address,t_uint256)"
      },
      {
        "astId": 5199,
        "contract": "contracts/MyNFT.sol:MyNFT",
        "label": "_tokenApprovals",
        "offset": 0,
        "slot": "4",
        "type": "t_mapping(t_uint256,t_address)"
      },
      {
        "astId": 5205,
        "contract": "contracts/MyNFT.sol:MyNFT",
        "label": "_operatorApprovals",
        "offset": 0,
        "slot": "5",
        "type": "t_mapping(t_address,t_mapping(t_address,t_bool))"
      },
      {
        "astId": 14047,
        "contract": "contracts/MyNFT.sol:MyNFT",
        "label": "rate",
        "offset": 0,
        "slot": "6",
        "type": "t_int96"
      },
      {
        "astId": 14050,
        "contract": "contracts/MyNFT.sol:MyNFT",
        "label": "mintCount",
        "offset": 0,
        "slot": "7",
        "type": "t_uint256"
      },
      {
        "astId": 14053,
        "contract": "contracts/MyNFT.sol:MyNFT",
        "label": "MAX_MINT",
        "offset": 0,
        "slot": "8",
        "type": "t_uint256"
      },
      {
        "astId": 14055,
        "contract": "contracts/MyNFT.sol:MyNFT",
        "label": "cashflowContract",
        "offset": 0,
        "slot": "9",
        "type": "t_address"
      },
      {
        "astId": 14058,
        "contract": "contracts/MyNFT.sol:MyNFT",
        "label": "messenger",
        "offset": 0,
        "slot": "10",
        "type": "t_contract(IL1CrossDomainMessenger)53"
      }
    ],
    "types": {
      "t_address": {
        "encoding": "inplace",
        "label": "address",
        "numberOfBytes": "20"
      },
      "t_bool": {
        "encoding": "inplace",
        "label": "bool",
        "numberOfBytes": "1"
      },
      "t_contract(IL1CrossDomainMessenger)53": {
        "encoding": "inplace",
        "label": "contract IL1CrossDomainMessenger",
        "numberOfBytes": "20"
      },
      "t_int96": {
        "encoding": "inplace",
        "label": "int96",
        "numberOfBytes": "12"
      },
      "t_mapping(t_address,t_bool)": {
        "encoding": "mapping",
        "key": "t_address",
        "label": "mapping(address => bool)",
        "numberOfBytes": "32",
        "value": "t_bool"
      },
      "t_mapping(t_address,t_mapping(t_address,t_bool))": {
        "encoding": "mapping",
        "key": "t_address",
        "label": "mapping(address => mapping(address => bool))",
        "numberOfBytes": "32",
        "value": "t_mapping(t_address,t_bool)"
      },
      "t_mapping(t_address,t_uint256)": {
        "encoding": "mapping",
        "key": "t_address",
        "label": "mapping(address => uint256)",
        "numberOfBytes": "32",
        "value": "t_uint256"
      },
      "t_mapping(t_uint256,t_address)": {
        "encoding": "mapping",
        "key": "t_uint256",
        "label": "mapping(uint256 => address)",
        "numberOfBytes": "32",
        "value": "t_address"
      },
      "t_string_storage": {
        "encoding": "bytes",
        "label": "string",
        "numberOfBytes": "32"
      },
      "t_uint256": {
        "encoding": "inplace",
        "label": "uint256",
        "numberOfBytes": "32"
      }
    }
  }
}