{
  "address": "0x97fd2076EB12aB62901C783115925cB253711c55",
  "abi": [
    {
      "anonymous": false,
      "inputs": [
        {
          "indexed": true,
          "internalType": "address",
          "name": "previousOwner",
          "type": "address"
        },
        {
          "indexed": true,
          "internalType": "address",
          "name": "newOwner",
          "type": "address"
        }
      ],
      "name": "OwnershipTransferred",
      "type": "event"
    },
    {
      "inputs": [
        {
          "internalType": "int96",
          "name": "_baseFlow",
          "type": "int96"
        },
        {
          "internalType": "uint256",
          "name": "_dropId",
          "type": "uint256"
        }
      ],
      "name": "createdDrop",
      "outputs": [],
      "stateMutability": "nonpayable",
      "type": "function"
    },
    {
      "inputs": [
        {
          "internalType": "address",
          "name": "_sender",
          "type": "address"
        }
      ],
      "name": "grantAllowance",
      "outputs": [],
      "stateMutability": "nonpayable",
      "type": "function"
    },
    {
      "inputs": [],
      "name": "owner",
      "outputs": [
        {
          "internalType": "address",
          "name": "",
          "type": "address"
        }
      ],
      "stateMutability": "view",
      "type": "function"
    },
    {
      "inputs": [],
      "name": "renounceOwnership",
      "outputs": [],
      "stateMutability": "nonpayable",
      "type": "function"
    },
    {
      "inputs": [
        {
          "internalType": "address",
          "name": "_sender",
          "type": "address"
        }
      ],
      "name": "revokeAllowance",
      "outputs": [],
      "stateMutability": "nonpayable",
      "type": "function"
    },
    {
      "inputs": [
        {
          "internalType": "address",
          "name": "_abRegistry",
          "type": "address"
        }
      ],
      "name": "setABRegistry",
      "outputs": [],
      "stateMutability": "nonpayable",
      "type": "function"
    },
    {
      "inputs": [
        {
          "internalType": "address",
          "name": "_abStream",
          "type": "address"
        }
      ],
      "name": "setABStream",
      "outputs": [],
      "stateMutability": "nonpayable",
      "type": "function"
    },
    {
      "inputs": [
        {
          "internalType": "address",
          "name": "newOwner",
          "type": "address"
        }
      ],
      "name": "transferOwnership",
      "outputs": [],
      "stateMutability": "nonpayable",
      "type": "function"
    },
    {
      "inputs": [
        {
          "internalType": "address",
          "name": "_from",
          "type": "address"
        },
        {
          "internalType": "address",
          "name": "_to",
          "type": "address"
        },
        {
          "internalType": "uint256",
          "name": "_dropId",
          "type": "uint256"
        }
      ],
      "name": "transferredNFT",
      "outputs": [],
      "stateMutability": "nonpayable",
      "type": "function"
    },
    {
      "inputs": [],
      "name": "updatedDrop",
      "outputs": [],
      "stateMutability": "nonpayable",
      "type": "function"
    }
  ],
  "transactionHash": "0xfc40aa653d17af20c63d8246bb272513e1a4ea8d5332fdb0591be80e81a7f19c",
  "args": [],
  "numDeployments": 1,
  "solcInputHash": "41b4ead010fa030ae6b6e49390a8d5aa",
  "bytecode": "0x6080604052600280546001600160a01b03191673420000000000000000000000000000000000000717905534801561003657600080fd5b5061004033610045565b610095565b600080546001600160a01b038381166001600160a01b0319831681178455604051919092169283917f8be0079c531659141344cd1fd0a4f28419497f9722a3daafe3b4186f6b6457e09190a35050565b6107ce806100a46000396000f3fe608060405234801561001057600080fd5b506004361061008e5760003560e01c80630148f9e51461009357806350954dd4146100a8578063715018a6146100bb5780637ea41543146100c35780638da5cb5b146100d6578063a9cf5514146100fa578063ad11fe441461010d578063f07d9a4414610120578063f2fde38b14610128578063fa51453f1461013b575b600080fd5b6100a66100a13660046106c0565b61014e565b005b6100a66100b63660046106e4565b610178565b6100a661029b565b6100a66100d13660046106c0565b6102af565b6100de6102de565b6040516001600160a01b03909116815260200160405180910390f35b6100a6610108366004610716565b6102ed565b6100a661011b3660046106c0565b610474565b6100a661049d565b6100a66101363660046106c0565b610554565b6100a66101493660046106c0565b6105d2565b6101566105fc565b600380546001600160a01b0319166001600160a01b0392909216919091179055565b6002546001600160a01b031633148015610226575060016000600260009054906101000a90046001600160a01b03166001600160a01b0316636e296e456040518163ffffffff1660e01b8152600401602060405180830381865afa1580156101e4573d6000803e3d6000fd5b505050506040513d601f19601f820116820180604052508101906102089190610757565b6001600160a01b0316815260208101919091526040016000205460ff165b61022f57600080fd5b60035460405163048d426360e51b8152600b84900b6004820152602481018390526001600160a01b03909116906391a84c6090604401600060405180830381600087803b15801561027f57600080fd5b505af1158015610293573d6000803e3d6000fd5b505050505050565b6102a36105fc565b6102ad600061065b565b565b6102b76105fc565b6001600160a01b03166000908152600160208190526040909120805460ff19169091179055565b6000546001600160a01b031690565b6002546001600160a01b03163314801561039b575060016000600260009054906101000a90046001600160a01b03166001600160a01b0316636e296e456040518163ffffffff1660e01b8152600401602060405180830381865afa158015610359573d6000803e3d6000fd5b505050506040513d601f19601f8201168201806040525081019061037d9190610757565b6001600160a01b0316815260208101919091526040016000205460ff165b6103a457600080fd5b600480546040516334954a9960e01b81526001600160a01b03909116916334954a99916103d79187918791879101610774565b600060405180830381600087803b1580156103f157600080fd5b505af1158015610405573d6000803e3d6000fd5b50506003546040516321a23ca360e11b81526001600160a01b0390911692506343447946915061043d90869086908690600401610774565b600060405180830381600087803b15801561045757600080fd5b505af115801561046b573d6000803e3d6000fd5b50505050505050565b61047c6105fc565b6001600160a01b03166000908152600160205260409020805460ff19169055565b6002546001600160a01b03163314801561054b575060016000600260009054906101000a90046001600160a01b03166001600160a01b0316636e296e456040518163ffffffff1660e01b8152600401602060405180830381865afa158015610509573d6000803e3d6000fd5b505050506040513d601f19601f8201168201806040525081019061052d9190610757565b6001600160a01b0316815260208101919091526040016000205460ff165b6102ad57600080fd5b61055c6105fc565b6001600160a01b0381166105c65760405162461bcd60e51b815260206004820152602660248201527f4f776e61626c653a206e6577206f776e657220697320746865207a65726f206160448201526564647265737360d01b60648201526084015b60405180910390fd5b6105cf8161065b565b50565b6105da6105fc565b600480546001600160a01b0319166001600160a01b0392909216919091179055565b336106056102de565b6001600160a01b0316146102ad5760405162461bcd60e51b815260206004820181905260248201527f4f776e61626c653a2063616c6c6572206973206e6f7420746865206f776e657260448201526064016105bd565b600080546001600160a01b038381166001600160a01b0319831681178455604051919092169283917f8be0079c531659141344cd1fd0a4f28419497f9722a3daafe3b4186f6b6457e09190a35050565b6001600160a01b03811681146105cf57600080fd5b6000602082840312156106d257600080fd5b81356106dd816106ab565b9392505050565b600080604083850312156106f757600080fd5b823580600b0b811461070857600080fd5b946020939093013593505050565b60008060006060848603121561072b57600080fd5b8335610736816106ab565b92506020840135610746816106ab565b929592945050506040919091013590565b60006020828403121561076957600080fd5b81516106dd816106ab565b6001600160a01b03938416815291909216602082015260408101919091526060019056fea2646970667358221220f2452e94770f9dc9a41153a004f37b397bc8699fd95f7ab0cc0a2754261ee62164736f6c63430008100033",
  "devdoc": {
    "kind": "dev",
    "methods": {
      "owner()": {
        "details": "Returns the address of the current owner."
      },
      "renounceOwnership()": {
        "details": "Leaves the contract without owner. It will not be possible to call `onlyOwner` functions anymore. Can only be called by the current owner. NOTE: Renouncing ownership will leave the contract without an owner, thereby removing any functionality that is only available to the owner."
      },
      "transferOwnership(address)": {
        "details": "Transfers ownership of the contract to a new account (`newOwner`). Can only be called by the current owner."
      }
    },
    "version": 1
  },
  "userdoc": {
    "kind": "user",
    "methods": {},
    "version": 1
  },
  "storageLayout": {
    "storage": [
      {
        "astId": 4901,
        "contract": "contracts/ABRelay.sol:ABRelay",
        "label": "_owner",
        "offset": 0,
        "slot": "0",
        "type": "t_address"
      },
      {
        "astId": 17626,
        "contract": "contracts/ABRelay.sol:ABRelay",
        "label": "allowedSenders",
        "offset": 0,
        "slot": "1",
        "type": "t_mapping(t_address,t_bool)"
      },
      {
        "astId": 17632,
        "contract": "contracts/ABRelay.sol:ABRelay",
        "label": "messenger",
        "offset": 0,
        "slot": "2",
        "type": "t_contract(ICrossDomainMessenger)987"
      },
      {
        "astId": 17635,
        "contract": "contracts/ABRelay.sol:ABRelay",
        "label": "AB_STREAM",
        "offset": 0,
        "slot": "3",
        "type": "t_contract(IABStream)21848"
      },
      {
        "astId": 17638,
        "contract": "contracts/ABRelay.sol:ABRelay",
        "label": "AB_REGISTRY",
        "offset": 0,
        "slot": "4",
        "type": "t_contract(IABRegistry)21801"
      }
    ],
    "types": {
      "t_address": {
        "encoding": "inplace",
        "label": "address",
        "numberOfBytes": "20"
      },
      "t_bool": {
        "encoding": "inplace",
        "label": "bool",
        "numberOfBytes": "1"
      },
      "t_contract(IABRegistry)21801": {
        "encoding": "inplace",
        "label": "contract IABRegistry",
        "numberOfBytes": "20"
      },
      "t_contract(IABStream)21848": {
        "encoding": "inplace",
        "label": "contract IABStream",
        "numberOfBytes": "20"
      },
      "t_contract(ICrossDomainMessenger)987": {
        "encoding": "inplace",
        "label": "contract ICrossDomainMessenger",
        "numberOfBytes": "20"
      },
      "t_mapping(t_address,t_bool)": {
        "encoding": "mapping",
        "key": "t_address",
        "label": "mapping(address => bool)",
        "numberOfBytes": "32",
        "value": "t_bool"
      }
    }
  }
}