{
  "address": "0xAB4d9bC304A99B714bf38F6d98F02A713cD55459",
  "abi": [
    {
      "inputs": [
        {
          "internalType": "address",
          "name": "_relay",
          "type": "address"
        }
      ],
      "stateMutability": "nonpayable",
      "type": "constructor"
    },
    {
      "inputs": [],
      "name": "FORBIDDEN",
      "type": "error"
    },
    {
      "inputs": [],
      "name": "INVALID_PARAMETER",
      "type": "error"
    },
    {
      "anonymous": false,
      "inputs": [
        {
          "indexed": true,
          "internalType": "address",
          "name": "previousOwner",
          "type": "address"
        },
        {
          "indexed": true,
          "internalType": "address",
          "name": "newOwner",
          "type": "address"
        }
      ],
      "name": "OwnershipTransferred",
      "type": "event"
    },
    {
      "inputs": [
        {
          "internalType": "address",
          "name": "_user",
          "type": "address"
        },
        {
          "internalType": "uint256",
          "name": "_dropId",
          "type": "uint256"
        }
      ],
      "name": "decrementUserBalance",
      "outputs": [],
      "stateMutability": "nonpayable",
      "type": "function"
    },
    {
      "inputs": [
        {
          "internalType": "address",
          "name": "_user",
          "type": "address"
        },
        {
          "internalType": "uint256",
          "name": "_dropId",
          "type": "uint256"
        }
      ],
      "name": "getUserBalancePerDrop",
      "outputs": [
        {
          "internalType": "uint256",
          "name": "",
          "type": "uint256"
        }
      ],
      "stateMutability": "nonpayable",
      "type": "function"
    },
    {
      "inputs": [
        {
          "internalType": "address",
          "name": "_user",
          "type": "address"
        },
        {
          "internalType": "uint256",
          "name": "_dropId",
          "type": "uint256"
        }
      ],
      "name": "incrementUserBalance",
      "outputs": [],
      "stateMutability": "nonpayable",
      "type": "function"
    },
    {
      "inputs": [],
      "name": "owner",
      "outputs": [
        {
          "internalType": "address",
          "name": "",
          "type": "address"
        }
      ],
      "stateMutability": "view",
      "type": "function"
    },
    {
      "inputs": [],
      "name": "renounceOwnership",
      "outputs": [],
      "stateMutability": "nonpayable",
      "type": "function"
    },
    {
      "inputs": [
        {
          "internalType": "address",
          "name": "newOwner",
          "type": "address"
        }
      ],
      "name": "transferOwnership",
      "outputs": [],
      "stateMutability": "nonpayable",
      "type": "function"
    }
  ],
  "transactionHash": "0x4d2b13ec99172549a0277e0675faaf44f787a210201f40c0bbe86a70c9019d3a",
  "args": [
    "0xB952C6273a16c37346a9320Ac391f7aF078e9759"
  ],
  "numDeployments": 1,
  "solcInputHash": "f46d3d4518bab2a297501e53286c205e",
  "bytecode": "0x608060405234801561001057600080fd5b5060405161051f38038061051f83398101604081905261002f916100d4565b61003833610084565b6001600160a01b03811661005f57604051632627b42d60e11b815260040160405180910390fd5b600180546001600160a01b0319166001600160a01b0392909216919091179055610104565b600080546001600160a01b038381166001600160a01b0319831681178455604051919092169283917f8be0079c531659141344cd1fd0a4f28419497f9722a3daafe3b4186f6b6457e09190a35050565b6000602082840312156100e657600080fd5b81516001600160a01b03811681146100fd57600080fd5b9392505050565b61040c806101136000396000f3fe608060405234801561001057600080fd5b50600436106100625760003560e01c8063715018a61461006757806376e1f451146100715780638ba85471146100845780638da5cb5b14610097578063e04cc2d7146100bc578063f2fde38b146100dd575b600080fd5b61006f6100f0565b005b61006f61007f36600461034e565b610104565b61006f61009236600461034e565b61016c565b61009f6101cb565b6040516001600160a01b0390911681526020015b60405180910390f35b6100cf6100ca36600461034e565b6101da565b6040519081526020016100b3565b61006f6100eb366004610378565b610205565b6100f8610283565b61010260006102e2565b565b6001546001600160a01b0316331461012f5760405163036be76f60e61b815260040160405180910390fd5b6001600160a01b038216600090815260026020908152604080832084845290915281208054600192906101639084906103b0565b90915550505050565b6001546001600160a01b031633146101975760405163036be76f60e61b815260040160405180910390fd5b6001600160a01b038216600090815260026020908152604080832084845290915281208054600192906101639084906103c3565b6000546001600160a01b031690565b6001600160a01b03821660009081526002602090815260408083208484529091529020545b92915050565b61020d610283565b6001600160a01b0381166102775760405162461bcd60e51b815260206004820152602660248201527f4f776e61626c653a206e6577206f776e657220697320746865207a65726f206160448201526564647265737360d01b60648201526084015b60405180910390fd5b610280816102e2565b50565b3361028c6101cb565b6001600160a01b0316146101025760405162461bcd60e51b815260206004820181905260248201527f4f776e61626c653a2063616c6c6572206973206e6f7420746865206f776e6572604482015260640161026e565b600080546001600160a01b038381166001600160a01b0319831681178455604051919092169283917f8be0079c531659141344cd1fd0a4f28419497f9722a3daafe3b4186f6b6457e09190a35050565b80356001600160a01b038116811461034957600080fd5b919050565b6000806040838503121561036157600080fd5b61036a83610332565b946020939093013593505050565b60006020828403121561038a57600080fd5b61039382610332565b9392505050565b634e487b7160e01b600052601160045260246000fd5b818103818111156101ff576101ff61039a565b808201808211156101ff576101ff61039a56fea2646970667358221220427b08e87042a76fbefa4e6d627bef3eb50abb0df8b4ec74496f89b53ed105e764736f6c63430008100033",
  "devdoc": {
    "errors": {
      "FORBIDDEN()": [
        {
          "details": "Thrown when the caller is not authorized to call the function"
        }
      ],
      "INVALID_PARAMETER()": [
        {
          "details": "Thrown when the passed parameter is invalid"
        }
      ]
    },
    "kind": "dev",
    "methods": {
      "owner()": {
        "details": "Returns the address of the current owner."
      },
      "renounceOwnership()": {
        "details": "Leaves the contract without owner. It will not be possible to call `onlyOwner` functions anymore. Can only be called by the current owner. NOTE: Renouncing ownership will leave the contract without an owner, thereby removing any functionality that is only available to the owner."
      },
      "transferOwnership(address)": {
        "details": "Transfers ownership of the contract to a new account (`newOwner`). Can only be called by the current owner."
      }
    },
    "stateVariables": {
      "AB_RELAY": {
        "details": "Address of Anotherblock Relay (used to control the streams destination based on L1 messages)"
      }
    },
    "version": 1
  },
  "userdoc": {
    "kind": "user",
    "methods": {},
    "version": 1
  },
  "storageLayout": {
    "storage": [
      {
        "astId": 4901,
        "contract": "contracts/ABRegistry.sol:ABRegistry",
        "label": "_owner",
        "offset": 0,
        "slot": "0",
        "type": "t_address"
      },
      {
        "astId": 15437,
        "contract": "contracts/ABRegistry.sol:ABRegistry",
        "label": "AB_RELAY",
        "offset": 0,
        "slot": "1",
        "type": "t_address"
      },
      {
        "astId": 15443,
        "contract": "contracts/ABRegistry.sol:ABRegistry",
        "label": "userBalancePerDrop",
        "offset": 0,
        "slot": "2",
        "type": "t_mapping(t_address,t_mapping(t_uint256,t_uint256))"
      }
    ],
    "types": {
      "t_address": {
        "encoding": "inplace",
        "label": "address",
        "numberOfBytes": "20"
      },
      "t_mapping(t_address,t_mapping(t_uint256,t_uint256))": {
        "encoding": "mapping",
        "key": "t_address",
        "label": "mapping(address => mapping(uint256 => uint256))",
        "numberOfBytes": "32",
        "value": "t_mapping(t_uint256,t_uint256)"
      },
      "t_mapping(t_uint256,t_uint256)": {
        "encoding": "mapping",
        "key": "t_uint256",
        "label": "mapping(uint256 => uint256)",
        "numberOfBytes": "32",
        "value": "t_uint256"
      },
      "t_uint256": {
        "encoding": "inplace",
        "label": "uint256",
        "numberOfBytes": "32"
      }
    }
  }
}