{
  "address": "0xB952C6273a16c37346a9320Ac391f7aF078e9759",
  "abi": [
    {
      "anonymous": false,
      "inputs": [
        {
          "indexed": true,
          "internalType": "address",
          "name": "previousOwner",
          "type": "address"
        },
        {
          "indexed": true,
          "internalType": "address",
          "name": "newOwner",
          "type": "address"
        }
      ],
      "name": "OwnershipTransferred",
      "type": "event"
    },
    {
      "inputs": [],
      "name": "createdDrop",
      "outputs": [],
      "stateMutability": "nonpayable",
      "type": "function"
    },
    {
      "inputs": [
        {
          "internalType": "address",
          "name": "_sender",
          "type": "address"
        }
      ],
      "name": "grantAllowance",
      "outputs": [],
      "stateMutability": "nonpayable",
      "type": "function"
    },
    {
      "inputs": [],
      "name": "owner",
      "outputs": [
        {
          "internalType": "address",
          "name": "",
          "type": "address"
        }
      ],
      "stateMutability": "view",
      "type": "function"
    },
    {
      "inputs": [],
      "name": "renounceOwnership",
      "outputs": [],
      "stateMutability": "nonpayable",
      "type": "function"
    },
    {
      "inputs": [
        {
          "internalType": "address",
          "name": "_sender",
          "type": "address"
        }
      ],
      "name": "revokeAllowance",
      "outputs": [],
      "stateMutability": "nonpayable",
      "type": "function"
    },
    {
      "inputs": [
        {
          "internalType": "address",
          "name": "_abRegistry",
          "type": "address"
        }
      ],
      "name": "setABRegistry",
      "outputs": [],
      "stateMutability": "nonpayable",
      "type": "function"
    },
    {
      "inputs": [
        {
          "internalType": "address",
          "name": "_abStream",
          "type": "address"
        }
      ],
      "name": "setABStream",
      "outputs": [],
      "stateMutability": "nonpayable",
      "type": "function"
    },
    {
      "inputs": [
        {
          "internalType": "address",
          "name": "newOwner",
          "type": "address"
        }
      ],
      "name": "transferOwnership",
      "outputs": [],
      "stateMutability": "nonpayable",
      "type": "function"
    },
    {
      "inputs": [
        {
          "internalType": "address",
          "name": "_from",
          "type": "address"
        },
        {
          "internalType": "address",
          "name": "_to",
          "type": "address"
        },
        {
          "internalType": "uint256",
          "name": "_dropId",
          "type": "uint256"
        }
      ],
      "name": "transferredNFT",
      "outputs": [],
      "stateMutability": "nonpayable",
      "type": "function"
    },
    {
      "inputs": [],
      "name": "updatedDrop",
      "outputs": [],
      "stateMutability": "nonpayable",
      "type": "function"
    }
  ],
  "transactionHash": "0x40a73a15c8ff7b3cd98a9735c0e33d36dfa5fc480c216e8bddf35d25c7c682e0",
  "args": [],
  "numDeployments": 1,
  "solcInputHash": "f46d3d4518bab2a297501e53286c205e",
  "bytecode": "0x6080604052600280546001600160a01b03191673420000000000000000000000000000000000000717905534801561003657600080fd5b5061004033610045565b610095565b600080546001600160a01b038381166001600160a01b0319831681178455604051919092169283917f8be0079c531659141344cd1fd0a4f28419497f9722a3daafe3b4186f6b6457e09190a35050565b6106bd806100a46000396000f3fe608060405234801561001057600080fd5b506004361061008e5760003560e01c80630148f9e514610093578063709bb22f146100a8578063715018a6146100b05780637ea41543146100b85780638da5cb5b146100cb578063a9cf5514146100ef578063ad11fe4414610102578063f07d9a44146100a8578063f2fde38b14610115578063fa51453f14610128575b600080fd5b6100a66100a13660046105ec565b61013b565b005b6100a6610165565b6100a661021e565b6100a66100c63660046105ec565b610230565b6100d361025f565b6040516001600160a01b03909116815260200160405180910390f35b6100a66100fd366004610610565b61026e565b6100a66101103660046105ec565b610457565b6100a66101233660046105ec565b610480565b6100a66101363660046105ec565b6104fe565b610143610528565b600380546001600160a01b0319166001600160a01b0392909216919091179055565b6002546001600160a01b031633148015610213575060016000600260009054906101000a90046001600160a01b03166001600160a01b0316636e296e456040518163ffffffff1660e01b8152600401602060405180830381865afa1580156101d1573d6000803e3d6000fd5b505050506040513d601f19601f820116820180604052508101906101f59190610651565b6001600160a01b0316815260208101919091526040016000205460ff165b61021c57600080fd5b565b610226610528565b61021c6000610587565b610238610528565b6001600160a01b03166000908152600160208190526040909120805460ff19169091179055565b6000546001600160a01b031690565b6002546001600160a01b03163314801561031c575060016000600260009054906101000a90046001600160a01b03166001600160a01b0316636e296e456040518163ffffffff1660e01b8152600401602060405180830381865afa1580156102da573d6000803e3d6000fd5b505050506040513d601f19601f820116820180604052508101906102fe9190610651565b6001600160a01b0316815260208101919091526040016000205460ff165b61032557600080fd5b600354604051639e2d373d60e01b81526001600160a01b038581166004830152848116602483015290911690639e2d373d90604401600060405180830381600087803b15801561037457600080fd5b505af1158015610388573d6000803e3d6000fd5b5050600480546040516376e1f45160e01b81526001600160a01b0390911693506376e1f45192506103bd91879186910161066e565b600060405180830381600087803b1580156103d757600080fd5b505af11580156103eb573d6000803e3d6000fd5b505060048054604051638ba8547160e01b81526001600160a01b039091169350638ba85471925061042091869186910161066e565b600060405180830381600087803b15801561043a57600080fd5b505af115801561044e573d6000803e3d6000fd5b50505050505050565b61045f610528565b6001600160a01b03166000908152600160205260409020805460ff19169055565b610488610528565b6001600160a01b0381166104f25760405162461bcd60e51b815260206004820152602660248201527f4f776e61626c653a206e6577206f776e657220697320746865207a65726f206160448201526564647265737360d01b60648201526084015b60405180910390fd5b6104fb81610587565b50565b610506610528565b600480546001600160a01b0319166001600160a01b0392909216919091179055565b3361053161025f565b6001600160a01b03161461021c5760405162461bcd60e51b815260206004820181905260248201527f4f776e61626c653a2063616c6c6572206973206e6f7420746865206f776e657260448201526064016104e9565b600080546001600160a01b038381166001600160a01b0319831681178455604051919092169283917f8be0079c531659141344cd1fd0a4f28419497f9722a3daafe3b4186f6b6457e09190a35050565b6001600160a01b03811681146104fb57600080fd5b6000602082840312156105fe57600080fd5b8135610609816105d7565b9392505050565b60008060006060848603121561062557600080fd5b8335610630816105d7565b92506020840135610640816105d7565b929592945050506040919091013590565b60006020828403121561066357600080fd5b8151610609816105d7565b6001600160a01b0392909216825260208201526040019056fea26469706673582212207c171ca4024afe11aed9a50f246499177a560aef4980e4b30f42103a7ded7d8064736f6c63430008100033",
  "devdoc": {
    "kind": "dev",
    "methods": {
      "owner()": {
        "details": "Returns the address of the current owner."
      },
      "renounceOwnership()": {
        "details": "Leaves the contract without owner. It will not be possible to call `onlyOwner` functions anymore. Can only be called by the current owner. NOTE: Renouncing ownership will leave the contract without an owner, thereby removing any functionality that is only available to the owner."
      },
      "transferOwnership(address)": {
        "details": "Transfers ownership of the contract to a new account (`newOwner`). Can only be called by the current owner."
      }
    },
    "version": 1
  },
  "userdoc": {
    "kind": "user",
    "methods": {},
    "version": 1
  },
  "storageLayout": {
    "storage": [
      {
        "astId": 4901,
        "contract": "contracts/ABRelay.sol:ABRelay",
        "label": "_owner",
        "offset": 0,
        "slot": "0",
        "type": "t_address"
      },
      {
        "astId": 15544,
        "contract": "contracts/ABRelay.sol:ABRelay",
        "label": "allowedSenders",
        "offset": 0,
        "slot": "1",
        "type": "t_mapping(t_address,t_bool)"
      },
      {
        "astId": 15550,
        "contract": "contracts/ABRelay.sol:ABRelay",
        "label": "messenger",
        "offset": 0,
        "slot": "2",
        "type": "t_contract(ICrossDomainMessenger)987"
      },
      {
        "astId": 15553,
        "contract": "contracts/ABRelay.sol:ABRelay",
        "label": "AB_STREAM",
        "offset": 0,
        "slot": "3",
        "type": "t_contract(IABStream)19167"
      },
      {
        "astId": 15556,
        "contract": "contracts/ABRelay.sol:ABRelay",
        "label": "AB_REGISTRY",
        "offset": 0,
        "slot": "4",
        "type": "t_contract(IABRegistry)19129"
      }
    ],
    "types": {
      "t_address": {
        "encoding": "inplace",
        "label": "address",
        "numberOfBytes": "20"
      },
      "t_bool": {
        "encoding": "inplace",
        "label": "bool",
        "numberOfBytes": "1"
      },
      "t_contract(IABRegistry)19129": {
        "encoding": "inplace",
        "label": "contract IABRegistry",
        "numberOfBytes": "20"
      },
      "t_contract(IABStream)19167": {
        "encoding": "inplace",
        "label": "contract IABStream",
        "numberOfBytes": "20"
      },
      "t_contract(ICrossDomainMessenger)987": {
        "encoding": "inplace",
        "label": "contract ICrossDomainMessenger",
        "numberOfBytes": "20"
      },
      "t_mapping(t_address,t_bool)": {
        "encoding": "mapping",
        "key": "t_address",
        "label": "mapping(address => bool)",
        "numberOfBytes": "32",
        "value": "t_bool"
      }
    }
  }
}