{
  "address": "0xae0c9E7413017D8268dF8a2c62Aee73ae1c32ffD",
  "abi": [
    {
      "inputs": [
        {
          "internalType": "string",
          "name": "_uri",
          "type": "string"
        }
      ],
      "stateMutability": "nonpayable",
      "type": "constructor"
    },
    {
      "inputs": [],
      "name": "INCORRECT_ETH_SENT",
      "type": "error"
    },
    {
      "inputs": [],
      "name": "INCORRECT_ITEM",
      "type": "error"
    },
    {
      "inputs": [],
      "name": "INVALID_PARAMETER",
      "type": "error"
    },
    {
      "inputs": [],
      "name": "OUT_OF_STOCK",
      "type": "error"
    },
    {
      "anonymous": false,
      "inputs": [
        {
          "indexed": true,
          "internalType": "address",
          "name": "account",
          "type": "address"
        },
        {
          "indexed": true,
          "internalType": "address",
          "name": "operator",
          "type": "address"
        },
        {
          "indexed": false,
          "internalType": "bool",
          "name": "approved",
          "type": "bool"
        }
      ],
      "name": "ApprovalForAll",
      "type": "event"
    },
    {
      "anonymous": false,
      "inputs": [
        {
          "indexed": true,
          "internalType": "address",
          "name": "previousOwner",
          "type": "address"
        },
        {
          "indexed": true,
          "internalType": "address",
          "name": "newOwner",
          "type": "address"
        }
      ],
      "name": "OwnershipTransferred",
      "type": "event"
    },
    {
      "anonymous": false,
      "inputs": [
        {
          "indexed": false,
          "internalType": "address",
          "name": "buyer",
          "type": "address"
        },
        {
          "indexed": false,
          "internalType": "uint256[]",
          "name": "itemIds",
          "type": "uint256[]"
        },
        {
          "indexed": false,
          "internalType": "uint256[]",
          "name": "quantities",
          "type": "uint256[]"
        }
      ],
      "name": "Purchased",
      "type": "event"
    },
    {
      "anonymous": false,
      "inputs": [
        {
          "indexed": false,
          "internalType": "address",
          "name": "buyer",
          "type": "address"
        },
        {
          "indexed": false,
          "internalType": "uint256[]",
          "name": "itemIds",
          "type": "uint256[]"
        },
        {
          "indexed": false,
          "internalType": "uint256[]",
          "name": "quantities",
          "type": "uint256[]"
        }
      ],
      "name": "Redeemed",
      "type": "event"
    },
    {
      "anonymous": false,
      "inputs": [
        {
          "indexed": true,
          "internalType": "address",
          "name": "operator",
          "type": "address"
        },
        {
          "indexed": true,
          "internalType": "address",
          "name": "from",
          "type": "address"
        },
        {
          "indexed": true,
          "internalType": "address",
          "name": "to",
          "type": "address"
        },
        {
          "indexed": false,
          "internalType": "uint256[]",
          "name": "ids",
          "type": "uint256[]"
        },
        {
          "indexed": false,
          "internalType": "uint256[]",
          "name": "values",
          "type": "uint256[]"
        }
      ],
      "name": "TransferBatch",
      "type": "event"
    },
    {
      "anonymous": false,
      "inputs": [
        {
          "indexed": true,
          "internalType": "address",
          "name": "operator",
          "type": "address"
        },
        {
          "indexed": true,
          "internalType": "address",
          "name": "from",
          "type": "address"
        },
        {
          "indexed": true,
          "internalType": "address",
          "name": "to",
          "type": "address"
        },
        {
          "indexed": false,
          "internalType": "uint256",
          "name": "id",
          "type": "uint256"
        },
        {
          "indexed": false,
          "internalType": "uint256",
          "name": "value",
          "type": "uint256"
        }
      ],
      "name": "TransferSingle",
      "type": "event"
    },
    {
      "anonymous": false,
      "inputs": [
        {
          "indexed": false,
          "internalType": "string",
          "name": "value",
          "type": "string"
        },
        {
          "indexed": true,
          "internalType": "uint256",
          "name": "id",
          "type": "uint256"
        }
      ],
      "name": "URI",
      "type": "event"
    },
    {
      "anonymous": false,
      "inputs": [
        {
          "indexed": false,
          "internalType": "uint256",
          "name": "itemId",
          "type": "uint256"
        },
        {
          "indexed": false,
          "internalType": "uint256",
          "name": "quantity",
          "type": "uint256"
        },
        {
          "indexed": false,
          "internalType": "uint256",
          "name": "priceABT",
          "type": "uint256"
        },
        {
          "indexed": false,
          "internalType": "uint256",
          "name": "priceETH",
          "type": "uint256"
        }
      ],
      "name": "UpdatedInventory",
      "type": "event"
    },
    {
      "inputs": [
        {
          "internalType": "uint256",
          "name": "_quantity",
          "type": "uint256"
        },
        {
          "internalType": "uint256",
          "name": "_priceABT",
          "type": "uint256"
        },
        {
          "internalType": "uint256",
          "name": "_priceETH",
          "type": "uint256"
        }
      ],
      "name": "addItem",
      "outputs": [],
      "stateMutability": "nonpayable",
      "type": "function"
    },
    {
      "inputs": [
        {
          "internalType": "address",
          "name": "account",
          "type": "address"
        },
        {
          "internalType": "uint256",
          "name": "id",
          "type": "uint256"
        }
      ],
      "name": "balanceOf",
      "outputs": [
        {
          "internalType": "uint256",
          "name": "",
          "type": "uint256"
        }
      ],
      "stateMutability": "view",
      "type": "function"
    },
    {
      "inputs": [
        {
          "internalType": "address[]",
          "name": "accounts",
          "type": "address[]"
        },
        {
          "internalType": "uint256[]",
          "name": "ids",
          "type": "uint256[]"
        }
      ],
      "name": "balanceOfBatch",
      "outputs": [
        {
          "internalType": "uint256[]",
          "name": "",
          "type": "uint256[]"
        }
      ],
      "stateMutability": "view",
      "type": "function"
    },
    {
      "inputs": [
        {
          "internalType": "address",
          "name": "account",
          "type": "address"
        },
        {
          "internalType": "address",
          "name": "operator",
          "type": "address"
        }
      ],
      "name": "isApprovedForAll",
      "outputs": [
        {
          "internalType": "bool",
          "name": "",
          "type": "bool"
        }
      ],
      "stateMutability": "view",
      "type": "function"
    },
    {
      "inputs": [
        {
          "internalType": "uint256",
          "name": "",
          "type": "uint256"
        }
      ],
      "name": "items",
      "outputs": [
        {
          "internalType": "uint256",
          "name": "quantity",
          "type": "uint256"
        },
        {
          "internalType": "uint256",
          "name": "priceABT",
          "type": "uint256"
        },
        {
          "internalType": "uint256",
          "name": "priceETH",
          "type": "uint256"
        }
      ],
      "stateMutability": "view",
      "type": "function"
    },
    {
      "inputs": [],
      "name": "nbItems",
      "outputs": [
        {
          "internalType": "uint256",
          "name": "",
          "type": "uint256"
        }
      ],
      "stateMutability": "view",
      "type": "function"
    },
    {
      "inputs": [],
      "name": "owner",
      "outputs": [
        {
          "internalType": "address",
          "name": "",
          "type": "address"
        }
      ],
      "stateMutability": "view",
      "type": "function"
    },
    {
      "inputs": [
        {
          "internalType": "uint256[]",
          "name": "_itemIds",
          "type": "uint256[]"
        },
        {
          "internalType": "uint256[]",
          "name": "_quantities",
          "type": "uint256[]"
        }
      ],
      "name": "purchase",
      "outputs": [],
      "stateMutability": "payable",
      "type": "function"
    },
    {
      "inputs": [
        {
          "internalType": "uint256[]",
          "name": "_itemIds",
          "type": "uint256[]"
        },
        {
          "internalType": "uint256[]",
          "name": "_quantities",
          "type": "uint256[]"
        }
      ],
      "name": "redeem",
      "outputs": [],
      "stateMutability": "nonpayable",
      "type": "function"
    },
    {
      "inputs": [],
      "name": "renounceOwnership",
      "outputs": [],
      "stateMutability": "nonpayable",
      "type": "function"
    },
    {
      "inputs": [
        {
          "internalType": "address",
          "name": "from",
          "type": "address"
        },
        {
          "internalType": "address",
          "name": "to",
          "type": "address"
        },
        {
          "internalType": "uint256[]",
          "name": "ids",
          "type": "uint256[]"
        },
        {
          "internalType": "uint256[]",
          "name": "amounts",
          "type": "uint256[]"
        },
        {
          "internalType": "bytes",
          "name": "data",
          "type": "bytes"
        }
      ],
      "name": "safeBatchTransferFrom",
      "outputs": [],
      "stateMutability": "nonpayable",
      "type": "function"
    },
    {
      "inputs": [
        {
          "internalType": "address",
          "name": "from",
          "type": "address"
        },
        {
          "internalType": "address",
          "name": "to",
          "type": "address"
        },
        {
          "internalType": "uint256",
          "name": "id",
          "type": "uint256"
        },
        {
          "internalType": "uint256",
          "name": "amount",
          "type": "uint256"
        },
        {
          "internalType": "bytes",
          "name": "data",
          "type": "bytes"
        }
      ],
      "name": "safeTransferFrom",
      "outputs": [],
      "stateMutability": "nonpayable",
      "type": "function"
    },
    {
      "inputs": [
        {
          "internalType": "address",
          "name": "operator",
          "type": "address"
        },
        {
          "internalType": "bool",
          "name": "approved",
          "type": "bool"
        }
      ],
      "name": "setApprovalForAll",
      "outputs": [],
      "stateMutability": "nonpayable",
      "type": "function"
    },
    {
      "inputs": [
        {
          "internalType": "address",
          "name": "_ABToken",
          "type": "address"
        }
      ],
      "name": "setToken",
      "outputs": [],
      "stateMutability": "nonpayable",
      "type": "function"
    },
    {
      "inputs": [
        {
          "internalType": "bytes4",
          "name": "interfaceId",
          "type": "bytes4"
        }
      ],
      "name": "supportsInterface",
      "outputs": [
        {
          "internalType": "bool",
          "name": "",
          "type": "bool"
        }
      ],
      "stateMutability": "view",
      "type": "function"
    },
    {
      "inputs": [
        {
          "internalType": "address",
          "name": "newOwner",
          "type": "address"
        }
      ],
      "name": "transferOwnership",
      "outputs": [],
      "stateMutability": "nonpayable",
      "type": "function"
    },
    {
      "inputs": [
        {
          "internalType": "uint256",
          "name": "_itemId",
          "type": "uint256"
        },
        {
          "internalType": "uint256",
          "name": "_quantity",
          "type": "uint256"
        },
        {
          "internalType": "uint256",
          "name": "_priceABT",
          "type": "uint256"
        },
        {
          "internalType": "uint256",
          "name": "_priceETH",
          "type": "uint256"
        }
      ],
      "name": "updateItem",
      "outputs": [],
      "stateMutability": "nonpayable",
      "type": "function"
    },
    {
      "inputs": [
        {
          "internalType": "uint256",
          "name": "",
          "type": "uint256"
        }
      ],
      "name": "uri",
      "outputs": [
        {
          "internalType": "string",
          "name": "",
          "type": "string"
        }
      ],
      "stateMutability": "view",
      "type": "function"
    },
    {
      "inputs": [
        {
          "internalType": "address",
          "name": "_treasury",
          "type": "address"
        }
      ],
      "name": "withdraw",
      "outputs": [],
      "stateMutability": "nonpayable",
      "type": "function"
    }
  ],
  "transactionHash": "0x1360a50064e30ecb1f8628048201b31adc14913c1a2b1c4f735f941bf88997c5",
  "args": [
    "testURI"
  ],
  "numDeployments": 1,
  "solcInputHash": "300f5ed3a4269f40de75354ae9cc45dd",
  "bytecode": "0x608060405260006004553480156200001657600080fd5b5060405162002394380380620023948339810160408190526200003991620000d2565b80620000458162000058565b5062000051336200006a565b5062000302565b600262000066828262000236565b5050565b600380546001600160a01b038381166001600160a01b0319831681179093556040519116919082907f8be0079c531659141344cd1fd0a4f28419497f9722a3daafe3b4186f6b6457e090600090a35050565b634e487b7160e01b600052604160045260246000fd5b60006020808385031215620000e657600080fd5b82516001600160401b0380821115620000fe57600080fd5b818501915085601f8301126200011357600080fd5b815181811115620001285762000128620000bc565b604051601f8201601f19908116603f01168101908382118183101715620001535762000153620000bc565b8160405282815288868487010111156200016c57600080fd5b600093505b8284101562000190578484018601518185018701529285019262000171565b600086848301015280965050505050505092915050565b600181811c90821680620001bc57607f821691505b602082108103620001dd57634e487b7160e01b600052602260045260246000fd5b50919050565b601f8211156200023157600081815260208120601f850160051c810160208610156200020c5750805b601f850160051c820191505b818110156200022d5782815560010162000218565b5050505b505050565b81516001600160401b03811115620002525762000252620000bc565b6200026a81620002638454620001a7565b84620001e3565b602080601f831160018114620002a25760008415620002895750858301515b600019600386901b1c1916600185901b1785556200022d565b600085815260208120601f198616915b82811015620002d357888601518255948401946001909101908401620002b2565b5085821015620002f25787850151600019600388901b60f8161c191681555b5050505050600190811b01905550565b61208280620003126000396000f3fe6080604052600436106100e35760003560e01c8062fdd58e146100e857806301ffc9a71461011b5780630e89341c1461014b578063144fa6d71461017857806327cac9251461019a5780632ca51e22146101ba5780632eb2c2d6146101da5780634e1273f4146101fa57806351cff8d914610227578063715018a614610247578063798a712a1461025c5780637d7348631461027c57806386f3b23d146102925780638da5cb5b146102a5578063a22cb465146102d2578063bfb231d2146102f2578063e985e9c514610349578063f242432a14610392578063f2fde38b146103b2575b600080fd5b3480156100f457600080fd5b50610108610103366004611674565b6103d2565b6040519081526020015b60405180910390f35b34801561012757600080fd5b5061013b6101363660046116b4565b61046b565b6040519015158152602001610112565b34801561015757600080fd5b5061016b6101663660046116d8565b6104bb565b6040516101129190611737565b34801561018457600080fd5b5061019861019336600461174a565b61054f565b005b3480156101a657600080fd5b506101986101b5366004611765565b6105a0565b3480156101c657600080fd5b506101986101d536600461186d565b610639565b3480156101e657600080fd5b506101986101f5366004611943565b6106a5565b34801561020657600080fd5b5061021a6102153660046119ec565b6106f1565b6040516101129190611ada565b34801561023357600080fd5b5061019861024236600461174a565b61081a565b34801561025357600080fd5b5061019861085b565b34801561026857600080fd5b50610198610277366004611aed565b61086f565b34801561028857600080fd5b5061010860045481565b6101986102a036600461186d565b6108ff565b3480156102b157600080fd5b506102ba610b2f565b6040516001600160a01b039091168152602001610112565b3480156102de57600080fd5b506101986102ed366004611b19565b610b3e565b3480156102fe57600080fd5b5061032e61030d3660046116d8565b60066020526000908152604090208054600182015460029092015490919083565b60408051938452602084019290925290820152606001610112565b34801561035557600080fd5b5061013b610364366004611b55565b6001600160a01b03918216600090815260016020908152604080832093909416825291909152205460ff1690565b34801561039e57600080fd5b506101986103ad366004611b88565b610b49565b3480156103be57600080fd5b506101986103cd36600461174a565b610b8e565b60006001600160a01b0383166104425760405162461bcd60e51b815260206004820152602a60248201527f455243313135353a2061646472657373207a65726f206973206e6f742061207660448201526930b634b21037bbb732b960b11b60648201526084015b60405180910390fd5b506000818152602081815260408083206001600160a01b03861684529091529020545b92915050565b60006001600160e01b03198216636cdb3d1360e11b148061049c57506001600160e01b031982166303a24d0760e21b145b8061046557506301ffc9a760e01b6001600160e01b0319831614610465565b6060600280546104ca90611bec565b80601f01602080910402602001604051908101604052809291908181526020018280546104f690611bec565b80156105435780601f1061051857610100808354040283529160200191610543565b820191906000526020600020905b81548152906001019060200180831161052657829003601f168201915b50505050509050919050565b610557610c07565b6001600160a01b03811661057e57604051632627b42d60e11b815260040160405180910390fd5b600580546001600160a01b0319166001600160a01b0392909216919091179055565b6105a8610c07565b60045484106105ca57604051635041f98960e11b815260040160405180910390fd5b6105d2611637565b83815260208082018481526040808401858152600089815260069094529281902084518155915160018301559151600290910155600454905160008051602061202d8339815191529161062a91879087908790611c26565b60405180910390a15050505050565b805182511461065b57604051632627b42d60e11b815260040160405180910390fd5b610666338383610c66565b7f9936d6fe250f96d281bb580bb32e850a6ff520fb7b9ebe6c46a80713a36b8b8f33838360405161069993929190611c41565b60405180910390a15050565b6001600160a01b0385163314806106c157506106c18533610364565b6106dd5760405162461bcd60e51b815260040161043990611c81565b6106ea8585858585610e57565b5050505050565b606081518351146107565760405162461bcd60e51b815260206004820152602960248201527f455243313135353a206163636f756e747320616e6420696473206c656e677468604482015268040dad2e6dac2e8c6d60bb1b6064820152608401610439565b600083516001600160401b0381111561077157610771611797565b60405190808252806020026020018201604052801561079a578160200160208202803683370190505b50905060005b8451811015610812576107e58582815181106107be576107be611cd0565b60200260200101518583815181106107d8576107d8611cd0565b60200260200101516103d2565b8282815181106107f7576107f7611cd0565b602090810291909101015261080b81611cfc565b90506107a0565b509392505050565b610822610c07565b6040516001600160a01b038216904780156108fc02916000818181858888f19350505050158015610857573d6000803e3d6000fd5b5050565b610863610c07565b61086d6000610fe1565b565b610877610c07565b61087f611637565b838152602080820184815260408084018581526004805460009081526006909552938290208551815592516001840155516002909201919091559054905160008051602061202d833981519152916108dc91879087908790611c26565b60405180910390a1600480549060006108f483611cfc565b919050555050505050565b805182511461092157604051632627b42d60e11b815260040160405180910390fd5b60008060005b8451811015610a4e5760006006600087848151811061094857610948611cd0565b60200260200101518152602001908152602001600020905084828151811061097257610972611cd0565b60200260200101518160000154101561099e5760405163a6d9e67d60e01b815260040160405180910390fd5b8482815181106109b0576109b0611cd0565b60200260200101518160000160008282546109cb9190611d15565b9250508190555080600101548583815181106109e9576109e9611cd0565b60200260200101516109fb9190611d28565b610a059085611d47565b93508060020154858381518110610a1e57610a1e611cd0565b6020026020010151610a309190611d28565b610a3a9084611d47565b92505080610a4790611cfc565b9050610927565b50803414610a6f576040516318f4198360e21b815260040160405180910390fd5b600554604051632770a7eb60e21b8152336004820152602481018490526001600160a01b0390911690639dc29fac90604401600060405180830381600087803b158015610abb57600080fd5b505af1158015610acf573d6000803e3d6000fd5b50505050610aee33858560405180602001604052806000815250611033565b7f0b377c5768bbccb00d9290f71b66eecff8331381e24275ec8a7fb93227e80a4b338585604051610b2193929190611c41565b60405180910390a150505050565b6003546001600160a01b031690565b6108573383836111a6565b6001600160a01b038516331480610b655750610b658533610364565b610b815760405162461bcd60e51b815260040161043990611c81565b6106ea8585858585611286565b610b96610c07565b6001600160a01b038116610bfb5760405162461bcd60e51b815260206004820152602660248201527f4f776e61626c653a206e6577206f776e657220697320746865207a65726f206160448201526564647265737360d01b6064820152608401610439565b610c0481610fe1565b50565b33610c10610b2f565b6001600160a01b03161461086d5760405162461bcd60e51b815260206004820181905260248201527f4f776e61626c653a2063616c6c6572206973206e6f7420746865206f776e65726044820152606401610439565b6001600160a01b038316610cc85760405162461bcd60e51b815260206004820152602360248201527f455243313135353a206275726e2066726f6d20746865207a65726f206164647260448201526265737360e81b6064820152608401610439565b8051825114610ce95760405162461bcd60e51b815260040161043990611d5a565b604080516020810190915260009081905233905b8351811015610dfb576000848281518110610d1a57610d1a611cd0565b602002602001015190506000848381518110610d3857610d38611cd0565b602090810291909101810151600084815280835260408082206001600160a01b038c168352909352919091205490915081811015610dc45760405162461bcd60e51b8152602060048201526024808201527f455243313135353a206275726e20616d6f756e7420657863656564732062616c604482015263616e636560e01b6064820152608401610439565b6000928352602083815260408085206001600160a01b038b1686529091529092209103905580610df381611cfc565b915050610cfd565b5060006001600160a01b0316846001600160a01b0316826001600160a01b031660008051602061200d8339815191528686604051610e3a929190611da2565b60405180910390a460408051602081019091526000905250505050565b8151835114610e785760405162461bcd60e51b815260040161043990611d5a565b6001600160a01b038416610e9e5760405162461bcd60e51b815260040161043990611dd0565b3360005b8451811015610f85576000858281518110610ebf57610ebf611cd0565b602002602001015190506000858381518110610edd57610edd611cd0565b602090810291909101810151600084815280835260408082206001600160a01b038e168352909352919091205490915081811015610f2d5760405162461bcd60e51b815260040161043990611e15565b6000838152602081815260408083206001600160a01b038e8116855292528083208585039055908b16825281208054849290610f6a908490611d47565b9250508190555050505080610f7e90611cfc565b9050610ea2565b50846001600160a01b0316866001600160a01b0316826001600160a01b031660008051602061200d8339815191528787604051610fc3929190611da2565b60405180910390a4610fd98187878787876113b0565b505050505050565b600380546001600160a01b038381166001600160a01b0319831681179093556040519116919082907f8be0079c531659141344cd1fd0a4f28419497f9722a3daafe3b4186f6b6457e090600090a35050565b6001600160a01b0384166110935760405162461bcd60e51b815260206004820152602160248201527f455243313135353a206d696e7420746f20746865207a65726f206164647265736044820152607360f81b6064820152608401610439565b81518351146110b45760405162461bcd60e51b815260040161043990611d5a565b3360005b8451811015611150578381815181106110d3576110d3611cd0565b60200260200101516000808784815181106110f0576110f0611cd0565b602002602001015181526020019081526020016000206000886001600160a01b03166001600160a01b0316815260200190815260200160002060008282546111389190611d47565b9091555081905061114881611cfc565b9150506110b8565b50846001600160a01b031660006001600160a01b0316826001600160a01b031660008051602061200d833981519152878760405161118f929190611da2565b60405180910390a46106ea816000878787876113b0565b816001600160a01b0316836001600160a01b0316036112195760405162461bcd60e51b815260206004820152602960248201527f455243313135353a2073657474696e6720617070726f76616c20737461747573604482015268103337b91039b2b63360b91b6064820152608401610439565b6001600160a01b03838116600081815260016020908152604080832094871680845294825291829020805460ff191686151590811790915591519182527f17307eab39ab6107e8899845ad3d59bd9653f200f220920489ca2b5937696c31910160405180910390a3505050565b6001600160a01b0384166112ac5760405162461bcd60e51b815260040161043990611dd0565b3360006112b88561151b565b905060006112c58561151b565b90506000868152602081815260408083206001600160a01b038c168452909152902054858110156113085760405162461bcd60e51b815260040161043990611e15565b6000878152602081815260408083206001600160a01b038d8116855292528083208985039055908a16825281208054889290611345908490611d47565b909155505060408051888152602081018890526001600160a01b03808b16928c821692918816917fc3d58168c5ae7397731d063d5bbf3d657854427343f4c083240f7aacaa2d0f62910160405180910390a46113a5848a8a8a8a8a611566565b505050505050505050565b6113c2846001600160a01b0316611628565b15610fd95760405163bc197c8160e01b81526001600160a01b0385169063bc197c81906113fb9089908990889088908890600401611e5f565b6020604051808303816000875af1925050508015611436575060408051601f3d908101601f1916820190925261143391810190611ebd565b60015b6114e257611442611eda565b806308c379a00361147b5750611456611ef6565b80611461575061147d565b8060405162461bcd60e51b81526004016104399190611737565b505b60405162461bcd60e51b815260206004820152603460248201527f455243313135353a207472616e7366657220746f206e6f6e20455243313135356044820152732932b1b2b4bb32b91034b6b83632b6b2b73a32b960611b6064820152608401610439565b6001600160e01b0319811663bc197c8160e01b146115125760405162461bcd60e51b815260040161043990611f7f565b50505050505050565b6040805160018082528183019092526060916000919060208083019080368337019050509050828160008151811061155557611555611cd0565b602090810291909101015292915050565b611578846001600160a01b0316611628565b15610fd95760405163f23a6e6160e01b81526001600160a01b0385169063f23a6e61906115b19089908990889088908890600401611fc7565b6020604051808303816000875af19250505080156115ec575060408051601f3d908101601f191682019092526115e991810190611ebd565b60015b6115f857611442611eda565b6001600160e01b0319811663f23a6e6160e01b146115125760405162461bcd60e51b815260040161043990611f7f565b6001600160a01b03163b151590565b60405180606001604052806000815260200160008152602001600081525090565b80356001600160a01b038116811461166f57600080fd5b919050565b6000806040838503121561168757600080fd5b61169083611658565b946020939093013593505050565b6001600160e01b031981168114610c0457600080fd5b6000602082840312156116c657600080fd5b81356116d18161169e565b9392505050565b6000602082840312156116ea57600080fd5b5035919050565b6000815180845260005b81811015611717576020818501810151868301820152016116fb565b506000602082860101526020601f19601f83011685010191505092915050565b6020815260006116d160208301846116f1565b60006020828403121561175c57600080fd5b6116d182611658565b6000806000806080858703121561177b57600080fd5b5050823594602084013594506040840135936060013592509050565b634e487b7160e01b600052604160045260246000fd5b601f8201601f191681016001600160401b03811182821017156117d2576117d2611797565b6040525050565b60006001600160401b038211156117f2576117f2611797565b5060051b60200190565b600082601f83011261180d57600080fd5b8135602061181a826117d9565b60405161182782826117ad565b83815260059390931b850182019282810191508684111561184757600080fd5b8286015b84811015611862578035835291830191830161184b565b509695505050505050565b6000806040838503121561188057600080fd5b82356001600160401b038082111561189757600080fd5b6118a3868387016117fc565b935060208501359150808211156118b957600080fd5b506118c6858286016117fc565b9150509250929050565b600082601f8301126118e157600080fd5b81356001600160401b038111156118fa576118fa611797565b604051611911601f8301601f1916602001826117ad565b81815284602083860101111561192657600080fd5b816020850160208301376000918101602001919091529392505050565b600080600080600060a0868803121561195b57600080fd5b61196486611658565b945061197260208701611658565b935060408601356001600160401b038082111561198e57600080fd5b61199a89838a016117fc565b945060608801359150808211156119b057600080fd5b6119bc89838a016117fc565b935060808801359150808211156119d257600080fd5b506119df888289016118d0565b9150509295509295909350565b600080604083850312156119ff57600080fd5b82356001600160401b0380821115611a1657600080fd5b818501915085601f830112611a2a57600080fd5b81356020611a37826117d9565b604051611a4482826117ad565b83815260059390931b8501820192828101915089841115611a6457600080fd5b948201945b83861015611a8957611a7a86611658565b82529482019490820190611a69565b965050860135925050808211156118b957600080fd5b600081518084526020808501945080840160005b83811015611acf57815187529582019590820190600101611ab3565b509495945050505050565b6020815260006116d16020830184611a9f565b600080600060608486031215611b0257600080fd5b505081359360208301359350604090920135919050565b60008060408385031215611b2c57600080fd5b611b3583611658565b915060208301358015158114611b4a57600080fd5b809150509250929050565b60008060408385031215611b6857600080fd5b611b7183611658565b9150611b7f60208401611658565b90509250929050565b600080600080600060a08688031215611ba057600080fd5b611ba986611658565b9450611bb760208701611658565b9350604086013592506060860135915060808601356001600160401b03811115611be057600080fd5b6119df888289016118d0565b600181811c90821680611c0057607f821691505b602082108103611c2057634e487b7160e01b600052602260045260246000fd5b50919050565b93845260208401929092526040830152606082015260800190565b6001600160a01b0384168152606060208201819052600090611c6590830185611a9f565b8281036040840152611c778185611a9f565b9695505050505050565b6020808252602f908201527f455243313135353a2063616c6c6572206973206e6f7420746f6b656e206f776e60408201526e195c881b9bdc88185c1c1c9bdd9959608a1b606082015260800190565b634e487b7160e01b600052603260045260246000fd5b634e487b7160e01b600052601160045260246000fd5b600060018201611d0e57611d0e611ce6565b5060010190565b8181038181111561046557610465611ce6565b6000816000190483118215151615611d4257611d42611ce6565b500290565b8082018082111561046557610465611ce6565b60208082526028908201527f455243313135353a2069647320616e6420616d6f756e7473206c656e677468206040820152670dad2e6dac2e8c6d60c31b606082015260800190565b604081526000611db56040830185611a9f565b8281036020840152611dc78185611a9f565b95945050505050565b60208082526025908201527f455243313135353a207472616e7366657220746f20746865207a65726f206164604082015264647265737360d81b606082015260800190565b6020808252602a908201527f455243313135353a20696e73756666696369656e742062616c616e636520666f60408201526939103a3930b739b332b960b11b606082015260800190565b6001600160a01b0386811682528516602082015260a060408201819052600090611e8b90830186611a9f565b8281036060840152611e9d8186611a9f565b90508281036080840152611eb181856116f1565b98975050505050505050565b600060208284031215611ecf57600080fd5b81516116d18161169e565b600060033d1115611ef35760046000803e5060005160e01c5b90565b600060443d1015611f045790565b6040516003193d81016004833e81513d6001600160401b038083116024840183101715611f3357505050505090565b8285019150815181811115611f4b5750505050505090565b843d8701016020828501011115611f655750505050505090565b611f74602082860101876117ad565b509095945050505050565b60208082526028908201527f455243313135353a204552433131353552656365697665722072656a656374656040820152676420746f6b656e7360c01b606082015260800190565b6001600160a01b03868116825285166020820152604081018490526060810183905260a060808201819052600090612001908301846116f1565b97965050505050505056fe4a39dc06d4c0dbc64b70af90fd698a233a518aa5d07e595d983b8c0526c8f7fbed96142fee261309b466958156e2f1a8fa4e0cc2f36a458023e77837918b38bda2646970667358221220b40b95d6811bc4d9742bae2e1eceae1cd6d3457737209f46ca3cc16045073fba64736f6c63430008100033",
  "devdoc": {
    "errors": {
      "INCORRECT_ETH_SENT()": [
        {
          "details": "Thrown when the amount of Ether sent to the contract is incorrect"
        }
      ],
      "INCORRECT_ITEM()": [
        {
          "details": "Thrown when the requested item does not exists in store"
        }
      ],
      "INVALID_PARAMETER()": [
        {
          "details": "Thrown when the passed parameter is invalid"
        }
      ],
      "OUT_OF_STOCK()": [
        {
          "details": "Thrown when the requested item is no longer available"
        }
      ]
    },
    "kind": "dev",
    "methods": {
      "addItem(uint256,uint256,uint256)": {
        "details": "Only the contract owner can perform this operation",
        "params": {
          "_priceABT": ": Price component denominated in ABT",
          "_priceETH": ": Price component denominated in ETH",
          "_quantity": ": Quantity of item available"
        }
      },
      "balanceOf(address,uint256)": {
        "details": "See {IERC1155-balanceOf}. Requirements: - `account` cannot be the zero address."
      },
      "balanceOfBatch(address[],uint256[])": {
        "details": "See {IERC1155-balanceOfBatch}. Requirements: - `accounts` and `ids` must have the same length."
      },
      "constructor": {
        "params": {
          "_uri": ": The ERC1155 token URI"
        }
      },
      "isApprovedForAll(address,address)": {
        "details": "See {IERC1155-isApprovedForAll}."
      },
      "owner()": {
        "details": "Returns the address of the current owner."
      },
      "purchase(uint256[],uint256[])": {
        "params": {
          "_itemIds": ": Array of items to be purchased",
          "_quantities": ": Array of quantity for each item to be purchased"
        }
      },
      "redeem(uint256[],uint256[])": {
        "params": {
          "_itemIds": ": Array of items to be redeemed",
          "_quantities": ": Array of quantity for each item to be redeemed"
        }
      },
      "renounceOwnership()": {
        "details": "Leaves the contract without owner. It will not be possible to call `onlyOwner` functions anymore. Can only be called by the current owner. NOTE: Renouncing ownership will leave the contract without an owner, thereby removing any functionality that is only available to the owner."
      },
      "safeBatchTransferFrom(address,address,uint256[],uint256[],bytes)": {
        "details": "See {IERC1155-safeBatchTransferFrom}."
      },
      "safeTransferFrom(address,address,uint256,uint256,bytes)": {
        "details": "See {IERC1155-safeTransferFrom}."
      },
      "setApprovalForAll(address,bool)": {
        "details": "See {IERC1155-setApprovalForAll}."
      },
      "setToken(address)": {
        "details": "Only the contract owner can perform this operation",
        "params": {
          "_ABToken": "Anotherblock Token Address"
        }
      },
      "supportsInterface(bytes4)": {
        "details": "See {IERC165-supportsInterface}."
      },
      "transferOwnership(address)": {
        "details": "Transfers ownership of the contract to a new account (`newOwner`). Can only be called by the current owner."
      },
      "updateItem(uint256,uint256,uint256,uint256)": {
        "details": "Only the contract owner can perform this operation",
        "params": {
          "_itemId": ": Identifier of the item to be updated",
          "_priceABT": ": Price component denominated in ABT",
          "_priceETH": ": Price component denominated in ETH",
          "_quantity": ": Quantity of item available"
        }
      },
      "uri(uint256)": {
        "details": "See {IERC1155MetadataURI-uri}. This implementation returns the same URI for *all* token types. It relies on the token type ID substitution mechanism https://eips.ethereum.org/EIPS/eip-1155#metadata[defined in the EIP]. Clients calling this function must replace the `\\{id\\}` substring with the actual token type ID."
      },
      "withdraw(address)": {
        "details": "Only the contract owner can perform this operation",
        "params": {
          "_treasury": "Anotherblock Treasury Address"
        }
      }
    },
    "stateVariables": {
      "AB_TOKEN": {
        "details": "Anotherblock Token used to purchase items in store"
      },
      "items": {
        "details": "Stores the items details for a given item ID"
      },
      "nbItems": {
        "details": "Total number of items in store"
      }
    },
    "version": 1
  },
  "userdoc": {
    "kind": "user",
    "methods": {
      "addItem(uint256,uint256,uint256)": {
        "notice": "Add new purchasable item to the store"
      },
      "constructor": {
        "notice": "Contract Constructor"
      },
      "purchase(uint256[],uint256[])": {
        "notice": "Purchase items from the store"
      },
      "redeem(uint256[],uint256[])": {
        "notice": "Redeem the physical item from the store"
      },
      "setToken(address)": {
        "notice": "Set Anotherblock Token Address"
      },
      "updateItem(uint256,uint256,uint256,uint256)": {
        "notice": "Update existing purchasable item in the store"
      },
      "withdraw(address)": {
        "notice": "Withdraw Ether from this contract to the given address"
      }
    },
    "version": 1
  },
  "storageLayout": {
    "storage": [
      {
        "astId": 5183,
        "contract": "contracts/ABStore.sol:ABStore",
        "label": "_balances",
        "offset": 0,
        "slot": "0",
        "type": "t_mapping(t_uint256,t_mapping(t_address,t_uint256))"
      },
      {
        "astId": 5189,
        "contract": "contracts/ABStore.sol:ABStore",
        "label": "_operatorApprovals",
        "offset": 0,
        "slot": "1",
        "type": "t_mapping(t_address,t_mapping(t_address,t_bool))"
      },
      {
        "astId": 5191,
        "contract": "contracts/ABStore.sol:ABStore",
        "label": "_uri",
        "offset": 0,
        "slot": "2",
        "type": "t_string_storage"
      },
      {
        "astId": 4901,
        "contract": "contracts/ABStore.sol:ABStore",
        "label": "_owner",
        "offset": 0,
        "slot": "3",
        "type": "t_address"
      },
      {
        "astId": 17797,
        "contract": "contracts/ABStore.sol:ABStore",
        "label": "nbItems",
        "offset": 0,
        "slot": "4",
        "type": "t_uint256"
      },
      {
        "astId": 17801,
        "contract": "contracts/ABStore.sol:ABStore",
        "label": "AB_TOKEN",
        "offset": 0,
        "slot": "5",
        "type": "t_contract(IABToken)22243"
      },
      {
        "astId": 17814,
        "contract": "contracts/ABStore.sol:ABStore",
        "label": "items",
        "offset": 0,
        "slot": "6",
        "type": "t_mapping(t_uint256,t_struct(Item)17808_storage)"
      }
    ],
    "types": {
      "t_address": {
        "encoding": "inplace",
        "label": "address",
        "numberOfBytes": "20"
      },
      "t_bool": {
        "encoding": "inplace",
        "label": "bool",
        "numberOfBytes": "1"
      },
      "t_contract(IABToken)22243": {
        "encoding": "inplace",
        "label": "contract IABToken",
        "numberOfBytes": "20"
      },
      "t_mapping(t_address,t_bool)": {
        "encoding": "mapping",
        "key": "t_address",
        "label": "mapping(address => bool)",
        "numberOfBytes": "32",
        "value": "t_bool"
      },
      "t_mapping(t_address,t_mapping(t_address,t_bool))": {
        "encoding": "mapping",
        "key": "t_address",
        "label": "mapping(address => mapping(address => bool))",
        "numberOfBytes": "32",
        "value": "t_mapping(t_address,t_bool)"
      },
      "t_mapping(t_address,t_uint256)": {
        "encoding": "mapping",
        "key": "t_address",
        "label": "mapping(address => uint256)",
        "numberOfBytes": "32",
        "value": "t_uint256"
      },
      "t_mapping(t_uint256,t_mapping(t_address,t_uint256))": {
        "encoding": "mapping",
        "key": "t_uint256",
        "label": "mapping(uint256 => mapping(address => uint256))",
        "numberOfBytes": "32",
        "value": "t_mapping(t_address,t_uint256)"
      },
      "t_mapping(t_uint256,t_struct(Item)17808_storage)": {
        "encoding": "mapping",
        "key": "t_uint256",
        "label": "mapping(uint256 => struct ABStore.Item)",
        "numberOfBytes": "32",
        "value": "t_struct(Item)17808_storage"
      },
      "t_string_storage": {
        "encoding": "bytes",
        "label": "string",
        "numberOfBytes": "32"
      },
      "t_struct(Item)17808_storage": {
        "encoding": "inplace",
        "label": "struct ABStore.Item",
        "members": [
          {
            "astId": 17803,
            "contract": "contracts/ABStore.sol:ABStore",
            "label": "quantity",
            "offset": 0,
            "slot": "0",
            "type": "t_uint256"
          },
          {
            "astId": 17805,
            "contract": "contracts/ABStore.sol:ABStore",
            "label": "priceABT",
            "offset": 0,
            "slot": "1",
            "type": "t_uint256"
          },
          {
            "astId": 17807,
            "contract": "contracts/ABStore.sol:ABStore",
            "label": "priceETH",
            "offset": 0,
            "slot": "2",
            "type": "t_uint256"
          }
        ],
        "numberOfBytes": "96"
      },
      "t_uint256": {
        "encoding": "inplace",
        "label": "uint256",
        "numberOfBytes": "32"
      }
    }
  }
}