{
  "address": "0x1820C1Fb79C82886b04a1920150100390672b66d",
  "abi": [
    {
      "inputs": [],
      "stateMutability": "nonpayable",
      "type": "constructor"
    },
    {
      "inputs": [],
      "name": "IncorrectItem",
      "type": "error"
    },
    {
      "inputs": [],
      "name": "IncorrectParameters",
      "type": "error"
    },
    {
      "inputs": [],
      "name": "OutOfStock",
      "type": "error"
    },
    {
      "anonymous": false,
      "inputs": [
        {
          "indexed": true,
          "internalType": "address",
          "name": "account",
          "type": "address"
        },
        {
          "indexed": true,
          "internalType": "address",
          "name": "operator",
          "type": "address"
        },
        {
          "indexed": false,
          "internalType": "bool",
          "name": "approved",
          "type": "bool"
        }
      ],
      "name": "ApprovalForAll",
      "type": "event"
    },
    {
      "anonymous": false,
      "inputs": [
        {
          "indexed": true,
          "internalType": "address",
          "name": "previousOwner",
          "type": "address"
        },
        {
          "indexed": true,
          "internalType": "address",
          "name": "newOwner",
          "type": "address"
        }
      ],
      "name": "OwnershipTransferred",
      "type": "event"
    },
    {
      "anonymous": false,
      "inputs": [
        {
          "indexed": false,
          "internalType": "address",
          "name": "buyer",
          "type": "address"
        },
        {
          "indexed": false,
          "internalType": "uint256[]",
          "name": "itemIds",
          "type": "uint256[]"
        },
        {
          "indexed": false,
          "internalType": "uint256[]",
          "name": "quantities",
          "type": "uint256[]"
        }
      ],
      "name": "Purchased",
      "type": "event"
    },
    {
      "anonymous": false,
      "inputs": [
        {
          "indexed": false,
          "internalType": "address",
          "name": "buyer",
          "type": "address"
        },
        {
          "indexed": false,
          "internalType": "uint256[]",
          "name": "itemIds",
          "type": "uint256[]"
        },
        {
          "indexed": false,
          "internalType": "uint256[]",
          "name": "quantities",
          "type": "uint256[]"
        }
      ],
      "name": "Redeemed",
      "type": "event"
    },
    {
      "anonymous": false,
      "inputs": [
        {
          "indexed": true,
          "internalType": "address",
          "name": "operator",
          "type": "address"
        },
        {
          "indexed": true,
          "internalType": "address",
          "name": "from",
          "type": "address"
        },
        {
          "indexed": true,
          "internalType": "address",
          "name": "to",
          "type": "address"
        },
        {
          "indexed": false,
          "internalType": "uint256[]",
          "name": "ids",
          "type": "uint256[]"
        },
        {
          "indexed": false,
          "internalType": "uint256[]",
          "name": "values",
          "type": "uint256[]"
        }
      ],
      "name": "TransferBatch",
      "type": "event"
    },
    {
      "anonymous": false,
      "inputs": [
        {
          "indexed": true,
          "internalType": "address",
          "name": "operator",
          "type": "address"
        },
        {
          "indexed": true,
          "internalType": "address",
          "name": "from",
          "type": "address"
        },
        {
          "indexed": true,
          "internalType": "address",
          "name": "to",
          "type": "address"
        },
        {
          "indexed": false,
          "internalType": "uint256",
          "name": "id",
          "type": "uint256"
        },
        {
          "indexed": false,
          "internalType": "uint256",
          "name": "value",
          "type": "uint256"
        }
      ],
      "name": "TransferSingle",
      "type": "event"
    },
    {
      "anonymous": false,
      "inputs": [
        {
          "indexed": false,
          "internalType": "string",
          "name": "value",
          "type": "string"
        },
        {
          "indexed": true,
          "internalType": "uint256",
          "name": "id",
          "type": "uint256"
        }
      ],
      "name": "URI",
      "type": "event"
    },
    {
      "anonymous": false,
      "inputs": [
        {
          "indexed": false,
          "internalType": "uint256",
          "name": "itemId",
          "type": "uint256"
        },
        {
          "indexed": false,
          "internalType": "uint256",
          "name": "quantity",
          "type": "uint256"
        },
        {
          "indexed": false,
          "internalType": "uint256",
          "name": "price",
          "type": "uint256"
        }
      ],
      "name": "UpdatedInventory",
      "type": "event"
    },
    {
      "inputs": [
        {
          "internalType": "uint256",
          "name": "_quantity",
          "type": "uint256"
        },
        {
          "internalType": "uint256",
          "name": "_price",
          "type": "uint256"
        }
      ],
      "name": "addItem",
      "outputs": [],
      "stateMutability": "nonpayable",
      "type": "function"
    },
    {
      "inputs": [
        {
          "internalType": "address",
          "name": "account",
          "type": "address"
        },
        {
          "internalType": "uint256",
          "name": "id",
          "type": "uint256"
        }
      ],
      "name": "balanceOf",
      "outputs": [
        {
          "internalType": "uint256",
          "name": "",
          "type": "uint256"
        }
      ],
      "stateMutability": "view",
      "type": "function"
    },
    {
      "inputs": [
        {
          "internalType": "address[]",
          "name": "accounts",
          "type": "address[]"
        },
        {
          "internalType": "uint256[]",
          "name": "ids",
          "type": "uint256[]"
        }
      ],
      "name": "balanceOfBatch",
      "outputs": [
        {
          "internalType": "uint256[]",
          "name": "",
          "type": "uint256[]"
        }
      ],
      "stateMutability": "view",
      "type": "function"
    },
    {
      "inputs": [
        {
          "internalType": "address",
          "name": "account",
          "type": "address"
        },
        {
          "internalType": "address",
          "name": "operator",
          "type": "address"
        }
      ],
      "name": "isApprovedForAll",
      "outputs": [
        {
          "internalType": "bool",
          "name": "",
          "type": "bool"
        }
      ],
      "stateMutability": "view",
      "type": "function"
    },
    {
      "inputs": [
        {
          "internalType": "uint256",
          "name": "",
          "type": "uint256"
        }
      ],
      "name": "items",
      "outputs": [
        {
          "internalType": "uint256",
          "name": "quantity",
          "type": "uint256"
        },
        {
          "internalType": "uint256",
          "name": "price",
          "type": "uint256"
        }
      ],
      "stateMutability": "view",
      "type": "function"
    },
    {
      "inputs": [],
      "name": "nbItems",
      "outputs": [
        {
          "internalType": "uint256",
          "name": "",
          "type": "uint256"
        }
      ],
      "stateMutability": "view",
      "type": "function"
    },
    {
      "inputs": [],
      "name": "owner",
      "outputs": [
        {
          "internalType": "address",
          "name": "",
          "type": "address"
        }
      ],
      "stateMutability": "view",
      "type": "function"
    },
    {
      "inputs": [
        {
          "internalType": "uint256[]",
          "name": "_itemIds",
          "type": "uint256[]"
        },
        {
          "internalType": "uint256[]",
          "name": "_quantities",
          "type": "uint256[]"
        }
      ],
      "name": "purchase",
      "outputs": [],
      "stateMutability": "nonpayable",
      "type": "function"
    },
    {
      "inputs": [
        {
          "internalType": "uint256[]",
          "name": "_itemIds",
          "type": "uint256[]"
        },
        {
          "internalType": "uint256[]",
          "name": "_quantities",
          "type": "uint256[]"
        }
      ],
      "name": "redeem",
      "outputs": [],
      "stateMutability": "nonpayable",
      "type": "function"
    },
    {
      "inputs": [],
      "name": "renounceOwnership",
      "outputs": [],
      "stateMutability": "nonpayable",
      "type": "function"
    },
    {
      "inputs": [
        {
          "internalType": "address",
          "name": "from",
          "type": "address"
        },
        {
          "internalType": "address",
          "name": "to",
          "type": "address"
        },
        {
          "internalType": "uint256[]",
          "name": "ids",
          "type": "uint256[]"
        },
        {
          "internalType": "uint256[]",
          "name": "amounts",
          "type": "uint256[]"
        },
        {
          "internalType": "bytes",
          "name": "data",
          "type": "bytes"
        }
      ],
      "name": "safeBatchTransferFrom",
      "outputs": [],
      "stateMutability": "nonpayable",
      "type": "function"
    },
    {
      "inputs": [
        {
          "internalType": "address",
          "name": "from",
          "type": "address"
        },
        {
          "internalType": "address",
          "name": "to",
          "type": "address"
        },
        {
          "internalType": "uint256",
          "name": "id",
          "type": "uint256"
        },
        {
          "internalType": "uint256",
          "name": "amount",
          "type": "uint256"
        },
        {
          "internalType": "bytes",
          "name": "data",
          "type": "bytes"
        }
      ],
      "name": "safeTransferFrom",
      "outputs": [],
      "stateMutability": "nonpayable",
      "type": "function"
    },
    {
      "inputs": [
        {
          "internalType": "address",
          "name": "operator",
          "type": "address"
        },
        {
          "internalType": "bool",
          "name": "approved",
          "type": "bool"
        }
      ],
      "name": "setApprovalForAll",
      "outputs": [],
      "stateMutability": "nonpayable",
      "type": "function"
    },
    {
      "inputs": [
        {
          "internalType": "address",
          "name": "_token",
          "type": "address"
        }
      ],
      "name": "setToken",
      "outputs": [],
      "stateMutability": "nonpayable",
      "type": "function"
    },
    {
      "inputs": [
        {
          "internalType": "bytes4",
          "name": "interfaceId",
          "type": "bytes4"
        }
      ],
      "name": "supportsInterface",
      "outputs": [
        {
          "internalType": "bool",
          "name": "",
          "type": "bool"
        }
      ],
      "stateMutability": "view",
      "type": "function"
    },
    {
      "inputs": [],
      "name": "token",
      "outputs": [
        {
          "internalType": "address",
          "name": "",
          "type": "address"
        }
      ],
      "stateMutability": "view",
      "type": "function"
    },
    {
      "inputs": [
        {
          "internalType": "address",
          "name": "newOwner",
          "type": "address"
        }
      ],
      "name": "transferOwnership",
      "outputs": [],
      "stateMutability": "nonpayable",
      "type": "function"
    },
    {
      "inputs": [
        {
          "internalType": "uint256",
          "name": "_itemId",
          "type": "uint256"
        },
        {
          "internalType": "uint256",
          "name": "_quantity",
          "type": "uint256"
        },
        {
          "internalType": "uint256",
          "name": "_price",
          "type": "uint256"
        }
      ],
      "name": "updateItem",
      "outputs": [],
      "stateMutability": "nonpayable",
      "type": "function"
    },
    {
      "inputs": [
        {
          "internalType": "uint256",
          "name": "",
          "type": "uint256"
        }
      ],
      "name": "uri",
      "outputs": [
        {
          "internalType": "string",
          "name": "",
          "type": "string"
        }
      ],
      "stateMutability": "view",
      "type": "function"
    }
  ],
  "transactionHash": "0xf083b8114adce6cf5f467818fd58243bf4d90280915d6435ff6a13728e2339cc",
  "args": [],
  "numDeployments": 1,
  "solcInputHash": "41b4ead010fa030ae6b6e49390a8d5aa",
  "bytecode": "0x608060405260006004553480156200001657600080fd5b50604080516020810190915260008152620000318162000043565b506200003d3362000055565b62000218565b60026200005182826200014c565b5050565b600380546001600160a01b038381166001600160a01b0319831681179093556040519116919082907f8be0079c531659141344cd1fd0a4f28419497f9722a3daafe3b4186f6b6457e090600090a35050565b634e487b7160e01b600052604160045260246000fd5b600181811c90821680620000d257607f821691505b602082108103620000f357634e487b7160e01b600052602260045260246000fd5b50919050565b601f8211156200014757600081815260208120601f850160051c81016020861015620001225750805b601f850160051c820191505b8181101562000143578281556001016200012e565b5050505b505050565b81516001600160401b03811115620001685762000168620000a7565b6200018081620001798454620000bd565b84620000f9565b602080601f831160018114620001b857600084156200019f5750858301515b600019600386901b1c1916600185901b17855562000143565b600085815260208120601f198616915b82811015620001e957888601518255948401946001909101908401620001c8565b5085821015620002085787850151600019600388901b60f8161c191681555b5050505050600190811b01905550565b611ed480620002286000396000f3fe608060405234801561001057600080fd5b50600436106100f05760003560e01c8062fdd58e146100f557806301ffc9a71461011b5780630e89341c1461013e578063144fa6d71461015e5780632ca51e22146101735780632eb2c2d6146101865780634e1273f414610199578063539447d4146101b9578063715018a6146101cc5780637d734863146101d457806386f3b23d146101dd5780638da5cb5b146101f0578063a212523214610210578063a22cb46514610223578063bfb231d214610236578063e985e9c514610272578063f242432a146102ae578063f2fde38b146102c1578063fc0c546a146102d4575b600080fd5b6101086101033660046114f1565b6102e7565b6040519081526020015b60405180910390f35b61012e610129366004611531565b610380565b6040519015158152602001610112565b61015161014c366004611555565b6103d0565b60405161011291906115b4565b61017161016c3660046115c7565b610464565b005b6101716101813660046116b8565b6104d3565b61017161019436600461178e565b61053f565b6101ac6101a7366004611837565b61058b565b6040516101129190611925565b6101716101c7366004611938565b6106b4565b610171610740565b61010860045481565b6101716101eb3660046116b8565b610754565b6101f861092c565b6040516001600160a01b039091168152602001610112565b61017161021e366004611964565b61093b565b610171610231366004611986565b6109be565b61025d610244366004611555565b6006602052600090815260409020805460019091015482565b60408051928352602083019190915201610112565b61012e6102803660046119c2565b6001600160a01b03918216600090815260016020908152604080832093909416825291909152205460ff1690565b6101716102bc3660046119f5565b6109cd565b6101716102cf3660046115c7565b610a12565b6005546101f8906001600160a01b031681565b60006001600160a01b0383166103575760405162461bcd60e51b815260206004820152602a60248201527f455243313135353a2061646472657373207a65726f206973206e6f742061207660448201526930b634b21037bbb732b960b11b60648201526084015b60405180910390fd5b506000818152602081815260408083206001600160a01b03861684529091529020545b92915050565b60006001600160e01b03198216636cdb3d1360e11b14806103b157506001600160e01b031982166303a24d0760e21b145b8061037a57506301ffc9a760e01b6001600160e01b031983161461037a565b6060600280546103df90611a59565b80601f016020809104026020016040519081016040528092919081815260200182805461040b90611a59565b80156104585780601f1061042d57610100808354040283529160200191610458565b820191906000526020600020905b81548152906001019060200180831161043b57829003601f168201915b50505050509050919050565b61046c610a8b565b6001600160a01b0381166104b15760405162461bcd60e51b815260206004820152600c60248201526b7a65726f206164647265737360a01b604482015260640161034e565b600580546001600160a01b0319166001600160a01b0392909216919091179055565b80518251146104f55760405163c4718a2d60e01b815260040160405180910390fd5b610500338383610aea565b7f9936d6fe250f96d281bb580bb32e850a6ff520fb7b9ebe6c46a80713a36b8b8f33838360405161053393929190611a93565b60405180910390a15050565b6001600160a01b03851633148061055b575061055b8533610280565b6105775760405162461bcd60e51b815260040161034e90611ad3565b6105848585858585610cdb565b5050505050565b606081518351146105f05760405162461bcd60e51b815260206004820152602960248201527f455243313135353a206163636f756e747320616e6420696473206c656e677468604482015268040dad2e6dac2e8c6d60bb1b606482015260840161034e565b600083516001600160401b0381111561060b5761060b6115e2565b604051908082528060200260200182016040528015610634578160200160208202803683370190505b50905060005b84518110156106ac5761067f85828151811061065857610658611b22565b602002602001015185838151811061067257610672611b22565b60200260200101516102e7565b82828151811061069157610691611b22565b60209081029190910101526106a581611b4e565b905061063a565b509392505050565b6106bc610a8b565b60045483106106de57604051636609430360e01b815260040160405180910390fd5b6106e66114bb565b828152602080820183815260008681526006835260409081902084518155915160019092019190915580518681529182018590528101839052600080516020611e7f8339815191529060600160405180910390a150505050565b610748610a8b565b6107526000610e65565b565b80518251146107765760405163c4718a2d60e01b815260040160405180910390fd5b6000805b835181101561086c5760006006600086848151811061079b5761079b611b22565b6020026020010151815260200190815260200160002090508382815181106107c5576107c5611b22565b6020026020010151816000015410156107f15760405163ade1cb4160e01b815260040160405180910390fd5b83828151811061080357610803611b22565b602002602001015181600001600082825461081e9190611b67565b92505081905550806001015484838151811061083c5761083c611b22565b602002602001015161084e9190611b7a565b6108589084611b99565b9250508061086590611b4e565b905061077a565b50600554604051632770a7eb60e21b8152336004820152602481018390526001600160a01b0390911690639dc29fac90604401600060405180830381600087803b1580156108b957600080fd5b505af11580156108cd573d6000803e3d6000fd5b505050506108ec33848460405180602001604052806000815250610eb7565b7f0b377c5768bbccb00d9290f71b66eecff8331381e24275ec8a7fb93227e80a4b33848460405161091f93929190611a93565b60405180910390a1505050565b6003546001600160a01b031690565b610943610a8b565b61094b6114bb565b8281526020808201838152600480546000908152600684526040908190208551815592516001909301929092555481519081529182018590528101839052600080516020611e7f8339815191529060600160405180910390a1600480549060006109b483611b4e565b9190505550505050565b6109c933838361102a565b5050565b6001600160a01b0385163314806109e957506109e98533610280565b610a055760405162461bcd60e51b815260040161034e90611ad3565b610584858585858561110a565b610a1a610a8b565b6001600160a01b038116610a7f5760405162461bcd60e51b815260206004820152602660248201527f4f776e61626c653a206e6577206f776e657220697320746865207a65726f206160448201526564647265737360d01b606482015260840161034e565b610a8881610e65565b50565b33610a9461092c565b6001600160a01b0316146107525760405162461bcd60e51b815260206004820181905260248201527f4f776e61626c653a2063616c6c6572206973206e6f7420746865206f776e6572604482015260640161034e565b6001600160a01b038316610b4c5760405162461bcd60e51b815260206004820152602360248201527f455243313135353a206275726e2066726f6d20746865207a65726f206164647260448201526265737360e81b606482015260840161034e565b8051825114610b6d5760405162461bcd60e51b815260040161034e90611bac565b604080516020810190915260009081905233905b8351811015610c7f576000848281518110610b9e57610b9e611b22565b602002602001015190506000848381518110610bbc57610bbc611b22565b602090810291909101810151600084815280835260408082206001600160a01b038c168352909352919091205490915081811015610c485760405162461bcd60e51b8152602060048201526024808201527f455243313135353a206275726e20616d6f756e7420657863656564732062616c604482015263616e636560e01b606482015260840161034e565b6000928352602083815260408085206001600160a01b038b1686529091529092209103905580610c7781611b4e565b915050610b81565b5060006001600160a01b0316846001600160a01b0316826001600160a01b0316600080516020611e5f8339815191528686604051610cbe929190611bf4565b60405180910390a460408051602081019091526000905250505050565b8151835114610cfc5760405162461bcd60e51b815260040161034e90611bac565b6001600160a01b038416610d225760405162461bcd60e51b815260040161034e90611c22565b3360005b8451811015610e09576000858281518110610d4357610d43611b22565b602002602001015190506000858381518110610d6157610d61611b22565b602090810291909101810151600084815280835260408082206001600160a01b038e168352909352919091205490915081811015610db15760405162461bcd60e51b815260040161034e90611c67565b6000838152602081815260408083206001600160a01b038e8116855292528083208585039055908b16825281208054849290610dee908490611b99565b9250508190555050505080610e0290611b4e565b9050610d26565b50846001600160a01b0316866001600160a01b0316826001600160a01b0316600080516020611e5f8339815191528787604051610e47929190611bf4565b60405180910390a4610e5d818787878787611234565b505050505050565b600380546001600160a01b038381166001600160a01b0319831681179093556040519116919082907f8be0079c531659141344cd1fd0a4f28419497f9722a3daafe3b4186f6b6457e090600090a35050565b6001600160a01b038416610f175760405162461bcd60e51b815260206004820152602160248201527f455243313135353a206d696e7420746f20746865207a65726f206164647265736044820152607360f81b606482015260840161034e565b8151835114610f385760405162461bcd60e51b815260040161034e90611bac565b3360005b8451811015610fd457838181518110610f5757610f57611b22565b6020026020010151600080878481518110610f7457610f74611b22565b602002602001015181526020019081526020016000206000886001600160a01b03166001600160a01b031681526020019081526020016000206000828254610fbc9190611b99565b90915550819050610fcc81611b4e565b915050610f3c565b50846001600160a01b031660006001600160a01b0316826001600160a01b0316600080516020611e5f8339815191528787604051611013929190611bf4565b60405180910390a461058481600087878787611234565b816001600160a01b0316836001600160a01b03160361109d5760405162461bcd60e51b815260206004820152602960248201527f455243313135353a2073657474696e6720617070726f76616c20737461747573604482015268103337b91039b2b63360b91b606482015260840161034e565b6001600160a01b03838116600081815260016020908152604080832094871680845294825291829020805460ff191686151590811790915591519182527f17307eab39ab6107e8899845ad3d59bd9653f200f220920489ca2b5937696c31910160405180910390a3505050565b6001600160a01b0384166111305760405162461bcd60e51b815260040161034e90611c22565b33600061113c8561139f565b905060006111498561139f565b90506000868152602081815260408083206001600160a01b038c1684529091529020548581101561118c5760405162461bcd60e51b815260040161034e90611c67565b6000878152602081815260408083206001600160a01b038d8116855292528083208985039055908a168252812080548892906111c9908490611b99565b909155505060408051888152602081018890526001600160a01b03808b16928c821692918816917fc3d58168c5ae7397731d063d5bbf3d657854427343f4c083240f7aacaa2d0f62910160405180910390a4611229848a8a8a8a8a6113ea565b505050505050505050565b611246846001600160a01b03166114ac565b15610e5d5760405163bc197c8160e01b81526001600160a01b0385169063bc197c819061127f9089908990889088908890600401611cb1565b6020604051808303816000875af19250505080156112ba575060408051601f3d908101601f191682019092526112b791810190611d0f565b60015b611366576112c6611d2c565b806308c379a0036112ff57506112da611d48565b806112e55750611301565b8060405162461bcd60e51b815260040161034e91906115b4565b505b60405162461bcd60e51b815260206004820152603460248201527f455243313135353a207472616e7366657220746f206e6f6e20455243313135356044820152732932b1b2b4bb32b91034b6b83632b6b2b73a32b960611b606482015260840161034e565b6001600160e01b0319811663bc197c8160e01b146113965760405162461bcd60e51b815260040161034e90611dd1565b50505050505050565b604080516001808252818301909252606091600091906020808301908036833701905050905082816000815181106113d9576113d9611b22565b602090810291909101015292915050565b6113fc846001600160a01b03166114ac565b15610e5d5760405163f23a6e6160e01b81526001600160a01b0385169063f23a6e61906114359089908990889088908890600401611e19565b6020604051808303816000875af1925050508015611470575060408051601f3d908101601f1916820190925261146d91810190611d0f565b60015b61147c576112c6611d2c565b6001600160e01b0319811663f23a6e6160e01b146113965760405162461bcd60e51b815260040161034e90611dd1565b6001600160a01b03163b151590565b604051806040016040528060008152602001600081525090565b80356001600160a01b03811681146114ec57600080fd5b919050565b6000806040838503121561150457600080fd5b61150d836114d5565b946020939093013593505050565b6001600160e01b031981168114610a8857600080fd5b60006020828403121561154357600080fd5b813561154e8161151b565b9392505050565b60006020828403121561156757600080fd5b5035919050565b6000815180845260005b8181101561159457602081850181015186830182015201611578565b506000602082860101526020601f19601f83011685010191505092915050565b60208152600061154e602083018461156e565b6000602082840312156115d957600080fd5b61154e826114d5565b634e487b7160e01b600052604160045260246000fd5b601f8201601f191681016001600160401b038111828210171561161d5761161d6115e2565b6040525050565b60006001600160401b0382111561163d5761163d6115e2565b5060051b60200190565b600082601f83011261165857600080fd5b8135602061166582611624565b60405161167282826115f8565b83815260059390931b850182019282810191508684111561169257600080fd5b8286015b848110156116ad5780358352918301918301611696565b509695505050505050565b600080604083850312156116cb57600080fd5b82356001600160401b03808211156116e257600080fd5b6116ee86838701611647565b9350602085013591508082111561170457600080fd5b5061171185828601611647565b9150509250929050565b600082601f83011261172c57600080fd5b81356001600160401b03811115611745576117456115e2565b60405161175c601f8301601f1916602001826115f8565b81815284602083860101111561177157600080fd5b816020850160208301376000918101602001919091529392505050565b600080600080600060a086880312156117a657600080fd5b6117af866114d5565b94506117bd602087016114d5565b935060408601356001600160401b03808211156117d957600080fd5b6117e589838a01611647565b945060608801359150808211156117fb57600080fd5b61180789838a01611647565b9350608088013591508082111561181d57600080fd5b5061182a8882890161171b565b9150509295509295909350565b6000806040838503121561184a57600080fd5b82356001600160401b038082111561186157600080fd5b818501915085601f83011261187557600080fd5b8135602061188282611624565b60405161188f82826115f8565b83815260059390931b85018201928281019150898411156118af57600080fd5b948201945b838610156118d4576118c5866114d5565b825294820194908201906118b4565b9650508601359250508082111561170457600080fd5b600081518084526020808501945080840160005b8381101561191a578151875295820195908201906001016118fe565b509495945050505050565b60208152600061154e60208301846118ea565b60008060006060848603121561194d57600080fd5b505081359360208301359350604090920135919050565b6000806040838503121561197757600080fd5b50508035926020909101359150565b6000806040838503121561199957600080fd5b6119a2836114d5565b9150602083013580151581146119b757600080fd5b809150509250929050565b600080604083850312156119d557600080fd5b6119de836114d5565b91506119ec602084016114d5565b90509250929050565b600080600080600060a08688031215611a0d57600080fd5b611a16866114d5565b9450611a24602087016114d5565b9350604086013592506060860135915060808601356001600160401b03811115611a4d57600080fd5b61182a8882890161171b565b600181811c90821680611a6d57607f821691505b602082108103611a8d57634e487b7160e01b600052602260045260246000fd5b50919050565b6001600160a01b0384168152606060208201819052600090611ab7908301856118ea565b8281036040840152611ac981856118ea565b9695505050505050565b6020808252602f908201527f455243313135353a2063616c6c6572206973206e6f7420746f6b656e206f776e60408201526e195c881b9bdc88185c1c1c9bdd9959608a1b606082015260800190565b634e487b7160e01b600052603260045260246000fd5b634e487b7160e01b600052601160045260246000fd5b600060018201611b6057611b60611b38565b5060010190565b8181038181111561037a5761037a611b38565b6000816000190483118215151615611b9457611b94611b38565b500290565b8082018082111561037a5761037a611b38565b60208082526028908201527f455243313135353a2069647320616e6420616d6f756e7473206c656e677468206040820152670dad2e6dac2e8c6d60c31b606082015260800190565b604081526000611c0760408301856118ea565b8281036020840152611c1981856118ea565b95945050505050565b60208082526025908201527f455243313135353a207472616e7366657220746f20746865207a65726f206164604082015264647265737360d81b606082015260800190565b6020808252602a908201527f455243313135353a20696e73756666696369656e742062616c616e636520666f60408201526939103a3930b739b332b960b11b606082015260800190565b6001600160a01b0386811682528516602082015260a060408201819052600090611cdd908301866118ea565b8281036060840152611cef81866118ea565b90508281036080840152611d03818561156e565b98975050505050505050565b600060208284031215611d2157600080fd5b815161154e8161151b565b600060033d1115611d455760046000803e5060005160e01c5b90565b600060443d1015611d565790565b6040516003193d81016004833e81513d6001600160401b038083116024840183101715611d8557505050505090565b8285019150815181811115611d9d5750505050505090565b843d8701016020828501011115611db75750505050505090565b611dc6602082860101876115f8565b509095945050505050565b60208082526028908201527f455243313135353a204552433131353552656365697665722072656a656374656040820152676420746f6b656e7360c01b606082015260800190565b6001600160a01b03868116825285166020820152604081018490526060810183905260a060808201819052600090611e539083018461156e565b97965050505050505056fe4a39dc06d4c0dbc64b70af90fd698a233a518aa5d07e595d983b8c0526c8f7fbba08610eb630e5169cc45f7cb0aff657b7ef15d0ea7410ad15f239b7c7640b0aa264697066735822122028e7db523162f9886469584be7e340606b2deb92669e63fb4a6078063554535964736f6c63430008100033",
  "devdoc": {
    "kind": "dev",
    "methods": {
      "balanceOf(address,uint256)": {
        "details": "See {IERC1155-balanceOf}. Requirements: - `account` cannot be the zero address."
      },
      "balanceOfBatch(address[],uint256[])": {
        "details": "See {IERC1155-balanceOfBatch}. Requirements: - `accounts` and `ids` must have the same length."
      },
      "isApprovedForAll(address,address)": {
        "details": "See {IERC1155-isApprovedForAll}."
      },
      "owner()": {
        "details": "Returns the address of the current owner."
      },
      "renounceOwnership()": {
        "details": "Leaves the contract without owner. It will not be possible to call `onlyOwner` functions anymore. Can only be called by the current owner. NOTE: Renouncing ownership will leave the contract without an owner, thereby removing any functionality that is only available to the owner."
      },
      "safeBatchTransferFrom(address,address,uint256[],uint256[],bytes)": {
        "details": "See {IERC1155-safeBatchTransferFrom}."
      },
      "safeTransferFrom(address,address,uint256,uint256,bytes)": {
        "details": "See {IERC1155-safeTransferFrom}."
      },
      "setApprovalForAll(address,bool)": {
        "details": "See {IERC1155-setApprovalForAll}."
      },
      "supportsInterface(bytes4)": {
        "details": "See {IERC165-supportsInterface}."
      },
      "transferOwnership(address)": {
        "details": "Transfers ownership of the contract to a new account (`newOwner`). Can only be called by the current owner."
      },
      "uri(uint256)": {
        "details": "See {IERC1155MetadataURI-uri}. This implementation returns the same URI for *all* token types. It relies on the token type ID substitution mechanism https://eips.ethereum.org/EIPS/eip-1155#metadata[defined in the EIP]. Clients calling this function must replace the `\\{id\\}` substring with the actual token type ID."
      }
    },
    "version": 1
  },
  "userdoc": {
    "kind": "user",
    "methods": {},
    "version": 1
  },
  "storageLayout": {
    "storage": [
      {
        "astId": 5183,
        "contract": "contracts/ABStore.sol:ABStore",
        "label": "_balances",
        "offset": 0,
        "slot": "0",
        "type": "t_mapping(t_uint256,t_mapping(t_address,t_uint256))"
      },
      {
        "astId": 5189,
        "contract": "contracts/ABStore.sol:ABStore",
        "label": "_operatorApprovals",
        "offset": 0,
        "slot": "1",
        "type": "t_mapping(t_address,t_mapping(t_address,t_bool))"
      },
      {
        "astId": 5191,
        "contract": "contracts/ABStore.sol:ABStore",
        "label": "_uri",
        "offset": 0,
        "slot": "2",
        "type": "t_string_storage"
      },
      {
        "astId": 4901,
        "contract": "contracts/ABStore.sol:ABStore",
        "label": "_owner",
        "offset": 0,
        "slot": "3",
        "type": "t_address"
      },
      {
        "astId": 17781,
        "contract": "contracts/ABStore.sol:ABStore",
        "label": "nbItems",
        "offset": 0,
        "slot": "4",
        "type": "t_uint256"
      },
      {
        "astId": 17783,
        "contract": "contracts/ABStore.sol:ABStore",
        "label": "token",
        "offset": 0,
        "slot": "5",
        "type": "t_address"
      },
      {
        "astId": 17799,
        "contract": "contracts/ABStore.sol:ABStore",
        "label": "items",
        "offset": 0,
        "slot": "6",
        "type": "t_mapping(t_uint256,t_struct(Item)17788_storage)"
      }
    ],
    "types": {
      "t_address": {
        "encoding": "inplace",
        "label": "address",
        "numberOfBytes": "20"
      },
      "t_bool": {
        "encoding": "inplace",
        "label": "bool",
        "numberOfBytes": "1"
      },
      "t_mapping(t_address,t_bool)": {
        "encoding": "mapping",
        "key": "t_address",
        "label": "mapping(address => bool)",
        "numberOfBytes": "32",
        "value": "t_bool"
      },
      "t_mapping(t_address,t_mapping(t_address,t_bool))": {
        "encoding": "mapping",
        "key": "t_address",
        "label": "mapping(address => mapping(address => bool))",
        "numberOfBytes": "32",
        "value": "t_mapping(t_address,t_bool)"
      },
      "t_mapping(t_address,t_uint256)": {
        "encoding": "mapping",
        "key": "t_address",
        "label": "mapping(address => uint256)",
        "numberOfBytes": "32",
        "value": "t_uint256"
      },
      "t_mapping(t_uint256,t_mapping(t_address,t_uint256))": {
        "encoding": "mapping",
        "key": "t_uint256",
        "label": "mapping(uint256 => mapping(address => uint256))",
        "numberOfBytes": "32",
        "value": "t_mapping(t_address,t_uint256)"
      },
      "t_mapping(t_uint256,t_struct(Item)17788_storage)": {
        "encoding": "mapping",
        "key": "t_uint256",
        "label": "mapping(uint256 => struct ABStore.Item)",
        "numberOfBytes": "32",
        "value": "t_struct(Item)17788_storage"
      },
      "t_string_storage": {
        "encoding": "bytes",
        "label": "string",
        "numberOfBytes": "32"
      },
      "t_struct(Item)17788_storage": {
        "encoding": "inplace",
        "label": "struct ABStore.Item",
        "members": [
          {
            "astId": 17785,
            "contract": "contracts/ABStore.sol:ABStore",
            "label": "quantity",
            "offset": 0,
            "slot": "0",
            "type": "t_uint256"
          },
          {
            "astId": 17787,
            "contract": "contracts/ABStore.sol:ABStore",
            "label": "price",
            "offset": 0,
            "slot": "1",
            "type": "t_uint256"
          }
        ],
        "numberOfBytes": "64"
      },
      "t_uint256": {
        "encoding": "inplace",
        "label": "uint256",
        "numberOfBytes": "32"
      }
    }
  }
}