{
  "address": "0x9C0b335d76e6e2D17173db9744d31747E220b612",
  "abi": [
    {
      "inputs": [
        {
          "internalType": "address",
          "name": "_store",
          "type": "address"
        },
        {
          "internalType": "address",
          "name": "_host",
          "type": "address"
        },
        {
          "internalType": "address",
          "name": "_admin",
          "type": "address"
        }
      ],
      "stateMutability": "nonpayable",
      "type": "constructor"
    },
    {
      "inputs": [
        {
          "internalType": "uint256",
          "name": "_code",
          "type": "uint256"
        }
      ],
      "name": "ALREADY_EXISTS",
      "type": "error"
    },
    {
      "inputs": [
        {
          "internalType": "uint256",
          "name": "_code",
          "type": "uint256"
        }
      ],
      "name": "DOES_NOT_EXIST",
      "type": "error"
    },
    {
      "inputs": [
        {
          "internalType": "uint256",
          "name": "_code",
          "type": "uint256"
        }
      ],
      "name": "INSUFFICIENT_BALANCE",
      "type": "error"
    },
    {
      "inputs": [],
      "name": "NOT_ADMIN",
      "type": "error"
    },
    {
      "inputs": [],
      "name": "NOT_APPROVABLE",
      "type": "error"
    },
    {
      "inputs": [],
      "name": "NOT_BURNABLE",
      "type": "error"
    },
    {
      "inputs": [],
      "name": "NOT_CFA_AGREEMENT",
      "type": "error"
    },
    {
      "inputs": [],
      "name": "NOT_MINTABLE",
      "type": "error"
    },
    {
      "inputs": [],
      "name": "NOT_STREAMABLE",
      "type": "error"
    },
    {
      "inputs": [],
      "name": "NOT_TRANSFERABLE",
      "type": "error"
    },
    {
      "inputs": [
        {
          "internalType": "uint256",
          "name": "_code",
          "type": "uint256"
        }
      ],
      "name": "ONLY_HOST",
      "type": "error"
    },
    {
      "inputs": [
        {
          "internalType": "uint256",
          "name": "_code",
          "type": "uint256"
        }
      ],
      "name": "ONLY_LISTED_AGREEMENT",
      "type": "error"
    },
    {
      "inputs": [],
      "name": "SUPER_TOKEN_CALLER_IS_NOT_OPERATOR_FOR_HOLDER",
      "type": "error"
    },
    {
      "inputs": [],
      "name": "SUPER_TOKEN_INFLATIONARY_DEFLATIONARY_NOT_SUPPORTED",
      "type": "error"
    },
    {
      "inputs": [],
      "name": "SUPER_TOKEN_NOT_ERC777_TOKENS_RECIPIENT",
      "type": "error"
    },
    {
      "inputs": [],
      "name": "SUPER_TOKEN_NO_UNDERLYING_TOKEN",
      "type": "error"
    },
    {
      "inputs": [],
      "name": "SUPER_TOKEN_ONLY_SELF",
      "type": "error"
    },
    {
      "inputs": [
        {
          "internalType": "uint256",
          "name": "_code",
          "type": "uint256"
        }
      ],
      "name": "ZERO_ADDRESS",
      "type": "error"
    },
    {
      "anonymous": false,
      "inputs": [
        {
          "indexed": true,
          "internalType": "address",
          "name": "agreementClass",
          "type": "address"
        },
        {
          "indexed": false,
          "internalType": "bytes32",
          "name": "id",
          "type": "bytes32"
        },
        {
          "indexed": false,
          "internalType": "bytes32[]",
          "name": "data",
          "type": "bytes32[]"
        }
      ],
      "name": "AgreementCreated",
      "type": "event"
    },
    {
      "anonymous": false,
      "inputs": [
        {
          "indexed": true,
          "internalType": "address",
          "name": "agreementClass",
          "type": "address"
        },
        {
          "indexed": false,
          "internalType": "bytes32",
          "name": "id",
          "type": "bytes32"
        },
        {
          "indexed": true,
          "internalType": "address",
          "name": "penaltyAccount",
          "type": "address"
        },
        {
          "indexed": true,
          "internalType": "address",
          "name": "rewardAccount",
          "type": "address"
        },
        {
          "indexed": false,
          "internalType": "uint256",
          "name": "rewardAmount",
          "type": "uint256"
        }
      ],
      "name": "AgreementLiquidated",
      "type": "event"
    },
    {
      "anonymous": false,
      "inputs": [
        {
          "indexed": false,
          "internalType": "address",
          "name": "liquidatorAccount",
          "type": "address"
        },
        {
          "indexed": true,
          "internalType": "address",
          "name": "agreementClass",
          "type": "address"
        },
        {
          "indexed": false,
          "internalType": "bytes32",
          "name": "id",
          "type": "bytes32"
        },
        {
          "indexed": true,
          "internalType": "address",
          "name": "penaltyAccount",
          "type": "address"
        },
        {
          "indexed": true,
          "internalType": "address",
          "name": "bondAccount",
          "type": "address"
        },
        {
          "indexed": false,
          "internalType": "uint256",
          "name": "rewardAmount",
          "type": "uint256"
        },
        {
          "indexed": false,
          "internalType": "uint256",
          "name": "bailoutAmount",
          "type": "uint256"
        }
      ],
      "name": "AgreementLiquidatedBy",
      "type": "event"
    },
    {
      "anonymous": false,
      "inputs": [
        {
          "indexed": true,
          "internalType": "address",
          "name": "agreementClass",
          "type": "address"
        },
        {
          "indexed": false,
          "internalType": "bytes32",
          "name": "id",
          "type": "bytes32"
        },
        {
          "indexed": true,
          "internalType": "address",
          "name": "liquidatorAccount",
          "type": "address"
        },
        {
          "indexed": true,
          "internalType": "address",
          "name": "targetAccount",
          "type": "address"
        },
        {
          "indexed": false,
          "internalType": "address",
          "name": "rewardAmountReceiver",
          "type": "address"
        },
        {
          "indexed": false,
          "internalType": "uint256",
          "name": "rewardAmount",
          "type": "uint256"
        },
        {
          "indexed": false,
          "internalType": "int256",
          "name": "targetAccountBalanceDelta",
          "type": "int256"
        },
        {
          "indexed": false,
          "internalType": "bytes",
          "name": "liquidationTypeData",
          "type": "bytes"
        }
      ],
      "name": "AgreementLiquidatedV2",
      "type": "event"
    },
    {
      "anonymous": false,
      "inputs": [
        {
          "indexed": true,
          "internalType": "address",
          "name": "agreementClass",
          "type": "address"
        },
        {
          "indexed": true,
          "internalType": "address",
          "name": "account",
          "type": "address"
        },
        {
          "indexed": false,
          "internalType": "uint256",
          "name": "slotId",
          "type": "uint256"
        }
      ],
      "name": "AgreementStateUpdated",
      "type": "event"
    },
    {
      "anonymous": false,
      "inputs": [
        {
          "indexed": true,
          "internalType": "address",
          "name": "agreementClass",
          "type": "address"
        },
        {
          "indexed": false,
          "internalType": "bytes32",
          "name": "id",
          "type": "bytes32"
        }
      ],
      "name": "AgreementTerminated",
      "type": "event"
    },
    {
      "anonymous": false,
      "inputs": [
        {
          "indexed": true,
          "internalType": "address",
          "name": "agreementClass",
          "type": "address"
        },
        {
          "indexed": false,
          "internalType": "bytes32",
          "name": "id",
          "type": "bytes32"
        },
        {
          "indexed": false,
          "internalType": "bytes32[]",
          "name": "data",
          "type": "bytes32[]"
        }
      ],
      "name": "AgreementUpdated",
      "type": "event"
    },
    {
      "anonymous": false,
      "inputs": [
        {
          "indexed": true,
          "internalType": "address",
          "name": "owner",
          "type": "address"
        },
        {
          "indexed": true,
          "internalType": "address",
          "name": "spender",
          "type": "address"
        },
        {
          "indexed": false,
          "internalType": "uint256",
          "name": "value",
          "type": "uint256"
        }
      ],
      "name": "Approval",
      "type": "event"
    },
    {
      "anonymous": false,
      "inputs": [
        {
          "indexed": true,
          "internalType": "address",
          "name": "operator",
          "type": "address"
        },
        {
          "indexed": true,
          "internalType": "address",
          "name": "tokenHolder",
          "type": "address"
        }
      ],
      "name": "AuthorizedOperator",
      "type": "event"
    },
    {
      "anonymous": false,
      "inputs": [
        {
          "indexed": true,
          "internalType": "address",
          "name": "bailoutAccount",
          "type": "address"
        },
        {
          "indexed": false,
          "internalType": "uint256",
          "name": "bailoutAmount",
          "type": "uint256"
        }
      ],
      "name": "Bailout",
      "type": "event"
    },
    {
      "anonymous": false,
      "inputs": [
        {
          "indexed": true,
          "internalType": "address",
          "name": "operator",
          "type": "address"
        },
        {
          "indexed": true,
          "internalType": "address",
          "name": "from",
          "type": "address"
        },
        {
          "indexed": false,
          "internalType": "uint256",
          "name": "amount",
          "type": "uint256"
        },
        {
          "indexed": false,
          "internalType": "bytes",
          "name": "data",
          "type": "bytes"
        },
        {
          "indexed": false,
          "internalType": "bytes",
          "name": "operatorData",
          "type": "bytes"
        }
      ],
      "name": "Burned",
      "type": "event"
    },
    {
      "anonymous": false,
      "inputs": [
        {
          "indexed": false,
          "internalType": "bytes32",
          "name": "uuid",
          "type": "bytes32"
        },
        {
          "indexed": false,
          "internalType": "address",
          "name": "codeAddress",
          "type": "address"
        }
      ],
      "name": "CodeUpdated",
      "type": "event"
    },
    {
      "anonymous": false,
      "inputs": [
        {
          "indexed": false,
          "internalType": "uint8",
          "name": "version",
          "type": "uint8"
        }
      ],
      "name": "Initialized",
      "type": "event"
    },
    {
      "anonymous": false,
      "inputs": [
        {
          "indexed": true,
          "internalType": "address",
          "name": "operator",
          "type": "address"
        },
        {
          "indexed": true,
          "internalType": "address",
          "name": "to",
          "type": "address"
        },
        {
          "indexed": false,
          "internalType": "uint256",
          "name": "amount",
          "type": "uint256"
        },
        {
          "indexed": false,
          "internalType": "bytes",
          "name": "data",
          "type": "bytes"
        },
        {
          "indexed": false,
          "internalType": "bytes",
          "name": "operatorData",
          "type": "bytes"
        }
      ],
      "name": "Minted",
      "type": "event"
    },
    {
      "anonymous": false,
      "inputs": [
        {
          "indexed": true,
          "internalType": "address",
          "name": "operator",
          "type": "address"
        },
        {
          "indexed": true,
          "internalType": "address",
          "name": "tokenHolder",
          "type": "address"
        }
      ],
      "name": "RevokedOperator",
      "type": "event"
    },
    {
      "anonymous": false,
      "inputs": [
        {
          "indexed": true,
          "internalType": "bytes32",
          "name": "role",
          "type": "bytes32"
        },
        {
          "indexed": true,
          "internalType": "bytes32",
          "name": "previousAdminRole",
          "type": "bytes32"
        },
        {
          "indexed": true,
          "internalType": "bytes32",
          "name": "newAdminRole",
          "type": "bytes32"
        }
      ],
      "name": "RoleAdminChanged",
      "type": "event"
    },
    {
      "anonymous": false,
      "inputs": [
        {
          "indexed": true,
          "internalType": "bytes32",
          "name": "role",
          "type": "bytes32"
        },
        {
          "indexed": true,
          "internalType": "address",
          "name": "account",
          "type": "address"
        },
        {
          "indexed": true,
          "internalType": "address",
          "name": "sender",
          "type": "address"
        }
      ],
      "name": "RoleGranted",
      "type": "event"
    },
    {
      "anonymous": false,
      "inputs": [
        {
          "indexed": true,
          "internalType": "bytes32",
          "name": "role",
          "type": "bytes32"
        },
        {
          "indexed": true,
          "internalType": "address",
          "name": "account",
          "type": "address"
        },
        {
          "indexed": true,
          "internalType": "address",
          "name": "sender",
          "type": "address"
        }
      ],
      "name": "RoleRevoked",
      "type": "event"
    },
    {
      "anonymous": false,
      "inputs": [
        {
          "indexed": true,
          "internalType": "address",
          "name": "operator",
          "type": "address"
        },
        {
          "indexed": true,
          "internalType": "address",
          "name": "from",
          "type": "address"
        },
        {
          "indexed": true,
          "internalType": "address",
          "name": "to",
          "type": "address"
        },
        {
          "indexed": false,
          "internalType": "uint256",
          "name": "amount",
          "type": "uint256"
        },
        {
          "indexed": false,
          "internalType": "bytes",
          "name": "data",
          "type": "bytes"
        },
        {
          "indexed": false,
          "internalType": "bytes",
          "name": "operatorData",
          "type": "bytes"
        }
      ],
      "name": "Sent",
      "type": "event"
    },
    {
      "anonymous": false,
      "inputs": [
        {
          "indexed": true,
          "internalType": "address",
          "name": "account",
          "type": "address"
        },
        {
          "indexed": false,
          "internalType": "uint256",
          "name": "amount",
          "type": "uint256"
        }
      ],
      "name": "TokenDowngraded",
      "type": "event"
    },
    {
      "anonymous": false,
      "inputs": [
        {
          "indexed": true,
          "internalType": "address",
          "name": "account",
          "type": "address"
        },
        {
          "indexed": false,
          "internalType": "uint256",
          "name": "amount",
          "type": "uint256"
        }
      ],
      "name": "TokenUpgraded",
      "type": "event"
    },
    {
      "anonymous": false,
      "inputs": [
        {
          "indexed": true,
          "internalType": "address",
          "name": "from",
          "type": "address"
        },
        {
          "indexed": true,
          "internalType": "address",
          "name": "to",
          "type": "address"
        },
        {
          "indexed": false,
          "internalType": "uint256",
          "name": "value",
          "type": "uint256"
        }
      ],
      "name": "Transfer",
      "type": "event"
    },
    {
      "inputs": [],
      "name": "BURNER",
      "outputs": [
        {
          "internalType": "bytes32",
          "name": "",
          "type": "bytes32"
        }
      ],
      "stateMutability": "view",
      "type": "function"
    },
    {
      "inputs": [],
      "name": "DEFAULT_ADMIN_ROLE",
      "outputs": [
        {
          "internalType": "bytes32",
          "name": "",
          "type": "bytes32"
        }
      ],
      "stateMutability": "view",
      "type": "function"
    },
    {
      "inputs": [],
      "name": "MINTER",
      "outputs": [
        {
          "internalType": "bytes32",
          "name": "",
          "type": "bytes32"
        }
      ],
      "stateMutability": "view",
      "type": "function"
    },
    {
      "inputs": [
        {
          "internalType": "address",
          "name": "account",
          "type": "address"
        },
        {
          "internalType": "address",
          "name": "spender",
          "type": "address"
        }
      ],
      "name": "allowance",
      "outputs": [
        {
          "internalType": "uint256",
          "name": "",
          "type": "uint256"
        }
      ],
      "stateMutability": "view",
      "type": "function"
    },
    {
      "inputs": [
        {
          "internalType": "address",
          "name": "spender",
          "type": "address"
        },
        {
          "internalType": "uint256",
          "name": "amount",
          "type": "uint256"
        }
      ],
      "name": "approve",
      "outputs": [
        {
          "internalType": "bool",
          "name": "",
          "type": "bool"
        }
      ],
      "stateMutability": "nonpayable",
      "type": "function"
    },
    {
      "inputs": [
        {
          "internalType": "address",
          "name": "operator",
          "type": "address"
        }
      ],
      "name": "authorizeOperator",
      "outputs": [],
      "stateMutability": "nonpayable",
      "type": "function"
    },
    {
      "inputs": [
        {
          "internalType": "address",
          "name": "account",
          "type": "address"
        }
      ],
      "name": "balanceOf",
      "outputs": [
        {
          "internalType": "uint256",
          "name": "balance",
          "type": "uint256"
        }
      ],
      "stateMutability": "view",
      "type": "function"
    },
    {
      "inputs": [
        {
          "internalType": "address",
          "name": "_from",
          "type": "address"
        },
        {
          "internalType": "uint256",
          "name": "_amount",
          "type": "uint256"
        }
      ],
      "name": "burn",
      "outputs": [],
      "stateMutability": "nonpayable",
      "type": "function"
    },
    {
      "inputs": [
        {
          "internalType": "uint256",
          "name": "amount",
          "type": "uint256"
        },
        {
          "internalType": "bytes",
          "name": "data",
          "type": "bytes"
        }
      ],
      "name": "burn",
      "outputs": [],
      "stateMutability": "nonpayable",
      "type": "function"
    },
    {
      "inputs": [],
      "name": "castrate",
      "outputs": [],
      "stateMutability": "nonpayable",
      "type": "function"
    },
    {
      "inputs": [
        {
          "internalType": "bytes32",
          "name": "id",
          "type": "bytes32"
        },
        {
          "internalType": "bytes32[]",
          "name": "data",
          "type": "bytes32[]"
        }
      ],
      "name": "createAgreement",
      "outputs": [],
      "stateMutability": "nonpayable",
      "type": "function"
    },
    {
      "inputs": [],
      "name": "decimals",
      "outputs": [
        {
          "internalType": "uint8",
          "name": "",
          "type": "uint8"
        }
      ],
      "stateMutability": "pure",
      "type": "function"
    },
    {
      "inputs": [
        {
          "internalType": "address",
          "name": "spender",
          "type": "address"
        },
        {
          "internalType": "uint256",
          "name": "subtractedValue",
          "type": "uint256"
        }
      ],
      "name": "decreaseAllowance",
      "outputs": [
        {
          "internalType": "bool",
          "name": "",
          "type": "bool"
        }
      ],
      "stateMutability": "nonpayable",
      "type": "function"
    },
    {
      "inputs": [],
      "name": "defaultOperators",
      "outputs": [
        {
          "internalType": "address[]",
          "name": "",
          "type": "address[]"
        }
      ],
      "stateMutability": "view",
      "type": "function"
    },
    {
      "inputs": [
        {
          "internalType": "uint256",
          "name": "amount",
          "type": "uint256"
        }
      ],
      "name": "downgrade",
      "outputs": [],
      "stateMutability": "nonpayable",
      "type": "function"
    },
    {
      "inputs": [
        {
          "internalType": "address",
          "name": "account",
          "type": "address"
        }
      ],
      "name": "getAccountActiveAgreements",
      "outputs": [
        {
          "internalType": "contract ISuperAgreement[]",
          "name": "",
          "type": "address[]"
        }
      ],
      "stateMutability": "view",
      "type": "function"
    },
    {
      "inputs": [
        {
          "internalType": "address",
          "name": "agreementClass",
          "type": "address"
        },
        {
          "internalType": "bytes32",
          "name": "id",
          "type": "bytes32"
        },
        {
          "internalType": "uint256",
          "name": "dataLength",
          "type": "uint256"
        }
      ],
      "name": "getAgreementData",
      "outputs": [
        {
          "internalType": "bytes32[]",
          "name": "data",
          "type": "bytes32[]"
        }
      ],
      "stateMutability": "view",
      "type": "function"
    },
    {
      "inputs": [
        {
          "internalType": "address",
          "name": "agreementClass",
          "type": "address"
        },
        {
          "internalType": "address",
          "name": "account",
          "type": "address"
        },
        {
          "internalType": "uint256",
          "name": "slotId",
          "type": "uint256"
        },
        {
          "internalType": "uint256",
          "name": "dataLength",
          "type": "uint256"
        }
      ],
      "name": "getAgreementStateSlot",
      "outputs": [
        {
          "internalType": "bytes32[]",
          "name": "slotData",
          "type": "bytes32[]"
        }
      ],
      "stateMutability": "view",
      "type": "function"
    },
    {
      "inputs": [],
      "name": "getCodeAddress",
      "outputs": [
        {
          "internalType": "address",
          "name": "codeAddress",
          "type": "address"
        }
      ],
      "stateMutability": "view",
      "type": "function"
    },
    {
      "inputs": [],
      "name": "getHost",
      "outputs": [
        {
          "internalType": "address",
          "name": "host",
          "type": "address"
        }
      ],
      "stateMutability": "view",
      "type": "function"
    },
    {
      "inputs": [
        {
          "internalType": "bytes32",
          "name": "role",
          "type": "bytes32"
        }
      ],
      "name": "getRoleAdmin",
      "outputs": [
        {
          "internalType": "bytes32",
          "name": "",
          "type": "bytes32"
        }
      ],
      "stateMutability": "view",
      "type": "function"
    },
    {
      "inputs": [],
      "name": "getUnderlyingToken",
      "outputs": [
        {
          "internalType": "address",
          "name": "",
          "type": "address"
        }
      ],
      "stateMutability": "view",
      "type": "function"
    },
    {
      "inputs": [
        {
          "internalType": "bytes32",
          "name": "role",
          "type": "bytes32"
        },
        {
          "internalType": "address",
          "name": "account",
          "type": "address"
        }
      ],
      "name": "grantRole",
      "outputs": [],
      "stateMutability": "nonpayable",
      "type": "function"
    },
    {
      "inputs": [],
      "name": "granularity",
      "outputs": [
        {
          "internalType": "uint256",
          "name": "",
          "type": "uint256"
        }
      ],
      "stateMutability": "pure",
      "type": "function"
    },
    {
      "inputs": [
        {
          "internalType": "bytes32",
          "name": "role",
          "type": "bytes32"
        },
        {
          "internalType": "address",
          "name": "account",
          "type": "address"
        }
      ],
      "name": "hasRole",
      "outputs": [
        {
          "internalType": "bool",
          "name": "",
          "type": "bool"
        }
      ],
      "stateMutability": "view",
      "type": "function"
    },
    {
      "inputs": [
        {
          "internalType": "address",
          "name": "spender",
          "type": "address"
        },
        {
          "internalType": "uint256",
          "name": "addedValue",
          "type": "uint256"
        }
      ],
      "name": "increaseAllowance",
      "outputs": [
        {
          "internalType": "bool",
          "name": "",
          "type": "bool"
        }
      ],
      "stateMutability": "nonpayable",
      "type": "function"
    },
    {
      "inputs": [
        {
          "internalType": "contract IERC20",
          "name": "underlyingToken",
          "type": "address"
        },
        {
          "internalType": "uint8",
          "name": "underlyingDecimals",
          "type": "uint8"
        },
        {
          "internalType": "string",
          "name": "n",
          "type": "string"
        },
        {
          "internalType": "string",
          "name": "s",
          "type": "string"
        }
      ],
      "name": "initialize",
      "outputs": [],
      "stateMutability": "nonpayable",
      "type": "function"
    },
    {
      "inputs": [
        {
          "internalType": "address",
          "name": "account",
          "type": "address"
        },
        {
          "internalType": "uint256",
          "name": "timestamp",
          "type": "uint256"
        }
      ],
      "name": "isAccountCritical",
      "outputs": [
        {
          "internalType": "bool",
          "name": "isCritical",
          "type": "bool"
        }
      ],
      "stateMutability": "view",
      "type": "function"
    },
    {
      "inputs": [
        {
          "internalType": "address",
          "name": "account",
          "type": "address"
        }
      ],
      "name": "isAccountCriticalNow",
      "outputs": [
        {
          "internalType": "bool",
          "name": "isCritical",
          "type": "bool"
        }
      ],
      "stateMutability": "view",
      "type": "function"
    },
    {
      "inputs": [
        {
          "internalType": "address",
          "name": "account",
          "type": "address"
        },
        {
          "internalType": "uint256",
          "name": "timestamp",
          "type": "uint256"
        }
      ],
      "name": "isAccountSolvent",
      "outputs": [
        {
          "internalType": "bool",
          "name": "isSolvent",
          "type": "bool"
        }
      ],
      "stateMutability": "view",
      "type": "function"
    },
    {
      "inputs": [
        {
          "internalType": "address",
          "name": "account",
          "type": "address"
        }
      ],
      "name": "isAccountSolventNow",
      "outputs": [
        {
          "internalType": "bool",
          "name": "isSolvent",
          "type": "bool"
        }
      ],
      "stateMutability": "view",
      "type": "function"
    },
    {
      "inputs": [
        {
          "internalType": "bytes32",
          "name": "_id",
          "type": "bytes32"
        }
      ],
      "name": "isAllowed",
      "outputs": [
        {
          "internalType": "bool",
          "name": "",
          "type": "bool"
        }
      ],
      "stateMutability": "view",
      "type": "function"
    },
    {
      "inputs": [
        {
          "internalType": "address",
          "name": "operator",
          "type": "address"
        },
        {
          "internalType": "address",
          "name": "tokenHolder",
          "type": "address"
        }
      ],
      "name": "isOperatorFor",
      "outputs": [
        {
          "internalType": "bool",
          "name": "",
          "type": "bool"
        }
      ],
      "stateMutability": "view",
      "type": "function"
    },
    {
      "inputs": [
        {
          "internalType": "bytes32",
          "name": "id",
          "type": "bytes32"
        },
        {
          "internalType": "bytes",
          "name": "liquidationTypeData",
          "type": "bytes"
        },
        {
          "internalType": "address",
          "name": "liquidatorAccount",
          "type": "address"
        },
        {
          "internalType": "bool",
          "name": "useDefaultRewardAccount",
          "type": "bool"
        },
        {
          "internalType": "address",
          "name": "targetAccount",
          "type": "address"
        },
        {
          "internalType": "uint256",
          "name": "rewardAmount",
          "type": "uint256"
        },
        {
          "internalType": "int256",
          "name": "targetAccountBalanceDelta",
          "type": "int256"
        }
      ],
      "name": "makeLiquidationPayoutsV2",
      "outputs": [],
      "stateMutability": "nonpayable",
      "type": "function"
    },
    {
      "inputs": [
        {
          "internalType": "address",
          "name": "_receiver",
          "type": "address"
        },
        {
          "internalType": "uint256",
          "name": "_amount",
          "type": "uint256"
        }
      ],
      "name": "mint",
      "outputs": [],
      "stateMutability": "nonpayable",
      "type": "function"
    },
    {
      "inputs": [],
      "name": "name",
      "outputs": [
        {
          "internalType": "string",
          "name": "",
          "type": "string"
        }
      ],
      "stateMutability": "view",
      "type": "function"
    },
    {
      "inputs": [
        {
          "internalType": "address",
          "name": "account",
          "type": "address"
        },
        {
          "internalType": "address",
          "name": "spender",
          "type": "address"
        },
        {
          "internalType": "uint256",
          "name": "amount",
          "type": "uint256"
        }
      ],
      "name": "operationApprove",
      "outputs": [],
      "stateMutability": "nonpayable",
      "type": "function"
    },
    {
      "inputs": [
        {
          "internalType": "address",
          "name": "account",
          "type": "address"
        },
        {
          "internalType": "uint256",
          "name": "amount",
          "type": "uint256"
        }
      ],
      "name": "operationDowngrade",
      "outputs": [],
      "stateMutability": "nonpayable",
      "type": "function"
    },
    {
      "inputs": [
        {
          "internalType": "address",
          "name": "account",
          "type": "address"
        },
        {
          "internalType": "address",
          "name": "spender",
          "type": "address"
        },
        {
          "internalType": "address",
          "name": "recipient",
          "type": "address"
        },
        {
          "internalType": "uint256",
          "name": "amount",
          "type": "uint256"
        }
      ],
      "name": "operationTransferFrom",
      "outputs": [],
      "stateMutability": "nonpayable",
      "type": "function"
    },
    {
      "inputs": [
        {
          "internalType": "address",
          "name": "account",
          "type": "address"
        },
        {
          "internalType": "uint256",
          "name": "amount",
          "type": "uint256"
        }
      ],
      "name": "operationUpgrade",
      "outputs": [],
      "stateMutability": "nonpayable",
      "type": "function"
    },
    {
      "inputs": [
        {
          "internalType": "address",
          "name": "account",
          "type": "address"
        },
        {
          "internalType": "uint256",
          "name": "amount",
          "type": "uint256"
        },
        {
          "internalType": "bytes",
          "name": "data",
          "type": "bytes"
        },
        {
          "internalType": "bytes",
          "name": "operatorData",
          "type": "bytes"
        }
      ],
      "name": "operatorBurn",
      "outputs": [],
      "stateMutability": "nonpayable",
      "type": "function"
    },
    {
      "inputs": [
        {
          "internalType": "address",
          "name": "sender",
          "type": "address"
        },
        {
          "internalType": "address",
          "name": "recipient",
          "type": "address"
        },
        {
          "internalType": "uint256",
          "name": "amount",
          "type": "uint256"
        },
        {
          "internalType": "bytes",
          "name": "data",
          "type": "bytes"
        },
        {
          "internalType": "bytes",
          "name": "operatorData",
          "type": "bytes"
        }
      ],
      "name": "operatorSend",
      "outputs": [],
      "stateMutability": "nonpayable",
      "type": "function"
    },
    {
      "inputs": [],
      "name": "proxiableUUID",
      "outputs": [
        {
          "internalType": "bytes32",
          "name": "",
          "type": "bytes32"
        }
      ],
      "stateMutability": "pure",
      "type": "function"
    },
    {
      "inputs": [
        {
          "internalType": "address",
          "name": "account",
          "type": "address"
        },
        {
          "internalType": "uint256",
          "name": "timestamp",
          "type": "uint256"
        }
      ],
      "name": "realtimeBalanceOf",
      "outputs": [
        {
          "internalType": "int256",
          "name": "availableBalance",
          "type": "int256"
        },
        {
          "internalType": "uint256",
          "name": "deposit",
          "type": "uint256"
        },
        {
          "internalType": "uint256",
          "name": "owedDeposit",
          "type": "uint256"
        }
      ],
      "stateMutability": "view",
      "type": "function"
    },
    {
      "inputs": [
        {
          "internalType": "address",
          "name": "account",
          "type": "address"
        }
      ],
      "name": "realtimeBalanceOfNow",
      "outputs": [
        {
          "internalType": "int256",
          "name": "availableBalance",
          "type": "int256"
        },
        {
          "internalType": "uint256",
          "name": "deposit",
          "type": "uint256"
        },
        {
          "internalType": "uint256",
          "name": "owedDeposit",
          "type": "uint256"
        },
        {
          "internalType": "uint256",
          "name": "timestamp",
          "type": "uint256"
        }
      ],
      "stateMutability": "view",
      "type": "function"
    },
    {
      "inputs": [
        {
          "internalType": "bytes32",
          "name": "role",
          "type": "bytes32"
        },
        {
          "internalType": "address",
          "name": "account",
          "type": "address"
        }
      ],
      "name": "renounceRole",
      "outputs": [],
      "stateMutability": "nonpayable",
      "type": "function"
    },
    {
      "inputs": [
        {
          "internalType": "address",
          "name": "operator",
          "type": "address"
        }
      ],
      "name": "revokeOperator",
      "outputs": [],
      "stateMutability": "nonpayable",
      "type": "function"
    },
    {
      "inputs": [
        {
          "internalType": "bytes32",
          "name": "role",
          "type": "bytes32"
        },
        {
          "internalType": "address",
          "name": "account",
          "type": "address"
        }
      ],
      "name": "revokeRole",
      "outputs": [],
      "stateMutability": "nonpayable",
      "type": "function"
    },
    {
      "inputs": [
        {
          "internalType": "address",
          "name": "account",
          "type": "address"
        },
        {
          "internalType": "address",
          "name": "spender",
          "type": "address"
        },
        {
          "internalType": "uint256",
          "name": "amount",
          "type": "uint256"
        }
      ],
      "name": "selfApproveFor",
      "outputs": [],
      "stateMutability": "nonpayable",
      "type": "function"
    },
    {
      "inputs": [
        {
          "internalType": "address",
          "name": "account",
          "type": "address"
        },
        {
          "internalType": "uint256",
          "name": "amount",
          "type": "uint256"
        },
        {
          "internalType": "bytes",
          "name": "userData",
          "type": "bytes"
        }
      ],
      "name": "selfBurn",
      "outputs": [],
      "stateMutability": "nonpayable",
      "type": "function"
    },
    {
      "inputs": [
        {
          "internalType": "address",
          "name": "account",
          "type": "address"
        },
        {
          "internalType": "uint256",
          "name": "amount",
          "type": "uint256"
        },
        {
          "internalType": "bytes",
          "name": "userData",
          "type": "bytes"
        }
      ],
      "name": "selfMint",
      "outputs": [],
      "stateMutability": "nonpayable",
      "type": "function"
    },
    {
      "inputs": [
        {
          "internalType": "address",
          "name": "holder",
          "type": "address"
        },
        {
          "internalType": "address",
          "name": "spender",
          "type": "address"
        },
        {
          "internalType": "address",
          "name": "recipient",
          "type": "address"
        },
        {
          "internalType": "uint256",
          "name": "amount",
          "type": "uint256"
        }
      ],
      "name": "selfTransferFrom",
      "outputs": [],
      "stateMutability": "nonpayable",
      "type": "function"
    },
    {
      "inputs": [
        {
          "internalType": "address",
          "name": "recipient",
          "type": "address"
        },
        {
          "internalType": "uint256",
          "name": "amount",
          "type": "uint256"
        },
        {
          "internalType": "bytes",
          "name": "data",
          "type": "bytes"
        }
      ],
      "name": "send",
      "outputs": [],
      "stateMutability": "nonpayable",
      "type": "function"
    },
    {
      "inputs": [
        {
          "internalType": "address",
          "name": "admin",
          "type": "address"
        }
      ],
      "name": "setAdmin",
      "outputs": [],
      "stateMutability": "nonpayable",
      "type": "function"
    },
    {
      "inputs": [
        {
          "internalType": "address",
          "name": "receiver",
          "type": "address"
        }
      ],
      "name": "setAllowedId",
      "outputs": [],
      "stateMutability": "nonpayable",
      "type": "function"
    },
    {
      "inputs": [
        {
          "internalType": "address",
          "name": "_store",
          "type": "address"
        }
      ],
      "name": "setStore",
      "outputs": [],
      "stateMutability": "nonpayable",
      "type": "function"
    },
    {
      "inputs": [
        {
          "internalType": "address",
          "name": "account",
          "type": "address"
        },
        {
          "internalType": "int256",
          "name": "delta",
          "type": "int256"
        }
      ],
      "name": "settleBalance",
      "outputs": [],
      "stateMutability": "nonpayable",
      "type": "function"
    },
    {
      "inputs": [],
      "name": "store",
      "outputs": [
        {
          "internalType": "address",
          "name": "",
          "type": "address"
        }
      ],
      "stateMutability": "view",
      "type": "function"
    },
    {
      "inputs": [
        {
          "internalType": "bytes4",
          "name": "interfaceId",
          "type": "bytes4"
        }
      ],
      "name": "supportsInterface",
      "outputs": [
        {
          "internalType": "bool",
          "name": "",
          "type": "bool"
        }
      ],
      "stateMutability": "view",
      "type": "function"
    },
    {
      "inputs": [],
      "name": "symbol",
      "outputs": [
        {
          "internalType": "string",
          "name": "",
          "type": "string"
        }
      ],
      "stateMutability": "view",
      "type": "function"
    },
    {
      "inputs": [
        {
          "internalType": "bytes32",
          "name": "id",
          "type": "bytes32"
        },
        {
          "internalType": "uint256",
          "name": "dataLength",
          "type": "uint256"
        }
      ],
      "name": "terminateAgreement",
      "outputs": [],
      "stateMutability": "nonpayable",
      "type": "function"
    },
    {
      "inputs": [],
      "name": "totalSupply",
      "outputs": [
        {
          "internalType": "uint256",
          "name": "",
          "type": "uint256"
        }
      ],
      "stateMutability": "view",
      "type": "function"
    },
    {
      "inputs": [
        {
          "internalType": "address",
          "name": "recipient",
          "type": "address"
        },
        {
          "internalType": "uint256",
          "name": "amount",
          "type": "uint256"
        }
      ],
      "name": "transfer",
      "outputs": [
        {
          "internalType": "bool",
          "name": "",
          "type": "bool"
        }
      ],
      "stateMutability": "nonpayable",
      "type": "function"
    },
    {
      "inputs": [
        {
          "internalType": "address",
          "name": "recipient",
          "type": "address"
        }
      ],
      "name": "transferAll",
      "outputs": [],
      "stateMutability": "nonpayable",
      "type": "function"
    },
    {
      "inputs": [
        {
          "internalType": "address",
          "name": "holder",
          "type": "address"
        },
        {
          "internalType": "address",
          "name": "recipient",
          "type": "address"
        },
        {
          "internalType": "uint256",
          "name": "amount",
          "type": "uint256"
        }
      ],
      "name": "transferFrom",
      "outputs": [
        {
          "internalType": "bool",
          "name": "",
          "type": "bool"
        }
      ],
      "stateMutability": "nonpayable",
      "type": "function"
    },
    {
      "inputs": [
        {
          "internalType": "bytes32",
          "name": "id",
          "type": "bytes32"
        },
        {
          "internalType": "bytes32[]",
          "name": "data",
          "type": "bytes32[]"
        }
      ],
      "name": "updateAgreementData",
      "outputs": [],
      "stateMutability": "nonpayable",
      "type": "function"
    },
    {
      "inputs": [
        {
          "internalType": "address",
          "name": "account",
          "type": "address"
        },
        {
          "internalType": "uint256",
          "name": "slotId",
          "type": "uint256"
        },
        {
          "internalType": "bytes32[]",
          "name": "slotData",
          "type": "bytes32[]"
        }
      ],
      "name": "updateAgreementStateSlot",
      "outputs": [],
      "stateMutability": "nonpayable",
      "type": "function"
    },
    {
      "inputs": [
        {
          "internalType": "address",
          "name": "newAddress",
          "type": "address"
        }
      ],
      "name": "updateCode",
      "outputs": [],
      "stateMutability": "nonpayable",
      "type": "function"
    },
    {
      "inputs": [
        {
          "internalType": "uint256",
          "name": "amount",
          "type": "uint256"
        }
      ],
      "name": "upgrade",
      "outputs": [],
      "stateMutability": "nonpayable",
      "type": "function"
    },
    {
      "inputs": [
        {
          "internalType": "address",
          "name": "to",
          "type": "address"
        },
        {
          "internalType": "uint256",
          "name": "amount",
          "type": "uint256"
        },
        {
          "internalType": "bytes",
          "name": "data",
          "type": "bytes"
        }
      ],
      "name": "upgradeTo",
      "outputs": [],
      "stateMutability": "nonpayable",
      "type": "function"
    }
  ],
  "transactionHash": "0xccf779e9e2686cf0a85561a62ab3aab70b6456a89fbd800c474858632efc87f2",
  "args": [
    "0x3963aD4Feb202687fb2286A9D38d7CeC87170D07",
    "0xE40983C2476032A0915600b9472B3141aA5B5Ba9",
    "0x2d02770990cA7CadCa8dfdbBaad0358984842B23"
  ],
  "numDeployments": 1,
  "solcInputHash": "f29251e620af18059d8332280a662fef",
  "bytecode": "0x60a06040523480156200001157600080fd5b5060405162004c4238038062004c42833981016040819052620000349162000199565b6001600160a01b03828116608052600f80546001600160a01b0319908116848416179091556023805490911691851691909117905562000076600033620000d7565b620000a27ff0887ba65ee2024ea881d91b74c2450ef19e1557f03bed3ea9f16b037cbe2dc933620000d7565b620000ce7f9667e80708b6eeeb0053fa0cca44e028ff548e2a9f029edfeac87c118b08b7c884620000d7565b505050620001e3565b60008281526022602090815260408083206001600160a01b038516845290915290205460ff16620001785760008281526022602090815260408083206001600160a01b03851684529091529020805460ff19166001179055620001373390565b6001600160a01b0316816001600160a01b0316837f2f8788117e7eff1d82e926ec794901d17c78024a50270940304540a733656f0d60405160405180910390a45b5050565b80516001600160a01b03811681146200019457600080fd5b919050565b600080600060608486031215620001af57600080fd5b620001ba846200017c565b9250620001ca602085016200017c565b9150620001da604085016200017c565b90509250925092565b6080516149cc620002766000396000818161043d01528181610b2401528181610cae01528181610d2901528181610fd801528181611088015281816111d10152818161133b015281816115b5015281816116ce015281816117c501528181611ae901528181611d0a01528181611dc501528181611e530152818161242d015281816124d401526134bc01526149cc6000f3fe608060405234801561001057600080fd5b50600436106103325760003560e01c806366a12fb6116101b057806366a12fb6146106005780636c2d9f2f14610613578063704b6c021461062657806370a0823114610656578063787552951461066957806379359f6f1461068c57806391d148541461069f578063959b8c3f146106b257806395d89b41146106c5578063975057e7146106cd5780639903ad38146106e05780639b9f415e146106e85780639bd9bbc6146106fb5780639d876741146107095780639dc29fac1461071c578063a1b2bf8b1461072f578063a217fddf14610742578063a3a7e7f31461074a578063a457c2d7146103b1578063a9059cbb14610758578063b84cdd4a14610766578063bb0d196e14610779578063c68d42831461078c578063ca7894641461079f578063cf97256d146107b2578063d547741f146107c5578063d95b6371146107d8578063d9d078d6146107eb578063dd62ed3e146107fe578063eb3537cc14610814578063ee719bc814610842578063fad8b32a14610853578063fc673c4f14610866578063fe6d812414610879578063fe9d93031461088e57600080fd5b806301ffc9a71461033757806306e485381461035f57806306fdde0314610374578063087cbd4014610389578063090c415e1461039e578063095ea7b3146103b1578063118c4f13146103c457806311bcc81e146103e757806312a6a3f8146103fa57806316d055d61461040d57806318160ddd146104205780631863e8091461042857806320bc44251461043b57806323b872dd1461046a578063245887fc1461047d578063248a9ca31461049057806327048397146104a35780632ec8eec7146104b65780632f2ff15d146104e9578063313ce567146104fc57806336568abe1461050b578063386fa2211461051e57806339509351146103b157806340c10f191461053157806341b706be1461054457806342fe09801461055757806345977d031461056a578063469519541461057d5780634b61cc331461059057806350d75d25146105b057806352d1902d146105b8578063556f0dc7146105c05780635b9d09cc146105c757806362aa5287146105da57806362ad1b83146105ed575b600080fd5b61034a610345366004613947565b61089c565b60405190151581526020015b60405180910390f35b6103676108d3565b6040516103569190613971565b61037c6108e4565b6040516103569190613a0e565b61039c610397366004613a36565b610976565b005b61039c6103ac366004613a9e565b610a02565b61034a6103bf366004613af9565b610ab6565b6103d960008051602061497783398151915281565b604051908152602001610356565b61039c6103f5366004613b25565b610ad1565b61039c610408366004613b3e565b610aff565b61039c61041b366004613b89565b610cac565b6003546103d9565b61039c610436366004613c9d565b610d12565b7f00000000000000000000000000000000000000000000000000000000000000005b6040516103569190613d2f565b61034a610478366004613d43565b610fbb565b61039c61048b366004613af9565b610fd6565b6103d961049e366004613b25565b61104e565b61039c6104b1366004613d84565b611063565b6104c96104c4366004613a36565b6111c9565b604080519485526020850193909352918301526060820152608001610356565b61039c6104f7366004613da6565b61126c565b60405160128152602001610356565b61039c610519366004613da6565b61128d565b61036761052c366004613a36565b611307565b61039c61053f366004613af9565b6113aa565b61039c610552366004613b89565b61142e565b61039c610565366004613e17565b61144e565b61039c610578366004613b25565b61157e565b61039c61058b366004613a36565b6115aa565b6105a361059e366004613eb1565b611600565b6040516103569190613ef7565b61045d611645565b6103d961164f565b60016103d9565b61039c6105d5366004613f2f565b611673565b61039c6105e8366004613d43565b6116cc565b61039c6105fb366004613f7e565b610cf9565b61039c61060e366004613d43565b611732565b6105a361062136600461401c565b611752565b61039c610634366004613a36565b600f80546001600160a01b0319166001600160a01b0392909216919091179055565b6103d9610664366004613a36565b611794565b61034a610677366004613b25565b6000908152600e602052604090205460ff1690565b61034a61069a366004613a36565b6117bd565b61034a6106ad366004613da6565b611845565b61039c6106c0366004613a36565b611870565b61037c6118c1565b60235461045d906001600160a01b031681565b61039c6118d0565b61039c6106f6366004613a36565b611987565b61039c6105fb366004613f2f565b61039c610717366004614051565b611a09565b61039c61072a366004613af9565b611a42565b61039c61073d366004613b3e565b611ac4565b6103d9600081565b61039c6105fb366004613a36565b61034a610478366004613af9565b61034a610774366004613af9565b611cb1565b61034a610787366004613a36565b611d02565b61039c61079a366004614051565b611d8a565b61039c6107ad366004613af9565b611dc3565b61039c6107c0366004613af9565b611e3c565b61039c6107d3366004613da6565b611f2e565b61034a6107e63660046140a9565b611f4a565b61034a6107f9366004613af9565b611f58565b6103d961080c3660046140a9565b600092915050565b610827610822366004613af9565b611f72565b60408051938452602084019290925290820152606001610356565b6010546001600160a01b031661045d565b61039c610861366004613a36565b6120a1565b61039c6108743660046140d7565b611a29565b6103d96000805160206148f783398151915281565b61039c61087436600461411e565b60006001600160e01b03198216637965db0b60e01b14806108cd57506301ffc9a760e01b6001600160e01b03198316145b92915050565b60606108df60146120f2565b905090565b6060601180546108f39061415c565b80601f016020809104026020016040519081016040528092919081815260200182805461091f9061415c565b801561096c5780601f106109415761010080835404028352916020019161096c565b820191906000526020600020905b81548152906001019060200180831161094f57829003601f168201915b5050505050905090565b600061098181612158565b6001600160a01b0382166109cb5760405162461bcd60e51b815260206004820152600c60248201526b7a65726f2d6164647265737360a01b60448201526064015b60405180910390fd5b602380546001600160a01b0319166001600160a01b0384161790556109fe60008051602061497783398151915283612162565b5050565b6000338585604051602001610a1993929190614196565b604051602081830303815290604052805190602001209050610a6e818484808060200260200160405190810160405280939291908181526020018383602002808284376000920191909152506121e892505050565b6040518481526001600160a01b0386169033907f30f416fa68fca014a0f334464c64b000ba53e99b6d2afdea9d5ca756372d5985906020015b60405180910390a35050505050565b60006040516306edb07760e01b815260040160405180910390fd5b610afc3333836040518060200160405280600081525060405180602001604052806000815250612229565b50565b604051635b69006f60e11b81526000805160206148d7833981519152600482015233907f00000000000000000000000000000000000000000000000000000000000000006001600160a01b03169063b6d200de90602401602060405180830381865afa158015610b73573d6000803e3d6000fd5b505050506040513d601f19601f82011682018060405250810190610b9791906141df565b6001600160a01b0316816001600160a01b031614610bc857604051633bc6af7d60e11b815260040160405180910390fd5b60008185604051602001610bdd9291906141fc565b60408051601f1981840301815291905280516020909101209050610c0181846123ec565b15610c2357604051635b5b42a560e01b815261138860048201526024016109c2565b610c60818585808060200260200160405190810160405280939291908181526020018383602002808284376000920191909152506121e892505050565b816001600160a01b03167f770ea40a13a4644573ed785e5c7116890709947918747febc5add46feb531e2d868686604051610c9d93929190614239565b60405180910390a25050505050565b7f00000000000000000000000000000000000000000000000000000000000000006001600160a01b03163314610cf957604051632a94f67960e21b815261151860048201526024016109c2565b604051631b40520d60e21b815260040160405180910390fd5b604051632329212160e21b81526001600160a01b037f00000000000000000000000000000000000000000000000000000000000000001690638ca4848490610d5e903390600401613d2f565b602060405180830381865afa158015610d7b573d6000803e3d6000fd5b505050506040513d601f19601f82011682018060405250810190610d9f919061427a565b610dc057604051639aca506b60e01b81526114b460048201526024016109c2565b6000610dca612428565b90506001600160a01b038116610ddd5750845b600085610dea5786610dec565b815b905060008313610e8957610dff836142ad565b610e0885612567565b14610e1557610e156142c9565b610e1e84612567565b6001600160a01b03821660009081526002602052604081208054909190610e469084906142df565b90915550506001600160a01b03851660009081526002602052604081208054859290610e739084906142df565b90915550610e8490508582866125d5565b610f53565b8515610e9757610e976142c9565b82610ea185612567565b610eab91906142df565b6001600160a01b03831660009081526002602052604081208054909190610ed3908490614307565b90915550610ee2905084612567565b6001600160a01b03881660009081526002602052604081208054909190610f0a9084906142df565b90915550506001600160a01b03851660009081526002602052604081208054859290610f379084906142df565b90915550610f4890508288866125d5565b610f538286856125d5565b846001600160a01b0316876001600160a01b0316336001600160a01b03167fb8381a3ce157650e06186e3e8f4dd4dc29236f2688b6eed1893d0a60d7c6386f8c8589898f604051610fa8959493929190614327565b60405180910390a4505050505050505050565b6000604051631b40520d60e21b815260040160405180910390fd5b7f00000000000000000000000000000000000000000000000000000000000000006001600160a01b0316331461102357604051632a94f67960e21b815261151860048201526024016109c2565b6109fe3383836040518060200160405280600081525060405180602001604052806000815250612229565b60009081526022602052604090206001015490565b604051635b69006f60e11b81526000805160206148d7833981519152600482015233907f00000000000000000000000000000000000000000000000000000000000000006001600160a01b03169063b6d200de90602401602060405180830381865afa1580156110d7573d6000803e3d6000fd5b505050506040513d601f19601f820116820180604052508101906110fb91906141df565b6001600160a01b0316816001600160a01b03161461112c57604051633bc6af7d60e11b815260040160405180910390fd5b600081846040516020016111419291906141fc565b60405160208183030381529060405280519060200120905061116381846123ec565b61118457604051639995b0c160e01b815261138960048201526024016109c2565b61118e8184612615565b60405184815233907f71a63dc095de07aa5512ad57a7596a39516317e316981a1cd71000057be1537b9060200160405180910390a250505050565b6000806000807f00000000000000000000000000000000000000000000000000000000000000006001600160a01b031663bbe4fd506040518163ffffffff1660e01b8152600401602060405180830381865afa15801561122d573d6000803e3d6000fd5b505050506040513d601f19601f82011682018060405250810190611251919061435a565b905061125d8582611f72565b91979096509094509092509050565b6112758261104e565b61127e81612158565b6112888383612162565b505050565b6001600160a01b03811633146112fd5760405162461bcd60e51b815260206004820152602f60248201527f416363657373436f6e74726f6c3a2063616e206f6e6c792072656e6f756e636560448201526e103937b632b9903337b91039b2b63360891b60648201526084016109c2565b6109fe8282612636565b6001600160a01b038181166000908152600160205260409081902054905163c56a069d60e01b8152901960048201526060917f0000000000000000000000000000000000000000000000000000000000000000169063c56a069d90602401600060405180830381865afa158015611382573d6000803e3d6000fd5b505050506040513d6000823e601f3d908101601f191682016040526108cd9190810190614373565b6000805160206148f78339815191526113c281612158565b611288338484600060405180604001604052806002815260200161060f60f31b81525060006001600160401b038111156113fe576113fe613bda565b6040519080825280601f01601f191660200182016040528015611428576020820181803683370190505b5061269d565b333014610cf957604051630fff4cc960e31b815260040160405180910390fd5b600054610100900460ff161580801561146e5750600054600160ff909116105b8061148f575061147d30612768565b15801561148f575060005460ff166001145b6114ab5760405162461bcd60e51b81526004016109c290614424565b6000805460ff1916600117905580156114ce576000805461ff0019166101001790555b6010805460ff8816600160a01b026001600160a81b03199091166001600160a01b038a161717905560116115038587836144c0565b5060126115118385836144c0565b5061151b30612777565b60405160008082529081906000805160206149578339815191529060200160405180910390a38015611575576000805461ff0019169055604051600181526000805160206149378339815191529060200160405180910390a15b50505050505050565b610afc333333846040518060200160405280600081525060405180602001604052806000815250612894565b336001600160a01b037f000000000000000000000000000000000000000000000000000000000000000016146115f757604051632a94f67960e21b815261190060048201526024016109c2565b610afc81612a73565b6060600085858560405160200161161993929190614196565b60405160208183030381529060405280519060200120905061163b8184612c45565b9695505050505050565b60006108df612cd4565b7f6bfbb132610e56cb96575dba244667b9d6dbfeffe22b68a79fa16f2d18eb001990565b6116c6333386866040518060200160405280600081525087878080601f01602080910402602001604051908101604052809392919081815260200183838082843760009201919091525061289492505050565b50505050565b7f00000000000000000000000000000000000000000000000000000000000000006001600160a01b0316331461171957604051632a94f67960e21b815261151860048201526024016109c2565b6040516306edb07760e01b815260040160405180910390fd5b33301461171957604051630fff4cc960e31b815260040160405180910390fd5b6060600084846040516020016117699291906141fc565b60405160208183030381529060405280519060200120905061178b8184612c45565b95945050505050565b6000806117a0836111c9565b5050509050600081126117b357806117b6565b60005b9392505050565b60006108cd827f00000000000000000000000000000000000000000000000000000000000000006001600160a01b031663bbe4fd506040518163ffffffff1660e01b8152600401602060405180830381865afa158015611821573d6000803e3d6000fd5b505050506040513d601f19601f820116820180604052508101906107f9919061435a565b60009182526022602090815260408084206001600160a01b0393909316845291905290205460ff1690565b3361187d60148284612ce7565b806001600160a01b0316826001600160a01b03167ff4caeb2d6ca8932a215a353d0703c326ec2d81fc68170f320eb2ab49e9df61f960405160405180910390a35050565b6060601280546108f39061415c565b600054610100900460ff16158080156118f05750600054600160ff909116105b8061191157506118ff30612768565b158015611911575060005460ff166001145b61192d5760405162461bcd60e51b81526004016109c290614424565b6000805460ff191660011790558015611950576000805461ff0019166101001790555b8015610afc576000805461ff001916905560405160018152600080516020614937833981519152906020015b60405180910390a150565b600f546001600160a01b031633146119b257604051636209c08b60e01b815260040160405180910390fd5b600f54604080516001600160a01b0392831660208201529183169082015260009060600160408051601f1981840301815291815281516020928301206000908152600e9092529020805460ff191660011790555050565b333014611a2957604051630fff4cc960e31b815260040160405180910390fd5b604051632cb2a0e360e21b815260040160405180910390fd5b600080516020614977833981519152611a5a81612158565b61128833848460405180604001604052806002815260200161060f60f31b81525060006001600160401b03811115611a9457611a94613bda565b6040519080825280601f01601f191660200182016040528015611abe576020820181803683370190505b50612deb565b604051635b69006f60e11b81526000805160206148d7833981519152600482015233907f00000000000000000000000000000000000000000000000000000000000000006001600160a01b03169063b6d200de90602401602060405180830381865afa158015611b38573d6000803e3d6000fd5b505050506040513d601f19601f82011682018060405250810190611b5c91906141df565b6001600160a01b0316816001600160a01b031614611b8d57604051633bc6af7d60e11b815260040160405180910390fd5b604051637875529560e01b8152600481018590523090637875529590602401602060405180830381865afa158015611bc9573d6000803e3d6000fd5b505050506040513d601f19601f82011682018060405250810190611bed919061427a565b611c0a5760405163835e545d60e01b815260040160405180910390fd5b60008185604051602001611c1f9291906141fc565b604051602081830303815290604052805190602001209050611c74818585808060200260200160405190810160405280939291908181526020018383602002808284376000920191909152506121e892505050565b336001600160a01b03167f0c4c547b3a4fcaa5be8353b3111472b124155bccc86de811d4a481c9e6e9faca868686604051610c9d93929190614239565b600080600080611cc18686611f72565b9250925092506000611ce9828411611cda576000612567565b611ce4838561457f565b612567565b611cf390856142df565b60001315979650505050505050565b60006108cd827f00000000000000000000000000000000000000000000000000000000000000006001600160a01b031663bbe4fd506040518163ffffffff1660e01b8152600401602060405180830381865afa158015611d66573d6000803e3d6000fd5b505050506040513d601f19601f82011682018060405250810190610774919061435a565b333014611daa57604051630fff4cc960e31b815260040160405180910390fd5b6040516333946af560e21b815260040160405180910390fd5b7f00000000000000000000000000000000000000000000000000000000000000006001600160a01b03163314611e1057604051632a94f67960e21b815261151860048201526024016109c2565b6109fe338384846040518060200160405280600081525060405180602001604052806000815250612894565b604051632329212160e21b81526001600160a01b037f00000000000000000000000000000000000000000000000000000000000000001690638ca4848490611e88903390600401613d2f565b602060405180830381865afa158015611ea5573d6000803e3d6000fd5b505050506040513d601f19601f82011682018060405250810190611ec9919061427a565b611eea57604051639aca506b60e01b81526114b460048201526024016109c2565b6001600160a01b038216600090815260026020526040902054611f0e9082906142df565b6001600160a01b0390921660009081526002602052604090209190915550565b611f378261104e565b611f4081612158565b6112888383612636565b60006117b660148484612eaa565b600080611f658484611f72565b5050600013949350505050565b6001600160a01b038216600090815260026020526040812054908080611f9786611307565b905060005b8151811015612098576000806000848481518110611fbc57611fbc614592565b60200260200101516001600160a01b0316639b2e48bc308c8c6040518463ffffffff1660e01b8152600401611ff3939291906145a8565b606060405180830381865afa158015612010573d6000803e3d6000fd5b505050506040513d601f19601f8201168201806040525081019061203491906145cc565b9194509250905061204582886145fa565b965061205181876145fa565b955061206e818311612064576000612567565b611ce4828461457f565b612078848a6142df565b6120829190614307565b9750505050806120919061460d565b9050611f9c565b50509250925092565b336120ae60148284612f53565b806001600160a01b0316826001600160a01b03167f50546e66e5f44d728365dc3908c63bc5cfeeab470722c1677e3073a6ac294aa160405160405180910390a35050565b60608160000180548060200260200160405190810160405280929190818152602001828054801561214c57602002820191906000526020600020905b81546001600160a01b0316815260019091019060200180831161212e575b50505050509050919050565b610afc813361304b565b61216c8282611845565b6109fe5760008281526022602090815260408083206001600160a01b03851684529091529020805460ff191660011790556121a43390565b6001600160a01b0316816001600160a01b0316837f2f8788117e7eff1d82e926ec794901d17c78024a50270940304540a733656f0d60405160405180910390a45050565b60005b815181101561128857600082828151811061220857612208614592565b60200260200101519050808285015550806122229061460d565b90506121eb565b6010546001600160a01b031661225257604051637bce7b2b60e11b815260040160405180910390fd5b60008061225e856130af565b9150915061226f8787838787612deb565b6010546040516370a0823160e01b81526000916001600160a01b0316906370a08231906122a0903090600401613d2f565b602060405180830381865afa1580156122bd573d6000803e3d6000fd5b505050506040513d601f19601f820116820180604052508101906122e1919061435a565b6010549091506122fb906001600160a01b0316888561316b565b6010546040516370a0823160e01b81526000916001600160a01b0316906370a082319061232c903090600401613d2f565b602060405180830381865afa158015612349573d6000803e3d6000fd5b505050506040513d601f19601f8201168201806040525081019061236d919061435a565b9050600061237b828461457f565b905080851461239d57604051631c7c26d360e31b815260040160405180910390fd5b886001600160a01b03167f3bc27981aebbb57f9247dc00fde9d6cd91e4b230083fec3238fedbcba1f9ab3d856040516123d891815260200190565b60405180910390a250505050505050505050565b6000805b8281101561241e5783810154801561240d576001925050506108cd565b506124178161460d565b90506123f0565b5060009392505050565b6000807f00000000000000000000000000000000000000000000000000000000000000006001600160a01b031663289b3c0d6040518163ffffffff1660e01b8152600401602060405180830381865afa158015612489573d6000803e3d6000fd5b505050506040513d601f19601f820116820180604052508101906124ad91906141df565b604051638369a0f160e01b81529091506001600160a01b03821690638369a0f190612520907f00000000000000000000000000000000000000000000000000000000000000009030907f9f60ae461adf056670e03ae602566409933242392cb06744f5747c9f38b05d09906004016145a8565b602060405180830381865afa15801561253d573d6000803e3d6000fd5b505050506040513d601f19601f8201168201806040525081019061256191906141df565b91505090565b60006001600160ff1b038211156125d15760405162461bcd60e51b815260206004820152602860248201527f53616665436173743a2076616c756520646f65736e27742066697420696e2061604482015267371034b73a191a9b60c11b60648201526084016109c2565b5090565b816001600160a01b0316836001600160a01b03166000805160206149578339815191528360405161260891815260200190565b60405180910390a3505050565b60005b818110156112885760008382015561262f8161460d565b9050612618565b6126408282611845565b156109fe5760008281526022602090815260408083206001600160a01b0385168085529252808320805460ff1916905551339285917ff6391f5c32d9c69d2a47ea670b442974b53935d1edc7fd64eb21e047a839171b9190a45050565b6001600160a01b0385166126c85760405163e961d6ff60e01b815261196760048201526024016109c2565b6126d285856131c1565b6126e2866000878786868961321b565b846001600160a01b0316866001600160a01b03167f2fe5be0146f74c5bce36c0b80911af6c7d86ff27e89d5cfa61fc681327954e5d86858560405161272993929190614626565b60405180910390a36040518481526001600160a01b038616906000906000805160206149578339815191529060200160405180910390a3505050505050565b6001600160a01b03163b151590565b6040516329965a1d60e01b8152731820a4b7618bde71dce8cdc73aab6c95905fad24906329965a1d906127d29084907fac7fbab5f54a3ca8194167523c6753bfeb96a445279294b6125b68cce2177054903090600401614651565b600060405180830381600087803b1580156127ec57600080fd5b505af1158015612800573d6000803e3d6000fd5b50506040516329965a1d60e01b8152731820a4b7618bde71dce8cdc73aab6c95905fad2492506329965a1d915061285f9084907faea199e31a596269b42cdafd93407f14436db6e4cad65417994c2eb37381e05a903090600401614651565b600060405180830381600087803b15801561287957600080fd5b505af115801561288d573d6000803e3d6000fd5b5050505050565b6010546001600160a01b03166128bd57604051637bce7b2b60e11b815260040160405180910390fd5b6000806128c9856130af565b6010546040516370a0823160e01b81529294509092506000916001600160a01b03909116906370a0823190612902903090600401613d2f565b602060405180830381865afa15801561291f573d6000803e3d6000fd5b505050506040513d601f19601f82011682018060405250810190612943919061435a565b60105490915061295e906001600160a01b0316893086613374565b6010546040516370a0823160e01b81526000916001600160a01b0316906370a082319061298f903090600401613d2f565b602060405180830381865afa1580156129ac573d6000803e3d6000fd5b505050506040513d601f19601f820116820180604052508101906129d0919061435a565b905060006129de838361457f565b9050808514612a0057604051631c7c26d360e31b815260040160405180910390fd5b612a238b8a868c6001600160a01b03168e6001600160a01b031614158b8b61269d565b886001600160a01b03167f25ca84076773b0455db53621c459ddc84fe40840e4932a62706a032566f399df85604051612a5e91815260200190565b60405180910390a25050505050505050505050565b6000612a7d612cd4565b6001600160a01b031603612ad35760405162461bcd60e51b815260206004820152601d60248201527f5555505350726f786961626c653a206e6f742075706772616461626c6500000060448201526064016109c2565b806001600160a01b03166352d1902d6040518163ffffffff1660e01b8152600401602060405180830381865afa158015612b11573d6000803e3d6000fd5b505050506040513d601f19601f82011682018060405250810190612b35919061435a565b612b3d61164f565b14612b965760405162461bcd60e51b815260206004820152602360248201527f5555505350726f786961626c653a206e6f7420636f6d70617469626c65206c6f60448201526267696360e81b60648201526084016109c2565b6001600160a01b0381163003612bea5760405162461bcd60e51b815260206004820152601960248201527805555505350726f786961626c653a2070726f7879206c6f6f7603c1b60448201526064016109c2565b612c008160008051602061491783398151915255565b7fe011bc04c286c344a8fcbb8de77f953da762c3e25d8cdea984147fc4168a5dcc612c2961164f565b604080519182526001600160a01b03841660208301520161197c565b6060816001600160401b03811115612c5f57612c5f613bda565b604051908082528060200260200182016040528015612c88578160200160208202803683370190505b50905060005b82811015612ccd57600081850154905080838381518110612cb157612cb1614592565b602090810291909101015250612cc68161460d565b9050612c8e565b5092915050565b6000805160206149178339815191525490565b806001600160a01b0316826001600160a01b031603612d5e5760405162461bcd60e51b815260206004820152602d60248201527f4552433737374f70657261746f72733a20617574686f72697a696e672073656c60448201526c331030b99037b832b930ba37b960991b60648201526084016109c2565b6001600160a01b038116600090815260018401602052604090205460ff1615612db4576001600160a01b03918216600090815260039390930160209081526040808520929093168452529020805460ff19169055565b6001600160a01b0380831660009081526002850160209081526040808320938516835292905220805460ff19166001179055505050565b6001600160a01b038416612e165760405163e961d6ff60e01b815261196660048201526024016109c2565b612e2585856000868686613395565b612e2f84846134b4565b836001600160a01b0316856001600160a01b03167fa78a9be3a7b862d26933ad85fb11d80ef66b8f972d7cbba06621d583943a4098858585604051612e7693929190614626565b60405180910390a36040518381526000906001600160a01b0386169060008051602061495783398151915290602001610aa7565b6000816001600160a01b0316836001600160a01b03161480612f1957506001600160a01b038316600090815260018501602052604090205460ff168015612f1957506001600160a01b03808316600090815260038601602090815260408083209387168352929052205460ff16155b80612f4b57506001600160a01b03808316600090815260028601602090815260408083209387168352929052205460ff165b949350505050565b336001600160a01b03821603612fbe5760405162461bcd60e51b815260206004820152602a60248201527f4552433737374f70657261746f72733a207265766f6b696e672073656c662061604482015269399037b832b930ba37b960b11b60648201526084016109c2565b6001600160a01b038116600090815260018401602052604090205460ff1615613018576001600160a01b0380831660009081526003850160209081526040808320938516835292905220805460ff19166001179055505050565b6001600160a01b03918216600090815260029390930160209081526040808520929093168452529020805460ff19169055565b6130558282611845565b6109fe5761306d816001600160a01b031660146135c8565b6130788360206135c8565b604051602001613089929190614674565b60408051601f198184030181529082905262461bcd60e51b82526109c291600401613a0e565b601054600090819081906012600160a01b90910460ff16101561310e576010546130e490600160a01b900460ff1660126146e3565b6130ef90600a6147e0565b90506130fb81856147ef565b92506131078184614811565b9150613165565b6010546012600160a01b90910460ff16111561315e5760105461313d90601290600160a01b900460ff166146e3565b61314890600a6147e0565b90506131548185614811565b9250839150613165565b8391508192505b50915091565b6112888363a9059cbb60e01b848460405160240161318a929190614830565b60408051601f198184030181529190526020810180516001600160e01b03166001600160e01b031990931692909217909152613763565b6131ca81612567565b6001600160a01b0383166000908152600260205260409020546131ed91906142df565b6001600160a01b0383166000908152600260205260409020556003546132149082906145fa565b6003555050565b60405163555ddc6560e11b8152600090731820a4b7618bde71dce8cdc73aab6c95905fad249063aabbb8ca906132779089907fb281fc8c12954d22544db45de3159a39272895b169a852b314f9cc762e44c53b90600401614830565b602060405180830381865afa158015613294573d6000803e3d6000fd5b505050506040513d601f19601f820116820180604052508101906132b891906141df565b90506001600160a01b03811615613334576040516223de2960e01b81526001600160a01b038216906223de29906132fd908b908b908b908b908b908b90600401614849565b600060405180830381600087803b15801561331757600080fd5b505af115801561332b573d6000803e3d6000fd5b5050505061336a565b811561336a5761334c866001600160a01b0316612768565b1561336a5760405163fe737d0560e01b815260040160405180910390fd5b5050505050505050565b6116c6846323b872dd60e01b85858560405160240161318a939291906145a8565b60405163555ddc6560e11b8152600090731820a4b7618bde71dce8cdc73aab6c95905fad249063aabbb8ca906133f19089907f29ddb589b1fb5fc7cf394961c1adf5f8c6454761adf795e67fe149f658abe89590600401614830565b602060405180830381865afa15801561340e573d6000803e3d6000fd5b505050506040513d601f19601f8201168201806040525081019061343291906141df565b90506001600160a01b0381161561157557604051633ad5cbc160e11b81526001600160a01b038216906375ab978290613479908a908a908a908a908a908a90600401614849565b600060405180830381600087803b15801561349357600080fd5b505af11580156134a7573d6000803e3d6000fd5b5050505050505050505050565b600061353c837f00000000000000000000000000000000000000000000000000000000000000006001600160a01b031663bbe4fd506040518163ffffffff1660e01b8152600401602060405180830381865afa158015613518573d6000803e3d6000fd5b505050506040513d601f19601f82011682018060405250810190610822919061435a565b5050905061354982612567565b81121561356d57604051636212897360e01b81526113ec60048201526024016109c2565b61357682612567565b6001600160a01b0384166000908152600260205260409020546135999190614307565b6001600160a01b0384166000908152600260205260409020556003546135c090839061457f565b600355505050565b606060006135d7836002614811565b6135e29060026145fa565b6001600160401b038111156135f9576135f9613bda565b6040519080825280601f01601f191660200182016040528015613623576020820181803683370190505b509050600360fc1b8160008151811061363e5761363e614592565b60200101906001600160f81b031916908160001a905350600f60fb1b8160018151811061366d5761366d614592565b60200101906001600160f81b031916908160001a9053506000613691846002614811565b61369c9060016145fa565b90505b6001811115613714576f181899199a1a9b1b9c1cb0b131b232b360811b85600f16601081106136d0576136d0614592565b1a60f81b8282815181106136e6576136e6614592565b60200101906001600160f81b031916908160001a90535060049490941c9361370d816148a3565b905061369f565b5083156117b65760405162461bcd60e51b815260206004820181905260248201527f537472696e67733a20686578206c656e67746820696e73756666696369656e7460448201526064016109c2565b60006137b8826040518060400160405280602081526020017f5361666545524332303a206c6f772d6c6576656c2063616c6c206661696c6564815250856001600160a01b03166138359092919063ffffffff16565b80519091501561128857808060200190518101906137d6919061427a565b6112885760405162461bcd60e51b815260206004820152602a60248201527f5361666545524332303a204552433230206f7065726174696f6e20646964206e6044820152691bdd081cdd58d8d9595960b21b60648201526084016109c2565b6060612f4b84846000858561384985612768565b6138955760405162461bcd60e51b815260206004820152601d60248201527f416464726573733a2063616c6c20746f206e6f6e2d636f6e747261637400000060448201526064016109c2565b600080866001600160a01b031685876040516138b191906148ba565b60006040518083038185875af1925050503d80600081146138ee576040519150601f19603f3d011682016040523d82523d6000602084013e6138f3565b606091505b509150915061390382828661390e565b979650505050505050565b6060831561391d5750816117b6565b82511561392d5782518084602001fd5b8160405162461bcd60e51b81526004016109c29190613a0e565b60006020828403121561395957600080fd5b81356001600160e01b0319811681146117b657600080fd5b6020808252825182820181905260009190848201906040850190845b818110156139b25783516001600160a01b03168352928401929184019160010161398d565b50909695505050505050565b60005b838110156139d95781810151838201526020016139c1565b50506000910152565b600081518084526139fa8160208601602086016139be565b601f01601f19169290920160200192915050565b6020815260006117b660208301846139e2565b6001600160a01b0381168114610afc57600080fd5b600060208284031215613a4857600080fd5b81356117b681613a21565b60008083601f840112613a6557600080fd5b5081356001600160401b03811115613a7c57600080fd5b6020830191508360208260051b8501011115613a9757600080fd5b9250929050565b60008060008060608587031215613ab457600080fd5b8435613abf81613a21565b93506020850135925060408501356001600160401b03811115613ae157600080fd5b613aed87828801613a53565b95989497509550505050565b60008060408385031215613b0c57600080fd5b8235613b1781613a21565b946020939093013593505050565b600060208284031215613b3757600080fd5b5035919050565b600080600060408486031215613b5357600080fd5b8335925060208401356001600160401b03811115613b7057600080fd5b613b7c86828701613a53565b9497909650939450505050565b60008060008060808587031215613b9f57600080fd5b8435613baa81613a21565b93506020850135613bba81613a21565b92506040850135613bca81613a21565b9396929550929360600135925050565b634e487b7160e01b600052604160045260246000fd5b604051601f8201601f191681016001600160401b0381118282101715613c1857613c18613bda565b604052919050565b600082601f830112613c3157600080fd5b81356001600160401b03811115613c4a57613c4a613bda565b613c5d601f8201601f1916602001613bf0565b818152846020838601011115613c7257600080fd5b816020850160208301376000918101602001919091529392505050565b8015158114610afc57600080fd5b600080600080600080600060e0888a031215613cb857600080fd5b8735965060208801356001600160401b03811115613cd557600080fd5b613ce18a828b01613c20565b9650506040880135613cf281613a21565b94506060880135613d0281613c8f565b93506080880135613d1281613a21565b9699959850939692959460a0840135945060c09093013592915050565b6001600160a01b0391909116815260200190565b600080600060608486031215613d5857600080fd5b8335613d6381613a21565b92506020840135613d7381613a21565b929592945050506040919091013590565b60008060408385031215613d9757600080fd5b50508035926020909101359150565b60008060408385031215613db957600080fd5b823591506020830135613dcb81613a21565b809150509250929050565b60008083601f840112613de857600080fd5b5081356001600160401b03811115613dff57600080fd5b602083019150836020828501011115613a9757600080fd5b60008060008060008060808789031215613e3057600080fd5b8635613e3b81613a21565b9550602087013560ff81168114613e5157600080fd5b945060408701356001600160401b0380821115613e6d57600080fd5b613e798a838b01613dd6565b90965094506060890135915080821115613e9257600080fd5b50613e9f89828a01613dd6565b979a9699509497509295939492505050565b60008060008060808587031215613ec757600080fd5b8435613ed281613a21565b93506020850135613ee281613a21565b93969395505050506040820135916060013590565b6020808252825182820181905260009190848201906040850190845b818110156139b257835183529284019291840191600101613f13565b60008060008060608587031215613f4557600080fd5b8435613f5081613a21565b93506020850135925060408501356001600160401b03811115613f7257600080fd5b613aed87828801613dd6565b600080600080600080600060a0888a031215613f9957600080fd5b8735613fa481613a21565b96506020880135613fb481613a21565b95506040880135945060608801356001600160401b0380821115613fd757600080fd5b613fe38b838c01613dd6565b909650945060808a0135915080821115613ffc57600080fd5b506140098a828b01613dd6565b989b979a50959850939692959293505050565b60008060006060848603121561403157600080fd5b833561403c81613a21565b95602085013595506040909401359392505050565b60008060006060848603121561406657600080fd5b833561407181613a21565b92506020840135915060408401356001600160401b0381111561409357600080fd5b61409f86828701613c20565b9150509250925092565b600080604083850312156140bc57600080fd5b82356140c781613a21565b91506020830135613dcb81613a21565b600080600080600080608087890312156140f057600080fd5b86356140fb81613a21565b95506020870135945060408701356001600160401b0380821115613e6d57600080fd5b60008060006040848603121561413357600080fd5b8335925060208401356001600160401b0381111561415057600080fd5b613b7c86828701613dd6565b600181811c9082168061417057607f821691505b60208210810361419057634e487b7160e01b600052602260045260246000fd5b50919050565b6080808252600e908201526d41677265656d656e74537461746560901b60a08201526001600160a01b039384166020820152919092166040820152606081019190915260c00190565b6000602082840312156141f157600080fd5b81516117b681613a21565b6060808252600d908201526c41677265656d656e744461746160981b60808201526001600160a01b03929092166020830152604082015260a00190565b838152604060208201819052810182905260006001600160fb1b0383111561426057600080fd5b8260051b8085606085013791909101606001949350505050565b60006020828403121561428c57600080fd5b81516117b681613c8f565b634e487b7160e01b600052601160045260246000fd5b6000600160ff1b82016142c2576142c2614297565b5060000390565b634e487b7160e01b600052600160045260246000fd5b80820182811260008312801582168215821617156142ff576142ff614297565b505092915050565b8181036000831280158383131683831282161715612ccd57612ccd614297565b85815260018060a01b038516602082015283604082015282606082015260a06080820152600061390360a08301846139e2565b60006020828403121561436c57600080fd5b5051919050565b6000602080838503121561438657600080fd5b82516001600160401b038082111561439d57600080fd5b818501915085601f8301126143b157600080fd5b8151818111156143c3576143c3613bda565b8060051b91506143d4848301613bf0565b81815291830184019184810190888411156143ee57600080fd5b938501935b83851015614418578451925061440883613a21565b82825293850193908501906143f3565b98975050505050505050565b6020808252602e908201527f496e697469616c697a61626c653a20636f6e747261637420697320616c72656160408201526d191e481a5b9a5d1a585b1a5e995960921b606082015260800190565b601f82111561128857600081815260208120601f850160051c810160208610156144995750805b601f850160051c820191505b818110156144b8578281556001016144a5565b505050505050565b6001600160401b038311156144d7576144d7613bda565b6144eb836144e5835461415c565b83614472565b6000601f84116001811461451f57600085156145075750838201355b600019600387901b1c1916600186901b17835561288d565b600083815260209020601f19861690835b828110156145505786850135825560209485019460019092019101614530565b508682101561456d5760001960f88860031b161c19848701351681555b505060018560011b0183555050505050565b818103818111156108cd576108cd614297565b634e487b7160e01b600052603260045260246000fd5b6001600160a01b039384168152919092166020820152604081019190915260600190565b6000806000606084860312156145e157600080fd5b8351925060208401519150604084015190509250925092565b808201808211156108cd576108cd614297565b60006001820161461f5761461f614297565b5060010190565b83815260606020820152600061463f60608301856139e2565b828103604084015261163b81856139e2565b6001600160a01b0393841681526020810192909252909116604082015260600190565b76020b1b1b2b9b9a1b7b73a3937b61d1030b1b1b7bab73a1604d1b8152600083516146a68160178501602088016139be565b7001034b99036b4b9b9b4b733903937b6329607d1b60179184019182015283516146d78160288401602088016139be565b01602801949350505050565b60ff82811682821603908111156108cd576108cd614297565b600181815b8085111561473757816000190482111561471d5761471d614297565b8085161561472a57918102915b93841c9390800290614701565b509250929050565b60008261474e575060016108cd565b8161475b575060006108cd565b8160018114614771576002811461477b57614797565b60019150506108cd565b60ff84111561478c5761478c614297565b50506001821b6108cd565b5060208310610133831016604e8410600b84101617156147ba575081810a6108cd565b6147c483836146fc565b80600019048211156147d8576147d8614297565b029392505050565b60006117b660ff84168361473f565b60008261480c57634e487b7160e01b600052601260045260246000fd5b500490565b600081600019048311821515161561482b5761482b614297565b500290565b6001600160a01b03929092168252602082015260400190565b6001600160a01b0387811682528681166020830152851660408201526060810184905260c060808201819052600090614884908301856139e2565b82810360a084015261489681856139e2565b9998505050505050505050565b6000816148b2576148b2614297565b506000190190565b600082516148cc8184602087016139be565b919091019291505056fea9214cc96615e0085d3bb077758db69497dc2dce3b2b1e97bc93c3d18d83efd3f0887ba65ee2024ea881d91b74c2450ef19e1557f03bed3ea9f16b037cbe2dc9360894a13ba1a3210667c828492db98dca3e2076cc3735a920a3ca505d382bbc7f26b83ff96e1f2b6a682f133852f6798a09c465da95921460cefb3847402498ddf252ad1be2c89b69c2b068fc378daa952ba7f163c4a11628f55a4df523b3ef9667e80708b6eeeb0053fa0cca44e028ff548e2a9f029edfeac87c118b08b7c8a2646970667358221220d95d96b912e1baf3eae7243bf65320303d35292beae74e5ad90094536fe042ca64736f6c63430008100033",
  "devdoc": {
    "kind": "dev",
    "methods": {
      "approve(address,uint256)": {
        "details": "Sets `amount` as the allowance of `spender` over the caller's tokens.",
        "returns": {
          "_0": "Returns Success a boolean value indicating whether the operation succeeded."
        }
      },
      "authorizeOperator(address)": {
        "details": "Make an account an operator of the caller. See {isOperatorFor}."
      },
      "balanceOf(address)": {
        "details": "Returns the amount of tokens owned by an account (`owner`)."
      },
      "burn(uint256,bytes)": {
        "details": "Destroys `amount` tokens from the caller's account, reducing the total supply. If a send hook is registered for the caller, the corresponding function will be called with `data` and empty `operatorData`. See {IERC777Sender}."
      },
      "createAgreement(bytes32,bytes32[])": {
        "details": "ISuperfluidSoulbound.createAgreement implementation"
      },
      "decimals()": {
        "details": "Returns the number of decimals used to get its user representation. For example, if `decimals` equals `2`, a balance of `505` tokens should be displayed to a user as `5,05` (`505 / 10 ** 2`). Tokens usually opt for a value of 18, imitating the relationship between Ether and Wei. This is the value {ERC20} uses, unless {_setupDecimals} is called."
      },
      "decreaseAllowance(address,uint256)": {
        "details": "Atomically decreases the allowance granted to `spender` by the caller. This is an alternative to {approve} that can be used as a mitigation for problems described in {IERC20-approve}."
      },
      "defaultOperators()": {
        "details": "Returns the list of default operators. These accounts are operators for all token holders, even if {authorizeOperator} was never called on them. This list is immutable, but individual holders may revoke these via {revokeOperator}, in which case {isOperatorFor} will return false."
      },
      "downgrade(uint256)": {
        "details": "ISuperToken.downgrade implementation"
      },
      "getAccountActiveAgreements(address)": {
        "details": "ISuperfluidSoulbound.getAccountActiveAgreements implementation"
      },
      "getAgreementData(address,bytes32,uint256)": {
        "details": "ISuperfluidSoulbound.getAgreementData implementation"
      },
      "getAgreementStateSlot(address,address,uint256,uint256)": {
        "details": "ISuperfluidSoulbound.getAgreementState implementation"
      },
      "getCodeAddress()": {
        "details": "Get current implementation code address."
      },
      "getHost()": {
        "details": "ISuperfluidToken.getHost implementation"
      },
      "getRoleAdmin(bytes32)": {
        "details": "Returns the admin role that controls `role`. See {grantRole} and {revokeRole}. To change a role's admin, use {_setRoleAdmin}."
      },
      "getUnderlyingToken()": {
        "details": "ISuperfluidGovernance.getUnderlyingToken implementation"
      },
      "grantRole(bytes32,address)": {
        "details": "Grants `role` to `account`. If `account` had not been already granted `role`, emits a {RoleGranted} event. Requirements: - the caller must have ``role``'s admin role. May emit a {RoleGranted} event."
      },
      "granularity()": {
        "details": "Returns the smallest part of the token that is not divisible. This         means all token operations (creation, movement and destruction) must have         amounts that are a multiple of this number."
      },
      "hasRole(bytes32,address)": {
        "details": "Returns `true` if `account` has been granted `role`."
      },
      "increaseAllowance(address,uint256)": {
        "details": "Atomically increases the allowance granted to `spender` by the caller. This is an alternative to {approve} that can be used as a mitigation for problems described in {IERC20-approve}."
      },
      "initialize(address,uint8,string,string)": {
        "details": "Initialize the contract"
      },
      "isAccountCritical(address,uint256)": {
        "details": "A critical account is when availableBalance < 0",
        "params": {
          "account": "The account to check",
          "timestamp": "The time we'd like to check if the account is critical (should use future)"
        },
        "returns": {
          "isCritical": "Whether the account is critical"
        }
      },
      "isAccountCriticalNow(address)": {
        "details": "A critical account is when availableBalance < 0",
        "params": {
          "account": "The account to check"
        },
        "returns": {
          "isCritical": "Whether the account is critical"
        }
      },
      "isAccountSolvent(address,uint256)": {
        "details": "An account is insolvent when the sum of deposits for a token can't cover the negative availableBalance",
        "params": {
          "account": "The account to check",
          "timestamp": "The time we'd like to check if the account is solvent (should use future)"
        },
        "returns": {
          "isSolvent": "True if the account is solvent, false otherwise"
        }
      },
      "isAccountSolventNow(address)": {
        "details": "An account is insolvent when the sum of deposits for a token can't cover the negative availableBalance",
        "params": {
          "account": "The account to check"
        },
        "returns": {
          "isSolvent": "True if the account is solvent, false otherwise"
        }
      },
      "isOperatorFor(address,address)": {
        "details": "Returns true if an account is an operator of `tokenHolder`. Operators can send and burn tokens on behalf of their owners. All accounts are their own operator. See {operatorSend} and {operatorBurn}."
      },
      "makeLiquidationPayoutsV2(bytes32,bytes,address,bool,address,uint256,int256)": {
        "details": "ISuperfluidSoulbound.makeLiquidationPayoutsV2 implementation"
      },
      "name()": {
        "details": "Returns the name of the token."
      },
      "operationApprove(address,address,uint256)": {
        "details": "Perform ERC20 approve by host contract.",
        "params": {
          "account": "The account owner to be approved.",
          "amount": "Number of tokens to be approved.",
          "spender": "The spender of account owner's funds."
        }
      },
      "operationDowngrade(address,uint256)": {
        "details": "Downgrade ERC20 to SuperToken by host contract.",
        "params": {
          "account": "The account to be changed.",
          "amount": "Number of tokens to be downgraded (in 18 decimals)"
        }
      },
      "operationTransferFrom(address,address,address,uint256)": {
        "details": "Perform ERC20 transfer from by host contract.",
        "params": {
          "account": "The account to spend sender's funds.",
          "amount": "Number of tokens to be transferred.",
          "recipient": "The recipient of thefunds.",
          "spender": "The account where the funds is sent from."
        }
      },
      "operationUpgrade(address,uint256)": {
        "details": "Upgrade ERC20 to SuperToken by host contract.",
        "params": {
          "account": "The account to be changed.",
          "amount": "Number of tokens to be upgraded (in 18 decimals)"
        }
      },
      "operatorBurn(address,uint256,bytes,bytes)": {
        "details": "Destroys `amount` tokens from `account`, reducing the total supply. The caller must be an operator of `account`. If a send hook is registered for `account`, the corresponding function will be called with `data` and `operatorData`. See {IERC777Sender}."
      },
      "operatorSend(address,address,uint256,bytes,bytes)": {
        "details": "Moves `amount` tokens from `sender` to `recipient`. The caller must be an operator of `sender`. If send or receive hooks are registered for `sender` and `recipient`, the corresponding functions will be called with `data` and `operatorData`. See {IERC777Sender} and {IERC777Recipient}."
      },
      "proxiableUUID()": {
        "details": "Proxiable UUID marker function, this would help to avoid wrong logic      contract to be used for upgrading. NOTE: The semantics of the UUID deviates from the actual UUPS standard,       where it is equivalent of _IMPLEMENTATION_SLOT."
      },
      "realtimeBalanceOf(address,uint256)": {
        "details": "ISuperfluidSoulbound.realtimeBalanceOf implementation"
      },
      "realtimeBalanceOfNow(address)": {
        "details": "ISuperfluidSoulbound.realtimeBalanceOfNow implementation"
      },
      "renounceRole(bytes32,address)": {
        "details": "Revokes `role` from the calling account. Roles are often managed via {grantRole} and {revokeRole}: this function's purpose is to provide a mechanism for accounts to lose their privileges if they are compromised (such as when a trusted device is misplaced). If the calling account had been revoked `role`, emits a {RoleRevoked} event. Requirements: - the caller must be `account`. May emit a {RoleRevoked} event."
      },
      "revokeOperator(address)": {
        "details": "Revoke an account's operator status for the caller. See {isOperatorFor} and {defaultOperators}."
      },
      "revokeRole(bytes32,address)": {
        "details": "Revokes `role` from `account`. If `account` had been granted `role`, emits a {RoleRevoked} event. Requirements: - the caller must have ``role``'s admin role. May emit a {RoleRevoked} event."
      },
      "selfApproveFor(address,address,uint256)": {
        "details": "Give `spender`, `amount` allowance to spend the tokens of `account`."
      },
      "selfBurn(address,uint256,bytes)": {
        "details": "Burn existing tokens for the account"
      },
      "selfMint(address,uint256,bytes)": {
        "details": "Mint new tokens for the account"
      },
      "send(address,uint256,bytes)": {
        "details": "Moves `amount` tokens from the caller's account to `recipient`.If send or receive hooks are registered for the caller and `recipient`,      the corresponding functions will be called with `data` and empty      `operatorData`. See {IERC777Sender} and {IERC777Recipient}."
      },
      "settleBalance(address,int256)": {
        "details": "ISuperfluidSoulbound.settleBalance implementation"
      },
      "supportsInterface(bytes4)": {
        "details": "See {IERC165-supportsInterface}."
      },
      "symbol()": {
        "details": "Returns the symbol of the token, usually a shorter version of the name."
      },
      "terminateAgreement(bytes32,uint256)": {
        "details": "ISuperfluidSoulbound.terminateAgreement implementation"
      },
      "totalSupply()": {
        "details": "See {IERC20-totalSupply}."
      },
      "transfer(address,uint256)": {
        "details": "Moves `amount` tokens from the caller's account to `recipient`.",
        "returns": {
          "_0": "Returns Success a boolean value indicating whether the operation succeeded."
        }
      },
      "transferAll(address)": {
        "details": "Transfer all available balance from `msg.sender` to `recipient`"
      },
      "updateAgreementData(bytes32,bytes32[])": {
        "details": "ISuperfluidSoulbound.updateAgreementData implementation"
      },
      "updateAgreementStateSlot(address,uint256,bytes32[])": {
        "details": "ISuperfluidSoulbound.updateAgreementState implementation"
      },
      "upgrade(uint256)": {
        "details": "ISuperToken.upgrade implementation"
      },
      "upgradeTo(address,uint256,bytes)": {
        "details": "ISuperToken.upgradeTo implementation"
      }
    },
    "version": 1
  },
  "userdoc": {
    "kind": "user",
    "methods": {
      "isAccountCritical(address,uint256)": {
        "notice": "Check if account is critical"
      },
      "isAccountCriticalNow(address)": {
        "notice": "Check if account is critical now (current host.getNow())"
      },
      "isAccountSolvent(address,uint256)": {
        "notice": "Check if account is solvent"
      },
      "isAccountSolventNow(address)": {
        "notice": "Check if account is solvent now"
      }
    },
    "version": 1
  },
  "storageLayout": {
    "storage": [
      {
        "astId": 399,
        "contract": "contracts/ABToken.sol:ABToken",
        "label": "_initialized",
        "offset": 0,
        "slot": "0",
        "type": "t_uint8"
      },
      {
        "astId": 402,
        "contract": "contracts/ABToken.sol:ABToken",
        "label": "_initializing",
        "offset": 1,
        "slot": "0",
        "type": "t_bool"
      },
      {
        "astId": 8107,
        "contract": "contracts/ABToken.sol:ABToken",
        "label": "_inactiveAgreementBitmap",
        "offset": 0,
        "slot": "1",
        "type": "t_mapping(t_address,t_uint256)"
      },
      {
        "astId": 8112,
        "contract": "contracts/ABToken.sol:ABToken",
        "label": "_sharedSettledBalances",
        "offset": 0,
        "slot": "2",
        "type": "t_mapping(t_address,t_int256)"
      },
      {
        "astId": 8115,
        "contract": "contracts/ABToken.sol:ABToken",
        "label": "_totalSupply",
        "offset": 0,
        "slot": "3",
        "type": "t_uint256"
      },
      {
        "astId": 8117,
        "contract": "contracts/ABToken.sol:ABToken",
        "label": "_reserve4",
        "offset": 0,
        "slot": "4",
        "type": "t_uint256"
      },
      {
        "astId": 8119,
        "contract": "contracts/ABToken.sol:ABToken",
        "label": "_reserve5",
        "offset": 0,
        "slot": "5",
        "type": "t_uint256"
      },
      {
        "astId": 8121,
        "contract": "contracts/ABToken.sol:ABToken",
        "label": "_reserve6",
        "offset": 0,
        "slot": "6",
        "type": "t_uint256"
      },
      {
        "astId": 8123,
        "contract": "contracts/ABToken.sol:ABToken",
        "label": "_reserve7",
        "offset": 0,
        "slot": "7",
        "type": "t_uint256"
      },
      {
        "astId": 8125,
        "contract": "contracts/ABToken.sol:ABToken",
        "label": "_reserve8",
        "offset": 0,
        "slot": "8",
        "type": "t_uint256"
      },
      {
        "astId": 8127,
        "contract": "contracts/ABToken.sol:ABToken",
        "label": "_reserve9",
        "offset": 0,
        "slot": "9",
        "type": "t_uint256"
      },
      {
        "astId": 8129,
        "contract": "contracts/ABToken.sol:ABToken",
        "label": "_reserve10",
        "offset": 0,
        "slot": "10",
        "type": "t_uint256"
      },
      {
        "astId": 8131,
        "contract": "contracts/ABToken.sol:ABToken",
        "label": "_reserve11",
        "offset": 0,
        "slot": "11",
        "type": "t_uint256"
      },
      {
        "astId": 8133,
        "contract": "contracts/ABToken.sol:ABToken",
        "label": "_reserve12",
        "offset": 0,
        "slot": "12",
        "type": "t_uint256"
      },
      {
        "astId": 8135,
        "contract": "contracts/ABToken.sol:ABToken",
        "label": "_reserve13",
        "offset": 0,
        "slot": "13",
        "type": "t_uint256"
      },
      {
        "astId": 8140,
        "contract": "contracts/ABToken.sol:ABToken",
        "label": "allowedIds",
        "offset": 0,
        "slot": "14",
        "type": "t_mapping(t_bytes32,t_bool)"
      },
      {
        "astId": 8142,
        "contract": "contracts/ABToken.sol:ABToken",
        "label": "_admin",
        "offset": 0,
        "slot": "15",
        "type": "t_address"
      },
      {
        "astId": 6884,
        "contract": "contracts/ABToken.sol:ABToken",
        "label": "_underlyingToken",
        "offset": 0,
        "slot": "16",
        "type": "t_contract(IERC20)621"
      },
      {
        "astId": 6887,
        "contract": "contracts/ABToken.sol:ABToken",
        "label": "_underlyingDecimals",
        "offset": 20,
        "slot": "16",
        "type": "t_uint8"
      },
      {
        "astId": 6890,
        "contract": "contracts/ABToken.sol:ABToken",
        "label": "_name",
        "offset": 0,
        "slot": "17",
        "type": "t_string_storage"
      },
      {
        "astId": 6893,
        "contract": "contracts/ABToken.sol:ABToken",
        "label": "_symbol",
        "offset": 0,
        "slot": "18",
        "type": "t_string_storage"
      },
      {
        "astId": 6900,
        "contract": "contracts/ABToken.sol:ABToken",
        "label": "_allowances",
        "offset": 0,
        "slot": "19",
        "type": "t_mapping(t_address,t_mapping(t_address,t_uint256))"
      },
      {
        "astId": 6904,
        "contract": "contracts/ABToken.sol:ABToken",
        "label": "_operators",
        "offset": 0,
        "slot": "20",
        "type": "t_struct(Operators)6179_storage"
      },
      {
        "astId": 6906,
        "contract": "contracts/ABToken.sol:ABToken",
        "label": "_reserve22",
        "offset": 0,
        "slot": "24",
        "type": "t_uint256"
      },
      {
        "astId": 6908,
        "contract": "contracts/ABToken.sol:ABToken",
        "label": "_reserve23",
        "offset": 0,
        "slot": "25",
        "type": "t_uint256"
      },
      {
        "astId": 6910,
        "contract": "contracts/ABToken.sol:ABToken",
        "label": "_reserve24",
        "offset": 0,
        "slot": "26",
        "type": "t_uint256"
      },
      {
        "astId": 6912,
        "contract": "contracts/ABToken.sol:ABToken",
        "label": "_reserve25",
        "offset": 0,
        "slot": "27",
        "type": "t_uint256"
      },
      {
        "astId": 6914,
        "contract": "contracts/ABToken.sol:ABToken",
        "label": "_reserve26",
        "offset": 0,
        "slot": "28",
        "type": "t_uint256"
      },
      {
        "astId": 6916,
        "contract": "contracts/ABToken.sol:ABToken",
        "label": "_reserve27",
        "offset": 0,
        "slot": "29",
        "type": "t_uint256"
      },
      {
        "astId": 6918,
        "contract": "contracts/ABToken.sol:ABToken",
        "label": "_reserve28",
        "offset": 0,
        "slot": "30",
        "type": "t_uint256"
      },
      {
        "astId": 6920,
        "contract": "contracts/ABToken.sol:ABToken",
        "label": "_reserve29",
        "offset": 0,
        "slot": "31",
        "type": "t_uint256"
      },
      {
        "astId": 6922,
        "contract": "contracts/ABToken.sol:ABToken",
        "label": "_reserve30",
        "offset": 0,
        "slot": "32",
        "type": "t_uint256"
      },
      {
        "astId": 6924,
        "contract": "contracts/ABToken.sol:ABToken",
        "label": "_reserve31",
        "offset": 0,
        "slot": "33",
        "type": "t_uint256"
      },
      {
        "astId": 24,
        "contract": "contracts/ABToken.sol:ABToken",
        "label": "_roles",
        "offset": 0,
        "slot": "34",
        "type": "t_mapping(t_bytes32,t_struct(RoleData)19_storage)"
      },
      {
        "astId": 6703,
        "contract": "contracts/ABToken.sol:ABToken",
        "label": "store",
        "offset": 0,
        "slot": "35",
        "type": "t_address"
      }
    ],
    "types": {
      "t_address": {
        "encoding": "inplace",
        "label": "address",
        "numberOfBytes": "20"
      },
      "t_array(t_address)dyn_storage": {
        "base": "t_address",
        "encoding": "dynamic_array",
        "label": "address[]",
        "numberOfBytes": "32"
      },
      "t_bool": {
        "encoding": "inplace",
        "label": "bool",
        "numberOfBytes": "1"
      },
      "t_bytes32": {
        "encoding": "inplace",
        "label": "bytes32",
        "numberOfBytes": "32"
      },
      "t_contract(IERC20)621": {
        "encoding": "inplace",
        "label": "contract IERC20",
        "numberOfBytes": "20"
      },
      "t_int256": {
        "encoding": "inplace",
        "label": "int256",
        "numberOfBytes": "32"
      },
      "t_mapping(t_address,t_bool)": {
        "encoding": "mapping",
        "key": "t_address",
        "label": "mapping(address => bool)",
        "numberOfBytes": "32",
        "value": "t_bool"
      },
      "t_mapping(t_address,t_int256)": {
        "encoding": "mapping",
        "key": "t_address",
        "label": "mapping(address => int256)",
        "numberOfBytes": "32",
        "value": "t_int256"
      },
      "t_mapping(t_address,t_mapping(t_address,t_bool))": {
        "encoding": "mapping",
        "key": "t_address",
        "label": "mapping(address => mapping(address => bool))",
        "numberOfBytes": "32",
        "value": "t_mapping(t_address,t_bool)"
      },
      "t_mapping(t_address,t_mapping(t_address,t_uint256))": {
        "encoding": "mapping",
        "key": "t_address",
        "label": "mapping(address => mapping(address => uint256))",
        "numberOfBytes": "32",
        "value": "t_mapping(t_address,t_uint256)"
      },
      "t_mapping(t_address,t_uint256)": {
        "encoding": "mapping",
        "key": "t_address",
        "label": "mapping(address => uint256)",
        "numberOfBytes": "32",
        "value": "t_uint256"
      },
      "t_mapping(t_bytes32,t_bool)": {
        "encoding": "mapping",
        "key": "t_bytes32",
        "label": "mapping(bytes32 => bool)",
        "numberOfBytes": "32",
        "value": "t_bool"
      },
      "t_mapping(t_bytes32,t_struct(RoleData)19_storage)": {
        "encoding": "mapping",
        "key": "t_bytes32",
        "label": "mapping(bytes32 => struct AccessControl.RoleData)",
        "numberOfBytes": "32",
        "value": "t_struct(RoleData)19_storage"
      },
      "t_string_storage": {
        "encoding": "bytes",
        "label": "string",
        "numberOfBytes": "32"
      },
      "t_struct(Operators)6179_storage": {
        "encoding": "inplace",
        "label": "struct ERC777Helper.Operators",
        "members": [
          {
            "astId": 6162,
            "contract": "contracts/ABToken.sol:ABToken",
            "label": "defaultOperatorsArray",
            "offset": 0,
            "slot": "0",
            "type": "t_array(t_address)dyn_storage"
          },
          {
            "astId": 6166,
            "contract": "contracts/ABToken.sol:ABToken",
            "label": "defaultOperators",
            "offset": 0,
            "slot": "1",
            "type": "t_mapping(t_address,t_bool)"
          },
          {
            "astId": 6172,
            "contract": "contracts/ABToken.sol:ABToken",
            "label": "operators",
            "offset": 0,
            "slot": "2",
            "type": "t_mapping(t_address,t_mapping(t_address,t_bool))"
          },
          {
            "astId": 6178,
            "contract": "contracts/ABToken.sol:ABToken",
            "label": "revokedDefaultOperators",
            "offset": 0,
            "slot": "3",
            "type": "t_mapping(t_address,t_mapping(t_address,t_bool))"
          }
        ],
        "numberOfBytes": "128"
      },
      "t_struct(RoleData)19_storage": {
        "encoding": "inplace",
        "label": "struct AccessControl.RoleData",
        "members": [
          {
            "astId": 16,
            "contract": "contracts/ABToken.sol:ABToken",
            "label": "members",
            "offset": 0,
            "slot": "0",
            "type": "t_mapping(t_address,t_bool)"
          },
          {
            "astId": 18,
            "contract": "contracts/ABToken.sol:ABToken",
            "label": "adminRole",
            "offset": 0,
            "slot": "1",
            "type": "t_bytes32"
          }
        ],
        "numberOfBytes": "64"
      },
      "t_uint256": {
        "encoding": "inplace",
        "label": "uint256",
        "numberOfBytes": "32"
      },
      "t_uint8": {
        "encoding": "inplace",
        "label": "uint8",
        "numberOfBytes": "1"
      }
    }
  }
}