{
  "address": "0x1bB47077839eA70C6E8aFeEA9F63D9CA073B3a19",
  "abi": [
    {
      "inputs": [],
      "stateMutability": "nonpayable",
      "type": "constructor"
    },
    {
      "inputs": [],
      "name": "Initialized",
      "type": "error"
    },
    {
      "inputs": [],
      "name": "NOT_BURNER",
      "type": "error"
    },
    {
      "inputs": [],
      "name": "NOT_MINTER",
      "type": "error"
    },
    {
      "inputs": [],
      "name": "NOT_TRANSFERABLE",
      "type": "error"
    },
    {
      "inputs": [],
      "name": "ZeroAddress",
      "type": "error"
    },
    {
      "anonymous": false,
      "inputs": [
        {
          "indexed": true,
          "internalType": "bytes32",
          "name": "role",
          "type": "bytes32"
        },
        {
          "indexed": true,
          "internalType": "bytes32",
          "name": "previousAdminRole",
          "type": "bytes32"
        },
        {
          "indexed": true,
          "internalType": "bytes32",
          "name": "newAdminRole",
          "type": "bytes32"
        }
      ],
      "name": "RoleAdminChanged",
      "type": "event"
    },
    {
      "anonymous": false,
      "inputs": [
        {
          "indexed": true,
          "internalType": "bytes32",
          "name": "role",
          "type": "bytes32"
        },
        {
          "indexed": true,
          "internalType": "address",
          "name": "account",
          "type": "address"
        },
        {
          "indexed": true,
          "internalType": "address",
          "name": "sender",
          "type": "address"
        }
      ],
      "name": "RoleGranted",
      "type": "event"
    },
    {
      "anonymous": false,
      "inputs": [
        {
          "indexed": true,
          "internalType": "bytes32",
          "name": "role",
          "type": "bytes32"
        },
        {
          "indexed": true,
          "internalType": "address",
          "name": "account",
          "type": "address"
        },
        {
          "indexed": true,
          "internalType": "address",
          "name": "sender",
          "type": "address"
        }
      ],
      "name": "RoleRevoked",
      "type": "event"
    },
    {
      "stateMutability": "payable",
      "type": "fallback"
    },
    {
      "inputs": [],
      "name": "BURNER",
      "outputs": [
        {
          "internalType": "bytes32",
          "name": "",
          "type": "bytes32"
        }
      ],
      "stateMutability": "view",
      "type": "function"
    },
    {
      "inputs": [],
      "name": "DEFAULT_ADMIN_ROLE",
      "outputs": [
        {
          "internalType": "bytes32",
          "name": "",
          "type": "bytes32"
        }
      ],
      "stateMutability": "view",
      "type": "function"
    },
    {
      "inputs": [],
      "name": "MINTER",
      "outputs": [
        {
          "internalType": "bytes32",
          "name": "",
          "type": "bytes32"
        }
      ],
      "stateMutability": "view",
      "type": "function"
    },
    {
      "inputs": [
        {
          "internalType": "uint256",
          "name": "amount",
          "type": "uint256"
        },
        {
          "internalType": "bytes",
          "name": "userData",
          "type": "bytes"
        }
      ],
      "name": "burn",
      "outputs": [],
      "stateMutability": "nonpayable",
      "type": "function"
    },
    {
      "inputs": [
        {
          "internalType": "bytes32",
          "name": "role",
          "type": "bytes32"
        }
      ],
      "name": "getRoleAdmin",
      "outputs": [
        {
          "internalType": "bytes32",
          "name": "",
          "type": "bytes32"
        }
      ],
      "stateMutability": "view",
      "type": "function"
    },
    {
      "inputs": [
        {
          "internalType": "bytes32",
          "name": "role",
          "type": "bytes32"
        },
        {
          "internalType": "address",
          "name": "account",
          "type": "address"
        }
      ],
      "name": "grantRole",
      "outputs": [],
      "stateMutability": "nonpayable",
      "type": "function"
    },
    {
      "inputs": [
        {
          "internalType": "bytes32",
          "name": "role",
          "type": "bytes32"
        },
        {
          "internalType": "address",
          "name": "account",
          "type": "address"
        }
      ],
      "name": "hasRole",
      "outputs": [
        {
          "internalType": "bool",
          "name": "",
          "type": "bool"
        }
      ],
      "stateMutability": "view",
      "type": "function"
    },
    {
      "inputs": [
        {
          "internalType": "string",
          "name": "name",
          "type": "string"
        },
        {
          "internalType": "string",
          "name": "symbol",
          "type": "string"
        },
        {
          "internalType": "address",
          "name": "factory",
          "type": "address"
        }
      ],
      "name": "initialize",
      "outputs": [],
      "stateMutability": "nonpayable",
      "type": "function"
    },
    {
      "inputs": [
        {
          "internalType": "address",
          "name": "initialAddress",
          "type": "address"
        }
      ],
      "name": "initializeProxy",
      "outputs": [],
      "stateMutability": "nonpayable",
      "type": "function"
    },
    {
      "inputs": [
        {
          "internalType": "address",
          "name": "receiver",
          "type": "address"
        },
        {
          "internalType": "uint256",
          "name": "amount",
          "type": "uint256"
        },
        {
          "internalType": "bytes",
          "name": "userData",
          "type": "bytes"
        }
      ],
      "name": "mint",
      "outputs": [],
      "stateMutability": "nonpayable",
      "type": "function"
    },
    {
      "inputs": [
        {
          "internalType": "bytes32",
          "name": "role",
          "type": "bytes32"
        },
        {
          "internalType": "address",
          "name": "account",
          "type": "address"
        }
      ],
      "name": "renounceRole",
      "outputs": [],
      "stateMutability": "nonpayable",
      "type": "function"
    },
    {
      "inputs": [
        {
          "internalType": "bytes32",
          "name": "role",
          "type": "bytes32"
        },
        {
          "internalType": "address",
          "name": "account",
          "type": "address"
        }
      ],
      "name": "revokeRole",
      "outputs": [],
      "stateMutability": "nonpayable",
      "type": "function"
    },
    {
      "inputs": [
        {
          "internalType": "bytes4",
          "name": "interfaceId",
          "type": "bytes4"
        }
      ],
      "name": "supportsInterface",
      "outputs": [
        {
          "internalType": "bool",
          "name": "",
          "type": "bool"
        }
      ],
      "stateMutability": "view",
      "type": "function"
    },
    {
      "stateMutability": "payable",
      "type": "receive"
    }
  ],
  "transactionHash": "0x6f81cd2764c8bab0085cad0ee12f7b6f672d851c3768e962f3e2f61a62ed8b2b",
  "args": [],
  "numDeployments": 1,
  "solcInputHash": "07d36781719cdfded60fd13f5d0ea4e1",
  "bytecode": "0x608060405234801561001057600080fd5b506100246000801b3361002960201b60201c565b610189565b610039828261011660201b60201c565b6101125760016020600084815260200190815260200160002060000160008373ffffffffffffffffffffffffffffffffffffffff1673ffffffffffffffffffffffffffffffffffffffff16815260200190815260200160002060006101000a81548160ff0219169083151502179055506100b761018160201b60201c565b73ffffffffffffffffffffffffffffffffffffffff168173ffffffffffffffffffffffffffffffffffffffff16837f2f8788117e7eff1d82e926ec794901d17c78024a50270940304540a733656f0d60405160405180910390a45b5050565b60006020600084815260200190815260200160002060000160008373ffffffffffffffffffffffffffffffffffffffff1673ffffffffffffffffffffffffffffffffffffffff16815260200190815260200160002060009054906101000a900460ff16905092915050565b600033905090565b6119a880620001996000396000f3fe6080604052600436106100c65760003560e01c80634a0687ef1161007f578063a217fddf11610059578063a217fddf1461028e578063d547741f146102b9578063fe6d8124146102e2578063fe9d93031461030d576100d5565b80634a0687ef146101ff57806391d148541461022857806394d008ef14610265576100d5565b806301ffc9a7146100df578063077f224a1461011c578063118c4f1314610145578063248a9ca3146101705780632f2ff15d146101ad57806336568abe146101d6576100d5565b366100d5576100d3610336565b005b6100dd610336565b005b3480156100eb57600080fd5b5061010660048036038101906101019190610e91565b610350565b6040516101139190610ed9565b60405180910390f35b34801561012857600080fd5b50610143600480360381019061013e9190611098565b6103ca565b005b34801561015157600080fd5b5061015a6103da565b604051610167919061113c565b60405180910390f35b34801561017c57600080fd5b5061019760048036038101906101929190611183565b6103fe565b6040516101a4919061113c565b60405180910390f35b3480156101b957600080fd5b506101d460048036038101906101cf91906111b0565b61041e565b005b3480156101e257600080fd5b506101fd60048036038101906101f891906111b0565b61043f565b005b34801561020b57600080fd5b50610226600480360381019061022191906111f0565b6104c2565b005b34801561023457600080fd5b5061024f600480360381019061024a91906111b0565b6105bb565b60405161025c9190610ed9565b60405180910390f35b34801561027157600080fd5b5061028c600480360381019061028791906112f4565b610626565b005b34801561029a57600080fd5b506102a3610661565b6040516102b0919061113c565b60405180910390f35b3480156102c557600080fd5b506102e060048036038101906102db91906111b0565b610668565b005b3480156102ee57600080fd5b506102f7610689565b604051610304919061113c565b60405180910390f35b34801561031957600080fd5b50610334600480360381019061032f9190611363565b6106ad565b005b61033e6106e7565b61034e6103496106e9565b610712565b565b60007f7965db0b000000000000000000000000000000000000000000000000000000007bffffffffffffffffffffffffffffffffffffffffffffffffffffffff1916827bffffffffffffffffffffffffffffffffffffffffffffffffffffffff191614806103c357506103c282610738565b5b9050919050565b6103d58383836107a2565b505050565b7f9667e80708b6eeeb0053fa0cca44e028ff548e2a9f029edfeac87c118b08b7c881565b600060206000838152602001908152602001600020600101549050919050565b610427826103fe565b61043081610885565b61043a8383610899565b505050565b61044761097a565b73ffffffffffffffffffffffffffffffffffffffff168173ffffffffffffffffffffffffffffffffffffffff16146104b4576040517f08c379a00000000000000000000000000000000000000000000000000000000081526004016104ab90611442565b60405180910390fd5b6104be8282610982565b5050565b600073ffffffffffffffffffffffffffffffffffffffff168173ffffffffffffffffffffffffffffffffffffffff1603610528576040517fd92e233d00000000000000000000000000000000000000000000000000000000815260040160405180910390fd5b600073ffffffffffffffffffffffffffffffffffffffff166105486106e9565b73ffffffffffffffffffffffffffffffffffffffff1614610595576040517f5daa87a000000000000000000000000000000000000000000000000000000000815260040160405180910390fd5b807f360894a13ba1a3210667c828492db98dca3e2076cc3735a920a3ca505d382bbc5550565b60006020600084815260200190815260200160002060000160008373ffffffffffffffffffffffffffffffffffffffff1673ffffffffffffffffffffffffffffffffffffffff16815260200190815260200160002060009054906101000a900460ff16905092915050565b7ff0887ba65ee2024ea881d91b74c2450ef19e1557f03bed3ea9f16b037cbe2dc961065081610885565b61065b848484610a64565b50505050565b6000801b81565b610671826103fe565b61067a81610885565b6106848383610982565b505050565b7ff0887ba65ee2024ea881d91b74c2450ef19e1557f03bed3ea9f16b037cbe2dc981565b7f9667e80708b6eeeb0053fa0cca44e028ff548e2a9f029edfeac87c118b08b7c86106d781610885565b6106e2338484610ad8565b505050565b565b60007f360894a13ba1a3210667c828492db98dca3e2076cc3735a920a3ca505d382bbc54905090565b3660008037600080366000845af43d6000803e8060008114610733573d6000f35b3d6000fd5b60007f01ffc9a7000000000000000000000000000000000000000000000000000000007bffffffffffffffffffffffffffffffffffffffffffffffffffffffff1916827bffffffffffffffffffffffffffffffffffffffffffffffffffffffff1916149050919050565b8073ffffffffffffffffffffffffffffffffffffffff1663d412d344306040518263ffffffff1660e01b81526004016107db9190611471565b600060405180830381600087803b1580156107f557600080fd5b505af1158015610809573d6000803e3d6000fd5b505050503073ffffffffffffffffffffffffffffffffffffffff166342fe09806000601286866040518563ffffffff1660e01b815260040161084e94939291906115aa565b600060405180830381600087803b15801561086857600080fd5b505af115801561087c573d6000803e3d6000fd5b50505050505050565b6108968161089161097a565b610b4c565b50565b6108a382826105bb565b6109765760016020600084815260200190815260200160002060000160008373ffffffffffffffffffffffffffffffffffffffff1673ffffffffffffffffffffffffffffffffffffffff16815260200190815260200160002060006101000a81548160ff02191690831515021790555061091b61097a565b73ffffffffffffffffffffffffffffffffffffffff168173ffffffffffffffffffffffffffffffffffffffff16837f2f8788117e7eff1d82e926ec794901d17c78024a50270940304540a733656f0d60405160405180910390a45b5050565b600033905090565b61098c82826105bb565b15610a605760006020600084815260200190815260200160002060000160008373ffffffffffffffffffffffffffffffffffffffff1673ffffffffffffffffffffffffffffffffffffffff16815260200190815260200160002060006101000a81548160ff021916908315150217905550610a0561097a565b73ffffffffffffffffffffffffffffffffffffffff168173ffffffffffffffffffffffffffffffffffffffff16837ff6391f5c32d9c69d2a47ea670b442974b53935d1edc7fd64eb21e047a839171b60405160405180910390a45b5050565b3073ffffffffffffffffffffffffffffffffffffffff1663c68d42838484846040518463ffffffff1660e01b8152600401610aa193929190611661565b600060405180830381600087803b158015610abb57600080fd5b505af1158015610acf573d6000803e3d6000fd5b50505050505050565b3073ffffffffffffffffffffffffffffffffffffffff16639d8767418484846040518463ffffffff1660e01b8152600401610b1593929190611661565b600060405180830381600087803b158015610b2f57600080fd5b505af1158015610b43573d6000803e3d6000fd5b50505050505050565b610b5682826105bb565b610be557610b7b8173ffffffffffffffffffffffffffffffffffffffff166014610be9565b610b898360001c6020610be9565b604051602001610b9a929190611773565b6040516020818303038152906040526040517f08c379a0000000000000000000000000000000000000000000000000000000008152600401610bdc91906117ad565b60405180910390fd5b5050565b606060006002836002610bfc91906117fe565b610c069190611858565b67ffffffffffffffff811115610c1f57610c1e610f0f565b5b6040519080825280601f01601f191660200182016040528015610c515781602001600182028036833780820191505090505b5090507f300000000000000000000000000000000000000000000000000000000000000081600081518110610c8957610c886118ae565b5b60200101907effffffffffffffffffffffffffffffffffffffffffffffffffffffffffffff1916908160001a9053507f780000000000000000000000000000000000000000000000000000000000000081600181518110610ced57610cec6118ae565b5b60200101907effffffffffffffffffffffffffffffffffffffffffffffffffffffffffffff1916908160001a90535060006001846002610d2d91906117fe565b610d379190611858565b90505b6001811115610dd7577f3031323334353637383961626364656600000000000000000000000000000000600f861660108110610d7957610d786118ae565b5b1a60f81b828281518110610d9057610d8f6118ae565b5b60200101907effffffffffffffffffffffffffffffffffffffffffffffffffffffffffffff1916908160001a905350600485901c945080610dd0906118dd565b9050610d3a565b5060008414610e1b576040517f08c379a0000000000000000000000000000000000000000000000000000000008152600401610e1290611952565b60405180910390fd5b8091505092915050565b6000604051905090565b600080fd5b600080fd5b60007fffffffff0000000000000000000000000000000000000000000000000000000082169050919050565b610e6e81610e39565b8114610e7957600080fd5b50565b600081359050610e8b81610e65565b92915050565b600060208284031215610ea757610ea6610e2f565b5b6000610eb584828501610e7c565b91505092915050565b60008115159050919050565b610ed381610ebe565b82525050565b6000602082019050610eee6000830184610eca565b92915050565b600080fd5b600080fd5b6000601f19601f8301169050919050565b7f4e487b7100000000000000000000000000000000000000000000000000000000600052604160045260246000fd5b610f4782610efe565b810181811067ffffffffffffffff82111715610f6657610f65610f0f565b5b80604052505050565b6000610f79610e25565b9050610f858282610f3e565b919050565b600067ffffffffffffffff821115610fa557610fa4610f0f565b5b610fae82610efe565b9050602081019050919050565b82818337600083830152505050565b6000610fdd610fd884610f8a565b610f6f565b905082815260208101848484011115610ff957610ff8610ef9565b5b611004848285610fbb565b509392505050565b600082601f83011261102157611020610ef4565b5b8135611031848260208601610fca565b91505092915050565b600073ffffffffffffffffffffffffffffffffffffffff82169050919050565b60006110658261103a565b9050919050565b6110758161105a565b811461108057600080fd5b50565b6000813590506110928161106c565b92915050565b6000806000606084860312156110b1576110b0610e2f565b5b600084013567ffffffffffffffff8111156110cf576110ce610e34565b5b6110db8682870161100c565b935050602084013567ffffffffffffffff8111156110fc576110fb610e34565b5b6111088682870161100c565b925050604061111986828701611083565b9150509250925092565b6000819050919050565b61113681611123565b82525050565b6000602082019050611151600083018461112d565b92915050565b61116081611123565b811461116b57600080fd5b50565b60008135905061117d81611157565b92915050565b60006020828403121561119957611198610e2f565b5b60006111a78482850161116e565b91505092915050565b600080604083850312156111c7576111c6610e2f565b5b60006111d58582860161116e565b92505060206111e685828601611083565b9150509250929050565b60006020828403121561120657611205610e2f565b5b600061121484828501611083565b91505092915050565b6000819050919050565b6112308161121d565b811461123b57600080fd5b50565b60008135905061124d81611227565b92915050565b600067ffffffffffffffff82111561126e5761126d610f0f565b5b61127782610efe565b9050602081019050919050565b600061129761129284611253565b610f6f565b9050828152602081018484840111156112b3576112b2610ef9565b5b6112be848285610fbb565b509392505050565b600082601f8301126112db576112da610ef4565b5b81356112eb848260208601611284565b91505092915050565b60008060006060848603121561130d5761130c610e2f565b5b600061131b86828701611083565b935050602061132c8682870161123e565b925050604084013567ffffffffffffffff81111561134d5761134c610e34565b5b611359868287016112c6565b9150509250925092565b6000806040838503121561137a57611379610e2f565b5b60006113888582860161123e565b925050602083013567ffffffffffffffff8111156113a9576113a8610e34565b5b6113b5858286016112c6565b9150509250929050565b600082825260208201905092915050565b7f416363657373436f6e74726f6c3a2063616e206f6e6c792072656e6f756e636560008201527f20726f6c657320666f722073656c660000000000000000000000000000000000602082015250565b600061142c602f836113bf565b9150611437826113d0565b604082019050919050565b6000602082019050818103600083015261145b8161141f565b9050919050565b61146b8161105a565b82525050565b60006020820190506114866000830184611462565b92915050565b6000819050919050565b60006114b16114ac6114a78461103a565b61148c565b61103a565b9050919050565b60006114c382611496565b9050919050565b60006114d5826114b8565b9050919050565b6114e5816114ca565b82525050565b6000819050919050565b600060ff82169050919050565b600061151d611518611513846114eb565b61148c565b6114f5565b9050919050565b61152d81611502565b82525050565b600081519050919050565b60005b8381101561155c578082015181840152602081019050611541565b8381111561156b576000848401525b50505050565b600061157c82611533565b61158681856113bf565b935061159681856020860161153e565b61159f81610efe565b840191505092915050565b60006080820190506115bf60008301876114dc565b6115cc6020830186611524565b81810360408301526115de8185611571565b905081810360608301526115f28184611571565b905095945050505050565b6116068161121d565b82525050565b600081519050919050565b600082825260208201905092915050565b60006116338261160c565b61163d8185611617565b935061164d81856020860161153e565b61165681610efe565b840191505092915050565b60006060820190506116766000830186611462565b61168360208301856115fd565b81810360408301526116958184611628565b9050949350505050565b600081905092915050565b7f416363657373436f6e74726f6c3a206163636f756e7420000000000000000000600082015250565b60006116e060178361169f565b91506116eb826116aa565b601782019050919050565b600061170182611533565b61170b818561169f565b935061171b81856020860161153e565b80840191505092915050565b7f206973206d697373696e6720726f6c6520000000000000000000000000000000600082015250565b600061175d60118361169f565b915061176882611727565b601182019050919050565b600061177e826116d3565b915061178a82856116f6565b915061179582611750565b91506117a182846116f6565b91508190509392505050565b600060208201905081810360008301526117c78184611571565b905092915050565b7f4e487b7100000000000000000000000000000000000000000000000000000000600052601160045260246000fd5b60006118098261121d565b91506118148361121d565b9250817fffffffffffffffffffffffffffffffffffffffffffffffffffffffffffffffff048311821515161561184d5761184c6117cf565b5b828202905092915050565b60006118638261121d565b915061186e8361121d565b9250827fffffffffffffffffffffffffffffffffffffffffffffffffffffffffffffffff038211156118a3576118a26117cf565b5b828201905092915050565b7f4e487b7100000000000000000000000000000000000000000000000000000000600052603260045260246000fd5b60006118e88261121d565b9150600082036118fb576118fa6117cf565b5b600182039050919050565b7f537472696e67733a20686578206c656e67746820696e73756666696369656e74600082015250565b600061193c6020836113bf565b915061194782611906565b602082019050919050565b6000602082019050818103600083015261196b8161192f565b905091905056fea2646970667358221220f92e688ed74b52a4d7eeb7d3ada11f55bb6a200c3dc66bdcd4ef86a7b5c8f8e164736f6c634300080e0033",
  "devdoc": {
    "kind": "dev",
    "methods": {
      "burn(uint256,bytes)": {
        "params": {
          "amount": "Amount to burn"
        }
      },
      "getRoleAdmin(bytes32)": {
        "details": "Returns the admin role that controls `role`. See {grantRole} and {revokeRole}. To change a role's admin, use {_setRoleAdmin}."
      },
      "grantRole(bytes32,address)": {
        "details": "Grants `role` to `account`. If `account` had not been already granted `role`, emits a {RoleGranted} event. Requirements: - the caller must have ``role``'s admin role. May emit a {RoleGranted} event."
      },
      "hasRole(bytes32,address)": {
        "details": "Returns `true` if `account` has been granted `role`."
      },
      "initialize(string,string,address)": {
        "params": {
          "factory": "Super token factory for initialization",
          "name": "Name of Super Token",
          "symbol": "Symbol of Super Token"
        }
      },
      "initializeProxy(address)": {
        "details": "Called by the SuperTokenFactory contract on upgrade",
        "params": {
          "initialAddress": "logic contract address"
        }
      },
      "mint(address,uint256,bytes)": {
        "params": {
          "amount": "Amount to mint",
          "receiver": "Receiver of minted tokens"
        }
      },
      "renounceRole(bytes32,address)": {
        "details": "Revokes `role` from the calling account. Roles are often managed via {grantRole} and {revokeRole}: this function's purpose is to provide a mechanism for accounts to lose their privileges if they are compromised (such as when a trusted device is misplaced). If the calling account had been revoked `role`, emits a {RoleRevoked} event. Requirements: - the caller must be `account`. May emit a {RoleRevoked} event."
      },
      "revokeRole(bytes32,address)": {
        "details": "Revokes `role` from `account`. If `account` had been granted `role`, emits a {RoleRevoked} event. Requirements: - the caller must have ``role``'s admin role. May emit a {RoleRevoked} event."
      },
      "supportsInterface(bytes4)": {
        "details": "See {IERC165-supportsInterface}."
      }
    },
    "version": 1
  },
  "userdoc": {
    "errors": {
      "Initialized()": [
        {
          "notice": "Thrown when the logic contract has been set"
        }
      ],
      "ZeroAddress()": [
        {
          "notice": "Thrown when the logic contract address is zero"
        }
      ]
    },
    "kind": "user",
    "methods": {
      "burn(uint256,bytes)": {
        "notice": "Burns from message sender"
      },
      "initialize(string,string,address)": {
        "notice": "Initializer, used AFTER factory upgrade"
      },
      "initializeProxy(address)": {
        "notice": "Stores the logic contract address only once."
      },
      "mint(address,uint256,bytes)": {
        "notice": "Mints tokens, only the owner may do this"
      }
    },
    "version": 1
  },
  "storageLayout": {
    "storage": [
      {
        "astId": 3406,
        "contract": "contracts/SuperSoulbound.sol:SuperSoulbound",
        "label": "_storagePaddings",
        "offset": 0,
        "slot": "0",
        "type": "t_array(t_uint256)32_storage"
      },
      {
        "astId": 24,
        "contract": "contracts/SuperSoulbound.sol:SuperSoulbound",
        "label": "_roles",
        "offset": 0,
        "slot": "32",
        "type": "t_mapping(t_bytes32,t_struct(RoleData)19_storage)"
      }
    ],
    "types": {
      "t_address": {
        "encoding": "inplace",
        "label": "address",
        "numberOfBytes": "20"
      },
      "t_array(t_uint256)32_storage": {
        "base": "t_uint256",
        "encoding": "inplace",
        "label": "uint256[32]",
        "numberOfBytes": "1024"
      },
      "t_bool": {
        "encoding": "inplace",
        "label": "bool",
        "numberOfBytes": "1"
      },
      "t_bytes32": {
        "encoding": "inplace",
        "label": "bytes32",
        "numberOfBytes": "32"
      },
      "t_mapping(t_address,t_bool)": {
        "encoding": "mapping",
        "key": "t_address",
        "label": "mapping(address => bool)",
        "numberOfBytes": "32",
        "value": "t_bool"
      },
      "t_mapping(t_bytes32,t_struct(RoleData)19_storage)": {
        "encoding": "mapping",
        "key": "t_bytes32",
        "label": "mapping(bytes32 => struct AccessControl.RoleData)",
        "numberOfBytes": "32",
        "value": "t_struct(RoleData)19_storage"
      },
      "t_struct(RoleData)19_storage": {
        "encoding": "inplace",
        "label": "struct AccessControl.RoleData",
        "members": [
          {
            "astId": 16,
            "contract": "contracts/SuperSoulbound.sol:SuperSoulbound",
            "label": "members",
            "offset": 0,
            "slot": "0",
            "type": "t_mapping(t_address,t_bool)"
          },
          {
            "astId": 18,
            "contract": "contracts/SuperSoulbound.sol:SuperSoulbound",
            "label": "adminRole",
            "offset": 0,
            "slot": "1",
            "type": "t_bytes32"
          }
        ],
        "numberOfBytes": "64"
      },
      "t_uint256": {
        "encoding": "inplace",
        "label": "uint256",
        "numberOfBytes": "32"
      }
    }
  }
}